:10000000B1EF03F00000000000EF00F0000000007E
:0A0010000000000000000000F3D71C
:0C001C00060E0D6E0D2EFED70000120027
:0A002800F9DF8A88F7DF8A981200DA
:06003200000000001200B6
:100038007F0E00016615016E01C066F001AC03D0A9
:0C0048008A808A9202D08A908A8212007C
:100054008A948A96B80E00016611836EE3DF12005B
:0E0064008A988A848A9666C083FFDCDF1200C9
:10007200120E006E000E016E830E0024E16E0F0E52
:100082000120E26EFF0EE66ED3DFD2DF8A848A9809
:100092008A868A88C2DF83CF66F08A988A96C8DF0A
:1000A200C7DF120E006E000E016E830E0024E16E99
:0E00B2000F0E0120E26EE66A66C000F012003A
:1000C0007F0E00016615006E00C066F08A948A9665
:1000D000BF0E001600C066F0008C00C066F000C0C5
:0600E00083FFA2DF120005
:1000E600220E0C6E086A096A0A6A0B6A0C06D8B4F4
:1000F6001FD0D8900B320A3209320832033202324C
:1001060001320032D8A0F2D70C06D8B409D0045078
:1001160008260550092206500A2207500B22EAD764
:10012600045008260550092206500A2207500B22C1
:020136001200B5
:10013800000E0001615D0AE361517F0807E3000ECC
:10014800625D04E362513F0801E301D04AD061C017
:1001580066F06EDF62C066F06633669F6633669F40
:100168006633669F73DF61C066F0A6DF7EDF00C07E
:1001780065F07BDF00C065F062C066F06633669F9D
:100188006633669F6633669F61DF61C066F094DF01
:10019800070E6215006E00C060F000C001F0010E8D
:1001A800006E015004E000360090FF0FFBD700C03E
:1001B80060F0001C646F09D0645165170FD060515E
:1001C80065130CD06051651B09D06351000AF4E037
:1001D8006351010AF4E06351020AF4E065C066F075
:0401E8003DDF1200E5
:1001EC000134083609360450085E0550D8A0053C89
:1001FC00095E003601360F0E0C6E013408360936D6
:10020C00045000A006D0085E0550D8A0053C095E3D
:10021C0005D008260550D8B0053C09260036013615
:10022C000C2EEBD700B006D0045008260550D8B0E1
:08023C00053C09260000120038
:1002440061C015F062C016F0000E176E186E010E34
:04025400196E12000D
:100258000450000A08E10550000A05E1FF0E006E8F
:100268007F0E016E57D00D6A096A086A01500010A6
:10027800D8B4000C015005180A6E0ABE0D1E0B6A90
:1002880005AE05D0041E051E042AD8B4052A01AE01
:1002980005D0001E011E002AD8B4012A01500510FD
:1002A8000A6E0ABE10D09EDF0BB020D00DAE000C37
:1002B800001E011E002AD8B4012A081E091E082A99
:1002C800D8B4092A000C05AE0DD001BE07D00150E4
:1002D800096E0050086E016A006AE8D7016A006A70
:1002E800002A000C011E001E0B2ADDD7082AD8B4EC
:1002F800092A0450085CD8A4D9D70550095CD8A4A9
:10030800D5D7096A086A002AD8B4012A01AECED71F
:060318000000FF0C1200C2
:10031E00000E5D5C04E35D503F0801E301D027D081
:10032E00000E5B5CD8A05B6A5B507F0802E27F0E1A
:10033E005B6E000E5C5CD8A05C6A5C507F0802E2CB
:10034E007F0E5C6E5B505C5C06E25BC05FF05CC077
:10035E005BF05FC05CF05B505C5C09E35BC061F01E
:10036E005DC062F05EC063F0E0DE5B2AF4D712007F
:10037E00195206E1010E0001616F000E626F5BDF24
:10038E0015C000F016C001F017C002F018C003F03F
:10039E006D0E046E4E0E056EC60E066E410E076E87
:1003AE009BDE390E0024056E300E0120066E000E07
:1003BE000220076E000E0320086E07C000F008C072
:1003CE0001F0000E08BEFF0E026E036EFF0E001649
:1003DE007F0E0116000E0216031600C015F001C0A6
:0C03EE0016F002C017F003C018F0120057
:1003FA00C1DF5650010F046E056A000E052227DF81
:0A040A0008C000F009C001F0120064
:1004140056C05BF0585056245C6E57C05DF05AC00D
:060424005EF07BDF120018
:10042A000900F5CFE6FF0006FBE10106F9E112003B
:10043A00546A350E556E536A53500C085DE353C027
:10044A0000F0000E016E0036009001360036009072
:10045A00013600505124E16E01505220E26E54C020
:10046A00E6FF53C000F0000E016E00360090013620
:10047A000036009001365150002652500122010EDA
:10048A000024E16E000E0120E26E55C0E6FF53C063
:10049A0000F0000E016E0036009001360036009022
:1004AA0001365150002652500122020E0024E16EFC
:1004BA00000E0120E26E030EE66E53C000F0000E3D
:1004CA00016E003600900136003600900136515018
:1004DA00002652500122030E0024E16E000E012074
:1004EA00E26E010EE66E7B0E566E82DF00C054F09D
:0A04FA00040E555E532AA0D712002D
:100504001C6A1A6A1B6A939A93989394939693908D
:1005140093928A9A120E006E000E016E830E0024CE
:10052400E16E0F0E0120E26EE66A8A948A968A9042
:100534008A828A8A3F0E836E75DDC00E836E72DDF9
:100544008A808A923F0E836E6DDDC00E836E6ADDF3
:02055400120093
:100556008A908A82536A535007080EE353C066F0A6
:1005660076DD526A52503F0805E351C066F077DDEA
:10057600522AF8D7532AEFD78A928A80536A535061
:1005860007080EE353C066F062DD526A52503F0818
:1005960005E351C066F063DD522AF8D7532AEFD738
:0205A600120041
:1005A800536A800E000A006E800E005C02E1535010
:1005B8000C08D8A0D1D053C000F0000E016E003650
:1005C8000090013600360090013600505124E96E43
:1005D80001505220EA6E040E006E560EE16E000EB7
:1005E800E26EEECFE6FF0006FCE15A6A0FDF010E6D
:1005F8005314016E0150010A49E153C000F0000E86
:10060800016E003600900136003600900136005029
:100618005124E96E01505220EA6EEECF01F0800EAF
:10062800000A006E800E0118005C12E353C000F04F
:10063800000E016E0036009001360036009001363B
:1006480000505124E16E01505220E26E7C0EE66E9D
:1006580053C000F0000E016E0036009001360036DF
:100668000090013600505124026E01505220036E52
:1006780002C0E9FF03C0EAFFEECF00F0000602C0A7
:10068800E1FF03C0E2FF00C0E6FF47D053C000F01F
:10069800000E016E003600900136003600900136DB
:1006A80000505124E96E01505220EA6EEECF01F05D
:1006B800800E0118006E800E7C0A005C11E353C0A6
:1006C80000F0000E016E00360090013600360090F2
:1006D800013600505124E16E01505220E26EE66A64
:1006E80053C000F0000E016E00360090013600364F
:1006F8000090013600505124026E01505220036EC2
:1007080002C0E9FF03C0EAFFEECF00F0002A02C0F2
:10071800E1FF03C0E2FF00C0E6FF53C000F0000E97
:10072800016E003600900136003600900136005008
:100738005124E96E01505220EA6E040E006E560EE6
:10074800E16E000EE26EEECFE6FF0006FCE1010E60
:0A0758005A6E5CDE532A25D712000A
:100762001D0E516E000E526E67DECBDE516AF2DE56
:100772001D0E516E000E526E16DF9C0E0C6ED70EC1
:0E0782000D6E0D2EFED70C2EFCD7F2D7FFD732
:020000040030CA
:0E000000010C1F1EFF8381FF0FC00FE00F4099
:00000001FF
