:0400000003EF05F015
:1000080000C016F001C015F0E1CF17F0E2CF18F0EC
:100018009DAA25D02A502B5C006E016A000E015A59
:1000280000C0D9F02B50000805E20001D951000AA0
:1000380001E1BADA0001780EDA6F000EDB6F2B509F
:10004800DA27D8B0DB2B05DBDAC0E1FFDBC0E2FF43
:1000580000C0E6FF2B2A2B50400A01E1A5DAF2A4E2
:100068000CD0F2940B0ED76EDC0ED66E272A020E39
:10007800275C03E3010E266E276A16C000F015C040
:0C00880001F017C0E1FF18C0E2FF1100FA
:0C009400060E0D6E0D2EFED700001200AF
:0A00A000F9DF8A88F7DF8A98120062
:0600AA000000000012003E
:1000B000120E006E000E016E830E0024E16E0F0E14
:1000C0000120E26EFF0EE66EF0DFEFDF8A848A9891
:1000D0008A868A88DFDF83CFD8F08A988A96E5DF20
:1000E000E4DF120E006E000E016E830E0024E16E3E
:0E00F0000F0E0120E26EE66AD8C000F012008A
:0E00FE008A988A848A96D8C083FFCBDF1200CE
:10010C007F0E0001D815016E01C0D8F001AC03D0F0
:0C011C008A808A9202D08A908A821200A7
:100128008A948A96B80E0001D811836EB5DF120042
:100138007F0E0001D815006E00C0D8F08A948A9608
:10014800BF0E001600C0D8F0008C00C0D8F000C068
:0601580083FFA2DF12008C
:10015E000134083609360450085E0550D8A0053C17
:10016E00095E003601360F0E0C6E01340836093664
:10017E00045000A006D0085E0550D8A0053C095ECC
:10018E0005D008260550D8B0053C092600360136A4
:10019E000C2EEBD700B006D0045008260550D8B070
:0801AE00053C092600001200C7
:1001B600D2C0B8F0D3C0B9F0000E0001BA6FBB6F61
:0601C600010EBC6F1200E7
:1001CC00220E0C6E086A096A0A6A0B6A0C06D8B40D
:1001DC001FD0D8900B320A32093208320332023265
:1001EC0001320032D8A0F2D70C06D8B409D0045092
:1001FC0008260550092206500A2207500B22EAD77E
:10020C00045008260550092206500A2207500B22DA
:02021C001200CE
:10021E00000E0001D25D0AE3D2517F0807E3000E03
:10022E00D35D04E3D3513F0801E301D04AD0D2C0DD
:10023E00D8F065DFD3C0D8F0D833D89FD833D89F45
:10024E00D833D89F6ADFD2C0D8F06FDF2ADF00C064
:10025E00D7F027DF00C0D7F0D3C0D8F0D833D89F5F
:10026E00D833D89FD833D89F58DFD2C0D8F05DDFAF
:10027E00070ED315006E00C0D5F000C001F0010EC0
:10028E00006E015004E000360090FF0FFBD700C057
:10029E00D5F0001CD66F09D0D651D7170FD0D55137
:1002AE00D7130CD0D551D71B09D0D451000AF4E086
:1002BE00D451010AF4E0D451020AF4E0D7C0D8F0C8
:0402CE0017DF120024
:1002D200000E0001CE5D04E3CE513F0801E301D0E0
:1002E20027D0000ECC5DD8A0CC6BCC517F0802E2A7
:1002F2007F0ECC6F000ECD5DD8A0CD6BCD517F08A7
:1003020002E27F0ECD6FCC51CD5D06E2CCC0D0F0C3
:10031200CDC0CCF0D0C0CDF0CC51CD5D09E3CCC086
:10032200D2F0CEC0D3F0CFC0D4F078DFCC2BF4D74C
:020332001200B7
:100334000001BC5305E1010ED26F000ED36F39DF0B
:10034400B8C000F0B9C001F0BAC002F0BBC003F0FD
:100354006D0E046E4E0E056EC60E066E410E076ED1
:1003640033DF390E0024056E300E0120066E000EB8
:100374000220076E000E0320086E07C000F008C0BC
:1003840001F0000E08BEFF0E026E036EFF0E001693
:100394007F0E0116000E0216031600C0B8F001C04D
:0C03A400B9F002C0BAF003C0BBF01200B8
:1003B000CEC004F0CFC005F0CCC002F0CDC003F039
:1003C000D0C000F0D1C001F0010E0001D05F000EDE
:1003D000D15B005001100FE004C0E9FF05C0EAFF47
:1003E00002C0E1FF03C0E2FFEECFE6FF024A032AAC
:1003F000044A052AE5D7CCC000F0CDC001F01200B8
:100400000450000A08E10550000A05E1FF0E006EE5
:100410007F0E016E57D00D6A096A086A01500010FC
:10042000D8B4000C015005180A6E0ABE0D1E0B6AE6
:1004300005AE05D0041E051E042AD8B4052A01AE57
:1004400005D0001E011E002AD8B4012A0150051053
:100450000A6E0ABE10D083DE0BB020D00DAE000CA9
:10046000001E011E002AD8B4012A081E091E082AEF
:10047000D8B4092A000C05AE0DD001BE07D001503A
:10048000096E0050086E016A006AE8D7016A006AC6
:10049000002A000C011E001E0B2ADDD7082AD8B442
:1004A000092A0450085CD8A4D9D70550095CD8A4FF
:1004B000D5D7096A086A002AD8B4012A01AECED776
:0604C0000000FF0C120019
:1004C600C7C0CBF00001CB51C95D0BE3C6C0CCF071
:1004D600C8C0CDF0CBC0CEF0CAC0CFF0F7DECB2B74
:0404E600F1D7120038
:0A04EA00000EACB2010E006E12000D
:1004F4001FDFC651010F046E056A000E05227EDF60
:0A05040008C000F009C001F0120069
:10050E00C6C0CCF0C7C0CDF0780E0001CE6F000E85
:10051E00CF6F2A50CE27D8B0CF2BC8C0D0F0C9C0CD
:10052E00D1F03FDFC8512A26C8C000F0C9C001F083
:02053E001200A9
:10054000B60E0001696F050E6A6FC60E6B6F000E66
:100550006C6F5A0E656F060E666F000E676F000EA9
:10056000686FFF0E6F6FFF0E706F000E716F000EE1
:10057000726FEA0E736F040E746F000E756F000ECB
:10058000766FAC8A900EAB6E948E949C9EAA03D02C
:08059000AECF00F0FBD7120012
:10059800C6C0CCF00001C851C625CD6FC7C0CEF08B
:0805A800CAC0CFF092DE120080
:0605B0002B6A2A6A12000A
:0E05B600ACB202D00000FCD7C6C0ADFF1200F0
:1005C4002A502B5C006E016A000E015A000E016E67
:0205D400120013
:1005D6000900F5CFE6FF0006FBE10106F9E112008E
:1005E600B886B06ACF0EAF6EAC84A7DF020E0B6E74
:1005F600040E0C6EBA0E0D6E0D2EFED70C2EFCD709
:0E0606000B2EFAD700009D8AF28CF28E1200A5
:10061400BEC0C2F0BFC0C3F00001C46BC56BC15102
:10062400C55D02E1C051C45D11E25DDF0050010A05
:100634000CE1C451C225E96EC551C321EA6EEECF67
:10064400C6F0B7DF0001C44BC52BE9D7C0C000F02A
:06065400C1C001F012001C
:10065A00AECF01F0ABA202D0AB98AB8801C000F0DC
:02066A0012007C
:10066C000001C16B350EC26FC06B0D0EC05D5EE23A
:10067C00C0C000F0000E016E00360090013600364E
:10068C00009001360050BE25E16E0150BF21E26E94
:10069C00C1C0E6FFC0C000F0000E016E0036009035
:1006AC000136003600900136BE510026BF510122A2
:1006BC00010E0024E16E000E0120E26EC2C0E6FFC6
:1006CC00C0C000F0000E016E0036009001360036FE
:1006DC0000900136BE510026BF510122020E0024AB
:1006EC00E16E000E0120E26E030EE66EC0C000F05B
:1006FC00000E016E00360090013600360090013677
:10070C00BE510026BF510122030E0024E16E000EE3
:10071C000120E26E010EE66E7B0EC66FE5DE00C0B8
:10072C00C1F0040E0001C25FC02B9FD73E0E2D6E90
:0E073C00030E2E6E010E2F6E3C0E306E12005C
:10074A000001776B6D6B6E6B939A93989394939663
:10075A00939093928A9A120E006E000E016E830E87
:10076A000024E16E0F0E0120E26EE66A8A948A96F0
:10077A008A908A828A8A3F0E836E8DDCC00E836ECF
:10078A008ADC8A808A923F0E836E85DCC00E836E75
:04079A0082DC1200EB
:10079E00BEC0C6F0BFC0C7F00001C051BE25C86FB5
:0E07AE00C151BF25C96FC2C0CAF086DE12005D
:1007BC000001C06B0D0EC05DD8B0D1D0C0C000F030
:1007CC00000E016E003600900136003600900136A6
:1007DC000050BE25E96E0150BF21EA6E040E006E7A
:1007EC00C60EE16E000EE26EEECFE6FF0006FCE1F7
:1007FC00CA6BCCDE010EC015016E0150010A49E135
:10080C00C0C000F0000E016E0036009001360036BC
:10081C00009001360050BE25E96E0150BF21EA6EF2
:10082C00EECF01F0800E000A006E800E0118005C05
:10083C0012E3C0C000F0000E016E003600900136CD
:10084C000036009001360050BE25E16E0150BF21EC
:10085C00E26E7C0EE66EC0C000F0000E016E00363B
:10086C00009001360036009001360050BE25026E15
:10087C000150BF21036E02C0E9FF03C0EAFFEECFB7
:10088C0000F0000602C0E1FF03C0E2FF00C0E6FF7B
:10089C0047D0C0C000F0000E016E0036009001364B
:1008AC000036009001360050BE25E96E0150BF2184
:1008BC00EA6EEECF01F0800E0118006E800E7C0AFD
:1008CC00005C11E3C0C000F0000E016E0036009019
:1008DC0001360036009001360050BE25E16E015005
:1008EC00BF21E26EE66AC0C000F0000E016E003659
:1008FC00009001360036009001360050BE25026E85
:10090C000150BF21036E02C0E9FF03C0EAFFEECF26
:10091C0000F0002A02C0E1FF03C0E2FF00C0E6FFC6
:10092C00C0C000F0000E016E00360090013600369B
:10093C00009001360050BE25E96E0150BF21EA6ED1
:10094C00040E006EC60EE16E000EE26EEECFE6FFF8
:10095C000006FCE1010ECA6F19DEC02B2BD712006A
:10096C002BDE800E0118026E800E025C02E1020E7C
:10097C00005C14E3BE0E0001C66F000EC76F020EC2
:10098C00C86F000EC96FBDDDBF51221802E12150A6
:0E099C00BE1903E1010E2C6EE3D704DE12003B
:1009AA008A908A820001C06BC051070810E3C0C058
:1009BA00D8F094EC00F0BF6BBF513F0806E3BEC00D
:1009CA00D8F07FEC00F0BF2BF7D7C02BEDD78A9277
:1009DA008A80C06BC051070810E3C0C0D8F094ECFD
:1009EA0000F0BF6BBF513F0806E3BEC0D8F07FECF2
:0C09FA0000F0BF2BF7D7C02BEDD7120088
:100A060014EC07F0EDDDD1DD310EBE6F000EBF6FC9
:100A16002ADE98DEBE6BC6DF310EBE6F000EBF6FDC
:100A2600CADEA1DF2C5207E02E50010F006E00C077
:100A36002EF02C6ABADD0001BD6B0D0EBD5DD8B07F
:100A4600BBD1BD51000A1FE1250EBE6F000EBF6F60
:100A5600010EC06F000EC16FDADDBDC000F0000EE2
:100A6600016E003600900136003600900136310ED8
:100A76000024BE6F000E0120BF6F010EC06F000E76
:100A8600C16FC5DD97D1BD51010A1FE1240EBE6FAE
:100A9600000EBF6F010EC06F000EC16FB8DDBDC086
:100AA60000F0000E016E0036009001360036009010
:100AB6000136310E0024BE6F000E0120BF6F010EFD
:100AC600C06F000EC16FA3DD75D1BD51020A1FE1D3
:100AD600230EBE6F000EBF6F010EC06F000EC16FFA
:100AE60096DDBDC000F0000E016E003600900136A6
:100AF600003600900136310E0024BE6F000E012034
:100B0600BF6F010EC06F000EC16F81DD53D1BD51A5
:100B1600030A1FE1200EBE6F000EBF6F010EC06FED
:100B2600000EC16F74DDBDC000F0000E016E003610
:100B360000900136003600900136310E0024BE6F5B
:100B4600000E0120BF6F010EC06F000EC16F5FDD8A
:100B560031D1BD51040A1FE11B0EBE6F000EBF6FDF
:100B6600010EC06F000EC16F52DDBDC000F0000E59
:100B7600016E003600900136003600900136310EC7
:100B86000024BE6F000E0120BF6F010EC06F000E65
:100B9600C16F3DDD0FD1BD51050A1FE11A0EBE6FB3
:100BA600000EBF6F010EC06F000EC16F30DDBDC0FD
:100BB60000F0000E016E00360090013600360090FF
:100BC6000136310E0024BE6F000E0120BF6F010EEC
:100BD600C06F000EC16F1BDDEDD0BD51060A1FE1CF
:100BE600190EBE6F000EBF6F010EC06F000EC16FF3
:100BF6000EDDBDC000F0000E016E0036009001361D
:100C0600003600900136310E0024BE6F000E012022
:100C1600BF6F010EC06F000EC16FF9DCCBD0BD51A6
:100C2600070A1FE11C0EBE6F000EBF6F010EC06FDC
:100C3600000EC16FECDCBDC000F0000E016E003688
:100C460000900136003600900136310E0024BE6F4A
:100C5600000E0120BF6F010EC06F000EC16FD7DC02
:100C6600A9D0BD51080A1FE11F0EBE6F000EBF6F4F
:100C7600010EC06F000EC16FCADCBDC000F0000ED1
:100C8600016E003600900136003600900136310EB6
:100C96000024BE6F000E0120BF6F010EC06F000E54
:100CA600C16FB5DC87D0BD51090A1FE11E0EBE6FAC
:100CB600000EBF6F010EC06F000EC16FA8DCBDC075
:100CC60000F0000E016E00360090013600360090EE
:100CD6000136310E0024BE6F000E0120BF6F010EDB
:100CE600C06F000EC16F93DC65D0BD510A0A1FE1CB
:100CF6001D0EBE6F000EBF6F010EC06F000EC16FDE
:100D060086DCBDC000F0000E016E00360090013694
:100D1600003600900136310E0024BE6F000E012011
:100D2600BF6F010EC06F000EC16F71DC43D0BD51A5
:100D36000B0A1FE1290EBE6F000EBF6F010EC06FBA
:100D4600000EC16F64DCBDC000F0000E016E0036FF
:100D560000900136003600900136310E0024BE6F39
:100D6600000E0120BF6F010EC06F000EC16F4FDC79
:100D760021D0BD510C0A1EE1280EBE6F000EBF6FBA
:100D8600010EC06F000EC16F42DCBDC000F0000E48
:100D9600016E003600900136003600900136310EA5
:100DA6000024BE6F000E0120BF6F010EC06F000E43
:100DB600C16F2DDCBD2B41D6040E006EBE0EE16E5A
:100DC600000EE26E2D0EE96E000EEA6EEECFE6FF25
:100DD6000006FCE1010EC26FDFDC9C0E0C6ED70E26
:100DE6000D6E0D2EFED70C2EFCD7040E006EBE0E19
:100DF600E16E000EE26E2D0EE96E000EEA6EEECF8B
:0E0E0600E6FF0006FCE1C26BC7DC06D6FFD794
:100E280010EE19F0130E006E010E016E140EF66E20
:0E0E38000E0EF76E000EF86EEBEC02F01200DC
:010E1400A637
:010E1500A735
:010E1600A833
:010E1700A535
:010E1800A237
:010E1900A335
:010E1A00A433
:010E1B00A92D
:020E1C005595EA
:010E1E00AA29
:010E1F00EEE4
:010E2000BB16
:010E210000D0
:010E220000CF
:010E2300A02E
:010E2400A12C
:010E250000CC
:010E260000CB
:020000040030CA
:0E000000010C1F1EFF8381FF0FC00FE00F4099
:00000001FF
