:100000006EEF02F00000000000EF00F000000000C2
:0A0010000000000000000000F3D71C
:0C001C00060E0D6E0D2EFED70000120027
:0A002800F9DF8A88F7DF8A981200DA
:06003200000000001200B6
:100038007F0E00016415016E01C064F001AC03D0AD
:0C0048008A808A9202D08A908A8212007C
:100054008A948A96B80E00016411836EE3DF12005D
:0E0064008A988A848A9664C083FFDCDF1200CB
:10007200120E006E000E016E830E0024E16E0F0E52
:100082000120E26EFF0EE66ED3DFD2DF8A848A9809
:100092008A868A88C2DF83CF64F08A988A96C8DF0C
:1000A200C7DF120E006E000E016E830E0024E16E99
:0E00B2000F0E0120E26EE66A64C000F012003C
:1000C0007F0E00016415006E00C064F08A948A9669
:1000D000BF0E001600C064F0008C00C064F000C0C9
:0600E00083FFA2DF120005
:1000E600000E0001615D0AE361517F0807E3000E1F
:1000F600625D04E362513F0801E301D04AD061C06A
:1001060064F097DF62C064F06433649F6433649F75
:100116006433649F9CDF61C064F0CFDFA7DF00C05B
:1001260060F0A4DF00C060F062C064F06433649FD6
:100136006433649F6433649F8ADF61C064F0BDDF0B
:10014600070E6215006E00C05EF000C001F0010EE1
:10015600006E015004E000360090FF0FFBD700C090
:100166005EF0001C5F6E09D05F5060170FD05E50C6
:1001760060130CD05E50601B09D06351000AF4E096
:100186006351010AF4E06351020AF4E060C064F0CE
:0401960066DF12000E
:10019A005EC016F05FC017F0000E186E196E010EE1
:0401AA00156E1200BC
:1001AE00220E0C6E086A096A0A6A0B6A0C06D8B42B
:1001BE001FD0D8900B320A32093208320332023283
:1001CE0001320032D8A0F2D70C06D8B409D00450B0
:1001DE0008260550092206500A2207500B22EAD79C
:1001EE00045008260550092206500A2207500B22F9
:0201FE001200ED
:100200000134083609360450085E0550D8A0053C74
:10021000095E003601360F0E0C6E013408360936C1
:10022000045000A006D0085E0550D8A0053C095E29
:1002300005D008260550D8B0053C09260036013601
:100240000C2EEBD700B006D0045008260550D8B0CD
:08025000053C09260000120024
:10025800155205E1010E5E6E000E5F6E9ADF16C044
:1002680000F017C001F018C002F019C003F06D0EBD
:10027800046E4E0E056EC60E066E410E076E93DFB7
:10028800390E0024056E300E0120066E000E022085
:10029800076E000E0320086E07C000F008C001F0CA
:1002A800000E08BEFF0E026E036EFF0E00167F0ED4
:1002B8000116000E0216031600C016F001C017F052
:0A02C80002C018F003C019F0120084
:1002D2000450000A08E10550000A05E1FF0E006E15
:1002E2007F0E016E57D00D6A096A086A015000102C
:1002F200D8B4000C015005180A6E0ABE0D1E0B6A16
:1003020005AE05D0041E051E042AD8B4052A01AE86
:1003120005D0001E011E002AD8B4012A0150051082
:100322000A6E0ABE10D06BDF0BB020D00DAE000CEF
:10033200001E011E002AD8B4012A081E091E082A1E
:10034200D8B4092A000C05AE0DD001BE07D0015069
:10035200096E0050086E016A006AE8D7016A006AF5
:10036200002A000C011E001E0B2ADDD7082AD8B471
:10037200092A0450085CD8A4D9D70550095CD8A42E
:10038200D5D7096A086A002AD8B4012A01AECED7A5
:060392000000FF0C120048
:10039800000E5B5C04E35B503F0801E301D027D00B
:1003A800000E595CD8A0596A59507F0802E27F0EA6
:1003B800596E000E5A5CD8A05A6A5A507F0802E259
:1003C8007F0E5A6E59505A5C06E259C05DF05AC009
:1003D80059F05DC05AF059505A5C09E359C061F0B0
:1003E8005BC062F05CC063F07ADE592AF4D7120071
:1003F8000900F5CFE6FF0006FBE10106F9E112006E
:1004080027DF5450010F046E056A000E05225DDFD8
:0A04180008C000F009C001F0120056
:100422001C6A1A6A1B6A939A939893949396939070
:1004320093928A9A120E006E000E016E830E0024B1
:10044200E16E0F0E0120E26EE66A8A948A968A9025
:100452008A828A8A3F0E836EE6DDC00E836EE3DDFA
:100462008A808A923F0E836EDEDDC00E836EDBDDF4
:02047200120076
:100474008A908A82566A565007080EE356C064F082
:10048400E7DD556A55503F0805E354C064F0E8DDE4
:10049400552AF8D7562AEFD78A928A80566A565038
:1004A40007080EE356C064F0D3DD556A55503F0883
:1004B40005E354C064F0D4DD552AF8D7562AEFD7A3
:0204C400120024
:1004C60054C059F0565054245A6E55C05BF058C06B
:0604D6005CF05FDF120084
:1004DC00526A350E536E516A51500C085DE351C08F
:1004EC0000F0000E016E00360090013600360090D0
:1004FC0001361D0E0024E16E000E0120E26E52C08A
:10050C00E6FF51C000F0000E016E0036009001367F
:10051C000036009001361D0E0026000E0122010E41
:10052C000024E16E000E0120E26E53C0E6FF51C0C4
:10053C0000F0000E016E003600900136003600907F
:10054C0001361D0E0026000E0122020E0024E16E63
:10055C00000E0120E26E030EE66E51C000F0000E9C
:10056C00016E0036009001360036009001361D0EEB
:10057C000026000E0122030E0024E16E000E012065
:10058C00E26E010EE66E7B0E546E38DF00C052F048
:10059C00040E535E512AA0D73EDF546A65DF516AC0
:1005AC0051500C08D8A0D1D051C000F0000E016EF3
:1005BC000036009001360036009001361D0E0024E6
:1005CC00E96E000E0120EA6E040E006E540EE16E10
:1005DC00000EE26EEECFE6FF0006FCE1586A6DDF1E
:1005EC00010E5114016E0150010A49E151C000F095
:1005FC00000E016E00360090013600360090013678
:10060C001D0E0024E96E000E0120EA6EEECF01F003
:10061C00800E000A006E800E0118005C12E351C0BF
:10062C0000F0000E016E003600900136003600908E
:10063C0001361D0E0024E16E000E0120E26E7C0ED0
:10064C00E66E51C000F0000E016E003600900136CF
:10065C000036009001361D0E0024026E000E0120A3
:10066C00036E02C0E9FF03C0EAFFEECF00F0000604
:10067C0002C0E1FF03C0E2FF00C0E6FF47D051C05B
:10068C0000F0000E016E003600900136003600902E
:10069C0001361D0E0024E96E000E0120EA6EEECF2D
:1006AC0001F0800E0118006E800E7C0A005C11E3D4
:1006BC0051C000F0000E016E00360090013600367D
:1006CC00009001361D0E0024E16E000E0120E26E3A
:1006DC00E66A51C000F0000E016E00360090013643
:1006EC000036009001361D0E0024026E000E012013
:1006FC00036E02C0E9FF03C0EAFFEECF00F0002A50
:10070C0002C0E1FF03C0E2FF00C0E6FF51C000F0F1
:10071C00000E016E00360090013600360090013656
:10072C001D0E0024E96E000E0120EA6E040E006E10
:10073C00540EE16E000EE26EEECFE6FF0006FCE119
:10074C00010E586EBADE512A2BD79C0E0C6ED70EAA
:0E075C000D6E0D2EFED70C2EFCD721D7FFD729
:020000040030CA
:0E000000010C1F1EFF8381FF0FC00FE00F4099
:00000001FF
