:0400000048EF0EF0C7
:1000080000C016F001C015F0E1CF17F0E2CF18F0EC
:100018009DAA28D01F501D5C006E016A000E015A6F
:1000280000C02EF11D50000806E201012E51000A01
:1000380002E17EEC0CF001017D0E2F6F000E306F97
:100048001D502F27D8B0302B31EC0BF02FC1E1FF1A
:1000580030C1E2FF00C0E6FF1D2A1D50400A02E140
:100068007EEC0CF0F2A40CD0F2940B0ED76EDC0EE2
:10007800D66E1B2A020E1B5C03E3010E1C6E1B6A64
:1000880016C000F015C001F017C0E1FF18C0E2FF6C
:02009800110055
:0C009A00060E0D6E0D2EFED700001200A9
:1000A600220E0C6E086A096A0A6A0B6A0C06D8B434
:1000B6001FD0D8900B320A3209320832033202328C
:1000C60001320032D8A0F2D70C06D8B409D00450B9
:1000D60008260550092206500A2207500B22EAD7A5
:1000E600045008260550092206500A2207500B2202
:0200F6001200F6
:1000F8000134083609360450085E0550D8A0053C7E
:10010800095E003601360F0E0C6E013408360936CA
:10011800045000A006D0085E0550D8A0053C095E32
:1001280005D008260550D8B0053C0926003601360A
:100138000C2EEBD700B006D0045008260550D8B0D6
:08014800053C0926000012002D
:100150002CC179F02DC17AF0000E00017B6F7C6F0D
:06016000010E786F120091
:0A01660099DF8A8897DF8A9812005B
:0601700000000000120077
:100176000B6A0A6A096A00500402F4CF09F0F3CF49
:1001860008F001500502F4CF0BF0F3CF0AF000504F
:100196000502F3500926F4500A22E86A0B220150A0
:1001A6000402F3500926F4500A22E86A0B2208C01A
:1001B60000F009C001F00AC002F00BC003F0120003
:0E01C6008A988A848A962BC183FFCADF1200B2
:1001D400120E006E000E016E830E0024E16E0F0EEF
:1001E4000120E26EFF0EE66EC1DFC0DF8A848A98CA
:1001F4008A868A8850DF83CF2BF18A988A96B6DF65
:10020400B5DF120E006E000E016E830E0024E16E47
:0E0214000F0E0120E26EE66A2BC100F0120010
:100222000450000A08E10550000A05E1FF0E006EC5
:100232007F0E016E57D00D6A096A086A01500010DC
:10024200D8B4000C015005180A6E0ABE0D1E0B6AC6
:1002520005AE05D0041E051E042AD8B4052A01AE37
:1002620005D0001E011E002AD8B4012A0150051033
:100272000A6E0ABE10D03FDF0BB020D00DAE000CCC
:10028200001E011E002AD8B4012A081E091E082ACF
:10029200D8B4092A000C05AE0DD001BE07D001501A
:1002A200096E0050086E016A006AE8D7016A006AA6
:1002B200002A000C011E001E0B2ADDD7082AD8B422
:1002C200092A0450085CD8A4D9D70550095CD8A4DF
:1002D200D5D7096A086A002AD8B4012A01AECED756
:0602E2000000FF0C1200F9
:1002E8000001785306E1010E01012C6F000E2D6FFD
:1002F8002BDF79C000F07AC001F07BC002F07CC02F
:1003080003F06D0E046E4E0E056EC60E066E410E9F
:10031800076EC5DE390E0024056E300E0120066E0C
:10032800000E0220076E000E0320086E07C000F0C2
:1003380008C001F0000E08BEFF0E026E036EFF0E2D
:1003480000167F0E0116000E0216031600C079F083
:0E03580001C07AF002C07BF003C07CF01200FE
:10036600086A080E0C6E003408360450085ED8B0D1
:0E03760002D00826D89000360C2EF5D71200C3
:100384007F0E01012B15006E00C02BF18A948A9612
:10039400BF0E001600C02BF1008C00C02BF100C072
:0603A40083FFDFDE120002
:1003AA007F0E01012B15016E01C02BF101AC03D0A8
:0C03BA008A808A9202D08A908A82120007
:1003C6008A948A96B80E01012B11836EC9DE12003B
:1003D60088DF01012151010F046E056A000E052216
:0C03E6001DDF08C000F009C001F012008B
:1003F2000101246B030E245D0AE224512225E16EE1
:10040200000E2321E26E200EE66E242BF3D7245138
:100412002225E16E000E2321E26EE66A24072451B2
:100422002225256F000E2321266F0A0E046E21C19C
:1004320000F098DF08C000F0300E002625C1E1FF71
:1004420026C1E2FF00C0E6FF0A0E046E21C100F0E1
:1004520089DF00C021F10050000A01E102D0240727
:04046200DED71200CF
:10046600000E0101215D0AE321517F0807E3000E1A
:10047600225D04E322513F0801E301D04AD021C1A5
:100486002BF190DF22C12BF12B332B9F2B332B9F8C
:100496002B332B9F95DF21C12BF171DF98DE00C036
:1004A60026F195DE00C026F122C12BF12B332B9FBE
:1004B6002B332B9F2B332B9F83DF21C12BF15FDF48
:1004C600070E2215006E00C024F100C001F0010ED7
:1004D600006E015004E000360090FF0FFBD700C00D
:1004E60024F1001C256F09D0255126170FD0245161
:1004F60026130CD02451261B09D02351000AF4E000
:100506002351010AF4E02351020AF4E026C12BF13B
:0405160057DE12009A
:10051A0001012351070801E28CD00001C2510101F7
:10052A00215D006EC3C001F0000E0156BDC004F08B
:10053A00000E056E1BDE00C029F101C02AF122C19E
:10054A002BF11BDF23C12BF139DF256B0001BD51D4
:10055A000101255D4FE222517F0801E26AD022C1E2
:10056A002BF11EDF23C12BF129DF22C12BF105DF7D
:10057A002CDE00C026F129DE00C026F122C12BF1B3
:10058A000FDF23C12BF11ADF22C12BF1F6DE29512D
:10059A000001BE25F66E01012A510001BF21F76E46
:1005AA00000E01012ABFFF0E0001C021F86E0900EA
:1005BA00F5CF00F000C027F10101294B2A2B001CBE
:1005CA00286F09D028C126F10FD027C126F10CD0F7
:1005DA002751261B09D02451000AF4E02451010AAC
:1005EA00F4E02451020AF4E026C12BF1E7DD222BC4
:1005FA00252BACD722C12BF1D3DE23C12BF1DEDEB2
:10060A0022C12BF1BADEFF0E276F286B0CD027C14F
:10061A0026F127C12BF1D2DD0CD028C126F128C141
:10062A002BF1CCDD06D02451000AF1E02451010A55
:04063A00F4E01200D6
:10063E000101166B176B186B165107083DE32B6BF8
:10064E00ADDE16C12BF1B8DE2B6B95DE156B155199
:10065E003F0811E317511225F66E18511321F76E4C
:10066E00000E1421F86E0900F5CF2BF1A5DD174B06
:10067E00182B152BECD7400E2B6F90DE16C12BF1DD
:10068E009BDE400E2B6F77DE400E156F15517F08E7
:10069E0011E317511225F66E18511321F76E000E45
:1006AE001421F86E0900F5CF2BF186DD174B182BB0
:0A06BE00152BECD7162BC0D7120045
:1006C8008A908A820101146B145107080EE314C141
:1006D8002BF175DE136B13513F0805E312C12BF1A3
:1006E8006EDD132BF8D7142BEFD78A928A80146B00
:1006F800145107080EE314C12BF161DE136B13517B
:100708003F0805E312C12BF15ADD132BF8D7142B40
:04071800EFD7120005
:10071C00000E0101171902E1000E161908E112C1B1
:10072C0021F114C122F118C123F197DED2D01D6B37
:10073C001E6B1251145D1F6F13511559206F16C18A
:10074C001BF117C11CF116C100F017C101F00036E6
:10075C000090013600C019F101C01AF100500308D5
:10076C00196F01C01AF1000E1A57010E1B25016EEC
:10077C00000E1C21026E800E1E19006E800E0218D7
:10078C00005C02E101501D5DD8B0A3D01D511225B3
:10079C00216F1B511425226F18C123F15EDE1D51F0
:1007AC001225216F1B51145D226F18C123F155DEE8
:1007BC00800E006E800E1E19005C02E11D510008B7
:1007CC0012E21D51125D216F1B511425226F18C1AD
:1007DC0023F143DE1D51125D216F1B51145D226FFD
:1007EC0018C123F13ADE1E511C1902E11B511D19CF
:1007FC0035E01B511425216F1F51215F1D5114250C
:10080C00226F18C123F129DE1B51145D216F1F517A
:10081C00215F1D511425226F18C123F11EDE800E9D
:10082C00006E800E1E19005C02E11D51000816E2DC
:10083C001B511425216F1F51215F1D51145D226F17
:10084C0018C123F10ADE1B51145D216F1F51215F6A
:10085C001D51145D226F18C123F1FFDD800E1A1992
:10086C00006E800E005C02E1000E195D13E21DC1EA
:10087C0000F01EC101F000360090013600360090E9
:10088C000136060E0026000E0122005019270150D9
:10089C001A231CD01B511D5D036E1C511E59046E76
:1008AC0003C000F004C001F00036009001360036A1
:1008BC00009001360A0E0026000E01220050192766
:1008CC0001501A23010E1B5F000E1C5B1D4B1E2BCF
:0408DC004CD71200E3
:1008E0000101156B350E166F146B14510C085EE385
:1008F00014C100F0000E016E003600900136003683
:100900000090013600501225E16E01501321E26E75
:1009100015C1E6FF14C100F0000E016E0036009014
:100920000136003600900136125100261351012283
:10093000010E0024E16E000E0120E26E16C1E6FFFA
:1009400014C100F0000E016E003600900136003632
:10095000009001361251002613510122020E00248C
:10096000E16E000E0120E26E030EE66E14C100F08F
:10097000000E016E00360090013600360090013600
:100980001251002613510122030E0024E16E000EC5
:100990000120E26E010EE66E7B0E216F1CDD00C0B1
:0E09A00015F1040E0101165F142B9FD71200F3
:1009AE00010118511625016E000E16BFFF0E026EC4
:1009BE00000E18BFFF0E0222800E12BF7F0E006EB9
:1009CE00800E0218005C02E10150125D45E21451E6
:1009DE001225016E000E12BFFF0E026E000E14BF26
:1009EE00FF0E0222800E16BF7F0E006E800E0218C2
:1009FE00005C02E10150165D2FE219511725016EC0
:100A0E00000E17BFFF0E026E000E19BFFF0E022260
:100A1E00800E13BF7F0E006E800E0218005C02E186
:100A2E000150135D19E213511525016E000E15BF0D
:100A3E00FF0E026E000E13BFFF0E0222800E17BFB6
:100A4E007F0E006E800E0218005C02E10150175DF1
:0C0A5E0003E2010E006E01D0006A1200DD
:100A6A000101146B156B12C103F013C104F012C11A
:100A7A0005F013C106F003C0E9FF04C0EAFFEE5017
:100A8A00200A04E11451151101E110D0010E146F6E
:100A9A00000E156F03C0E9FF04C0EAFF05C0E1FFBD
:100AAA0006C0E2FFEECFE6FF054A062A03C001F0C0
:100ABA0004C002F0034A042A01C0E9FF02C0EAFFA7
:100ACA00EE50000AD8E112C100F013C101F0120081
:100ADA000101176B186B12C119F1000E12BFFF0E3C
:100AEA001A6F800E1219006E800E000A005C0AE26C
:100AFA00174B182B12510008196F1A6B000E12BFF0
:100B0A00FF0E1A5B19C121F113C122F114C123F19D
:100B1A006BDC040E156F000E166F000E006E165178
:100B2A00005C02E11551000819E215511325E16E26
:100B3A0016511421E26E010E155D006E000E165953
:100B4A00016E00501325E96E01501421EA6EEECFB2
:100B5A00E6FF010E155F000E165BDFD713C1E1FF3A
:100B6A0014C1E2FF200EE66E175118111AE0156B38
:100B7A00166B15511325E96E16511421EA6EEE50C3
:100B8A00200A03E1154B162BF4D7010E155F000E50
:100B9A00165B15511325E16E16511421E26E2D0EC6
:040BAA00E66E1200E1
:100BAE00000E0101145D04E314513F0801E301D06E
:100BBE0027D0000E125DD8A0126B12517F0802E2F0
:100BCE007F0E126F000E135DD8A0136B13517F08AA
:100BDE0002E27F0E136F1251135D06E212C116F17F
:100BEE0013C112F116C113F11251135D09E312C1B3
:100BFE0021F114C122F115C123F12EDC122BF4D7F1
:020C0E001200D2
:100C10000101176B0001C151000A0EE1050EBD6F05
:100C2000070E746F180EBE6F310EBF6F000EC06FCF
:100C3000200EC26F000EC36F010117511225E96E1D
:100C4000000E1321EA6EEE5218E017511225E96EDC
:100C5000000E1321EA6EEECF21F114C122F115C16D
:100C600023F116C124F159DC0001BD51010F006EC2
:0C0C7000005001011427172BDFD71200E1
:0E0C7C00ACB202D00000FCD7EFC0ADFF1200FA
:100C8A001A6A196A1C6A1B6A2E6A200E286E370EA7
:100C9A00296E090E2A6E090E2B6E2C6A010E2D6E14
:100CAA005E0E226E370E236E090E246E090E256E15
:100CBA00266A010E276E060E006E2F0EE16E000EDA
:100CCA00E26E220EE96E000EEA6EEECFE6FF000635
:100CDA00FCE13E0E00016B6F030E6C6F010E6D6F2F
:100CEA003C0E6E6F370E0101126F000E136FF3DDAB
:020CFA001200E6
:100CFC00EFC012F16F0E0101136F000E146FE7DEDF
:100D0C006F0E126F000E136FAADE00C012F101C03D
:100D1C0013F10F0E146F070E156F010E166F72DFA5
:100D2C00F0C012F16F0E136F000E146FD0DE6F0E49
:100D3C00126F000E136F93DE00C012F101C013F19D
:100D4C006B0E146F070E156F010E166F5BDF120022
:080D5C000101126BB3DC12006F
:100D640000C002F001C003F0016A80B4012A0150FE
:100D7400010A010ED8A4000E006E00C004F0016A3E
:100D840080B6012A0150010A010ED8A4000E006E9B
:100D940000C005F0016A80B8012A0150010A010E61
:100DA400D8A4000E006E00C006F0030E006E02C050
:100DB400E1FF03C0E2FF040EE96E000EEA6EEECF1F
:080DC400E6FF0006FCE112004D
:100DCC00F1C004F0F2C005F0EFC002F0F0C003F087
:100DDC00F3C000F0F4C001F0010E0001F35F000E4F
:100DEC00F45B005001100FE004C0E9FF05C0EAFFFE
:100DFC0002C0E1FF03C0E2FFEECFE6FF024A032A86
:100E0C00044A052AE5D7EFC000F0F0C001F012004B
:100E1C007C0E0001CC6F0C0ECD6FEF0ECE6F000E62
:100E2C00CF6F620EC86F160EC96F000ECA6F000E20
:100E3C00CB6FFF0ED46FFF0ED56F000ED66F000E6A
:100E4C00D76FB20ED06F120ED16F000ED26F000E94
:100E5C00D36FAC8A900EAB6E948E949C9EAA03D0EA
:080E6C00AECF00F0FBD712002D
:100E7400180E0101126F210E136F000E146F1FEC78
:040E840003F0120065
:100E88000101046B056B066B076B086B096B0A6B3A
:100E98000B6B0001F351EF25006EF451F021016E48
:100EA800010E005C026E000E0158036E000E006E0B
:100EB8000350005C02E102507F0807E2EF5180080E
:100EC800F36FF0C0F4F0000EF457F551F125006E01
:100ED800F651F221016E010E005C026E000E0158FF
:100EE800036E000E006E0350005C02E102503F08E2
:100EF80007E2F1514008F56FF2C0F6F0000EF65720
:100F0800F1C000F0F2C001F001320032019E01325E
:100F18000032019E01320032019E00C0FEF0F55100
:100F2800F125056EF651F221066E010E055C036E81
:100F3800000E0658046E03C000F004C001F0013230
:100F48000032019E01320032019E01320032019EC0
:100F580000C0FFF0070EF115006EF2C001F0000EA0
:100F6800011600C001F1070E0514006E06C001F05D
:100F7800000E011600C002F1FA51F65D02E1F951C6
:100F8800F55D03E2FFC003F11BD0F951F125006EB6
:100F9800FA51F221016E010E005C036E000E015839
:100FA800046E03C000F004C001F001320032019E5B
:100FB80001320032019E01320032019E00C003F16D
:100FC800070EF915016EFAC002F0000E0216000EA7
:100FD800021802E1000E011818E1F9C000F0FAC089
:100FE80001F001320032019E01320032019E0132CD
:100FF8000032019EF7C004F0F8C005F0BBEC00F029
:1010080000C00EF101C00FF119D0F9C000F0FAC00C
:1010180001F001320032019E01320032019E01329C
:101028000032019E004A012AF7C004F0F8C005F01A
:10103800BBEC00F000C00EF101C00FF1FEC004F1DE
:10104800000E0101056F000E006E0551005C03E102
:1010580004510001FF5DD8A027D101010C6B0D6B75
:10106800066B076B0001F4510101075D04E1000103
:10107800F3510101065DD8B002D106510001EF25F8
:1010880001012B6FD5EC01F004C12BF1E3EC01F069
:101098000001F8510101075D04E10001F751010168
:1010A800065D42E2000E006E0551005C02E104514B
:1010B800035D3AE3000E051904E10001FE51010148
:1010C800041902E1106B13D00A510C25006E0B5164
:1010D8000D21016E00500001FB25F66E0150FC2128
:1010E800F76E000EFD21F86E0900F5CF10F1010131
:1010F8000F51095D02E10E51085D02E3116B13D037
:1011080008510C25006E09510D21016E0050000197
:10111800FB25F66E0150FC21F76E000EFD21F86EDE
:101128000900F5CF11F103D00101116B106B01011A
:1011380011C100F1015100081AE201510808006EBE
:10114800016A000E015A10C100F1005004E000339A
:10115800009FFF0FFBD701C101F011C100F0015042
:1011680004E000360090FF0FFBD700500013000E7C
:10117800051904E10001FE51010104192FE1015193
:1011880000082CE206510001EF2501012B6FC2EC8B
:1011980001F0EAEC00F0EAEC00F001510808016EF9
:1011A800026A000E025A01C002F0FF0E016E0250E0
:1011B80004E00132019EFF0FFBD701500014026EBC
:1011C80001C101F0FF0E006E015004E000360090EE
:1011D800FF0FFBD70050001702500013000E05192F
:1011E80004E10001FF51010104192FE10251000837
:1011F8002CE206510001EF2501012B6FC2EC01F032
:10120800EAEC00F0EAEC00F002C102F0FF0E016E19
:10121800025004E001360190FF0FFBD70150001483
:10122800026E02510808006E016A000E015A00C0E1
:1012380001F0FF0E006E015004E00032009EFF0F27
:10124800FBD700500017025000130001F8510101AC
:10125800075D04E10001F7510101065D02E20C4B54
:101268000D2B06510001EF2501012B6FC2EC01F097
:1012780000C12BF1E3EC00F0064B072BF3D6000E70
:10128800055D02E10351045D0CE208C10AF109C1E0
:101298000BF10001F751010108270001F851010184
:0A12A8000923044B052BCFD61200DA
:0A12B200000EACB2010E006E120037
:1012BC00180E0101126F2D0E136F000E146F1FEC20
:1012CC0003F0290E0B6E960E0C6E7F0E0D6E0D2E0E
:1012DC00FED70C2EFCD70B2EFAD7126B64EC03F056
:0212EC001200EE
:1012EE00040E006E120EE16E010EE26EEF0EE96E4E
:1012FE00000EEA6EEECFE6FF0006FCE1040E006E75
:10130E00160EE16E010EE26EF30EE96E000EEA6E3F
:0E131E00EECFE6FF0006FCE1D7EC04F0120073
:10132C00F0C0F4F00001F451F25D0CE3EFC012F1E7
:10133C00F1C013F1F4C014F1F3C015F132DC00016B
:06134C00F42BF0D71200A3
:10135200EFC012F1000E0001EFBFFF0E0101136F8B
:10136200F0C014F1000E0001F0BFFF0E0101156F75
:10137200F1C016F1000E0001F1BFFF0E0101176F5F
:0A138200F3C018F18EEC03F0120026
:10138C00180E0101126F290E136F000E146F1FEC53
:10139C0003F0290E0B6E960E0C6E7F0E0D6E0D2E3D
:1013AC00FED70C2EFCD70B2EFAD7126B64EC03F085
:0213BC0012001D
:1013BE00180E0101126F250E136F000E146F1FEC25
:1013CE0003F0290E0B6E960E0C6E7F0E0D6E0D2E0B
:0E13DE00FED70C2EFCD70B2EFAD7B9DC12006E
:1013EC0000C0E6F001C0E7F0EC0E006E000E016EDE
:1013FC00B3DC030E006EE80EE16E000EE26EEC0E36
:10140C00E96E000EEA6EEECFE6FF0006FCE100018D
:10141C00EB6B800E000A006E800E005C02E1EB515B
:10142C000C0842E3EBC000F0000E016E0036009099
:10143C0001360036009001360050E425E96E01506B
:10144C00E521EA6E040E006EEF0EE16E000EE26E08
:10145C00EECFE6FF0006FCE1040E006EF30EE16E2B
:10146C00000EE26EDE0EE96E000EEA6EEECFE6FFC7
:10147C000006FCE136DF005214E0200E0001DE6FA6
:10148C00370EDF6F060E006EE6C0E1FFE7C0E2FF2D
:10149C00DE0EE96E000EEA6EEECFE6FF0006FCE112
:1014AC006CD00001EB2BB5D7E95321E0E351DF25DC
:1014BC00026E02C0DFF0E105006E000EE1BFFF0E10
:1014CC00016E000E015A02500024026E000E02BE84
:1014DC00FF0E0120036E800E0318006E800E005C60
:1014EC0002E13F0E025C02E3370EDF6F38D0E853A7
:1014FC0027E0E351DF5D016E01C0DFF0800E000AD2
:10150C00006E800E0118005C1AE3200EDE6F370EA1
:10151C00DF6F1A2A1AC0EFF019C0F0F07EEC06F05B
:10152C00060E006EE6C0E1FFE7C0E2FFDE0EE96EDC
:10153C00000EEA6EEECFE6FF0006FCE11ED00FD0E7
:10154C00060E006EE6C0E1FFE7C0E2FFDE0EE96EBC
:10155C00000EEA6EEECFE6FF0006FCE10ED0060EA2
:10156C00006EE6C0E1FFE7C0E2FFDE0EE96E000EA2
:0C157C00EA6EEECFE6FF0006FCE1120074
:10158800DEC0E2F0DFC0E3F00001E46BE56BE1519F
:10159800E55D02E1E051E45D12E287DE0050010AF8
:1015A8000DE1E451E225E96EE551E321EA6EEECF63
:1015B800EFF03EEC06F00001E44BE52BE8D7E0C085
:0815C80000F0E1C001F0120087
:1015D000830ED56E0B0ED76EDC0ED66EF28EF28AAF
:0215E0001200F7
:1015E200010E0001DE25E96E000EDF21EA6E800E9B
:1015F200EE18006E800E3F0A005C13E31A50195C6D
:1016020007E25BDE45EC06F0010E0001756F09D0C2
:1016120019501A5C06E2B9DE45EC06F0010E000133
:10162200756F1C5214E0010EDE25016E000EDF21E3
:10163200026E01C0E9FF02C0EAFFEECF00F0002A0D
:1016420001C0E1FF02C0E2FF00C0E6FF1C6A120017
:101652000900F5CFE6FF0006FBE10106F9E1120001
:10166200AECF01F0ABA202D0AB98AB8801C000F0C4
:02167200120064
:10167400B886B06ACF0EAF6EAC840EEC07F0020EE3
:101684000B6E040E0C6EBA0E0D6E0D2EFED70C2EC4
:10169400FCD70B2EFAD700009D8AF28CF28E120032
:1016A4000001C16B356A366A939A93989394939622
:1016B400939093928A9A120E006E000E016E830E1E
:1016C4000024E16E0F0E0120E26EE66A8A948A9687
:1016D4008A908A828A8A3F0E836EB3EC00F0C00E31
:1016E400836EB3EC00F08A808A923F0E836EB3EC73
:0C16F40000F0C00E836EB3EC00F012009A
:101700001F501D5C006E016A000E015A000E016E32
:021710001200C5
:1017120000C0E6F001C0E7F0C80E0101216FEBEC5A
:1017220001F000C0E9F00001E86B800E000A006ED3
:10173200800E005C02E1E8510C0842E3E8C000F0D0
:10174200000E016E00360090013600360090013620
:101752000050E425E96E0150E521EA6E040E006EA8
:10176200EF0EE16E000EE26EEECFE6FF0006FCE148
:10177200040E006EF30EE16E000EE26EDE0EE96EF6
:10178200000EEA6EEECFE6FF0006FCE1AFDD00528E
:1017920014E05E0E0001DE6F370EDF6F060E006E84
:1017A200E6C0E1FFE7C0E2FFDE0EE96E000EEA6E80
:1017B200EECFE6FF0006FCE190D00001E82BB5D7A2
:1017C200E951B90814E2E351DF25006E00C0DFF0F1
:1017D200060E006EE6C0E1FFE7C0E2FFDE0EE96E34
:1017E200000EEA6EEECFE6FF0006FCE176D00F0EA9
:1017F200E95D14E2E351DF5D006E00C0DFF0060E2A
:10180200006EE6C0E1FFE7C0E2FFDE0EE96E000E09
:10181200EA6EEECFE6FF0006FCE15FD0E351DF5D4A
:10182200016E01C0DFF0800E000A006E800E01180A
:10183200005C1AE35E0EDE6F370EDF6F192A1AC0E4
:10184200EFF019C0F0F07EEC06F0060E006EE6C076
:10185200E1FFE7C0E2FFDE0EE96E000EEA6EEECFB8
:10186200E6FF0006FCE139D00001E105006E000E42
:10187200E1BFFF0E016E000E015ADF510024026E1D
:10188200000EDFBFFF0E0120036E800E0318006EF4
:10189200800E005C02E13F0E025C11E3370EDF6F47
:1018A200060E006EE6C0E1FFE7C0E2FFDE0EE96E63
:1018B200000EEA6EEECFE6FF0006FCE10ED0060E49
:1018C200006EE6C0E1FFE7C0E2FFDE0EE96E000E49
:0C18D200EA6EEECFE6FF0006FCE112001B
:1018DE00DEC0EFF0DFC0F0F00001E051DE25F16F69
:0E18EE00E151DF25F26FE2C0F3F019DD1200C8
:0618FC001D6A1F6A1200C4
:10190200DEC0EFF0000E0001DEBFFF0EF06FDFC0A1
:10191200F1F0000EDFBFFF0EF26FE0C0F3F0000E39
:10192200E0BFFF0EF46FE1C0F5F0000EE1BFFF0E65
:10193200F66FE0C0F7F0000EE0BFFF0EF86FE1C0F7
:10194200F9F0000EE1BFFF0EFA6FE2C0FBF0E3C058
:0C195200FCF0E4C0FDF044EC07F01200D3
:10195E00DEC012F10001E051DE250101136FDFC080
:0C196E0014F1E2C015F1D7EC05F01200F6
:10197A00190E0001E26F220EE36F030EE46FE56BAE
:10198A003AEC07F0040E006EEF0EE16E000EE26E06
:10199A00E20EE96E000EEA6EEECFE6FF0006FCE10B
:1019AA00010E0001F36FD0DCE60E006E000E016E30
:1019BA00B2EC06F0030E006EDF0EE16E000EE26E70
:1019CA00E60EE96E000EEA6EEECFE6FF0006FCE1D7
:1019DA000001E1530AE0DE51000A07E1AEEC06F02D
:1019EA00020E006E000E016E8DD00001DF5303E17E
:1019FA00E05301E13BD0DE51000A38E1040E006EEB
:101A0A00EF0EE16E000EE26EE20EE96E000EEA6E75
:101A1A00EECFE6FF0006FCE1F36B96DC0E0E00014A
:101A2A00E325006E00C0E3F0040E006EEF0EE16ED7
:101A3A00000EE26EE20EE96E000EEA6EEECFE6FFEF
:101A4A000006FCE1010EF36F7FDC010E0001DE6F80
:101A5A00070E0B6EC20E0C6ED80E0D6E0D2EFED733
:101A6A000C2EFCD70B2EFAD700009ED7E1530AE0C2
:101A7A00DE51010A07E1AEEC06F0030E006E000E1D
:101A8A00016E40D00001DF5303E1E05301E139D098
:101A9A00DE51010A36E1040E006EEF0EE16E000E11
:101AAA00E26EE20EE96E000EEA6EEECFE6FF000687
:101ABA00FCE1F36B49DC0E0E0001E35D006E00C031
:101ACA00E3F0040E006EEF0EE16E000EE26EE20E1F
:101ADA00E96E000EEA6EEECFE6FF0006FCE1010EAB
:101AEA00F36F32DC0001DE6B070E0B6EC20E0C6E5A
:101AFA00D80E0D6E0D2EFED70C2EFCD70B2EFAD754
:061B0A00000052D712009A
:101B1000DEC0EFF0DFC0F0F07D0E0001F16F000ECF
:101B2000F26F1F50F127D8B0F22BE0C0F3F0E1C004
:101B3000F4F0E6EC06F0E0511F26E0C000F0E1C052
:041B400001F012009E
:101B4400046A800E000A006E800E005C02E10450FC
:101B54000C08D8A09AD0010E0414016E0150010A99
:101B64004AE104C000F0000E016E00360090013618
:101B740000360090013600500001DE25E96E015068
:101B8400DF21EA6EEECF01F0800E000A006E800EB7
:101B94000118005C12E304C000F0000E016E003670
:101BA400009001360036009001360050DE25E16ECB
:101BB4000150DF21E26E7C0EE66E04C000F0000EE0
:101BC400016E003600900136003600900136005058
:101BD400DE25026E0150DF21036E02C0E9FF03C05F
:101BE400EAFFEECF00F0000602C0E1FF03C0E2FF0F
:101BF40000C0E6FF48D0000104C000F0000E016EF2
:101C04000036009001360036009001360050DE2583
:101C1400E96E0150DF21EA6EEECF01F0800E01186B
:101C2400006E800E7C0A005C11E304C000F0000E1C
:101C3400016E0036009001360036009001360050E7
:101C4400DE25E16E0150DF21E26EE66A04C000F099
:101C5400000E016E00360090013600360090013609
:101C64000050DE25026E0150DF21036E02C0E9FF41
:101C740003C0EAFFEECF00F0002A02C0E1FF03C078
:0C1C8400E2FF00C0E6FF042A5CD712005B
:101C900093EC19F00001756B45EC06F00F0EC16E68
:101CA00001DDE8DC95DC24D2DFEC09F0010E000157
:101CB000756F30D22EC0DEF060DE00C075F02AD223
:101CC00045EC06F0AEEC06F01AC0EFF019C0F0F0EB
:101CD0007EEC06F0F28A6B0E0001DE6F000EDF6F05
:101CE00080DC7551010A03E1AEEC06F02CD1060E42
:101CF000006EDE0EE16E000EE26E280EE96E000E42
:101D0000EA6EEECFE6FF0006FCE1370E0001E46F5D
:101D1000000EE56FD80E006E000E016EF6EC09F0B5
:101D2000060E006E280EE16E000EE26ED80EE96E11
:101D3000000EEA6EEECFE6FF0006FCE1370E000172
:101D4000DE6F000EDF6FFEDE060E006EDE0EE16E51
:101D5000000EE26E220EE96E000EEA6EEECFE6FF96
:101D60000006FCE1370E0001E46F000EE56FD80EAF
:101D7000006E000E016ECDDC060E006E220EE16ECE
:101D8000000EE26ED80EE96E000EEA6EEECFE6FFB0
:101D90000006FCE1040E006EDE0EE16E000EE26E47
:101DA0006B0EE96E000EEA6EEECFE6FF0006FCE178
:101DB000010E0001E26F93DD040E006EDE0EE16E97
:101DC000000EE26E220EE96E000EEA6EEECFE6FF26
:101DD0000006FCE100010A0EE26F330EE36F000E15
:101DE000E46F8FDD040E006EDE0EE16E000EE26E1B
:101DF000280EE96E000EEA6EEECFE6FF0006FCE16B
:101E00000A0E0001E26F330EE36F000EE46F79DD1E
:101E10000001C76B800E000A006E800E005C02E1BC
:101E2000C7510C0821E3C7C000F0000E016E003658
:101E300000900136003600900136370E0024E96E1E
:101E4000000E0120EA6E040E006EDE0EE16E000E42
:101E5000E26EEECFE6FF0006FCE10001010EE26F4C
:101E60007EDD0001C72BD6D79C0E0C6ED70E0D6EF3
:101E70000D2EFED70C2EFCD7C76B800E000A006E0D
:101E8000800E005C02E1C7510C081FE3C7C000F0E0
:101E9000000E016E003600900136003600900136CB
:101EA000370E0024E96E000E0120EA6E040E006E6B
:101EB000DE0EE16E000EE26EEECFE6FF0006FCE104
:101EC000E26B4DDD0001C72BD8D7040E006EDE0E8D
:101ED000E16E000EE26E6B0EE96E000EEA6EEECF62
:101EE000E6FF0006FCE10001E26BF9DC040E006E87
:101EF000DE0EE16E000EE26E280EE96E000EEA6E56
:101F0000EECFE6FF0006FCE10001F80EE26F320EB4
:101F1000E36F000EE46FF5DC040E006EDE0EE16E82
:101F2000000EE26E220EE96E000EEA6EEECFE6FFC4
:101F30000006FCE1F80E0001E26F320EE36F000EC6
:101F4000E46FDFDCC8D6E6D045EC06F0AEEC06F078
:101F5000F29A00017551010A03E1AEEC06F0C6D019
:101F6000D80E006E000E016EB2EC06F0030E006E8D
:101F7000C40EE16E000EE26ED80EE96E000EEA6E3F
:101F8000EECFE6FF0006FCE10001C45305E02904A2
:101F9000006E00C029F007D0C55305E02950010F9D
:101FA000006E00C029F0200EDE6F000EDF6F020E03
:101FB000E06F000EE16FC4EC0AF0280EDE6F000E39
:101FC000DF6F060EE06F000EE16FC4EC0AF080ECEC
:101FD0000BF000C01EF0800E026E800E000A025C44
:101FE00002E1080E005C1AE3760EDE6F000EDF6F72
:101FF000020EE06F000EE16F8BDD7751211802E1D8
:10200000205076190AE12F0EDE6F000EDF6F060EEC
:10201000E06F000EE16F7CDDDAD770DC2950000A3A
:1020200005E145EC06F0010E0001756F040E006E2F
:10203000DE0EE16E000EE26E2F0EE96E000EEA6E0D
:10204000EECFE6FF0006FCE10A0EE26F330EE36F0F
:10205000000EE46F56DC040E006EDE0EE16E000E24
:10206000E26E280EE96E000EEA6EEECFE6FF000685
:10207000FCE10A0E0001E26F330EE36F000EE46F25
:1020800040DC750E0C6EE10E0D6E0D2EFED70C2E83
:10209000FCD7040E006EDE0EE16E000EE26E280E1E
:1020A000E96E000EEA6EEECFE6FF0006FCE1F80EE8
:1020B0000001E26F320EE36F000EE46F22DC040ECB
:1020C000006EDE0EE16E000EE26E2F0EE96E000E67
:1020D000EA6EEECFE6FF0006FCE1F80E0001E26FCB
:1020E000320EE36F000EE46F0CDC33D713D012D046
:1020F00000017551000AD8B4D7D57551010AD8B47A
:10210000D9D57551020AD8B4DBD57551030AD8B4B4
:082110001BD7EDD7C8D5FFD79E
:1033260010EE19F0090E006E010E016E1C0EF66EFF
:0E333600330EF76E000EF86E29EC0BF012004D
:10211800000000000000000000000000FCFCFC1CA7
:102128001C1C1C1C1C1C1C000000FCFCFC1C1C1C9B
:102138001C1CFCFCFC0000FCFCFC1C1C1CFCFCFC2F
:10214800FC0000FCFCFC1C1C1C1C1C1C1C00FCFCDB
:10215800FC1C1C1C1C1C000000000000FCFCFC1CDF
:102168001C1C1C1C1C1C1CE0E0E00000FCFCFC1CF3
:102178001C1CFCFCFC0000FCFCFC1C1C1C1C1C00AB
:1021880000FCFCFC1C1C1C1C1C00000000000000C7
:102198000000000000000000000000000F0F0F0EFC
:1021A8000E0E0E0EFEFEFE000000FFFFFF1C1C1CA4
:1021B8001C1C1F1F1F0000FFFFFF0E0E0EFFFFFF5E
:1021C800FF0000FFFFFF0000000000000000FFFF0D
:1021D800FF0E0E0E0000000000000000FFFFFF3899
:1021E800383838F8F8F8380707070000FFFFFF0EFF
:1021F8000E0EFFFFFF0000FFFFFF000000000000C1
:1022080000FFFFFF0E0E0E0000000000000000009F
:10221800000000000000000000000000070707079A
:102228000707070707070700000007070700000060
:10223800000000000000000707070000000707076C
:10224800070000070707070707070707070007072B
:102258000707070707070000000000000707070037
:102268000000000101010707070000000707070039
:102278000000070707000007070707070707070009
:10228800000707070707070707000000000000000E
:102298000000000000000000000000000000000036
:1022A8000000000000000000000000000000000026
:1022B800000000000000C0C0C0C000000000000016
:1022C80000E0E0606060E0E00000E0E000000000A6
:1022D800E0E0606060E0E00000E0E00000E0E000D6
:1022E80000E0E0606060600000E0E06060E0E00066
:1022F80000000000000000000000000000000000D6
:1023080000000000000000000000000000000000C5
:1023180000000000000000000000000000000000B5
:1023280000000000000000000000000000000000A5
:1023380000000000000060607F7F60600000000017
:10234800007F7F060606070700007F7F6060600049
:102358007F7F0606067F7F000001037F7F03010061
:10236800007F7F6660606000007F7F0C1E7F7300C7
:102378000000000000000000000000000000000055
:102388000000000000000000000000000000000045
:102398000000000000000000000000000000000035
:1023A8000000000000000000000000000000000025
:1023B800000000000000B0B0B0B0F0F00000000075
:1023C80000F8F8989898F8F80000F8F8000000006D
:1023D800F8F8989898F8F8000078F8C0C0F87800ED
:1023E80000F8F8981818180000F8F81898F8F80085
:1023F800F8F8989898980000000000000000000085
:1024080000000000000000000000000000000000C4
:1024180000000000000000000000000000000000B4
:1024280000000000000000000000000000000000A4
:102438000000000000000F0F0D0D0D0D0000000042
:10244800001F1F010101010100001F1F18181800BB
:102458001F1F0101011F1F000000001F1F000000B7
:10246800001F1F1918181800001F1F03071F1C0042
:102478000D0D0D0D0F0F0000000000000000000002
:102488000000000000000000000000000000000044
:102498000000000000000000000000000000000034
:1024A8000000000000000000000000000000000024
:1024B8000000000000000000000000000000000014
:1024C8000000000000000000000000000000000004
:1024D80000000000000000000000000000000000F4
:1024E80000000000000000000000000000000000E4
:1024F80000000000000000000000000000000000D4
:1025080000000000000000000000000000000000C3
:102518000000000000000000FFFFFF878787878713
:10252800878787000000FFFFFF0707070707FFFFF0
:10253800FF0000FFFFFF878787FFFFFF0000FFFF07
:10254800FFFF0707070707070700FFFFFF878787C2
:102558000707000000000000FFFFFF070707070745
:10256800070707F8F8F80000FFFFFF878787FFFFD6
:10257800FF0000FFFFFF070707070700FFFFFF87B0
:1025880087878707070000000000000000000000A0
:102598000000000000000000C3C3C3C3C3C3C3FFDF
:1025A800FFFFFF000000FFFFFF07070707070707F8
:1025B800070000FFFFFF030303FFFFFF0000FFFF0B
:1025C800FFFFC0C0C0C0C0C0C000FFFFFFC3C3C37F
:1025D800C0C0000000000000FFFFFF0E0E0E7E7E50
:1025E8007E7ECEC1C1010000FFFFFF030303FFFF92
:1025F800FF0000FFFFFFC0C0C0C0C000FFFFFFC357
:10260800C3C3C3C0C00000000000000000000000F9
:10261800000000000000000001010101E1E101816A
:1026280081C1E160000001616160E0E0606060001C
:1026380000E0E00101C1C0C0C0C1C10100C0C1C10A
:10264800C1C1C1C10101E1E1C10001E1E101010133
:102658000101000000C0C0C0C1C1C10000C0C0C0AD
:10266800C0C0C1C101C0C0C0C1C1C100C0C0C1C1DA
:10267800C1C000E1E1C10101E1E101C0C1C1C1C1C5
:10268800C1C10101C1C0C0C0C000000000000000FD
:102698000000000000000000000000007F7F070F1E
:1026A8000F1D38787000006060607F7F00000000B8
:1026B800007F7F00007F7F0C1E7F7700007F7F6098
:1026C80060607F7F00007F7F030F3C7F7F000000FA
:1026D80060600000007F7F0C1E7F7700007F7F66B0
:1026E80066667F3F007F7F0C1E7F77007F7F666076
:1026F8006060007F7F030F3C7F7F007F7F666060A4
:10270800606000006F6F6C7D7D00000000000000BD
:1027180000000000000000000000606060E0E06071
:1027280060606000E0E06060E0E000E0E000000081
:10273800E0E000000000E0E06060606000E0E06071
:102748006060E0E000000000E0E0606060600000C1
:10275800E0E0C00080C0E0E00000E0E06060E0E0B1
:10276800E000E0E06060606000E0E06060E0E00001
:1027780000E0E00000E0E0E0E0C00000E0E06060D1
:1027880060E0E000E0E060E0E00000000000000041
:10279800000000000000000000000000003F3F00B3
:1027A800000000003F3F06063F3F003F3F3030003B
:1027B8003F3F303000003F3F33303030003F3F066E
:1027C800060F3F3B000000003F3F33303030000031
:1027D8003F3F030707013F3F00003F3F33333F1FA1
:1027E8001F003F3F33303030003F3F33333F1F003F
:1027F800003F3F00003F3F30391F0F003F3F303060
:10280800303F3F003737363E3E00000000000000F2
:1028180000000000000000000000000000000000B0
:1028280000000000000000000000000000000000A0
:10283800000000000000000000F8F8D81818180080
:102848000000F8F898D8F8F80000FCFC00007C7C40
:10285800C0C000C0E07C7C0000F8F8D81818180048
:1028680000F8F898D8F8F800F8F89898F8F8000000
:102878000000000000000000000000000000000050
:102888000000000000000000000000000000000040
:102898000000000000000000000000000000000030
:1028A8000000000000000000000000000000000020
:1028B8000000000000000000000F0F0C0C0C0C00C2
:1028C80000000F0F01030F0E00000F0F00000000A3
:1028D800030F0C0F03000000000F0F0C0C0C0C0072
:1028E800000F0F01030F0E000F0F01010F0F000063
:1028F80000000000000000000000000000000000D0
:1029080000000000000000000000000000000000BF
:1029180000000000000000000000000000000000AF
:10292800000000000000000000000000000000009F
:10293800000000000000000000000000000000008F
:10294800000000000000000000000000000000007F
:10295800000000000000000000000000000000006F
:10296800000000000000000000000000000000005F
:10297800000000000000000000000000000000004F
:10298800000000000000000000000000000000003F
:10299800000000000000000000000000000000002F
:1029A800000000000000000000000000000000001F
:1029B800000000000000000000000000000000000F
:1029C80000000000000000000000000000000000FF
:1029D80000000000000000000000000000000000EF
:1029E80000000000000000000000000000000000DF
:1029F80000000000000000000000000000000000CF
:102A080000000000000000000000000000000000BE
:102A180000000000000000000000000000000000AE
:102A2800000000000000000000000000000000009E
:102A3800000000000000000000000000000000008E
:102A4800000000000000000000000000000000007E
:102A5800000000000000000000000000000000006E
:102A6800000000000000000000000000000000005E
:102A7800000000000000000000000000000000004E
:102A8800000000000000000000000000000000003E
:102A9800000000000000000000000000000000002E
:102AA800000000000000000000E0F0D010101070DE
:102AB8006000C0E0301010F0E0C000F0F0E0C0C0EE
:102AC800F0F0F00010F0F09090B03010000000002E
:102AD800000000000000F0F0101010F0F00010F0FE
:102AE800F0000000F0F00000F0F0F09090B030003E
:102AF80010F0F0F09090F0E00000000000000000FE
:102B080000000000000000000000000000000000BD
:102B180000000000000000000000000000000000AD
:102B2800000000000000000000070F0F08080B0F4E
:102B380007000F0F0303030F0F0F000F0F00030011
:102B48000F0F0F00080F0F09090D0C0800000000F7
:102B58000000000000000F0F0808080F0F00010315
:102B6800070E0C06070300080F0F0F09090D0C00CC
:102B7800080F0F0F03070F0C0000000000000000F3
:102B8800000000000000000000000000000000003D
:102B9800000000000000000000000000000000002D
:102BA800000000000000000000000000000000001D
:102BB800000000000000000000000000000000000D
:102E48000000808080808080F0F0F0F0F0F0F0F0FA
:102E5800F0F0F0F0F0F0F0F08080808080800000EA
:102E6800000000000000000000000000000000005A
:102E7800000000000000000000000000000000004A
:102E8800000000000000000000000000000000003A
:102E9800000000000000000000000000000000002A
:102EA800000000000000000000000000000000001A
:102EB800000000000000000000000000000000000A
:102EC800000001010104040607070F8F0FFFFFFF31
:102ED800FFFFFF0F8F07070704040400010100002C
:102EE80000000000000000000000000000000000DA
:102EF80000000000000000000000000000000000CA
:102F080000000000000000000000000000000000B9
:102F180000000000000000000000000000000000A9
:102F2800000000000000000000C0C0000000000019
:102F380000C0C0C0C000808040404040C0C0808009
:102F48000000C0C0000000C0C0C0C00000000000F9
:102F580000C0C00000000000C0C0C0C00000C0C069
:102F6800C0C00000C0C08080000000C0C0C0C00059
:102F780000C0C0C0C0000000000000000000000049
:102F88000000000000000000000000000000000039
:102F98000000000000000000000000000000000029
:102FA800000000000000000000010102021E1E1FB8
:102FB8001F0303010100070F081010101F1F0F0F38
:102FC80000000F0F1010101F1F0F0F00000000004F
:102FD800000F0F10000E0E101F1F0F0F00001F1FF5
:102FE8001F1F00001F0F00000101020F1F1F1F00FD
:102FF800001717171700000000000000000000006D
:1030080000000000000000000000000000000000B8
:1030180000000000000000000000000000000000A8
:103028000000000000000000000000000000000098
:103038000000000000000000000000000000000088
:103048000000000000000000000000000000000078
:103058000000000000000000000000000000000068
:103068000000000000000000000000000000000058
:103078000000000000000000000000000000000048
:103088000000000000000000000000000000000038
:103098000000000000000000000000000000000028
:1030A8000000000000000000000000000000000018
:1030B8000000000000000000000000000000000008
:1030C80000000000000000000000000000000000F8
:1030D80000000000000000000000000000000000E8
:1030E80000000000000000000000000000000000D8
:1030F80000000000000000000000000000000000C8
:1031080000000000000000000000000000000000B7
:10311800000000000000005F000000070007001426
:103128007F147F14242A7F2A1223130864623649E5
:103138005522500005030000001C224100004122D6
:103148001C00082A1C2A0808083E080800503000FD
:1031580000080808080800303000002010080402A1
:103168003E5149453E00427F400042615149462157
:1031780041454B311814127F1027454545393C4AC3
:103188004949300171090503364949493606494913
:10319800291E0036360000005636000000081422AA
:1031A8004114141414144122140800020151090690
:1031B800324979413E7E1111117E7F494949363E97
:1031C800414141227F4141221C7F494949417F09B0
:1031D8000901013E414151327F0808087F00417FC3
:1031E80041002040413F017F081422417F40404078
:1031F800407F0204027F7F0408107F3E4141413E28
:103208007F090909063E4151215E7F091929464671
:103218004949493101017F01013F4040403F1F209A
:1032280040201F7F2018207F63140814630304784C
:103238000403615149454300007F414102040810DD
:103248002041417F00000402010204404040404008
:10325800000102040020545454787F48444438380C
:1032680044444420384444487F3854545418087E11
:10327800090102081454543C7F0804047800447D72
:1032880040002040443D00007F10284400417F401A
:10329800007C041804787C080404783844444438D2
:1032A8007C14141408081414187C7C0804040848B6
:1032B80054545420043F4440203C4040207C1C206F
:1032C80040201C3C4030403C44281028440C5050BE
:1032D800503C4464544C44000836410000007F00D0
:1032E80000004136080008082A1C08081C2A08089B
:1032F80000000000000000000000000000000000C6
:023308000000C3
:10330A0080C0E4F6FFF6E4C080000000010001007E
:02331A000000B1
:01331C0000B0
:01331D0000AF
:01331E0000AE
:01331F0000AD
:0133200000AC
:0133210000AB
:0133220000AA
:023323006996A9
:020000040030CA
:0E000000010C1F1EFF8381FF0FC00FE00F4099
:00000001FF
