:0400000081EF09F093
:1000080000C015F0F2A40CD0F2940B0ED76EDC0EE3
:10001800D66E172A020E175C03E3010E166E176AD6
:0600280015C000F01100FC
:0C002E00060E0D6E0D2EFED70000120015
:0A003A00F9DF8A88F7DF8A981200C8
:06004400000000001200A4
:10004A007F0E0001B015006E00C0B0F08A948A9647
:10005A00BF0E001600C0B0F0008C00C0B0F000C0A7
:06006A0083FFE6DF120037
:10007000120E006E000E016E830E0024E16E0F0E54
:100080000120E26EFF0EE66EDDDFDCDF8A848A98F7
:100090008A868A88CCDF83CFB0F08A988A96D2DFAE
:1000A000D1DF120E006E000E016E830E0024E16E91
:0E00B0000F0E0120E26EE66AB0C000F01200F2
:1000BE008A948A96B80E0001B011836EB7DF1200D3
:0E00CE008A988A848A96B0C083FFB0DF120041
:1000DC007F0E0001B015016E01C0B0F001AC03D071
:0C00EC008A808A9202D08A908A821200D8
:1000F800AAC01CF0ABC01DF0000E1E6E1F6E010ED4
:040108001B6E120058
:10010C00000E0001AA5D0AE3AA517F0807E3000E66
:10011C00AB5D04E3AB513F0801E301D04AD0AAC068
:10012C00B0F0D6DFABC0B0F0B033B09FB033B09FFF
:10013C00B033B09FBEDFAAC0B0F081DF93DF00C048
:10014C00AFF090DF00C0AFF0ABC0B0F0B033B09FF9
:10015C00B033B09FB033B09FACDFAAC0B0F06FDF4C
:10016C00070EAB15006E00C0ADF000C001F0010E23
:10017C00006E015004E000360090FF0FFBD700C06A
:10018C00ADF0001CAE6F09D0AE51AF170FD0AD5112
:10019C00AF130CD0AD51AF1B09D0AC51000AF4E039
:1001AC00AC51010AF4E0AC51020AF4E0AFC0B0F07B
:0401BC0088DF1200C6
:1001C0000134083609360450085E0550D8A0053CB5
:1001D000095E003601360F0E0C6E01340836093602
:1001E000045000A006D0085E0550D8A0053C095E6A
:1001F00005D008260550D8B0053C09260036013642
:100200000C2EEBD700B006D0045008260550D8B00D
:08021000053C09260000120064
:10021800220E0C6E086A096A0A6A0B6A0C06D8B4C0
:100228001FD0D8900B320A32093208320332023218
:1002380001320032D8A0F2D70C06D8B409D0045045
:1002480008260550092206500A2207500B22EAD731
:10025800045008260550092206500A2207500B228E
:02026800120082
:10026A008A908A8200019D6B9D5107080EE39DC00A
:10027A00B0F020DF9C6B9C513F0805E39BC0B0F0B7
:10028A0021DF9C2BF8D79D2BEFD78A928A809D6B12
:10029A009D5107080EE39DC0B0F00CDF9C6B9C518A
:1002AA003F0805E39BC0B0F00DDF9C2BF8D79D2BD0
:0402BA00EFD7120068
:1002BE0000019F6BA06BA16B9F5107083DE3B06BD4
:1002CE0006DF9FC0B0F0F4DEB06BB8DE9E6B9E51C1
:1002DE003F0811E3A0519B25F66EA1519C21F76EAC
:1002EE00000E9D21F86E0900F5CFB0F0E9DEA04BAF
:1002FE00A12B9E2BECD7400EB06FE9DE9FC0B0F065
:10030E00D7DE400EB06F9ADE400E9E6F9E517F0874
:10031E0011E3A0519B25F66EA1519C21F76E000EA4
:10032E009D21F86E0900F5CFB0F0CADEA04BA12BCF
:0A033E009E2BECD79F2BC0D71200B6
:10034800000E0001A01902E1000E9F1908E19BC0F0
:10035800AAF09DC0ABF0A1C0ACF0D4DED2D0A66BA1
:10036800A76B9B519D5DA86F9C519E59A96F9FC01B
:10037800A4F0A0C0A5F09FC000F0A0C001F0003616
:100388000090013600C0A2F001C0A3F0005003089D
:10039800A26F01C0A3F0000EA357010EA425016EA1
:1003A800000EA521026E800EA719006E800E02189D
:1003B800005C02E10150A65DD8B0A3D0A6519B25F0
:1003C800AA6FA4519D25AB6FA1C0ACF09BDEA651CE
:1003D8009B25AA6FA4519D5DAB6FA1C0ACF092DEC6
:1003E800800E006E800EA719005C02E1A65100087D
:1003F80012E2A6519B5DAA6FA4519D25AB6FA1C0C7
:10040800ACF080DEA6519B5DAA6FA4519D5DAB6FD9
:10041800A1C0ACF077DEA751A51902E1A451A61935
:1004280035E0A4519D25AA6FA851AA5FA6519D2524
:10043800AB6FA1C0ACF066DEA4519D5DAA6FA85158
:10044800AA5FA6519D25AB6FA1C0ACF05BDE800E04
:10045800006E800EA719005C02E1A651000816E2A2
:10046800A4519D25AA6FA851AA5FA6519D5DAB6FA7
:10047800A1C0ACF047DEA4519D5DAA6FA851AA5F48
:10048800A6519D5DAB6FA1C0ACF03CDE800EA319F8
:10049800006E800E005C02E1000EA25D13E2A6C0B1
:1004A80000F0A7C001F00036009001360036009039
:1004B8000136060E0026000E01220050A227015028
:1004C800A3231CD0A451A65D036EA551A759046EA1
:1004D80003C000F004C001F0003600900136003679
:1004E800009001360A0E0026000E01220050A227B5
:1004F8000150A323010EA45F000EA55BA64BA72BFA
:040508004CD71200BA
:10050C001B5206E1010E0001AA6F000EAB6FEEDD6F
:10051C001CC000F01DC001F01EC002F01FC003F093
:10052C006D0E046E4E0E056EC60E066E410E076EF7
:10053C006DDE390E0024056E300E0120066E000EA5
:10054C000220076E000E0320086E07C000F008C0E2
:10055C0001F0000E08BEFF0E026E036EFF0E0016B9
:10056C007F0E0116000E0216031600C01CF001C00F
:0C057C001DF002C01EF003C01FF01200B2
:100588000450000A08E10550000A05E1FF0E006E5C
:100598007F0E016E57D00D6A096A086A0150001073
:1005A800D8B4000C015005180A6E0ABE0D1E0B6A5D
:1005B80005AE05D0041E051E042AD8B4052A01AECE
:1005C80005D0001E011E002AD8B4012A01500510CA
:1005D8000A6E0ABE10D0F0DD0BB020D00DAE000CB4
:1005E800001E011E002AD8B4012A081E091E082A66
:1005F800D8B4092A000C05AE0DD001BE07D00150B1
:10060800096E0050086E016A006AE8D7016A006A3C
:10061800002A000C011E001E0B2ADDD7082AD8B4B8
:10062800092A0450085CD8A4D9D70550095CD8A475
:10063800D5D7096A086A002AD8B4012A01AECED7EC
:060648000000FF0C12008F
:10064E000001A1519F25016E000E9FBFFF0E026E8D
:10065E00000EA1BFFF0E0222800E9BBF7F0E006E0A
:10066E00800E0218005C02E101509B5D45E29D5137
:10067E009B25016E000E9BBFFF0E026E000E9DBFEE
:10068E00FF0E0222800E9FBF7F0E006E800E02189C
:10069E00005C02E101509F5D2FE2A251A025016E88
:1006AE00000EA0BFFF0E026E000EA2BFFF0E0222B2
:1006BE00800E9CBF7F0E006E800E0218005C02E161
:1006CE0001509C5D19E29C519E25016E000E9EBF4D
:1006DE00FF0E026E000E9CBFFF0E0222800EA0BF08
:1006EE007F0E006E800E0218005C02E10150A05DCC
:0C06FE0003E2010E006E01D0006A120041
:10070A00000E00019D5D04E39D513F0801E301D005
:10071A0027D0000E9B5DD8A09B6B9B517F0802E2FD
:10072A007F0E9B6F000E9C5DD8A09C6B9C517F082E
:10073A0002E27F0E9C6F9B519C5D06E29BC09FF07C
:10074A009CC09BF09FC09CF09B519C5D09E39BC0A1
:10075A00AAF09DC0ABF09EC0ACF0D3DC9B2BF4D7C3
:02076A0012007B
:10076C000B6A0A6A096A00500402F4CF09F0F3CF4D
:10077C0008F001500502F4CF0BF0F3CF0AF0005053
:10078C000502F3500926F4500A22E86A0B220150A4
:10079C000402F3500926F4500A22E86A0B2208C01E
:1007AC0000F009C001F00AC002F00BC003F0120007
:1007BC00A7DE00017851010F046E056A000E0522B8
:0C07CC00DDDE08C000F009C001F01200E2
:0807D80000019B6B46DD1200DD
:1007E00000018D6B8E6B8F6B906B916B926B936B2B
:1007F000946B7C517825006E7D517921016E010E3C
:10080000005C026E000E0158036E000E006E035075
:10081000005C02E102507F0807E2785180087C6F9B
:1008200079C07DF0000E7D577E517A25006E7F5194
:100830007B21016E010E005C026E000E0158036EFA
:10084000000E006E0350005C02E102503F0807E218
:100850007A5140087E6F7BC07FF0000E7F577AC0D0
:1008600000F07BC001F001320032019E0132003203
:10087000019E01320032019E00C087F07E517A2530
:10088000056E7F517B21066E010E055C036E000E26
:100890000658046E03C000F004C001F001320032BB
:1008A000019E01320032019E01320032019E00C0E1
:1008B00088F0070E7A15006E7BC001F0000E01165D
:1008C00000C08AF0070E0514006E06C001F0000E8D
:1008D000011600C08BF083517F5D02E182517E5D85
:1008E00003E288C08CF01BD082517A25006E8351C0
:1008F0007B21016E010E005C036E000E0158046E38
:1009000003C000F004C001F001320032019E013248
:100910000032019E01320032019E00C08CF0070EB1
:100920008215016E83C002F0000E0216000E02183E
:1009300002E1000E011817E182C000F083C001F04F
:1009400001320032019E01320032019E013200323A
:10095000019E80C004F081C005F008DF00C097F060
:1009600001C098F018D082C000F083C001F00132BD
:100970000032019E01320032019E01320032019E9E
:10098000004A012A80C004F081C005F0EFDE00C0FB
:1009900097F001C098F087C08DF0000E8E6F000EAA
:1009A000006E8E51005C02E18D51885DD8A003D1AC
:1009B000956B966B8F6B906B7D51905D02E17C51D6
:1009C0008F5DD8B0E7D08F517825B06F6EEC00F016
:1009D0008DC0B0F05FEC00F08151905D02E180517C
:1009E0008F5D3DE2000E006E8E51005C02E18D5184
:1009F0008C5D35E3000E8E1902E187518D1902E1FD
:100A0000996B12D093519525006E94519621016EE9
:100A100000508425F66E01508521F76E000E862168
:100A2000F86E0900F5CF99F09851925D02E1975167
:100A3000915D02E39A6B12D091519525006E92510F
:100A40009621016E00508425F66E01508521F76EC7
:100A5000000E8621F86E0900F5CF9AF002D09A6B4D
:100A6000996B9AC089F08A5100081AE28A510808E5
:100A7000006E016A000E015A99C089F0005004E02E
:100A80008933899FFF0FFBD78AC001F09AC000F01D
:100A9000015004E000360090FF0FFBD7005089138F
:100AA000000E8E1902E187518D192DE18A5100083F
:100AB0002AE28F517825B06F25EC00F038EC00F079
:100AC00038EC00F08A510808016E026A000E025AE2
:100AD00001C002F0FF0E016E025004E00132019EDF
:100AE000FF0FFBD701500014026E8AC001F0FF0E09
:100AF000006E015004E000360090FF0FFBD700505D
:100B0000891702508913000E8E1902E188518D1940
:100B10002DE18B5100082AE28F517825B06F25EC2A
:100B200000F038EC00F038EC00F08BC002F0FF0E63
:100B3000016E025004E001360190FF0FFBD7015017
:100B40000014026E8B510808006E016A000E015AF3
:100B500000C001F0FF0E006E015004E00032009E64
:100B6000FF0FFBD700508917025089138151905D08
:100B700002E180518F5D02E2954B962B8F517825D3
:100B8000B06F25EC00F089C0B0F067EC00F08F4B3F
:100B9000902B12D7000E8E5D02E18C518D5D08E224
:100BA00091C093F092C094F080519127815192238B
:080BB0008D4B8E2BF4D61200D0
:100BB80000C002F001C003F0016A80B4012A0150AC
:100BC800010A010ED8A4000E006E00C004F0016AEC
:100BD80080B6012A0150010A010ED8A4000E006E49
:100BE80000C005F0016A80B8012A0150010A010E0F
:100BF800D8A4000E006E00C006F0030E006E02C0FE
:100C0800E1FF03C0E2FF040EE96E000EEA6EEECFCC
:080C1800E6FF0006FCE11200FA
:100C20009C0E00019B6F150E9C6F000E9D6F5FEC7C
:040C300001F01200BD
:100C340079C07DF000017D517B5D0BE378C09BF0B2
:100C44007AC09CF07DC09DF07CC09EF05CDD7D2B65
:040C5400F1D71200C2
:100C5800040E006E9B0EE16E000EE26E780EE96ED9
:100C6800000EEA6EEECFE6FF0006FCE1040E006E11
:100C78009F0EE16E000EE26E7C0EE96E000EEA6ECB
:0C0C8800EECFE6FF0006FCE1DEDC12000F
:100C940078C09BF0000E000178BFFF0E9C6F79C0F6
:100CA4009DF0000E79BFFF0E9E6F7AC09FF0000E7C
:100CB4007ABFFF0EA06F7CC0A1F0A4EC01F012007B
:100CC400046A800E000A006E800E005C02E104508B
:100CD4000C08D8A09AD0010E0414016E0150010A28
:100CE4004AE104C000F0000E016E003600900136A7
:100CF400003600900136005000016725E96E01506E
:100D04006821EA6EEECF01F0800E000A006E800EBC
:100D14000118005C12E304C000F0000E016E0036FE
:100D24000090013600360090013600506725E16ED0
:100D340001506821E26E7C0EE66E04C000F0000EE5
:100D4400016E0036009001360036009001360050E6
:100D54006725026E01506821036E02C0E9FF03C0DB
:100D6400EAFFEECF00F0000602C0E1FF03C0E2FF9D
:100D740000C0E6FF48D0000104C000F0000E016E80
:100D84000036009001360036009001360050672589
:100D9400E96E01506821EA6EEECF01F0800E011871
:100DA400006E800E7C0A005C11E304C000F0000EAB
:100DB400016E003600900136003600900136005076
:100DC4006725E16E01506821E26EE66A04C000F016
:100DD400000E016E00360090013600360090013698
:100DE40000506725026E01506821036E02C0E9FFBE
:100DF40003C0EAFFEECF00F0002A02C0E1FF03C007
:0C0E0400E2FF00C0E6FF042A5CD71200E9
:100E10000900F5CFE6FF0006FBE10106F9E112004B
:100E200000016A6B350E6B6F696B69510C085EE3EC
:100E300069C000F0000E016E0036009001360036E9
:100E40000090013600506725E16E01506821E26E86
:100E50006AC0E6FF69C000F0000E016E0036009027
:100E60000136003600900136675100266851012294
:100E7000010E0024E16E000E0120E26E6BC0E6FF61
:100E800069C000F0000E016E003600900136003699
:100E9000009001366751002668510122020E00249D
:100EA000E16E000E0120E26E030EE66E69C000F0F6
:100EB000000E016E003600900136003600900136BB
:100EC0006751002668510122030E0024E16E000ED6
:100ED0000120E26E010EE66E7B0E786F6FDC00C0C3
:0E0EE0006AF0040E00016B5F692B9FD71200B1
:100EEE0067C09BF00001695167259C6F68C09DF03B
:080EFE006BC09EF003DC120042
:100F060067C078F0000E000167BFFF0E796F68C0FA
:100F16007AF0000E68BFFF0E7B6F69C07CF0000E92
:100F260069BFFF0E7D6F6AC07EF0000E6ABFFF0EBE
:100F36007F6F69C080F0000E69BFFF0E816F6AC0C7
:100F460082F0000E6ABFFF0E836F6BC084F06CC028
:0A0F560085F06DC086F041DC12004A
:100F6000190E00016B6F220E6C6F030E6D6F6E6BAE
:100F700057DE040E006E780EE16E000EE26E6B0E10
:100F8000E96E000EEA6EEECFE6FF0006FCE1010E10
:100F90007C6F80DE6F0E006E000E016E0DDE030EA4
:100FA000006E680EE16E000EE26E6F0EE96E000ECE
:100FB000EA6EEECFE6FF0006FCE100016A5309E0AD
:100FC0006751000A06E108DC020E006E000E016E99
:100FD00087D0685303E1695301E139D06751000AB2
:100FE00036E1040E006E780EE16E000EE26E6B0EBE
:100FF000E96E000EEA6EEECFE6FF0006FCE17C6BC8
:1010000049DE0E0E6C25006E00C06CF0040E006E02
:10101000780EE16E000EE26E6B0EE96E000EEA6E67
:10102000EECFE6FF0006FCE1010E7C6F33DE010E21
:10103000676F070E0B6EC20E0C6ED80E0D6E0D2E66
:10104000FED70C2EFCD70B2EFAD70000A3D76A537D
:101050000AE06751010A07E1ECEC03F0030E006EB1
:10106000000E016E3DD0685303E1695301E137D0B2
:101070006751010A34E1040E006E780EE16E000E35
:10108000E26E6B0EE96E000EEA6EEECFE6FF000632
:10109000FCE17C6BFFDD0E0E6C5D006E00C06CF041
:1010A000040E006E780EE16E000EE26E6B0EE96EBD
:1010B000000EEA6EEECFE6FF0006FCE1010E7C6F4B
:1010C000E9DD676B070E0B6EC20E0C6ED80E0D6E4F
:1010D0000D2EFED70C2EFCD70B2EFAD700005AD7B8
:0210E0001200FC
:1010E20067C078F068C079F00001695167257A6FAE
:0E10F2006A5168257B6F6BC07CF09BDD12009D
:1011000000C06FF001C070F0750E006E000E016E31
:1011100053DD030E006E710EE16E000EE26E750E71
:10112000E96E000EEA6EEECFE6FF0006FCE100017C
:10113000746B800E000A006E800E005C02E1745138
:101140000C0840E374C000F0000E016E0036009001
:10115000013600360090013600506D25E96E0150D1
:101160006E21EA6E040E006E780EE16E000EE26EE5
:10117000EECFE6FF0006FCE1040E006E7C0EE16E91
:10118000000EE26E670EE96E000EEA6EEECFE6FF2D
:101190000006FCE161DD005213E0200E676F370EA0
:1011A000686F060E006E6FC0E1FF70C0E2FF670E51
:1011B000E96E000EEA6EEECFE6FF0006FCE152D0CB
:1011C000742BB7D7725321E06C516825026E02C0B0
:1011D00068F06A05006E000E6ABFFF0E016E000E19
:1011E000015A02500024026E000E02BEFF0E0120C2
:1011F000036E800E0318006E800E005C02E13F0E4D
:10120000025C02E3370E686F1FD071530EE06C5121
:10121000685D016E01C068F0800E000A006E800EED
:101220000118005CD8B0686B0FD0060E006E6FC05E
:10123000E1FF70C0E2FF670EE96E000EEA6EEECFCE
:10124000E6FF0006FCE10ED0060E006E6FC0E1FF67
:1012500070C0E2FF670EE96E000EEA6EEECFE6FFA9
:061260000006FCE1120093
:10126600186A196A1A6A939A939893949396939024
:1012760093928A9A120E006E000E016E830E00245F
:10128600E16E0F0E0120E26EE66A8A948A968A90D3
:101296008A828A8A3F0E836E1DEC00F0C00E836E32
:1012A6001DEC00F08A808A923F0E836E1DEC00F0E2
:0A12B600C00E836E1DEC00F0120064
:1012C000830ED56E0B0ED76EDC0ED66EF28EF28AC2
:0212D00012000A
:1012D2009C0E00019B6F190E9C6F000E9D6F5FECC0
:1012E20001F0290E0B6E960E0C6E7F0E0D6E0D2EFA
:1012F200FED70C2EFCD70B2EFAD7ECEC03F0120023
:10130200166A176A020E5F6E0001606B200E596E3C
:10131200370E5A6E090E5B6E090E5C6E5D6A010E27
:101322005E6E3E0E546E030E556E010E566E3C0EF0
:10133200576E200E676F000E686F71DD0F0EC16E63
:1013420091DFBDDF1BD1C4DF010E5F6E24D160C00F
:1013520067F005DE00C05FF01ED1ECEC03F0040E76
:10136200006E670EE16E000EE26E590EE96E000E1F
:10137200EA6EEECFE6FF0006FCE1AE0E6B6F1D0ECD
:101382006C6F000E6D6FBEDD040E006E670EE16EB7
:10139200000EE26E540EE96E000EEA6EEECFE6FF2C
:1013A2000006FCE1010E6B6F9BDE800E5518006E8D
:1013B200800E3F0A005C02E3030E556E165206E0F1
:1013C2005550010F006E00C055F0166A060E006EF1
:1013D200670EE16E000EE26E590EE96E000EEA6EC5
:1013E200EECFE6FF0006FCE10001200E6D6F000E5D
:1013F2006E6F610E006E000E016E81DE060E006ED3
:10140200590EE16E000EE26E610EE96E000EEA6E9A
:10141200EECFE6FF0006FCE10001200E676F000E32
:10142200686F4FDC040E006E670EE16E000EE26E16
:10143200540EE96E000EEA6EEECFE6FF0006FCE106
:10144200010E00016B6F4CDE040E006E670EE16E42
:10145200000EE26E590EE96E000EEA6EEECFE6FF66
:101462000006FCE10001AE0E6B6F1D0E6C6F000EEC
:101472006D6F48DD586A800E000A006E800E005CB7
:1014820002E158500C0820E358C000F0000E016E33
:10149200003600900136003600900136200E0024FE
:1014A200E96E000E0120EA6E040E006E670EE16E18
:1014B200000EE26EEECFE6FF0006FCE10001010E37
:1014C2006B6F14DD582AD7D79C0E0C6ED70E0D6E9B
:1014D2000D2EFED70C2EFCD7586A800E000A006E25
:1014E200800E005C02E158500C081FE358C000F067
:1014F200000E016E00360090013600360090013673
:10150200200E0024E96E000E0120EA6E040E006E29
:10151200670EE16E000EE26EEECFE6FF0006FCE122
:1015220000016B6BE3DC582AD8D7040E006E670EFD
:10153200E16E000EE26E540EE96E000EEA6EEECF20
:10154200E6FF0006FCE100016B6BCADD040E006ED3
:10155200670EE16E000EE26E590EE96E000EEA6E43
:10156200EECFE6FF0006FCE100019C0E6B6F1D0E44
:101572006C6F000E6D6FC6DC18D70DD05F50000A7D
:10158200D8B4E1D65F50010AD8B4E1D65F50020A5E
:0A159200D8B4E3D6F2D7D6D6FFD7BF
:10159C00000000000000000000000000FCFCFC1C2F
:1015AC001C1C1C1C1C1C1C000000FCFCFC1C1C1C23
:1015BC001C1CFCFCFC0000FCFCFC1C1C1CFCFCFCB7
:1015CC00FC0000FCFCFC1C1C1C1C1C1C1C00FCFC63
:1015DC00FC1C1C1C1C1C000000000000FCFCFC1C67
:1015EC001C1C1C1C1C1C1CE0E0E00000FCFCFC1C7B
:1015FC001C1CFCFCFC0000FCFCFC1C1C1C1C1C0033
:10160C0000FCFCFC1C1C1C1C1C000000000000004E
:10161C000000000000000000000000000F0F0F0E83
:10162C000E0E0E0EFEFEFE000000FFFFFF1C1C1C2B
:10163C001C1C1F1F1F0000FFFFFF0E0E0EFFFFFFE5
:10164C00FF0000FFFFFF0000000000000000FFFF94
:10165C00FF0E0E0E0000000000000000FFFFFF3820
:10166C00383838F8F8F8380707070000FFFFFF0E86
:10167C000E0EFFFFFF0000FFFFFF00000000000048
:10168C0000FFFFFF0E0E0E00000000000000000027
:10169C000000000000000000000000000707070722
:1016AC0007070707070707000000070707000000E8
:1016BC0000000000000000070707000000070707F4
:1016CC0007000007070707070707070707000707B3
:1016DC0007070707070700000000000007070700BF
:1016EC0000000001010107070700000007070700C1
:1016FC000000070707000007070707070707070091
:10170C000007070707070707070000000000000095
:10171C0000000000000000000000000000000000BD
:10172C0000000000000000000000000000000000AD
:10173C00000000000000C0C0C0C00000000000009D
:10174C0000E0E0606060E0E00000E0E0000000002D
:10175C00E0E0606060E0E00000E0E00000E0E0005D
:10176C0000E0E0606060600000E0E06060E0E000ED
:10177C00000000000000000000000000000000005D
:10178C00000000000000000000000000000000004D
:10179C00000000000000000000000000000000003D
:1017AC00000000000000000000000000000000002D
:1017BC0000000000000060607F7F6060000000009F
:1017CC00007F7F060606070700007F7F60606000D1
:1017DC007F7F0606067F7F000001037F7F030100E9
:1017EC00007F7F6660606000007F7F0C1E7F73004F
:1017FC0000000000000000000000000000000000DD
:10180C0000000000000000000000000000000000CC
:10181C0000000000000000000000000000000000BC
:10182C0000000000000000000000000000000000AC
:10183C00000000000000B0B0B0B0F0F000000000FC
:10184C0000F8F8989898F8F80000F8F800000000F4
:10185C00F8F8989898F8F8000078F8C0C0F8780074
:10186C0000F8F8981818180000F8F81898F8F8000C
:10187C00F8F898989898000000000000000000000C
:10188C00000000000000000000000000000000004C
:10189C00000000000000000000000000000000003C
:1018AC00000000000000000000000000000000002C
:1018BC000000000000000F0F0D0D0D0D00000000CA
:1018CC00001F1F010101010100001F1F1818180043
:1018DC001F1F0101011F1F000000001F1F0000003F
:1018EC00001F1F1918181800001F1F03071F1C00CA
:1018FC000D0D0D0D0F0F000000000000000000008A
:10190C0000000000000000000000000000000000CB
:10191C0000000000000000000000000000000000BB
:10192C0000000000000000000000000000000000AB
:10193C00000000000000000000000000000000009B
:10194C00000000000000000000000000000000008B
:10195C00000000000000000000000000000000007B
:10196C00000000000000000000000000000000006B
:10197C00000000000000000000000000000000005B
:10198C00000000000000000000000000000000004B
:10199C000000000000000000FFFFFF87878787879B
:1019AC00878787000000FFFFFF0707070707FFFF78
:1019BC00FF0000FFFFFF878787FFFFFF0000FFFF8F
:1019CC00FFFF0707070707070700FFFFFF8787874A
:1019DC000707000000000000FFFFFF0707070707CD
:1019EC00070707F8F8F80000FFFFFF878787FFFF5E
:1019FC00FF0000FFFFFF070707070700FFFFFF8738
:101A0C008787870707000000000000000000000027
:101A1C000000000000000000C3C3C3C3C3C3C3FF66
:101A2C00FFFFFF000000FFFFFF070707070707077F
:101A3C00070000FFFFFF030303FFFFFF0000FFFF92
:101A4C00FFFFC0C0C0C0C0C0C000FFFFFFC3C3C306
:101A5C00C0C0000000000000FFFFFF0E0E0E7E7ED7
:101A6C007E7ECEC1C1010000FFFFFF030303FFFF19
:101A7C00FF0000FFFFFFC0C0C0C0C000FFFFFFC3DE
:101A8C00C3C3C3C0C0000000000000000000000081
:101A9C00000000000000000001010101E1E10181F2
:101AAC0081C1E160000001616160E0E060606000A4
:101ABC0000E0E00101C1C0C0C0C1C10100C0C1C192
:101ACC00C1C1C1C10101E1E1C10001E1E1010101BB
:101ADC000101000000C0C0C0C1C1C10000C0C0C035
:101AEC00C0C0C1C101C0C0C0C1C1C100C0C0C1C162
:101AFC00C1C000E1E1C10101E1E101C0C1C1C1C14D
:101B0C00C1C10101C1C0C0C0C00000000000000084
:101B1C000000000000000000000000007F7F070FA5
:101B2C000F1D38787000006060607F7F000000003F
:101B3C00007F7F00007F7F0C1E7F7700007F7F601F
:101B4C0060607F7F00007F7F030F3C7F7F00000081
:101B5C0060600000007F7F0C1E7F7700007F7F6637
:101B6C0066667F3F007F7F0C1E7F77007F7F6660FD
:101B7C006060007F7F030F3C7F7F007F7F6660602B
:101B8C00606000006F6F6C7D7D0000000000000045
:101B9C0000000000000000000000606060E0E060F9
:101BAC0060606000E0E06060E0E000E0E000000009
:101BBC00E0E000000000E0E06060606000E0E060F9
:101BCC006060E0E000000000E0E060606060000049
:101BDC00E0E0C00080C0E0E00000E0E06060E0E039
:101BEC00E000E0E06060606000E0E06060E0E00089
:101BFC0000E0E00000E0E0E0E0C00000E0E0606059
:101C0C0060E0E000E0E060E0E000000000000000C8
:101C1C00000000000000000000000000003F3F003A
:101C2C00000000003F3F06063F3F003F3F303000C2
:101C3C003F3F303000003F3F33303030003F3F06F5
:101C4C00060F3F3B000000003F3F333030300000B8
:101C5C003F3F030707013F3F00003F3F33333F1F28
:101C6C001F003F3F33303030003F3F33333F1F00C6
:101C7C00003F3F00003F3F30391F0F003F3F3030E7
:101C8C00303F3F003737363E3E000000000000007A
:101C9C000000000000000000000000000000000038
:101CAC000000000000000000000000000000000028
:101CBC00000000000000000000F8F8D81818180008
:101CCC000000F8F898D8F8F80000FCFC00007C7CC8
:101CDC00C0C000C0E07C7C0000F8F8D818181800D0
:101CEC0000F8F898D8F8F800F8F89898F8F8000088
:101CFC0000000000000000000000000000000000D8
:101D0C0000000000000000000000000000000000C7
:101D1C0000000000000000000000000000000000B7
:101D2C0000000000000000000000000000000000A7
:101D3C000000000000000000000F0F0C0C0C0C0049
:101D4C0000000F0F01030F0E00000F0F000000002A
:101D5C00030F0C0F03000000000F0F0C0C0C0C00F9
:101D6C00000F0F01030F0E000F0F01010F0F0000EA
:101D7C000000000000000000000000000000000057
:101D8C000000000000000000000000000000000047
:101D9C000000000000000000000000000000000037
:021DAC00000035
:101DAE0080C0E4F6FFF6E4C08000000001000100F0
:021DBE00000023
:020000040030CA
:0E000000010C1F1EFF8381FF0FC00FE00F4099
:00000001FF
