:04000000EEEF0CF023
:1000080000C015F0F2A40CD0F2940B0ED76EDC0EE3
:10001800D66E182A020E185C03E3010E196E186AD0
:0600280015C000F01100FC
:0C002E00060E0D6E0D2EFED70000120015
:0A003A00F9DF8A88F7DF8A981200C8
:06004400000000001200A4
:10004A00C9C06EF0CAC06FF0000E0001706F716F08
:06005A00010E746F12009C
:10006000220E0C6E086A096A0A6A0B6A0C06D8B47A
:100070001FD0D8900B320A320932083203320232D2
:1000800001320032D8A0F2D70C06D8B409D00450FF
:1000900008260550092206500A2207500B22EAD7EB
:1000A000045008260550092206500A2207500B2248
:0200B00012003C
:1000B2000134083609360450085E0550D8A0053CC4
:1000C200095E003601360F0E0C6E01340836093611
:1000D200045000A006D0085E0550D8A0053C095E79
:1000E20005D008260550D8B0053C09260036013651
:1000F2000C2EEBD700B006D0045008260550D8B01D
:08010200053C09260000120073
:10010A00120E006E000E016E830E0024E16E0F0EB9
:10011A000120E26EFF0EE66E90DF8FDF8A848A98F6
:10012A008A868A887FDF83CFC8F08A988A9685DF95
:10013A0084DF120E006E000E016E830E0024E16E43
:0E014A000F0E0120E26EE66AC8C000F012003F
:10015800086A080E0C6E003408360450085ED8B0E1
:0E01680002D00826D89000360C2EF5D71200D3
:100176000450000A08E10550000A05E1FF0E006E72
:100186007F0E016E57D00D6A096A086A0150001089
:10019600D8B4000C015005180A6E0ABE0D1E0B6A73
:1001A60005AE05D0041E051E042AD8B4052A01AEE4
:1001B60005D0001E011E002AD8B4012A01500510E0
:1001C6000A6E0ABE10D072DF0BB020D00DAE000C46
:1001D600001E011E002AD8B4012A081E091E082A7C
:1001E600D8B4092A000C05AE0DD001BE07D00150C7
:1001F600096E0050086E016A006AE8D7016A006A53
:10020600002A000C011E001E0B2ADDD7082AD8B4CE
:10021600092A0450085CD8A4D9D70550095CD8A48B
:10022600D5D7096A086A002AD8B4012A01AECED702
:060236000000FF0C1200A5
:10023C000001745305E1010EC96F000ECA6FFFDE99
:10024C006EC000F06FC001F070C002F071C003F01E
:10025C006D0E046E4E0E056EC60E066E410E076ECA
:10026C00F9DE390E0024056E300E0120066E000EEC
:10027C000220076E000E0320086E07C000F008C0B5
:10028C0001F0000E08BEFF0E026E036EFF0E00168C
:10029C007F0E0116000E0216031600C06EF001C090
:0C02AC006FF002C070F003C071F012008F
:0E02B8008A988A848A96C8C083FFBBDE120033
:1002C6000B6A0A6A096A00500402F4CF09F0F3CFF8
:1002D60008F001500502F4CF0BF0F3CF0AF00050FE
:1002E6000502F3500926F4500A22E86A0B2201504F
:1002F6000402F3500926F4500A22E86A0B2208C0C9
:1003060000F009C001F00AC002F00BC003F01200B1
:100316008A948A96B80E0001C811836E8BDE12008D
:100326007F0E0001C815016E01C0C8F001AC03D0F4
:0C0336008A808A9202D08A908A8212008B
:100342007F0E0001C815006E00C0C8F08A948A961C
:10035200BF0E001600C0C8F0008C00C0C8F000C07C
:0603620083FF6ADE1200B9
:1003680069DFBE51010F046E056A000E0522FFDE2B
:0A03780008C000F009C001F01200F7
:10038200000E0001BE5D0AE3BE517F0807E3000EC6
:10039200BF5D04E3BF513F0801E301D04AD0BEC0B4
:1003A200C8F0C0DFBFC0C8F0C833C89FC833C89FF9
:1003B200C833C89FAFDFBEC0C8F0C2DFA5DE00C031
:1003C200C3F0A2DE00C0C3F0BFC0C8F0C833C89FEC
:1003D200C833C89FC833C89F9DDFBEC0C8F0B0DF16
:1003E200070EBF15006E00C0C1F000C001F0010E83
:1003F200006E015004E000360090FF0FFBD700C0F2
:10040200C1F0001CC26F09D0C251C3170FD0C15135
:10041200C3130CD0C151C31B09D0C051000AF4E070
:10042200C051010AF4E0C051020AF4E0C3C0C8F0AE
:0404320042DF120093
:100436000001C051070801E282D07251BE5D006E14
:1004460073C001F0000E015660C004F0000E056E88
:1004560037DF00C0C6F001C0C7F0BFC0C8F06EDF0E
:10046600C0C0C8F055DFC26B6051C25D49E2BF51E2
:100476007F0801E264D0BFC0C8F052DFC0C0C8F038
:1004860047DFBFC0C8F05ADF3DDE00C0C3F03ADE2A
:1004960000C0C3F0BFC0C8F043DFC0C0C8F038DF3B
:1004A600BFC0C8F04BDFC6516125F66EC751622149
:1004B600F76E000EC7BFFF0E6321F86E0900F5CF79
:1004C60000F000C0C4F0C64BC72B001CC56F09D096
:1004D600C5C0C3F00FD0C4C0C3F00CD0C451C31BF9
:1004E60009D0C151000AF4E0C151010AF4E0C1513A
:1004F600020AF4E0C3C0C8F0DCDEBF2BC22BB4D7BF
:10050600BFC0C8F00DDFC0C0C8F002DFBFC0C8F072
:1005160015DFFF0EC46FC56B0CD0C4C0C3F0C4C0DA
:10052600C8F0C7DE0CD0C5C0C3F0C5C0C8F0C1DE78
:1005360006D0C151000AF1E0C151010AF4E01200EF
:100546000001C16B030EC15D0AE2C151BF25E16E18
:10055600000EC021E26E200EE66EC12BF3D7C1510C
:10056600BF25E16E000EC021E26EE66AC107C151E9
:10057600BF25C26F000EC021C36F0A0E046EBEC037
:1005860000F0E7DD08C000F0300E0026C2C0E1FF33
:10059600C3C0E2FF00C0E6FF0A0E046EBEC000F054
:1005A600D8DD00C0BEF00050000A01E102D0C1074C
:0405B600DED712007A
:1005BA000001B16BB26BAFC003F0B0C004F0AFC0C2
:1005CA0005F0B0C006F003C0E9FF04C0EAFFEE5030
:1005DA00200A04E1B151B21101E110D0010EB16F4C
:1005EA00000EB26F03C0E9FF04C0EAFF05C0E1FFD5
:1005FA0006C0E2FFEECFE6FF054A062A03C001F075
:10060A0004C002F0034A042A01C0E9FF02C0EAFF5B
:10061A00EE50000AD8E1AFC000F0B0C001F01200FD
:10062A008A908A820001B16BB15107080EE3B1C00A
:10063A00C8F06CDEB06BB0513F0805E3AFC0C8F03C
:10064A0036DEB02BF8D7B12BEFD78A928A80B16BFE
:10065A00B15107080EE3B1C0C8F058DEB06BB05113
:10066A003F0805E3AFC0C8F022DEB02BF8D7B12BA4
:04067A00EFD71200A4
:10067E000001B36BB46BB56BB35107083DE3C86BA8
:10068E004BDEB3C0C8F040DEC86B54DEB26BB25165
:10069E003F0811E3B451AF25F66EB551B021F76E98
:1006AE00000EB121F86E0900F5CFC8F0FEDDB44B97
:1006BE00B52BB22BECD7400EC86F2EDEB3C0C8F0F0
:1006CE0023DE400EC86F36DE400EB26FB2517F0889
:1006DE0011E3B451AF25F66EB551B021F76E000E91
:1006EE00B121F86E0900F5CFC8F0DFDDB44BB52BA4
:0A06FE00B22BECD7B32BC0D71200CB
:100708000001B46B6451000A0EE1050E606F070E1C
:10071800676FA20E616F2C0E626F000E636F200E62
:10072800726F000E736FB451AF25E96E000EB021E1
:10073800EA6EEE5216E0B451AF25E96E000EB02114
:10074800EA6EEECFBEF0B1C0BFF0B2C0C0F0B3C029
:10075800C1F06DDE6051010F006E0050B127B42B5F
:04076800E2D71200C2
:10076C00000E0001B15D04E3B1513F0801E301D07B
:10077C0027D0000EAF5DD8A0AF6BAF517F0802E25F
:10078C007F0EAF6F000EB05DD8A0B06BB0517F087C
:10079C0002E27F0EB06FAF51B05D06E2AFC0B3F0B6
:1007AC00B0C0AFF0B3C0B0F0AF51B05D09E3AFC0B3
:1007BC00BEF0B1C0BFF0B2C0C0F0DDDDAF2BF4D7DE
:0207CC00120019
:1007CE000001B46BB56BAFC0B6F0000EAFBFFF0E3D
:1007DE00B76F800EAF19006E800E000A005C0AE241
:1007EE00B44BB52BAF510008B66FB76B000EAFBF51
:1007FE00FF0EB75BB6C0BEF0B0C0BFF0B1C0C0F068
:10080E009BDE040EB26F000EB36F000E006EB3517E
:10081E00005C02E1B251000819E2B251B025E16E5E
:10082E00B351B121E26E010EB25D006E000EB359EE
:10083E00016E0050B025E96E0150B121EA6EEECF87
:10084E00E6FF010EB25F000EB35BDFD7B0C0E1FF73
:10085E00B1C0E2FF200EE66EB451B5111AE0B26BD4
:10086E00B36BB251B025E96EB351B121EA6EEE50C1
:10087E00200A03E1B24BB32BF4D7010EB25F000E88
:10088E00B35BB251B025E16EB351B121E26E2D0EC4
:04089E00E66E1200F0
:1008A2000001B551B325016E000EB3BFFF0E026EFB
:1008B200000EB5BFFF0E0222800EAFBF7F0E006E8C
:1008C200800E0218005C02E10150AF5D45E2B151B9
:1008D200AF25016E000EAFBFFF0E026E000EB1BF5C
:1008E200FF0E0222800EB3BF7F0E006E800E021832
:1008F200005C02E10150B35D2FE2B651B425016EF6
:10090200000EB4BFFF0E026E000EB6BFFF0E022233
:10091200800EB0BF7F0E006E800E0218005C02E1F6
:100922000150B05D19E2B051B225016E000EB2BFA6
:10093200FF0E026E000EB0BFFF0E0222800EB4BF89
:100942007F0E006E800E0218005C02E10150B45D61
:0C09520003E2010E006E01D0006A1200EA
:10095E000001B26B350EB36FB16BB1510C085EE393
:10096E00B1C000F0000E016E003600900136003668
:10097E00009001360050AF25E16E0150B021E26EBD
:10098E00B2C0E6FFB1C000F0000E016E003600905E
:10099E000136003600900136AF510026B0510122CB
:1009AE00010E0024E16E000E0120E26EB3C0E6FFE0
:1009BE00B1C000F0000E016E003600900136003618
:1009CE0000900136AF510026B0510122020E0024D4
:1009DE00E16E000E0120E26E030EE66EB1C000F075
:1009EE00000E016E00360090013600360090013682
:1009FE00AF510026B0510122030E0024E16E000E0D
:100A0E000120E26E010EE66E7B0EBE6FA6DC00C00C
:0E0A1E00B2F0040E0001B35FB12B9FD712009F
:100A2C00000E0001B41902E1000EB31908E1AFC0C9
:100A3C00BEF0B1C0BFF0B5C0C0F09DDCD2D0BA6B77
:100A4C00BB6BAF51B15DBC6FB051B259BD6FB3C090
:100A5C00B8F0B4C0B9F0B3C000F0B4C001F00036C7
:100A6C000090013600C0B6F001C0B7F0005003088A
:100A7C00B66F01C0B7F0000EB757010EB825016E66
:100A8C00000EB921026E800EBB19006E800E02188A
:100A9C00005C02E10150BA5DD8B0A3D0BA51AF25C9
:100AAC00BE6FB851B125BF6FB5C0C0F064DCBA5190
:100ABC00AF25BE6FB851B15DBF6FB5C0C0F05BDC88
:100ACC00800E006E800EBB19005C02E1BA5100086A
:100ADC0012E2BA51AF5DBE6FB851B125BF6FB5C050
:100AEC00C0F049DCBA51AF5DBE6FB851B15DBF6F9C
:100AFC00B5C0C0F040DCBB51B91902E1B851BA190C
:100B0C0035E0B851B125BE6FBC51BE5FBA51B125AD
:100B1C00BF6FB5C0C0F02FDCB851B15DBE6FBC511A
:100B2C00BE5FBA51B125BF6FB5C0C0F024DC800EDA
:100B3C00006E800EBB19005C02E1BA51000816E28F
:100B4C00B851B125BE6FBC51BE5FBA51B15DBF6F1C
:100B5C00B5C0C0F010DCB851B15DBE6FBC51BE5F0A
:100B6C00BA51B15DBF6FB5C0C0F005DC800EB719CE
:100B7C00006E800E005C02E1000EB65D13E2BAC09E
:100B8C0000F0BBC001F0003600900136003600903A
:100B9C000136060E0026000E01220050B627015029
:100BAC00B7231CD0B851BA5D036EB951BB59046E52
:100BBC0003C000F004C001F000360090013600368E
:100BCC00009001360A0E0026000E01220050B627B6
:100BDC000150B723010EB85F000EB95BBA4BBB2BAB
:040BEC004CD71200D0
:100BF0008CC0AFF0000E00018CBFFF0EB06F8DC037
:100C0000B1F0000E8DBFFF0EB26F8EC0B3F0000EBC
:0E0C10008EBFFF0EB46F90C0B5F008DF12006B
:100C1E000001A16BA26BA36BA46BA56BA66BA76B5C
:100C2E00A86B90518C25006E91518D21016E010E95
:100C3E00005C026E000E0158036E000E006E035033
:100C4E00005C02E102507F0807E28C518008906F31
:100C5E008DC091F0000E915792518E25006E9351DA
:100C6E008F21016E010E005C026E000E0158036EA4
:100C7E00000E006E0350005C02E102503F0807E2D6
:100C8E008E514008926F8FC093F0000E93578EC016
:100C9E0000F08FC001F001320032019E01320032AD
:100CAE00019E01320032019E00C09BF092518E25B2
:100CBE00056E93518F21066E010E055C036E000EBC
:100CCE000658046E03C000F004C001F00132003279
:100CDE00019E01320032019E01320032019E00C09F
:100CEE009CF0070E8E15006E8FC001F0000E0116DF
:100CFE0000C09EF0070E0514006E06C001F0000E37
:100D0E00011600C09FF09751935D02E19651925DDE
:100D1E0003E29CC0A0F01BD096518E25006E975119
:100D2E008F21016E010E005C036E000E0158046EE1
:100D3E0003C000F004C001F001320032019E013206
:100D4E000032019E01320032019E00C0A0F0070E5B
:100D5E009615016E97C002F0000E0216000E0218D4
:100D6E0002E1000E011818E196C000F097C001F0E4
:100D7E0001320032019E01320032019E01320032F8
:100D8E00019E94C004F095C005F063EC01F000C024
:100D9E00ABF001C0ACF019D096C000F097C001F0D6
:100DAE0001320032019E01320032019E01320032C8
:100DBE00019E004A012A94C004F095C005F063EC30
:100DCE0001F000C0ABF001C0ACF09BC0A1F0000E72
:100DDE00A26F000E006EA251005C02E1A1519C5D5B
:100DEE00D8A003D1A96BAA6BA36BA46B9151A45D80
:100DFE0002E19051A35DD8B0E7D0A3518C25C86F06
:100E0E0093EC01F0A1C0C8F08BEC01F09551A45DFC
:100E1E0002E19451A35D3DE2000E006EA251005C12
:100E2E0002E1A151A05D35E3000EA21902E19B5132
:100E3E00A11902E1AD6B12D0A751A925006EA851E0
:100E4E00AA21016E00509825F66E01509921F76E79
:100E5E00000E9A21F86E0900F5CFADF0AC51A65DEB
:100E6E0002E1AB51A55D02E3AE6B12D0A551A925EF
:100E7E00006EA651AA21016E00509825F66E015003
:100E8E009921F76E000E9A21F86E0900F5CFAEF09B
:100E9E0002D0AE6BAD6BAEC09DF09E5100081AE253
:100EAE009E510808006E016A000E015AADC09DF0F9
:100EBE00005004E09D339D9FFF0FFBD79EC001F0B5
:100ECE00AEC000F0015004E000360090FF0FFBD7DB
:100EDE0000509D13000EA21902E19B51A1192DE1A4
:100EEE009E5100082AE2A3518C25C86FA1EC01F097
:100EFE0085EC00F085EC00F09E510808016E026A48
:100F0E00000E025A01C002F0FF0E016E025004E004
:100F1E000132019EFF0FFBD701500014026E9EC0DE
:100F2E0001F0FF0E006E015004E000360090FF0F3E
:100F3E00FBD700509D1702509D13000EA21902E11F
:100F4E009C51A1192DE19F5100082AE2A3518C2535
:100F5E00C86FA1EC01F085EC00F085EC00F09FC0AD
:100F6E0002F0FF0E016E025004E001360190FF0FF9
:100F7E00FBD701500014026E9F510808006E016AE3
:100F8E00000E015A00C001F0FF0E006E015004E089
:100F9E000032009EFF0FFBD700509D1702509D138D
:100FAE009551A45D02E19451A35D02E2A94BAA2BD7
:100FBE00A3518C25C86FA1EC01F09DC0C8F05CEC6C
:100FCE0001F0A34BA42B12D7000EA25D02E1A0519B
:100FDE00A15D08E2A5C0A7F0A6C0A8F09451A52770
:0C0FEE009551A623A14BA22BF4D61200B3
:100FFA00A20E0001AF6F240EB06F000EB16F3FEC6E
:10100A0003F0290E0B6E960E0C6E7F0E0D6E0D2ED2
:10101A00FED70C2EFCD70B2EFAD7AF6B15EC03F0CC
:02102A001200B2
:10102C008DC091F0000191518F5D0CE38CC0AFF03D
:10103C008EC0B0F091C0B1F090C0B2F0B6EC03F03D
:06104C00912BF0D7120009
:0A1052000001AF6B15EC03F0120073
:10105C00040E006EAF0EE16E000EE26E8C0EE96EA9
:10106C00000EEA6EEECFE6FF0006FCE1040E006E09
:10107C00B30EE16E000EE26E900EE96E000EEA6E9B
:0C108C00EECFE6FF0006FCE106DC1200DF
:10109800A20E0001AF6F1C0EB06F000EB16F3FECD7
:0410A80003F012003F
:1010AC00A20E0001AF6F280EB06F000EB16F3FECB7
:1010BC0003F0290E0B6E960E0C6E7F0E0D6E0D2E20
:1010CC00FED70C2EFCD70B2EFAD7AF6B15EC03F01A
:0210DC00120000
:1010DE00176A166A196A186A206A200E1A6E370E77
:1010EE001B6E090E1C6E090E1D6E1E6A010E1F6E02
:1010FE005E0E216E370E226E090E236E090E246EC1
:10110E00256A010E266E3E0E5B6E030E5C6E010EA0
:10111E005D6E3C0E5E6E270E0001AF6F000EB06F5F
:04112E0017DC1200B8
:101132008CC0AFF0690E0001B06F000EB16FE7EC2A
:1011420003F0690EAF6F000EB06FDDEC02F000C06D
:10115200AFF001C0B0F00F0EB16F070EB26F010E0B
:10116200B36F84EC03F08DC0AFF0690EB06F000E68
:10117200B16FE7EC03F0690EAF6F000EB06FDDECFC
:1011820002F000C0AFF001C0B0F06B0EB16F070EFD
:0C119200B26F010EB36F84EC03F012008A
:10119E0000C002F001C003F0016A80B4012A0150C0
:1011AE00010A010ED8A4000E006E00C004F0016A00
:1011BE0080B6012A0150010A010ED8A4000E006E5D
:1011CE0000C005F0016A80B8012A0150010A010E23
:1011DE00D8A4000E006E00C006F0030E006E02C012
:1011EE00E1FF03C0E2FF040EE96E000EEA6EEECFE1
:0811FE00E6FF0006FCE112000F
:101206007BC0AFF000017D517B25B06F7CC0B1F093
:0A1216007FC0B2F0B6EC03F0120046
:101220000900F5CFE6FF0006FBE10106F9E1120037
:101230000001646B656B666B939A93989394939695
:10124000939093928A9A120E006E000E016E830E96
:101250000024E16E0F0E0120E26EE66A8A948A96FF
:101260008A908A828A8A3F0E836E1DEC00F0C00E3F
:10127000836E1DEC00F08A808A923F0E836E1DEC17
:0C12800000F0C00E836E1DEC00F01200A8
:10128C00A20E0001AF6F200EB06F000EB16F3FECDD
:10129C0003F0290E0B6E960E0C6E7F0E0D6E0D2E3E
:0E12AC00FED70C2EFCD70B2EFAD7CDDE12008B
:1012BA00830ED56E0B0ED76EDC0ED66EF28EF28AC8
:0212CA00120010
:1012CC00190E00017F6F220E806F030E816F826BEF
:1012DC00DDDE040E006E8C0EE16E000EE26E7F0EF3
:1012EC00E96E000EEA6EEECFE6FF0006FCE1010EA1
:1012FC00906F78DC830E006E000E016E4ADF030ED9
:10130C00006E7C0EE16E000EE26E830EE96E000E36
:10131C00EA6EEECFE6FF0006FCE100017E5309E029
:10132C007B51000A06E18FDE020E006E000E016E8C
:10133C0088D07C5303E17D5301E139D07B51000A05
:10134C0036E1040E006E8C0EE16E000EE26E7F0E26
:10135C00E96E000EEA6EEECFE6FF0006FCE1906B44
:10136C0041DC0E0E8025006E00C080F0040E006E75
:10137C008C0EE16E000EE26E7F0EE96E000EEA6ED0
:10138C00EECFE6FF0006FCE1010E906F2BDC010EA8
:10139C007B6F070E0B6EC20E0C6ED80E0D6E0D2EE3
:1013AC00FED70C2EFCD70B2EFAD70000A3D77E53FA
:1013BC0009E07B51010A06E146DE030E006E000EC9
:1013CC00016E3FD07C5303E17D5301E139D07B5159
:1013DC00010A36E1040E006E8C0EE16E000EE26E18
:1013EC007F0EE96E000EEA6EEECFE6FF0006FCE122
:1013FC00906BF8EC05F00E0E805D006E00C080F076
:10140C00040E006E8C0EE16E000EE26E7F0EE96E25
:10141C00000EEA6EEECFE6FF0006FCE1010E906FC7
:10142C00F8EC05F07B6B070E0B6EC20E0C6ED80E33
:10143C000D6E0D2EFED70C2EFCD70B2EFAD70000FE
:04144C0059D712005A
:10145000046A800E000A006E800E005C02E10450F7
:101460000C08D8A09AD0010E0414016E0150010A94
:101470004AE104C000F0000E016E00360090013613
:10148000003600900136005000017B25E96E0150C6
:101490007C21EA6EEECF01F0800E000A006E800E15
:1014A0000118005C12E304C000F0000E016E00366B
:1014B0000090013600360090013600507B25E16E29
:1014C00001507C21E26E7C0EE66E04C000F0000E3E
:1014D000016E003600900136003600900136005053
:1014E0007B25026E01507C21036E02C0E9FF03C020
:1014F000EAFFEECF00F0000602C0E1FF03C0E2FF0A
:1015000000C0E6FF48D0000104C000F0000E016EEC
:1015100000360090013600360090013600507B25E1
:10152000E96E01507C21EA6EEECF01F0800E0118C9
:10153000006E800E7C0A005C11E304C000F0000E17
:10154000016E0036009001360036009001360050E2
:101550007B25E16E01507C21E26EE66A04C000F05A
:10156000000E016E00360090013600360090013604
:1015700000507B25026E01507C21036E02C0E9FF02
:1015800003C0EAFFEECF00F0002A02C0E1FF03C073
:0C159000E2FF00C0E6FF042A5CD7120056
:10159C00010E00017B25E96E000E7C21EA6E800EA7
:1015AC00EE18006E800E3F0A005C0FE31750165CBD
:1015BC0005E276DD8EDD010E5F6E07D01650175CEE
:1015CC0004E215DD86DD010E5F6E195214E0010E8A
:1015DC007B25016E000E7C21026E01C0E9FF02C06A
:1015EC00EAFFEECF00F0002A01C0E1FF02C0E2FFEB
:0815FC0000C0E6FF196A1200AD
:1016040000C083F001C084F0890E006E000E016EEC
:10161400C4DD030E006E850EE16E000EE26E890ECF
:10162400E96E000EEA6EEECFE6FF0006FCE1000173
:10163400886B800E000A006E800E005C02E1885107
:101644000C0840E388C000F0000E016E00360090E4
:10165400013600360090013600508125E96E0150B4
:101664008221EA6E040E006E8C0EE16E000EE26EB4
:10167400EECFE6FF0006FCE1040E006E900EE16E74
:10168400000EE26E7B0EE96E000EEA6EEECFE6FF10
:101694000006FCE1E1DC005213E0200E7B6F370E04
:1016A4007C6F060E006E83C0E1FF84C0E2FF7B0EF8
:1016B400E96E000EEA6EEECFE6FF0006FCE16AD0AA
:1016C400882BB7D7865321E080517C25026E02C057
:1016D4007CF07E05006E000E7EBFFF0E016E000ED4
:1016E400015A02500024026E000E02BEFF0E0120B9
:1016F400036E800E0318006E800E005C02E13F0E44
:10170400025C02E3370E7C6F37D0855326E08051AC
:101714007C5D016E01C07CF0800E000A006E800EBC
:101724000118005C19E3200E7B6F370E7C6F172ABB
:1017340017C08CF016C08DF0FADC060E006E83C064
:10174400E1FF84C0E2FF7B0EE96E000EEA6EEECF8D
:10175400E6FF0006FCE11ED00FD0060E006E83C02B
:10176400E1FF84C0E2FF7B0EE96E000EEA6EEECF6D
:10177400E6FF0006FCE10ED0060E006E83C0E1FF1A
:1017840084C0E2FF7B0EE96E000EEA6EEECFE6FF48
:061794000006FCE112005A
:10179A007BC08CF0000E00017BBFFF0E8D6F7CC0FA
:1017AA008EF0000E7CBFFF0E8F6F7DC090F0000E92
:1017BA007DBFFF0E916F7EC092F0000E7EBFFF0EBE
:1017CA00936F7DC094F0000E7DBFFF0E956F7EC0B3
:1017DA0096F0000E7EBFFF0E976F7FC098F080C014
:0C17EA0099F081C09AF00FEC06F012009C
:1017F6007BC08CF07CC08DF000017D517B258E6F07
:0E1806007E517C258F6F7FC090F00DDC1200AC
:1018140000C083F001C084F0C80E0001BE6FB4ECB8
:1018240001F000C086F00001856B800E000A006E96
:10183400800E005C02E185510C0841E385C000F094
:10184400000E016E0036009001360036009001361D
:1018540000508125E96E01508221EA6E040E006E6B
:101864008C0EE16E000EE26EEECFE6FF0006FCE1A8
:10187400040E006E900EE16E000EE26E7B0EE96EB9
:10188400000EEA6EEECFE6FF0006FCE12EEC08F057
:10189400005213E05E0E7B6F370E7C6F060E006EF7
:1018A40083C0E1FF84C0E2FF7B0EE96E000EEA6EA6
:1018B400EECFE6FF0006FCE18ED0852BB6D786512D
:1018C400B90814E280517C25006E00C07CF0060E3D
:1018D400006E83C0E1FF84C0E2FF7B0EE96E000E60
:1018E400EA6EEECFE6FF0006FCE175D00F0E865DD2
:1018F40014E280517C5D006E00C07CF0060E006E28
:1019040083C0E1FF84C0E2FF7B0EE96E000EEA6E45
:10191400EECFE6FF0006FCE15ED080517C5D016EF7
:1019240001C07CF0800E000A006E800E0118005C7D
:101934001AE35E0E7B6F370E7C6F162A17C08CF08D
:1019440016C08DF099EC08F0060E006E83C0E1FF1E
:1019540084C0E2FF7B0EE96E000EEA6EEECFE6FF76
:101964000006FCE138D07E05006E000E7EBFFF0E3F
:10197400016E000E015A7C510024026E000E7CBFE1
:10198400FF0E0120036E800E0318006E800E005CB3
:1019940002E13F0E025C11E3370E7C6F060E006E0F
:1019A40083C0E1FF84C0E2FF7B0EE96E000EEA6EA5
:1019B400EECFE6FF0006FCE10ED0060E006E83C0FB
:1019C400E1FF84C0E2FF7B0EE96E000EEA6EEECF0B
:0819D400E6FF0006FCE1120031
:1019DC00166A176A186A196A5F6A6FEC08F00F0EBC
:1019EC00C16E20DC64DC48D14BDC010E5F6E51D142
:1019FC0020C07BF065DC00C05FF04BD129EC08F017
:101A0C0017C08CF016C08DF099EC08F05B0E7B6F54
:101A1C00000E7C6FBDDD5F50010A03E129EC08F07C
:101A2C0029D1060E006E7B0EE16E000EE26E1A0ED0
:101A3C00E96E000EEA6EEECFE6FF0006FCE1270E23
:101A4C00816F000E826F750E006E000E016ED4DD7C
:101A5C00060E006E1A0EE16E000EE26E750EE96E49
:101A6C00000EEA6EEECFE6FF0006FCE1270E000149
:101A7C007B6F000E7C6FE6DC060E006E7B0EE16E5B
:101A8C00000EE26E210EE96E000EEA6EEECFE6FF5E
:101A9C000006FCE1270E0001816F000E826F750EAF
:101AAC00006E000E016EB0DE060E006E210EE16EB1
:101ABC00000EE26E750EE96E000EEA6EEECFE6FFDA
:101ACC000006FCE1040E006E7B0EE16E000EE26E71
:101ADC005B0EE96E000EEA6EEECFE6FF0006FCE14F
:101AEC000001010E7F6F81DE040E006E7B0EE16E35
:101AFC00000EE26E210EE96E000EEA6EEECFE6FFEE
:101B0C000006FCE10001820E7F6F2E0E806F000E2E
:101B1C00816F3DDE040E006E7B0EE16E000EE26EF8
:101B2C001A0EE96E000EEA6EEECFE6FF0006FCE13F
:101B3C000001820E7F6F2E0E806F000E816F27DEEC
:101B4C00686B800E000A006E800E005C02E168512A
:101B5C000C0821E368C000F0000E016E0036009006
:101B6C000136003600900136270E0024E96E000E77
:101B7C000120EA6E040E006E7B0EE16E000EE26E2A
:101B8C00EECFE6FF0006FCE10001010E7F6F03ECD7
:101B9C0009F0682BD6D79C0E0C6ED70E0D6E0D2E41
:101BAC00FED70C2EFCD7686B800E000A006E800EE0
:101BBC00005C02E168510C081FE368C000F0000EE5
:101BCC00016E003600900136003600900136270E6B
:101BDC000024E96E000E0120EA6E040E006E7B0EEE
:101BEC00E16E000EE26EEECFE6FF0006FCE17F6BCD
:101BFC0003EC09F0682BD8D7040E006E7B0EE16E57
:101C0C00000EE26E5B0EE96E000EEA6EEECFE6FFA2
:101C1C000006FCE100017F6BE8DD040E006E7B0E1C
:101C2C00E16E000EE26E1A0EE96E000EEA6EEECF59
:101C3C00E6FF0006FCE10001940E7F6F2E0E806F14
:101C4C00000E816FA4DD040E006E7B0EE16E000EA3
:101C5C00E26E210EE96E000EEA6EEECFE6FF000694
:101C6C00FCE10001940E7F6F2E0E806F000E816FD1
:101C7C008EDDCCD60ED00DD05F50000AD8B4B4D6C1
:101C8C005F50010AD8B4B4D65F50020AD8B4B6D6A5
:061C9C00F2D7A9D6FFD724
:101CA200000000000000000000000000FCFCFC1C22
:101CB2001C1C1C1C1C1C1C000000FCFCFC1C1C1C16
:101CC2001C1CFCFCFC0000FCFCFC1C1C1CFCFCFCAA
:101CD200FC0000FCFCFC1C1C1C1C1C1C1C00FCFC56
:101CE200FC1C1C1C1C1C000000000000FCFCFC1C5A
:101CF2001C1C1C1C1C1C1CE0E0E00000FCFCFC1C6E
:101D02001C1CFCFCFC0000FCFCFC1C1C1C1C1C0025
:101D120000FCFCFC1C1C1C1C1C0000000000000041
:101D22000000000000000000000000000F0F0F0E76
:101D32000E0E0E0EFEFEFE000000FFFFFF1C1C1C1E
:101D42001C1C1F1F1F0000FFFFFF0E0E0EFFFFFFD8
:101D5200FF0000FFFFFF0000000000000000FFFF87
:101D6200FF0E0E0E0000000000000000FFFFFF3813
:101D7200383838F8F8F8380707070000FFFFFF0E79
:101D82000E0EFFFFFF0000FFFFFF0000000000003B
:101D920000FFFFFF0E0E0E0000000000000000001A
:101DA2000000000000000000000000000707070715
:101DB20007070707070707000000070707000000DB
:101DC20000000000000000070707000000070707E7
:101DD20007000007070707070707070707000707A6
:101DE20007070707070700000000000007070700B2
:101DF20000000001010107070700000007070700B4
:101E02000000070707000007070707070707070083
:101E12000007070707070707070000000000000088
:101E220000000000000000000000000000000000B0
:101E320000000000000000000000000000000000A0
:101E4200000000000000C0C0C0C000000000000090
:101E520000E0E0606060E0E00000E0E00000000020
:101E6200E0E0606060E0E00000E0E00000E0E00050
:101E720000E0E0606060600000E0E06060E0E000E0
:101E82000000000000000000000000000000000050
:101E92000000000000000000000000000000000040
:101EA2000000000000000000000000000000000030
:101EB2000000000000000000000000000000000020
:101EC20000000000000060607F7F60600000000092
:101ED200007F7F060606070700007F7F60606000C4
:101EE2007F7F0606067F7F000001037F7F030100DC
:101EF200007F7F6660606000007F7F0C1E7F730042
:101F020000000000000000000000000000000000CF
:101F120000000000000000000000000000000000BF
:101F220000000000000000000000000000000000AF
:101F3200000000000000000000000000000000009F
:101F4200000000000000B0B0B0B0F0F000000000EF
:101F520000F8F8989898F8F80000F8F800000000E7
:101F6200F8F8989898F8F8000078F8C0C0F8780067
:101F720000F8F8981818180000F8F81898F8F800FF
:101F8200F8F89898989800000000000000000000FF
:101F9200000000000000000000000000000000003F
:101FA200000000000000000000000000000000002F
:101FB200000000000000000000000000000000001F
:101FC2000000000000000F0F0D0D0D0D00000000BD
:101FD200001F1F010101010100001F1F1818180036
:101FE2001F1F0101011F1F000000001F1F00000032
:101FF200001F1F1918181800001F1F03071F1C00BD
:102002000D0D0D0D0F0F000000000000000000007C
:1020120000000000000000000000000000000000BE
:1020220000000000000000000000000000000000AE
:10203200000000000000000000000000000000009E
:10204200000000000000000000000000000000008E
:10205200000000000000000000000000000000007E
:10206200000000000000000000000000000000006E
:10207200000000000000000000000000000000005E
:10208200000000000000000000000000000000004E
:10209200000000000000000000000000000000003E
:1020A2000000000000000000FFFFFF87878787878E
:1020B200878787000000FFFFFF0707070707FFFF6B
:1020C200FF0000FFFFFF878787FFFFFF0000FFFF82
:1020D200FFFF0707070707070700FFFFFF8787873D
:1020E2000707000000000000FFFFFF0707070707C0
:1020F200070707F8F8F80000FFFFFF878787FFFF51
:10210200FF0000FFFFFF070707070700FFFFFF872A
:10211200878787070700000000000000000000001A
:102122000000000000000000C3C3C3C3C3C3C3FF59
:10213200FFFFFF000000FFFFFF0707070707070772
:10214200070000FFFFFF030303FFFFFF0000FFFF85
:10215200FFFFC0C0C0C0C0C0C000FFFFFFC3C3C3F9
:10216200C0C0000000000000FFFFFF0E0E0E7E7ECA
:102172007E7ECEC1C1010000FFFFFF030303FFFF0C
:10218200FF0000FFFFFFC0C0C0C0C000FFFFFFC3D1
:10219200C3C3C3C0C0000000000000000000000074
:1021A200000000000000000001010101E1E10181E5
:1021B20081C1E160000001616160E0E06060600097
:1021C20000E0E00101C1C0C0C0C1C10100C0C1C185
:1021D200C1C1C1C10101E1E1C10001E1E1010101AE
:1021E2000101000000C0C0C0C1C1C10000C0C0C028
:1021F200C0C0C1C101C0C0C0C1C1C100C0C0C1C155
:10220200C1C000E1E1C10101E1E101C0C1C1C1C13F
:10221200C1C10101C1C0C0C0C00000000000000077
:102222000000000000000000000000007F7F070F98
:102232000F1D38787000006060607F7F0000000032
:10224200007F7F00007F7F0C1E7F7700007F7F6012
:1022520060607F7F00007F7F030F3C7F7F00000074
:1022620060600000007F7F0C1E7F7700007F7F662A
:1022720066667F3F007F7F0C1E7F77007F7F6660F0
:102282006060007F7F030F3C7F7F007F7F6660601E
:10229200606000006F6F6C7D7D0000000000000038
:1022A20000000000000000000000606060E0E060EC
:1022B20060606000E0E06060E0E000E0E0000000FC
:1022C200E0E000000000E0E06060606000E0E060EC
:1022D2006060E0E000000000E0E06060606000003C
:1022E200E0E0C00080C0E0E00000E0E06060E0E02C
:1022F200E000E0E06060606000E0E06060E0E0007C
:1023020000E0E00000E0E0E0E0C00000E0E060604B
:1023120060E0E000E0E060E0E000000000000000BB
:10232200000000000000000000000000003F3F002D
:10233200000000003F3F06063F3F003F3F303000B5
:102342003F3F303000003F3F33303030003F3F06E8
:10235200060F3F3B000000003F3F333030300000AB
:102362003F3F030707013F3F00003F3F33333F1F1B
:102372001F003F3F33303030003F3F33333F1F00B9
:10238200003F3F00003F3F30391F0F003F3F3030DA
:10239200303F3F003737363E3E000000000000006D
:1023A200000000000000000000000000000000002B
:1023B200000000000000000000000000000000001B
:1023C200000000000000000000F8F8D818181800FB
:1023D2000000F8F898D8F8F80000FCFC00007C7CBB
:1023E200C0C000C0E07C7C0000F8F8D818181800C3
:1023F20000F8F898D8F8F800F8F89898F8F800007B
:1024020000000000000000000000000000000000CA
:1024120000000000000000000000000000000000BA
:1024220000000000000000000000000000000000AA
:10243200000000000000000000000000000000009A
:102442000000000000000000000F0F0C0C0C0C003C
:1024520000000F0F01030F0E00000F0F000000001D
:10246200030F0C0F03000000000F0F0C0C0C0C00EC
:10247200000F0F01030F0E000F0F01010F0F0000DD
:10248200000000000000000000000000000000004A
:10249200000000000000000000000000000000003A
:1024A200000000000000000000000000000000002A
:1024B200000000000000000000000000000000001A
:1024C200000000000000000000000000000000000A
:1024D20000000000000000000000000000000000FA
:1024E20000000000000000000000000000000000EA
:1024F20000000000000000000000000000000000DA
:1025020000000000000000000000000000000000C9
:1025120000000000000000000000000000000000B9
:1025220000000000000000000000000000000000A9
:102532000000000000000000000000000000000099
:102542000000000000000000000000000000000089
:102552000000000000000000000000000000000079
:102562000000000000000000000000000000000069
:102572000000000000000000000000000000000059
:102582000000000000000000000000000000000049
:102592000000000000000000000000000000000039
:1025A2000000000000000000000000000000000029
:1025B2000000000000000000000000000000000019
:1025C2000000000000000000000000000000000009
:1025D20000000000000000000000000000000000F9
:1025E20000000000000000000000000000000000E9
:1025F20000000000000000000000000000000000D9
:1026020000000000000000000000000000000000C8
:1026120000000000000000000000000000000000B8
:1026220000000000000000000000000000000000A8
:10263200000000000000000000E0F0D01010107058
:102642006000C0E0301010F0E0C000F0F0E0C0C068
:10265200F0F0F00010F0F09090B0301000000000A8
:10266200000000000000F0F0101010F0F00010F078
:10267200F0000000F0F00000F0F0F09090B03000B8
:1026820010F0F0F09090F0E0000000000000000078
:102692000000000000000000000000000000000038
:1026A2000000000000000000000000000000000028
:1026B200000000000000000000070F0F08080B0FC9
:1026C20007000F0F0303030F0F0F000F0F0003008C
:1026D2000F0F0F00080F0F09090D0C080000000072
:1026E2000000000000000F0F0808080F0F00010390
:1026F200070E0C06070300080F0F0F09090D0C0047
:10270200080F0F0F03070F0C00000000000000006D
:1027120000000000000000000000000000000000B7
:1027220000000000000000000000000000000000A7
:102732000000000000000000000000000000000097
:102742000000000000000000000000000000000087
:1029D2000000808080808080F0F0F0F0F0F0F0F075
:1029E200F0F0F0F0F0F0F0F0808080808080000065
:1029F20000000000000000000000000000000000D5
:102A020000000000000000000000000000000000C4
:102A120000000000000000000000000000000000B4
:102A220000000000000000000000000000000000A4
:102A32000000000000000000000000000000000094
:102A42000000000000000000000000000000000084
:102A5200000001010104040607070F8F0FFFFFFFAB
:102A6200FFFFFF0F8F0707070404040001010000A6
:102A72000000000000000000000000000000000054
:102A82000000000000000000000000000000000044
:102A92000000000000000000000000000000000034
:102AA2000000000000000000000000000000000024
:102AB200000000000000000000C0C0000000000094
:102AC20000C0C0C0C000808040404040C0C0808084
:102AD2000000C0C0000000C0C0C0C0000000000074
:102AE20000C0C00000000000C0C0C0C00000C0C0E4
:102AF200C0C00000C0C08080000000C0C0C0C000D4
:102B020000C0C0C0C00000000000000000000000C3
:102B120000000000000000000000000000000000B3
:102B220000000000000000000000000000000000A3
:102B3200000000000000000000010102021E1E1F32
:102B42001F0303010100070F081010101F1F0F0FB2
:102B520000000F0F1010101F1F0F0F0000000000C9
:102B6200000F0F10000E0E101F1F0F0F00001F1F6F
:102B72001F1F00001F0F00000101020F1F1F1F0077
:102B820000171717170000000000000000000000E7
:102B92000000000000000000000000000000000033
:102BA2000000000000000000000000000000000023
:102BB2000000000000000000000000000000000013
:102BC2000000000000000000000000000000000003
:102BD20000000000000000000000000000000000F3
:102BE20000000000000000000000000000000000E3
:102BF20000000000000000000000000000000000D3
:102C020000000000000000000000000000000000C2
:102C120000000000000000000000000000000000B2
:102C220000000000000000000000000000000000A2
:102C32000000000000000000000000000000000092
:102C42000000000000000000000000000000000082
:102C52000000000000000000000000000000000072
:102C62000000000000000000000000000000000062
:102C72000000000000000000000000000000000052
:102C82000000000000000000000000000000000042
:102C92000000000000000000000000000000000032
:102CA200000000000000005F0000000700070014A1
:102CB2007F147F14242A7F2A122313086462364960
:102CC2005522500005030000001C22410000412251
:102CD2001C00082A1C2A0808083E08080050300078
:102CE200000808080808003030000020100804021C
:102CF2003E5149453E00427F4000426151494621D2
:102D020041454B311814127F1027454545393C4A3D
:102D1200494930017109050336494949360649498D
:102D2200291E003636000000563600000008142224
:102D3200411414141414412214080002015109060A
:102D4200324979413E7E1111117E7F494949363E11
:102D5200414141227F4141221C7F494949417F092A
:102D62000901013E414151327F0808087F00417F3D
:102D720041002040413F017F081422417F404040F2
:102D8200407F0204027F7F0408107F3E4141413EA2
:102D92007F090909063E4151215E7F0919294646EC
:102DA2004949493101017F01013F4040403F1F2015
:102DB20040201F7F2018207F6314081463030478C7
:102DC2000403615149454300007F41410204081058
:102DD2002041417F00000402010204404040404083
:102DE200000102040020545454787F484444383887
:102DF20044444420384444487F3854545418087E8C
:102E0200090102081454543C7F0804047800447DEC
:102E120040002040443D00007F10284400417F4094
:102E2200007C041804787C0804047838444444384C
:102E32007C14141408081414187C7C080404084830
:102E420054545420043F4440203C4040207C1C20E9
:102E520040201C3C4030403C44281028440C505038
:102E6200503C4464544C44000836410000007F004A
:102E720000004136080008082A1C08081C2A080815
:102E820080C0E4F6FFF6E4C080000000010001000B
:022E920000003E
:102E9400000000000000000000000000000000002E
:022EA40000002C
:020000040030CA
:0E000000010C1F1EFF8381FF0FC00FE00F4099
:00000001FF
