:1000000070EF03F00000000000EF00F000000000BF
:0A0010000000000000000000F3D71C
:0C001C00060E0D6E0D2EFED70000120027
:06002800000000001200C0
:0A002E00F6DF8A88F4DF8A981200DA
:100038007F0E3F14006E00C03FF08A948A96BF0E70
:10004800001600C03FF0008C00C03FF000C083FFE6
:04005800EADF1200C9
:0E005C008A948A96B80E3F10836EE3DF12007E
:10006A007F0E3F14016E01C03FF001AC03D08A80BD
:0A007A008A9202D08A908A82120056
:0E0084008A988A848A963FC083FFCFDF1200DD
:10009200120E006E000E016E830E0024E16E0F0E32
:1000A2000120E26EFF0EE66EBEDFBDDF8A848A9813
:1000B2008A868A88B2DF83CF3FF08A988A96B3DF36
:1000C200B2DF120E006E000E016E830E0024E16E8E
:0E00D2000F0E0120E26EE66A3FC000F0120041
:1000E000000E395C0AE339507F0807E3000E3A5CE2
:1000F00004E33A503F0801E301D04AD039C03FF051
:10010000B4DF3AC03FF03F323F9E3F323F9E3F3226
:100110003F9EA4DF39C03FF08FDFBBDF00C03EF061
:10012000B8DF00C03EF03AC03FF03F323F9E3F3262
:100130003F9E3F323F9E92DF39C03FF07DDF070E8A
:100140003A14006E00C03CF000C001F0010E006ED9
:10015000015004E000360090FF0FFBD700C03CF0D8
:10016000001C3D6E09D03D503E160FD03C503E1253
:100170000CD03C503E1A09D03B50000AF4E03B50F2
:10018000010AF4E03B50020AF4E03EC03FF07ADF9F
:0201900012005B
:10019200000E2F1802E1000E2E1808E12AC039F0D5
:1001A2002CC03AF030C03BF09ADFD2D0356A366AC2
:1001B2002A502C5C376E2B502D58386E2EC033F0DF
:1001C2002FC034F02EC000F02FC001F00036009096
:1001D200013600C031F001C032F000500308316E28
:1001E20001C032F0000E3256010E3324016E000EB1
:1001F2003420026E800E3618006E800E0218005CEB
:1002020002E10150355CD8B0A3D035502A24396EB2
:1002120033502C243A6E30C03BF061DF35502A2433
:10022200396E33502C5C3A6E30C03BF058DF800E92
:10023200006E800E3618005C02E13550000812E2B2
:1002420035502A5C396E33502C243A6E30C03BF064
:1002520046DF35502A5C396E33502C5C3A6E30C022
:100262003BF03DDF3650341802E13350351835E0AB
:1002720033502C24396E3750395E35502C243A6E67
:1002820030C03BF02CDF33502C5C396E3750395E76
:1002920035502C243A6E30C03BF021DF800E006EC8
:1002A200800E3618005C02E13550000816E2335029
:1002B2002C24396E3750395E35502C5C3A6E30C082
:1002C2003BF00DDF33502C5C396E3750395E3550C0
:1002D2002C5C3A6E30C03BF002DF800E3218006EAA
:1002E200800E005C02E1000E315C13E235C000F0CA
:1002F20036C001F00036009001360036009001361B
:10030200060E0026000E0122005031260150322234
:100312001CD03350355C036E34503658046E03C023
:1003220000F004C001F00036009001360036009063
:1003320001360A0E0026000E01220050312601501D
:100342003222010E335E000E345A354A362A4CD719
:02035200120097
:100354008A908A822C6A2C5007080EE32CC03FF046
:100364007BDE2B6A2B503F0805E32AC03FF088DE72
:100374002B2AF8D72C2AEFD78A928A802C6A2C5001
:1003840007080EE32CC03FF067DE2B6A2B503F08B2
:1003940005E32AC03FF074DE2B2AF8D72C2AEFD7C6
:0203A400120045
:1003A6002E6A2F6A306A2E5007083DE33F6A5ADEEE
:1003B6002EC03FF050DE3F6A3CDE2D6A2D503F08CE
:1003C60011E32F502A24F66E30502B20F76E000EC4
:1003D6002C20F86E0900F5CF3FF051DE2F4A302A67
:1003E6002D2AECD7400E3F6E3DDE2EC03FF033DEA9
:1003F600400E3F6E1EDE400E2D6E2D507F0811E31F
:100406002F502A24F66E30502B20F76E000E2C202B
:10041600F86E0900F5CF3FF032DE2F4A302A2D2A3A
:08042600ECD72E2AC0D712000A
:10042E00140E2A6E0B0E2B6E000E2C6EB5DF120004
:10043E0000C002F001C003F0016A80B4012A01502D
:10044E00010A010ED8A4000E006E00C004F0016A6D
:10045E0080B6012A0150010A010ED8A4000E006ECA
:10046E0000C005F0016A80B8012A0150010A010E90
:10047E00D8A4000E006E00C006F0030E006E02C07F
:10048E00E1FF03C0E2FF040EE96E000EEA6EEECF4E
:08049E00E6FF0006FCE112007C
:1004A60025C02AF0000E25BEFF0E2B6E26C02CF0AE
:1004B600000E26BEFF0E2D6E27C02EF0000E27BEA4
:0C04C600FF0E2F6E29C030F061DE120026
:0604D2002A6A3FDF120060
:1004D800176A156A166A939A9398939493969390C9
:1004E80093928A9A120E006E000E016E830E0024FB
:1004F800E16E0F0E0120E26EE66A8A948A968A906F
:100508008A828A8A3F0E836E8EDDC00E836E8BDDF3
:100518008A808A923F0E836E86DDC00E836E83DDED
:020528001200BF
:10052A00140E2A6E070E2B6E000E2C6E37DF290E64
:10053A000B6E960E0C6E7F0E0D6E0D2EFED70C2EC8
:0A054A00FCD70B2EFAD7C0DF120019
:100554000900F5CFE6FF0006FBE10106F9E1120010
:10056400190E1E6E220E1F6E030E206E216A5DDFB1
:10057400040E006E250EE16E000EE26E1E0EE96E94
:10058400000EEA6EEECFE6FF0006FCE1010E296ED6
:1005940088DF220E006E000E016E4FDF030E006E28
:1005A4001B0EE16E000EE26E220EE96E000EEA6E84
:1005B400EECFE6FF0006FCE11D5209E01A50000AE6
:1005C40006E185DF020E006E000E016E86D01B521E
:1005D40003E11C5201E139D01A50000A36E1040E3D
:1005E400006E250EE16E000EE26E1E0EE96E000E28
:1005F400EA6EEECFE6FF0006FCE1296A52DF0E0E3A
:100604001F24006E00C01FF0040E006E250EE16E64
:10061400000EE26E1E0EE96E000EEA6EEECFE6FFED
:100624000006FCE1010E296E3CDF010E1A6E070E76
:100634000B6EC20E0C6ED80E0D6E0D2EFED70C2E48
:10064400FCD70B2EFAD70000A4D71D5209E01A508C
:10065400010A06E13CDF030E006E000E016E3DD080
:100664001B5203E11C5201E137D01A50010A34E154
:10067400040E006E250EE16E000EE26E1E0EE96E93
:10068400000EEA6EEECFE6FF0006FCE1296A09DF00
:100694000E0E1F5C006E00C01FF0040E006E250ECF
:1006A400E16E000EE26E1E0EE96E000EEA6EEECFF3
:1006B400E6FF0006FCE1010E296EF3DE1A6A070E5E
:1006C4000B6EC20E0C6ED80E0D6E0D2EFED70C2EB8
:0C06D400FCD70B2EFAD700005CD71200F8
:1006E000186A196A0F0EC16EF7DE0BD01EDF010EFD
:1006F000186E0ED019C01AF035DF00C018F008D0FF
:1007000007D01850000AF2E01850010AF3E0F8D7B9
:04071000ECD7FFD74C
:100714000000000000000000FFFFFF878787878735
:10072400878787000000FFFFFF0707070707FFFF12
:10073400FF0000FFFFFF878787FFFFFF0000FFFF29
:10074400FFFF0707070707070700FFFFFF878787E4
:100754000707000000000000FFFFFF070707070767
:10076400070707F8F8F80000FFFFFF878787FFFFF8
:10077400FF0000FFFFFF070707070700FFFFFF87D2
:1007840087878707070000000000000000000000C2
:100794000000000000000000C3C3C3C3C3C3C3FF01
:1007A400FFFFFF000000FFFFFF070707070707071A
:1007B400070000FFFFFF030303FFFFFF0000FFFF2D
:1007C400FFFFC0C0C0C0C0C0C000FFFFFFC3C3C3A1
:1007D400C0C0000000000000FFFFFF0E0E0E7E7E72
:1007E4007E7ECEC1C1010000FFFFFF030303FFFFB4
:1007F400FF0000FFFFFFC0C0C0C0C000FFFFFFC379
:10080400C3C3C3C0C000000000000000000000001B
:10081400000000000000000001010101E1E101818C
:1008240081C1E160000001616160E0E0606060003E
:1008340000E0E00101C1C0C0C0C1C10100C0C1C12C
:10084400C1C1C1C10101E1E1C10001E1E101010155
:100854000101000000C0C0C0C1C1C10000C0C0C0CF
:10086400C0C0C1C101C0C0C0C1C1C100C0C0C1C1FC
:10087400C1C000E1E1C10101E1E101C0C1C1C1C1E7
:10088400C1C10101C1C0C0C0C0000000000000001F
:100894000000000000000000000000007F7F070F40
:1008A4000F1D38787000006060607F7F00000000DA
:1008B400007F7F00007F7F0C1E7F7700007F7F60BA
:1008C40060607F7F00007F7F030F3C7F7F0000001C
:1008D40060600000007F7F0C1E7F7700007F7F66D2
:1008E40066667F3F007F7F0C1E7F77007F7F666098
:1008F4006060007F7F030F3C7F7F007F7F666060C6
:10090400606000006F6F6C7D7D00000000000000DF
:1009140000000000000000000000606060E0E06093
:1009240060606000E0E06060E0E000E0E0000000A3
:10093400E0E000000000E0E06060606000E0E06093
:100944006060E0E000000000E0E0606060600000E3
:10095400E0E0C00080C0E0E00000E0E06060E0E0D3
:10096400E000E0E06060606000E0E06060E0E00023
:1009740000E0E00000E0E0E0E0C00000E0E06060F3
:1009840060E0E000E0E060E0E00000000000000063
:10099400000000000000000000000000003F3F00D5
:1009A400000000003F3F06063F3F003F3F3030005D
:1009B4003F3F303000003F3F33303030003F3F0690
:1009C400060F3F3B000000003F3F33303030000053
:1009D4003F3F030707013F3F00003F3F33333F1FC3
:1009E4001F003F3F33303030003F3F33333F1F0061
:1009F400003F3F00003F3F30391F0F003F3F303082
:100A0400303F3F003737363E3E0000000000000014
:100A140000000000000000000000000000000000D2
:100A240000000000000000000000000000000000C2
:100A3400000000000000000000F8F8D818181800A2
:100A44000000F8F898D8F8F80000FCFC00007C7C62
:100A5400C0C000C0E07C7C0000F8F8D8181818006A
:100A640000F8F898D8F8F800F8F89898F8F8000022
:100A74000000000000000000000000000000000072
:100A84000000000000000000000000000000000062
:100A94000000000000000000000000000000000052
:100AA4000000000000000000000000000000000042
:100AB4000000000000000000000F0F0C0C0C0C00E4
:100AC40000000F0F01030F0E00000F0F00000000C5
:100AD400030F0C0F03000000000F0F0C0C0C0C0094
:100AE400000F0F01030F0E000F0F01010F0F000085
:100AF40000000000000000000000000000000000F2
:100B040000000000000000000000000000000000E1
:100B1400000000000000000000000000FCFCFC1CC1
:100B24001C1C1C1C1C1C1C000000FCFCFC1C1C1CB5
:100B34001C1CFCFCFC0000FCFCFC1C1C1CFCFCFC49
:100B4400FC0000FCFCFC1C1C1C1C1C1C1C00FCFCF5
:100B5400FC1C1C1C1C1C000000000000FCFCFC1CF9
:100B64001C1C1C1C1C1C1CE0E0E00000FCFCFC1C0D
:100B74001C1CFCFCFC0000FCFCFC1C1C1C1C1C00C5
:100B840000FCFCFC1C1C1C1C1C00000000000000E1
:100B94000000000000000000000000000F0F0F0E16
:100BA4000E0E0E0EFEFEFE000000FFFFFF1C1C1CBE
:100BB4001C1C1F1F1F0000FFFFFF0E0E0EFFFFFF78
:100BC400FF0000FFFFFF0000000000000000FFFF27
:100BD400FF0E0E0E0000000000000000FFFFFF38B3
:100BE400383838F8F8F8380707070000FFFFFF0E19
:100BF4000E0EFFFFFF0000FFFFFF000000000000DB
:100C040000FFFFFF0E0E0E000000000000000000B9
:100C140000000000000000000000000007070707B4
:100C2400070707070707070000000707070000007A
:100C34000000000000000007070700000007070786
:100C44000700000707070707070707070700070745
:100C54000707070707070000000000000707070051
:100C64000000000101010707070000000707070053
:100C74000000070707000007070707070707070023
:100C84000007070707070707070000000000000028
:100C94000000000000000000000000000000000050
:100CA4000000000000000000000000000000000040
:100CB400000000000000C0C0C0C000000000000030
:100CC40000E0E0606060E0E00000E0E000000000C0
:100CD400E0E0606060E0E00000E0E00000E0E000F0
:100CE40000E0E0606060600000E0E06060E0E00080
:100CF40000000000000000000000000000000000F0
:100D040000000000000000000000000000000000DF
:100D140000000000000000000000000000000000CF
:100D240000000000000000000000000000000000BF
:100D340000000000000060607F7F60600000000031
:100D4400007F7F060606070700007F7F6060600063
:100D54007F7F0606067F7F000001037F7F0301007B
:100D6400007F7F6660606000007F7F0C1E7F7300E1
:100D7400000000000000000000000000000000006F
:100D8400000000000000000000000000000000005F
:100D9400000000000000000000000000000000004F
:100DA400000000000000000000000000000000003F
:100DB400000000000000B0B0B0B0F0F0000000008F
:100DC40000F8F8989898F8F80000F8F80000000087
:100DD400F8F8989898F8F8000078F8C0C0F8780007
:100DE40000F8F8981818180000F8F81898F8F8009F
:100DF400F8F898989898000000000000000000009F
:100E040000000000000000000000000000000000DE
:100E140000000000000000000000000000000000CE
:100E240000000000000000000000000000000000BE
:100E34000000000000000F0F0D0D0D0D000000005C
:100E4400001F1F010101010100001F1F18181800D5
:100E54001F1F0101011F1F000000001F1F000000D1
:100E6400001F1F1918181800001F1F03071F1C005C
:100E74000D0D0D0D0F0F000000000000000000001C
:100E8400000000000000000000000000000000005E
:100E9400000000000000000000000000000000004E
:100EA400000000000000000000000000000000003E
:100EB400000000000000000000000000000000002E
:100EC400000000000000000000000000000000001E
:100ED400000000000000000000000000000000000E
:100EE40000000000000000000000000000000000FE
:100EF40000000000000000000000000000000000EE
:100F040000000000000000000000000000000000DD
:020000040030CA
:0E000000000C1F1EFF8381FF0FC00FE00F409A
:00000001FF
