:10000000FAEF00F00000000000EF00F00000000038
:0A0010000000000000000000F3D71C
:0C001C00060E0D6E0D2EFED70000120027
:0A002800F9DF8A88F7DF8A981200DA
:100032007F0E1F14016E01C01FF001AC03D08A8035
:0A0042008A9202D08A908A8212008E
:0E004C008A948A96B80E1F10836EE8DF1200A9
:0E005A008A988A848A961FC083FFE1DF120015
:100068007F0E1F14006E00C01FF08A948A96BF0E80
:10007800001600C01FF0008C00C01FF000C083FFF6
:04008800CFDF1200B4
:10008C001C6A1D6A1E6A1C5007083DE31F6ACBDF01
:10009C001CC01FF0D5DF1F6AE1DF1B6A1B503F0835
:1000AC0011E31D501824F66E1E501920F76E000E29
:1000BC001A20F86E0900F5CF1FF0C9DF1D4A1E2A61
:1000CC001B2AECD7400E1F6EAEDF1CC01FF0B8DF32
:1000DC00400E1F6EC3DF400E1B6E1B507F0811E3DA
:1000EC001D501824F66E1E501920F76E000E1A20A3
:1000FC00F86E0900F5CF1FF0AADF1D4A1E2A1B2A35
:08010C00ECD71C2AC0D7120039
:100114008A908A821A6A1A5007080EE31AC01FF0DE
:1001240093DF196A19503F0805E318C01FF093DFE5
:10013400192AF8D71A2AEFD78A928A801A6A1A508B
:1001440007080EE31AC01FF07FDF196A19503F0831
:1001540005E318C01FF07FDF192AF8D71A2AEFD752
:02016400120087
:10016600156A166A176A939A93989394939693903E
:1001760093928A9A120E006E000E016E830E002470
:10018600E16E0F0E0120E26EE66A8A948A968A90E4
:100196008A828A8A3F0E836E44DFC00E836E41DFF9
:1001A6008A808A923F0E836E3CDFC00E836E39DFF3
:0201B600120035
:1001B800000E186E020E196E000E1A6E63DF290EFD
:1001C8000B6E960E0C6E7F0E0D6E0D2EFED70C2E3E
:0C01D800FCD70B2EFAD7186A99DF120032
:1001E4000900F5CFE6FF0006FBE10106F9E1120084
:0C01F400B8DF186A8DDFDEDFFCD7FFD714
:100200000000000000000000FFFFFF87878787874E
:10021000878787000000FFFFFF0707070707FFFF2B
:10022000FF0000FFFFFF878787FFFFFF0000FFFF42
:10023000FFFF0707070707070700FFFFFF878787FD
:100240000707000000000000FFFFFF070707070780
:10025000070707F8F8F80000FFFFFF878787FFFF11
:10026000FF0000FFFFFF070707070700FFFFFF87EB
:1002700087878707070000000000000000000000DB
:100280000000000000000000C3C3C3C3C3C3C3FF1A
:10029000FFFFFF000000FFFFFF0707070707070733
:1002A000070000FFFFFF030303FFFFFF0000FFFF46
:1002B000FFFFC0C0C0C0C0C0C000FFFFFFC3C3C3BA
:1002C000C0C0000000000000FFFFFF0E0E0E7E7E8B
:1002D0007E7ECEC1C1010000FFFFFF030303FFFFCD
:1002E000FF0000FFFFFFC0C0C0C0C000FFFFFFC392
:1002F000C3C3C3C0C0000000000000000000000035
:10030000000000000000000001010101E1E10181A5
:1003100081C1E160000001616160E0E06060600057
:1003200000E0E00101C1C0C0C0C1C10100C0C1C145
:10033000C1C1C1C10101E1E1C10001E1E10101016E
:100340000101000000C0C0C0C1C1C10000C0C0C0E8
:10035000C0C0C1C101C0C0C0C1C1C100C0C0C1C115
:10036000C1C000E1E1C10101E1E101C0C1C1C1C100
:10037000C1C10101C1C0C0C0C00000000000000038
:100380000000000000000000000000007F7F070F59
:100390000F1D38787000006060607F7F00000000F3
:1003A000007F7F00007F7F0C1E7F7700007F7F60D3
:1003B00060607F7F00007F7F030F3C7F7F00000035
:1003C00060600000007F7F0C1E7F7700007F7F66EB
:1003D00066667F3F007F7F0C1E7F77007F7F6660B1
:1003E0006060007F7F030F3C7F7F007F7F666060DF
:1003F000606000006F6F6C7D7D00000000000000F9
:1004000000000000000000000000606060E0E060AC
:1004100060606000E0E06060E0E000E0E0000000BC
:10042000E0E000000000E0E06060606000E0E060AC
:100430006060E0E000000000E0E0606060600000FC
:10044000E0E0C00080C0E0E00000E0E06060E0E0EC
:10045000E000E0E06060606000E0E06060E0E0003C
:1004600000E0E00000E0E0E0E0C00000E0E060600C
:1004700060E0E000E0E060E0E0000000000000007C
:10048000000000000000000000000000003F3F00EE
:10049000000000003F3F06063F3F003F3F30300076
:1004A0003F3F303000003F3F33303030003F3F06A9
:1004B000060F3F3B000000003F3F3330303000006C
:1004C0003F3F030707013F3F00003F3F33333F1FDC
:1004D0001F003F3F33303030003F3F33333F1F007A
:1004E000003F3F00003F3F30391F0F003F3F30309B
:1004F000303F3F003737363E3E000000000000002E
:1005000000000000000000000000000000000000EB
:1005100000000000000000000000000000000000DB
:10052000000000000000000000F8F8D818181800BB
:100530000000F8F898D8F8F80000FCFC00007C7C7B
:10054000C0C000C0E07C7C0000F8F8D81818180083
:1005500000F8F898D8F8F800F8F89898F8F800003B
:10056000000000000000000000000000000000008B
:10057000000000000000000000000000000000007B
:10058000000000000000000000000000000000006B
:10059000000000000000000000000000000000005B
:1005A0000000000000000000000F0F0C0C0C0C00FD
:1005B00000000F0F01030F0E00000F0F00000000DE
:1005C000030F0C0F03000000000F0F0C0C0C0C00AD
:1005D000000F0F01030F0E000F0F01010F0F00009E
:1005E000000000000000000000000000000000000B
:1005F00000000000000000000000000000000000FB
:020000040030CA
:0E000000000C1F1EFF8381FF0FC00FE00F409A
:00000001FF
