:04000000E0EF0BF032
:1000080000C015F0F2A40CD0F2940B0ED76EDC0EE3
:10001800D66E182A020E185C03E3010E196E186AD0
:0600280015C000F01100FC
:0C002E00060E0D6E0D2EFED70000120015
:0A003A00F9DF8A88F7DF8A981200C8
:10004400C3C068F0C4C069F0000E00016A6F6B6F32
:06005400010E6E6F1200A8
:10005A00220E0C6E086A096A0A6A0B6A0C06D8B480
:10006A001FD0D8900B320A320932083203320232D8
:10007A0001320032D8A0F2D70C06D8B409D0045005
:10008A0008260550092206500A2207500B22EAD7F1
:10009A00045008260550092206500A2207500B224E
:0200AA00120042
:0600AC000000000012003C
:1000B2000134083609360450085E0550D8A0053CC4
:1000C200095E003601360F0E0C6E01340836093611
:1000D200045000A006D0085E0550D8A0053C095E79
:1000E20005D008260550D8B0053C09260036013651
:1000F2000C2EEBD700B006D0045008260550D8B01D
:08010200053C09260000120073
:10010A00086A080E0C6E003408360450085ED8B02F
:0E011A0002D00826D89000360C2EF5D7120021
:100128000450000A08E10550000A05E1FF0E006EC0
:100138007F0E016E57D00D6A096A086A01500010D7
:10014800D8B4000C015005180A6E0ABE0D1E0B6AC1
:1001580005AE05D0041E051E042AD8B4052A01AE32
:1001680005D0001E011E002AD8B4012A015005102E
:100178000A6E0ABE10D099DF0BB020D00DAE000C6D
:10018800001E011E002AD8B4012A081E091E082ACA
:10019800D8B4092A000C05AE0DD001BE07D0015015
:1001A800096E0050086E016A006AE8D7016A006AA1
:1001B800002A000C011E001E0B2ADDD7082AD8B41D
:1001C800092A0450085CD8A4D9D70550095CD8A4DA
:1001D800D5D7096A086A002AD8B4012A01AECED751
:0601E8000000FF0C1200F4
:1001EE008A948A96B80E0001C211836E1FDF120028
:1001FE007F0E0001C215016E01C0C2F001AC03D02A
:0C020E008A808A9202D08A908A821200B4
:10021A0000016E5305E1010EC36F000EC46F0DDFBE
:10022A0068C000F069C001F06AC002F06BC003F058
:10023A006D0E046E4E0E056EC60E066E410E076EEC
:10024A0007DF390E0024056E300E0120066E000EFF
:10025A000220076E000E0320086E07C000F008C0D7
:10026A0001F0000E08BEFF0E026E036EFF0E0016AE
:10027A007F0E0116000E0216031600C068F001C0B8
:0C028A0069F002C06AF003C06BF01200C3
:100296007F0E0001C215006E00C0C2F08A948A96D5
:1002A600BF0E001600C0C2F0008C00C0C2F000C035
:0602B60083FFC0DE120010
:1002BC000B6A0A6A096A00500402F4CF09F0F3CF02
:1002CC0008F001500502F4CF0BF0F3CF0AF0005008
:1002DC000502F3500926F4500A22E86A0B22015059
:1002EC000402F3500926F4500A22E86A0B2208C0D3
:1002FC0000F009C001F00AC002F00BC003F01200BC
:0E030C008A988A848A96C2C083FF91DE12000E
:10031A00120E006E000E016E830E0024E16E0F0EA7
:10032A000120E26EFF0EE66EBCDEBBDE8A848A988E
:10033A008A868A8877DE83CFC2F08A988A96B1DE67
:10034A00B0DE120E006E000E016E830E0024E16E06
:0E035A000F0E0120E26EE66AC2C000F0120033
:100368000001BB6B030EBB5D0AE2BB51B925E16E10
:10037800000EBA21E26E200EE66EBB2BF3D7BB51FE
:10038800B925E16E000EBA21E26EE66ABB07BB51E1
:10039800B925BC6F000EBA21BD6F0A0E046EB8C035
:1003A80000F0AFDE08C000F0300E0026BCC0E1FF50
:1003B800BDC0E2FF00C0E6FF0A0E046EB8C000F040
:1003C800A0DE00C0B8F00050000A01E102D0BB076F
:0403D800DED712005A
:1003DC001EDFB851010F046E056A000E05229EDE69
:0A03EC0008C000F009C001F0120083
:1003F6000001BA51070801E282D06151B85D006E72
:1004060062C001F0000E015660C004F0000E056ED9
:1004160052DF00C0C0F001C0C1F0B9C0C2F038DF81
:10042600BAC0C2F0E1DEBC6B6051BC5D49E2B951B5
:100436007F0801E264D0B9C0C2F0DEDEBAC0C2F005
:10044600D3DEB9C0C2F024DF65DF00C0BDF062DFD5
:1004560000C0BDF0B9C0C2F0CFDEBAC0C2F0C4DE83
:10046600B9C0C2F015DFC0516325F66EC1516421D3
:10047600F76E000EC1BFFF0E6521F86E0900F5CFBD
:1004860000F000C0BEF0C04BC12B001CBF6F09D0EE
:10049600BFC0BDF00FD0BEC0BDF00CD0BE51BD1B5D
:1004A60009D0BB51000AF4E0BB51010AF4E0BB518C
:1004B600020AF4E0BDC0C2F026DFB92BBC2BB4D7CC
:1004C600B9C0C2F099DEBAC0C2F08EDEB9C0C2F0C1
:1004D600DFDEFF0EBE6FBF6B0CD0BEC0BDF0BEC070
:1004E600C2F011DF0CD0BFC0BDF0BFC0C2F00BDF41
:1004F60006D0BB51000AF1E0BB51010AF4E012003C
:10050600000E0001B85D0AE3B8517F0807E3000E4C
:10051600B95D04E3B9513F0801E301D04AD0B8C040
:10052600C2F06ADEB9C0C2F0C233C29FC233C29FF4
:10053600C233C29F59DEB8C0C2F0AADEEBDE00C0ED
:10054600BDF0E8DE00C0BDF0B9C0C2F0C233C29F44
:10055600C233C29FC233C29F47DEB8C0C2F098DE24
:10056600070EB915006E00C0BBF000C001F0010E09
:10057600006E015004E000360090FF0FFBD700C06C
:10058600BBF0001CBC6F09D0BC51BD170FD0BB51CE
:10059600BD130CD0BB51BD1B09D0BA51000AF4E003
:1005A600BA51010AF4E0BA51020AF4E0BDC0C2F041
:0405B600AADE1200A7
:1005BA000001AB6BAC6BA9C003F0AAC004F0A9C0E0
:1005CA0005F0AAC006F003C0E9FF04C0EAFFEE5036
:1005DA00200A04E1AB51AC1101E110D0010EAB6F5E
:1005EA00000EAC6F03C0E9FF04C0EAFF05C0E1FFDB
:1005FA0006C0E2FFEECFE6FF054A062A03C001F075
:10060A0004C002F0034A042A01C0E9FF02C0EAFF5B
:10061A00EE50000AD8E1A9C000F0AAC001F0120009
:10062A00000E0001AB5D04E3AB513F0801E301D0CA
:10063A0027D0000EA95DD8A0A96BA9517F0802E2B4
:10064A007F0EA96F000EAA5DD8A0AA6BAA517F08D7
:10065A0002E27F0EAA6FA951AA5D06E2A9C0ADF017
:10066A00AAC0A9F0ADC0AAF0A951AA5D09E3A9C020
:10067A00B8F0ABC0B9F0ACC0BAF040DFA92BF4D7E0
:02068A0012005C
:10068C000001AD6BAE6BAF6BAD5107083DE3C26BB8
:10069C00B0DDADC0C2F0A5DDC26BF7DDAC6BAC510B
:1006AC003F0811E3AE51A925F66EAF51AA21F76EA2
:1006BC00000EAB21F86E0900F5CFC2F021DEAE4B77
:1006CC00AF2BAC2BECD7400EC26F93DDADC0C2F09C
:1006DC0088DD400EC26FD9DD400EAC6FAC517F0887
:1006EC0011E3AE51A925F66EAF51AA21F76E000E9B
:1006FC00AB21F86E0900F5CFC2F002DEAE4BAF2B8A
:0A070C00AC2BECD7AD2BC0D71200C8
:100716000001AF51AD25016E000EADBFFF0E026E9A
:10072600000EAFBFFF0E0222800EA9BF7F0E006E25
:10073600800E0218005C02E10150A95D45E2AB5152
:10074600A925016E000EA9BFFF0E026E000EABBFFB
:10075600FF0E0222800EADBF7F0E006E800E0218C5
:10076600005C02E10150AD5D2FE2B051AE25016E95
:10077600000EAEBFFF0E026E000EB0BFFF0E0222CD
:10078600800EAABF7F0E006E800E0218005C02E18A
:100796000150AA5D19E2AA51AC25016E000EACBF4C
:1007A600FF0E026E000EAABFFF0E0222800EAEBF23
:1007B6007F0E006E800E0218005C02E10150AE5DF5
:0C07C60003E2010E006E01D0006A120078
:1007D2000001AE6BAF6BA9C0B0F0000EA9BFFF0E57
:1007E200B16F800EA919006E800E000A005C0AE249
:1007F200AE4BAF2BA9510008B06FB16B000EA9BF71
:10080200FF0EB15BB0C0B8F0AAC0B9F0ABC0BAF08D
:10081200AADD040EAC6F000EAD6F000E006EAD517E
:10082200005C02E1AC51000819E2AC51AA25E16E6C
:10083200AD51AB21E26E010EAC5D006E000EAD5902
:10084200016E0050AA25E96E0150AB21EA6EEECF8F
:10085200E6FF010EAC5F000EAD5BDFD7AAC0E1FF81
:10086200ABC0E2FF200EE66EAE51AF111AE0AC6BE8
:10087200AD6BAC51AA25E96EAD51AB21EA6EEE50DB
:10088200200A03E1AC4BAD2BF4D7010EAC5F000E96
:10089200AD5BAC51AA25E16EAD51AB21E26E2D0EDE
:0408A200E66E1200EC
:1008A6000001AE6B6D51000A0EE1050E606F070E7A
:1008B6005F6EDC0E636F250E646F000E656F200E93
:1008C600616F000E626FAE51A925E96E000EAA2176
:1008D600EA6EEE5216E0AE51A925E96E000EAA2187
:1008E600EA6EEECFB8F0ABC0B9F0ACC0BAF0ADC0AE
:1008F600BBF07EDD6051010F006E0050AB27AE2BC2
:04090600E2D7120022
:10090A00000E0001AE1902E1000EAD1908E1A9C0FE
:10091A00B8F0ABC0B9F0AFC0BAF0F0DDD2D0B46B6A
:10092A00B56BA951AB5DB66FAA51AC59B76FADC0E3
:10093A00B2F0AEC0B3F0ADC000F0AEC001F0003608
:10094A000090013600C0B0F001C0B1F000500308B9
:10095A00B06F01C0B1F0000EB157010EB225016EA1
:10096A00000EB321026E800EB519006E800E0218B9
:10097A00005C02E10150B45DD8B0A3D0B451A925FE
:10098A00B86FB251AB25B96FAFC0BAF0B7DDB45189
:10099A00A925B86FB251AB5DB96FAFC0BAF0AEDD81
:1009AA00800E006E800EB519005C02E1B451000899
:1009BA0012E2B451A95DB86FB251AB25B96FAFC09D
:1009CA00BAF09CDDB451A95DB86FB251AB5DB96F95
:1009DA00AFC0BAF093DDB551B31902E1B251B419FF
:1009EA0035E0B251AB25B86FB651B85FB451AB25FB
:1009FA00B96FAFC0BAF082DDB251AB5DB86FB65114
:100A0A00B85FB451AB25B96FAFC0BAF077DD800ECD
:100A1A00006E800EB519005C02E1B451000816E2BE
:100A2A00B251AB25B86FB651B85FB451AB5DB96F6F
:100A3A00AFC0BAF063DDB251AB5DB86FB651B85F03
:100A4A00B451AB5DB96FAFC0BAF058DD800EB119C1
:100A5A00006E800E005C02E1000EB05D13E2B4C0CD
:100A6A0000F0B5C001F00036009001360036009063
:100A7A000136060E0026000E01220050B027015052
:100A8A00B1231CD0B251B45D036EB351B559046E93
:100A9A0003C000F004C001F00036009001360036B1
:100AAA00009001360A0E0026000E01220050B027DF
:100ABA000150B123010EB25F000EB35BB44BB52BEC
:040ACA004CD71200F3
:100ACE008A908A820001AB6BAB5107080FE3ABC073
:100ADE00C2F0F7EC00F0AA6BAA513F0805E3A9C0DB
:100AEE00C2F00DDCAA2BF8D7AB2BEED78A928A80F8
:100AFE00AB6BAB51070810E3ABC0C2F0F7EC00F0E4
:100B0E00AA6BAA513F0806E3A9C0C2F086EC01F019
:0A0B1E00AA2BF7D7AB2BEDD712007E
:100B28000001AC6B350EAD6FAB6BAB510C085FE3DE
:100B3800ABC000F0000E016E0036009001360036A2
:100B4800009001360050A925E16E0150AA21E26EFD
:100B5800ACC0E6FFABC000F0000E016E003600909E
:100B68000136003600900136A9510026AA5101220B
:100B7800010E0024E16E000E0120E26EADC0E6FF1A
:100B8800ABC000F0000E016E003600900136003652
:100B980000900136A9510026AA510122020E002414
:100BA800E16E000E0120E26E030EE66EABC000F0AF
:100BB800000E016E003600900136003600900136B6
:100BC800A9510026AA510122030E0024E16E000E4D
:100BD8000120E26E010EE66E7B0EB86FEEEC01F0BE
:100BE80000C0ACF0040E0001AD5FAB2B9ED7120025
:080BF8000001A96B68DF120087
:100C000086C0A9F0000E000186BFFF0EAA6F87C044
:100C1000ABF0000E87BFFF0EAC6F88C0ADF0000ECA
:0E0C200088BFFF0EAE6F8AC0AFF06FDE12000D
:100C2E00DC0E0001A96F1D0EAA6F000EAB6F27DD43
:020C3E001200A2
:100C400086C0A9F05A0E0001AA6F000EAB6FC1DD7D
:100C50005A0EA96F000EAA6FB0DC00C0A9F001C047
:100C6000AAF00F0EAB6F070EAC6F010EAD6F1BDE5F
:100C700087C0A9F05A0EAA6F000EAB6FAADD5A0EFC
:100C8000A96F000EAA6F99DC00C0A9F001C0AAF0FC
:100C90006B0EAB6F070EAC6F010EAD6F04DE120072
:100CA000040E006EA90EE16E000EE26E860EE96E75
:100CB000000EEA6EEECFE6FF0006FCE1040E006EC9
:100CC000AD0EE16E000EE26E8A0EE96E000EEA6E67
:0C0CD000EECFE6FF0006FCE11EDD120086
:100CDC0000019B6B9C6B9D6B9E6B9F6BA06BA16BC8
:100CEC00A26B8A518625006E8B518721016E010EF5
:100CFC00005C026E000E0158036E000E006E035075
:100D0C00005C02E102507F0807E2865180088A6F7E
:100D1C0087C08BF0000E8B578C518825006E8D513F
:100D2C008921016E010E005C026E000E0158036EEB
:100D3C00000E006E0350005C02E102503F0807E217
:100D4C00885140088C6F89C08DF0000E8D5788C07B
:100D5C0000F089C001F001320032019E01320032F4
:100D6C00019E01320032019E00C095F08C51882505
:100D7C00056E8D518921066E010E055C036E000E09
:100D8C000658046E03C000F004C001F001320032BA
:100D9C00019E01320032019E01320032019E00C0E0
:100DAC0096F0070E8815006E89C001F0000E011632
:100DBC0000C098F0070E0514006E06C001F0000E7E
:100DCC00011600C099F091518D5D02E190518C5D3E
:100DDC0003E296C09AF01BD090518825006E915179
:100DEC008921016E010E005C036E000E0158046E29
:100DFC0003C000F004C001F001320032019E013248
:100E0C000032019E01320032019E00C09AF0070EA2
:100E1C009015016E91C002F0000E0216000E021821
:100E2C0002E1000E011818E190C000F091C001F031
:100E3C0001320032019E01320032019E0132003239
:100E4C00019E8EC004F08FC005F05EEC01F000C076
:100E5C00A5F001C0A6F019D090C000F091C001F02F
:100E6C0001320032019E01320032019E0132003209
:100E7C00019E004A012A8EC004F08FC005F05EEC82
:100E8C0001F000C0A5F001C0A6F095C09BF0000ECB
:100E9C009C6F000E006E9C51005C02E19B51965DB4
:100EAC00D8A003D1A36BA46B9D6B9E6B8B519E5DE5
:100EBC0002E18A519D5DD8B0E7D09D518625C26F65
:100ECC00FFEC00F09BC0C2F0F7EC00F08F519E5D80
:100EDC0002E18E519D5D3DE2000E006E9C51005C66
:100EEC0002E19B519A5D35E3000E9C1902E195518C
:100EFC009B1902E1A76B12D0A151A325006EA25140
:100F0C00A421016E00509225F66E01509321F76ECC
:100F1C00000E9421F86E0900F5CFA7F0A651A05D44
:100F2C0002E1A5519F5D02E3A86B12D09F51A3254E
:100F3C00006EA051A421016E00509225F66E015056
:100F4C009321F76E000E9421F86E0900F5CFA8F0EE
:100F5C0002D0A86BA76BA8C097F0985100081AE2B2
:100F6C0098510808006E016A000E015AA7C097F04C
:100F7C00005004E09733979FFF0FFBD798C001F008
:100F8C00A8C000F0015004E000360090FF0FFBD722
:100F9C0000509713000E9C1902E195519B192DE1FD
:100FAC00985100082AE29D518625C26F4BEC01F046
:100FBC008DEC01F08DEC01F098510808016E026A7D
:100FCC00000E025A01C002F0FF0E016E025004E046
:100FDC000132019EFF0FFBD701500014026E98C026
:100FEC0001F0FF0E006E015004E000360090FF0F80
:100FFC00FBD70050971702509713000E9C1902E173
:10100C0096519B192DE1995100082AE29D51862594
:10101C00C26F4BEC01F08DEC01F08DEC01F099C03E
:10102C0002F0FF0E016E025004E001360190FF0F3A
:10103C00FBD701500014026E99510808006E016A2A
:10104C00000E015A00C001F0FF0E006E015004E0CA
:10105C000032009EFF0FFBD70050971702509713DA
:10106C008F519E5D02E18E519D5D02E2A34BA42B3C
:10107C009D518625C26F4BEC01F097C0C2F086ECF7
:10108C0001F09D4B9E2B12D7000E9C5D02E19A51F4
:10109C009B5D08E29FC0A1F0A0C0A2F08E519F27DB
:0C10AC008F51A0239B4B9C2BF4D612000C
:1010B80087C08BF000018B51895D0CE386C0A9F0D5
:1010C80088C0AAF08BC0ABF08AC0ACF015EC03F076
:0610D8008B2BF0D7120083
:1010DE00DC0E0001A96F210EAA6F000EAB6F46EC5D
:1010EE0003F0290E0B6E960E0C6E7F0E0D6E0D2EEE
:1010FE00FED70C2EFCD70B2EFAD7A96BE1DC120013
:10110E00176A166A196A186A596A200E1E6E370E09
:10111E001F6E090E206E090E216E226A010E236EBD
:10112E003E0E1A6E030E1B6E010E1C6E3C0E1D6ED5
:0E113E00250E0001A96F000EAA6FEFDC120053
:10114C0000C002F001C003F0016A80B4012A015012
:10115C00010A010ED8A4000E006E00C004F0016A52
:10116C0080B6012A0150010A010ED8A4000E006EAF
:10117C0000C005F0016A80B8012A0150010A010E75
:10118C00D8A4000E006E00C006F0030E006E02C064
:10119C00E1FF03C0E2FF040EE96E000EEA6EEECF33
:0811AC00E6FF0006FCE1120061
:1011B400DC0E0001A96F190EAA6F000EAB6F46EC8E
:1011C40003F0290E0B6E960E0C6E7F0E0D6E0D2E17
:0E11D400FED70C2EFCD70B2EFAD70CDD120026
:1011E20075C0A9F0000177517525AA6F76C0ABF0E2
:0A11F20079C0ACF015EC03F0120018
:1011FC000900F5CFE6FF0006FBE10106F9E112005C
:10120C0000016D6B666B676B939A939893949396AE
:10121C00939093928A9A120E006E000E016E830EBA
:10122C000024E16E0F0E0120E26EE66A8A948A9623
:10123C008A908A828A8A3F0E836E1DEC00F0C00E63
:10124C00836E1DEC00F08A808A923F0E836E1DEC3B
:0C125C0000F0C00E836E1DEC00F01200CC
:10126800830ED56E0B0ED76EDC0ED66EF28EF28A1A
:02127800120062
:10127A0075C086F076C087F0000177517525886FB2
:0E128A0078517625896F79C08AF011DF120045
:10129800046A800E000A006E800E005C02E10450B1
:1012A8000C08D8A09AD0010E0414016E0150010A4E
:1012B8004AE104C000F0000E016E003600900136CD
:1012C800003600900136005000017525E96E015086
:1012D8007621EA6EEECF01F0800E000A006E800ED5
:1012E8000118005C12E304C000F0000E016E003625
:1012F8000090013600360090013600507525E16EE9
:1013080001507621E26E7C0EE66E04C000F0000EFD
:10131800016E00360090013600360090013600500C
:101328007525026E01507621036E02C0E9FF03C0E5
:10133800EAFFEECF00F0000602C0E1FF03C0E2FFC3
:1013480000C0E6FF48D0000104C000F0000E016EA6
:1013580000360090013600360090013600507525A1
:10136800E96E01507621EA6EEECF01F0800E011889
:10137800006E800E7C0A005C11E304C000F0000ED1
:10138800016E00360090013600360090013600509C
:101398007525E16E01507621E26EE66A04C000F020
:1013A800000E016E003600900136003600900136BE
:1013B80000507525026E01507621036E02C0E9FFC8
:1013C80003C0EAFFEECF00F0002A02C0E1FF03C02D
:0C13D800E2FF00C0E6FF042A5CD7120010
:1013E40000C07DF001C07EF0830E006E000E016E21
:1013F400ABDE030E006E7F0EE16E000EE26E830E16
:10140400E96E000EEA6EEECFE6FF0006FCE1000195
:10141400826B800E000A006E800E005C02E1825135
:101424000C0840E382C000F0000E016E003600900C
:10143400013600360090013600507B25E96E0150DC
:101444007C21EA6E040E006E860EE16E000EE26EE2
:10145400EECFE6FF0006FCE1040E006E8A0EE16E9C
:10146400000EE26E750EE96E000EEA6EEECFE6FF38
:101474000006FCE113DC005213E0200E756F370EFA
:10148400766F060E006E7DC0E1FF7EC0E2FF750E32
:10149400E96E000EEA6EEECFE6FF0006FCE16BD0CB
:1014A400822BB7D7805321E07A517625026E02C091
:1014B40076F07805006E000E78BFFF0E016E000E08
:1014C400015A02500024026E000E02BEFF0E0120DB
:1014D400036E800E0318006E800E005C02E13F0E66
:1014E400025C02E3370E766F38D07F5327E07A51DF
:1014F400765D016E01C076F0800E000A006E800EEB
:101504000118005C1AE3200E756F370E766F172AE8
:1015140017C086F016C087F020EC06F0060E006EA9
:101524007DC0E1FF7EC0E2FF750EE96E000EEA6E3B
:10153400EECFE6FF0006FCE11ED00FD0060E006ED3
:101544007DC0E1FF7EC0E2FF750EE96E000EEA6E1B
:10155400EECFE6FF0006FCE10ED0060E006E7DC065
:10156400E1FF7EC0E2FF750EE96E000EEA6EEECF7B
:08157400E6FF0006FCE1120095
:10157C00190E0001796F220E7A6F030E7B6F7C6B54
:10158C0017EC06F0040E006E860EE16E000EE26E95
:10159C00790EE96E000EEA6EEECFE6FF0006FCE176
:1015AC00010E8A6F00EC06F07D0E006E000E016ECF
:1015BC00C7DD030E006E760EE16E000EE26E7D0E40
:1015CC00E96E000EEA6EEECFE6FF0006FCE10001CC
:1015DC0078530AE07551000A07E1FCEC05F0020EA5
:1015EC00006E000E016E8BD0765303E1775301E150
:1015FC003BD07551000A38E1040E006E860EE16E88
:10160C00000EE26E790EE96E000EEA6EEECFE6FF8A
:10161C000006FCE18A6B00EC06F00E0E7A25006EDB
:10162C0000C07AF0040E006E860EE16E000EE26EC3
:10163C00790EE96E000EEA6EEECFE6FF0006FCE1D5
:10164C00010E8A6F00EC06F0010E756F070E0B6E23
:10165C00C20E0C6ED80E0D6E0D2EFED70C2EFCD7B6
:10166C000B2EFAD70000A0D778530AE07551010A67
:10167C0007E1FCEC05F0030E006E000E016E3FD08E
:10168C00765303E1775301E139D07551010A36E104
:10169C00040E006E860EE16E000EE26E790EE96E9F
:1016AC00000EEA6EEECFE6FF0006FCE18A6B00EC62
:1016BC0006F00E0E7A5D006E00C07AF0040E006E1D
:1016CC00860EE16E000EE26E790EE96E000EEA6E89
:1016DC00EECFE6FF0006FCE1010E8A6F00EC06F08F
:1016EC00756B070E0B6EC20E0C6ED80E0D6E0D2E9A
:1016FC00FED70C2EFCD70B2EFAD7000055D71200B4
:10170C0075C086F0000E000175BFFF0E876F76C0A6
:10171C0088F0000E76BFFF0E896F77C08AF0000E3E
:10172C0077BFFF0E8B6F78C08CF0000E78BFFF0E6A
:10173C008D6F77C08EF0000E77BFFF0E8F6F78C065
:10174C0090F0000E78BFFF0E916F79C092F07AC0C6
:0C175C0093F07BC094F06EEC06F01200DD
:10176800010E00017525E96E000E7621EA6E800EE5
:10177800EE18006E800E3F0A005C07E31750165CF7
:1017880004E2A9DCC0DC010E246E195214E0010E3B
:101798007525016E000E7621026E01C0E9FF02C0B8
:1017A800EAFFEECF00F0002A01C0E1FF02C0E2FF2D
:0817B80000C0E6FF196A1200EF
:1017C000166A176A186A196A246AA1DC0F0EC16EBC
:1017D0001DDD4ADDF4D0EEDC010E246EFDD059C0D3
:1017E00075F0CCDE00C024F0F7D0FCEC05F017C09B
:1017F00086F016C087F020EC06F01A0E756F000E0A
:10180000766FB2DF060E006E750EE16E000EE26EB0
:101810001E0EE96E000EEA6EEECFE6FF0006FCE15A
:10182000250E7B6F000E7C6F6F0E006E000E016E3A
:10183000D9DD060E006E1E0EE16E000EE26E6F0E1A
:10184000E96E000EEA6EEECFE6FF0006FCE1250E23
:101850000001756F000E766F1FDD040E006E750EB1
:10186000E16E000EE26E1A0EE96E000EEA6EEECF29
:10187000E6FF0006FCE1010E0001796FFEDC040EBC
:10188000006E750EE16E000EE26E1E0EE96E000E29
:10189000EA6EEECFE6FF0006FCE10001BC0E796FB8
:1018A000270E7A6F000E7B6F31DF6C6B800E000AA3
:1018B000006E800E005C02E16C510C0820E36CC0ED
:1018C00000F0000E016E00360090013600360090E8
:1018D0000136250E0024E96E000E0120EA6E040E8A
:1018E000006E750EE16E000EE26EEECFE6FF0006B2
:1018F000FCE10001010E796F74DC6C2BD7D79C0ED4
:101900000C6ED70E0D6E0D2EFED70C2EFCD76C6B09
:10191000800E000A006E800E005C02E16C510C0823
:101920001EE36CC000F0000E016E00360090013620
:10193000003600900136250E0024E96E000E0120CD
:10194000EA6E040E006E750EE16E000EE26EEECFD2
:10195000E6FF0006FCE1796B44DC6C2BD9D7040E62
:10196000006E750EE16E000EE26E1A0EE96E000E4C
:10197000EA6EEECFE6FF0006FCE10001796B7DDC4C
:10198000040E006E750EE16E000EE26E1E0EE96E24
:10199000000EEA6EEECFE6FF0006FCE10001CE0E7F
:1019A000796F270E7A6F000E7B6FB0DE2450010A2C
:1019B00003E1FCEC05F001D020D70ED00DD024506F
:1019C000000AD8B408D72450010AD8B408D7245044
:0C19D000020AD8B40AD7F2D7FDD6FFD720
:1019DC000000000000000000FFFFFF87878787875B
:1019EC00878787000000FFFFFF0707070707FFFF38
:1019FC00FF0000FFFFFF878787FFFFFF0000FFFF4F
:101A0C00FFFF0707070707070700FFFFFF87878709
:101A1C000707000000000000FFFFFF07070707078C
:101A2C00070707F8F8F80000FFFFFF878787FFFF1D
:101A3C00FF0000FFFFFF070707070700FFFFFF87F7
:101A4C0087878707070000000000000000000000E7
:101A5C000000000000000000C3C3C3C3C3C3C3FF26
:101A6C00FFFFFF000000FFFFFF070707070707073F
:101A7C00070000FFFFFF030303FFFFFF0000FFFF52
:101A8C00FFFFC0C0C0C0C0C0C000FFFFFFC3C3C3C6
:101A9C00C0C0000000000000FFFFFF0E0E0E7E7E97
:101AAC007E7ECEC1C1010000FFFFFF030303FFFFD9
:101ABC00FF0000FFFFFFC0C0C0C0C000FFFFFFC39E
:101ACC00C3C3C3C0C0000000000000000000000041
:101ADC00000000000000000001010101E1E10181B2
:101AEC0081C1E160000001616160E0E06060600064
:101AFC0000E0E00101C1C0C0C0C1C10100C0C1C152
:101B0C00C1C1C1C10101E1E1C10001E1E10101017A
:101B1C000101000000C0C0C0C1C1C10000C0C0C0F4
:101B2C00C0C0C1C101C0C0C0C1C1C100C0C0C1C121
:101B3C00C1C000E1E1C10101E1E101C0C1C1C1C10C
:101B4C00C1C10101C1C0C0C0C00000000000000044
:101B5C000000000000000000000000007F7F070F65
:101B6C000F1D38787000006060607F7F00000000FF
:101B7C00007F7F00007F7F0C1E7F7700007F7F60DF
:101B8C0060607F7F00007F7F030F3C7F7F00000041
:101B9C0060600000007F7F0C1E7F7700007F7F66F7
:101BAC0066667F3F007F7F0C1E7F77007F7F6660BD
:101BBC006060007F7F030F3C7F7F007F7F666060EB
:101BCC00606000006F6F6C7D7D0000000000000005
:101BDC0000000000000000000000606060E0E060B9
:101BEC0060606000E0E06060E0E000E0E0000000C9
:101BFC00E0E000000000E0E06060606000E0E060B9
:101C0C006060E0E000000000E0E060606060000008
:101C1C00E0E0C00080C0E0E00000E0E06060E0E0F8
:101C2C00E000E0E06060606000E0E06060E0E00048
:101C3C0000E0E00000E0E0E0E0C00000E0E0606018
:101C4C0060E0E000E0E060E0E00000000000000088
:101C5C00000000000000000000000000003F3F00FA
:101C6C00000000003F3F06063F3F003F3F30300082
:101C7C003F3F303000003F3F33303030003F3F06B5
:101C8C00060F3F3B000000003F3F33303030000078
:101C9C003F3F030707013F3F00003F3F33333F1FE8
:101CAC001F003F3F33303030003F3F33333F1F0086
:101CBC00003F3F00003F3F30391F0F003F3F3030A7
:101CCC00303F3F003737363E3E000000000000003A
:101CDC0000000000000000000000000000000000F8
:101CEC0000000000000000000000000000000000E8
:101CFC00000000000000000000F8F8D818181800C8
:101D0C000000F8F898D8F8F80000FCFC00007C7C87
:101D1C00C0C000C0E07C7C0000F8F8D8181818008F
:101D2C0000F8F898D8F8F800F8F89898F8F8000047
:101D3C000000000000000000000000000000000097
:101D4C000000000000000000000000000000000087
:101D5C000000000000000000000000000000000077
:101D6C000000000000000000000000000000000067
:101D7C000000000000000000000F0F0C0C0C0C0009
:101D8C0000000F0F01030F0E00000F0F00000000EA
:101D9C00030F0C0F03000000000F0F0C0C0C0C00B9
:101DAC00000F0F01030F0E000F0F01010F0F0000AA
:101DBC000000000000000000000000000000000017
:101DCC000000000000000000000000000000000007
:101DDC00000000000000000000000000FCFCFC1CE7
:101DEC001C1C1C1C1C1C1C000000FCFCFC1C1C1CDB
:101DFC001C1CFCFCFC0000FCFCFC1C1C1CFCFCFC6F
:101E0C00FC0000FCFCFC1C1C1C1C1C1C1C00FCFC1A
:101E1C00FC1C1C1C1C1C000000000000FCFCFC1C1E
:101E2C001C1C1C1C1C1C1CE0E0E00000FCFCFC1C32
:101E3C001C1CFCFCFC0000FCFCFC1C1C1C1C1C00EA
:101E4C0000FCFCFC1C1C1C1C1C0000000000000006
:101E5C000000000000000000000000000F0F0F0E3B
:101E6C000E0E0E0EFEFEFE000000FFFFFF1C1C1CE3
:101E7C001C1C1F1F1F0000FFFFFF0E0E0EFFFFFF9D
:101E8C00FF0000FFFFFF0000000000000000FFFF4C
:101E9C00FF0E0E0E0000000000000000FFFFFF38D8
:101EAC00383838F8F8F8380707070000FFFFFF0E3E
:101EBC000E0EFFFFFF0000FFFFFF00000000000000
:101ECC0000FFFFFF0E0E0E000000000000000000DF
:101EDC0000000000000000000000000007070707DA
:101EEC0007070707070707000000070707000000A0
:101EFC0000000000000000070707000000070707AC
:101F0C00070000070707070707070707070007076A
:101F1C000707070707070000000000000707070076
:101F2C000000000101010707070000000707070078
:101F3C000000070707000007070707070707070048
:101F4C00000707070707070707000000000000004D
:101F5C000000000000000000000000000000000075
:101F6C000000000000000000000000000000000065
:101F7C00000000000000C0C0C0C000000000000055
:101F8C0000E0E0606060E0E00000E0E000000000E5
:101F9C00E0E0606060E0E00000E0E00000E0E00015
:101FAC0000E0E0606060600000E0E06060E0E000A5
:101FBC000000000000000000000000000000000015
:101FCC000000000000000000000000000000000005
:101FDC0000000000000000000000000000000000F5
:101FEC0000000000000000000000000000000000E5
:101FFC0000000000000060607F7F60600000000057
:10200C00007F7F060606070700007F7F6060600088
:10201C007F7F0606067F7F000001037F7F030100A0
:10202C00007F7F6660606000007F7F0C1E7F730006
:10203C000000000000000000000000000000000094
:10204C000000000000000000000000000000000084
:10205C000000000000000000000000000000000074
:10206C000000000000000000000000000000000064
:10207C00000000000000B0B0B0B0F0F000000000B4
:10208C0000F8F8989898F8F80000F8F800000000AC
:10209C00F8F8989898F8F8000078F8C0C0F878002C
:1020AC0000F8F8981818180000F8F81898F8F800C4
:1020BC00F8F89898989800000000000000000000C4
:1020CC000000000000000000000000000000000004
:1020DC0000000000000000000000000000000000F4
:1020EC0000000000000000000000000000000000E4
:1020FC000000000000000F0F0D0D0D0D0000000082
:10210C00001F1F010101010100001F1F18181800FA
:10211C001F1F0101011F1F000000001F1F000000F6
:10212C00001F1F1918181800001F1F03071F1C0081
:10213C000D0D0D0D0F0F0000000000000000000041
:10214C000000000000000000000000000000000083
:10215C000000000000000000000000000000000073
:10216C000000000000000000000000000000000063
:10217C000000000000000000000000000000000053
:10218C000000000000000000000000000000000043
:10219C000000000000000000000000000000000033
:1021AC000000000000000000000000000000000023
:1021BC000000000000000000000000000000000013
:1021CC000000000000000000000000000000000003
:1021DC0000000000000000000000000000000000F3
:1021EC0000000000000000000000000000000000E3
:1021FC0000000000000000000000000000000000D3
:10220C0000000000000000000000000000000000C2
:10221C0000000000000000000000000000000000B2
:10222C0000000000000000000000000000000000A2
:10223C000000000000000000000000000000000092
:10224C000000000000000000000000000000000082
:10225C000000000000000000000000000000000072
:10226C000000000000000000000000000000000062
:10227C000000000000000000000000000000000052
:10228C000000000000000000000000000000000042
:10229C000000000000000000000000000000000032
:1022AC000000000000000000000000000000000022
:1022BC000000000000000000000000000000000012
:1022CC000000000000000000000000000000000002
:1022DC0000000000000000000000000000000000F2
:1022EC0000000000000000000000000000000000E2
:1022FC0000000000000000000000000000000000D2
:10230C000000808080808080F0F0F0F0F0F0F0F041
:10231C00F0F0F0F0F0F0F0F0808080808080000031
:10232C0000000000000000000000000000000000A1
:10233C000000000000000000000000000000000091
:10234C000000000000000000000000000000000081
:10235C000000000000000000000000000000000071
:10236C000000000000000000000000000000000061
:10237C000000000000000000000000000000000051
:10238C00000001010104040607070F8F0FFFFFFF78
:10239C00FFFFFF0F8F070707040404000101000073
:1023AC000000000000000000000000000000000021
:1023BC000000000000000000000000000000000011
:1023CC000000000000000000000000000000000001
:1023DC0000000000000000000000000000000000F1
:1023EC00000000000000000000C0C0000000000061
:1023FC0000C0C0C0C000808040404040C0C0808051
:10240C000000C0C0000000C0C0C0C0000000000040
:10241C0000C0C00000000000C0C0C0C00000C0C0B0
:10242C00C0C00000C0C08080000000C0C0C0C000A0
:10243C0000C0C0C0C0000000000000000000000090
:10244C000000000000000000000000000000000080
:10245C000000000000000000000000000000000070
:10246C00000000000000000000010102021E1E1FFF
:10247C001F0303010100070F081010101F1F0F0F7F
:10248C0000000F0F1010101F1F0F0F000000000096
:10249C00000F0F10000E0E101F1F0F0F00001F1F3C
:1024AC001F1F00001F0F00000101020F1F1F1F0044
:1024BC0000171717170000000000000000000000B4
:1024CC000000000000000000000000000000000000
:1024DC0000000000000000000000000000000000F0
:1024EC0000000000000000000000000000000000E0
:1024FC0000000000000000000000000000000000D0
:10250C0000000000000000000000000000000000BF
:10251C0000000000000000000000000000000000AF
:10252C00000000000000000000000000000000009F
:10253C00000000000000000000000000000000008F
:10254C00000000000000000000000000000000007F
:10255C00000000000000000000000000000000006F
:10256C00000000000000000000000000000000005F
:10257C00000000000000000000000000000000004F
:10258C00000000000000000000000000000000003F
:10259C00000000000000000000000000000000002F
:1025AC00000000000000000000000000000000001F
:1025BC00000000000000000000000000000000000F
:1025CC0000000000000000000000000000000000FF
:1025DC00000000000000005F00000007000700146E
:1025EC007F147F14242A7F2A12231308646236492D
:1025FC005522500005030000001C2241000041221E
:10260C001C00082A1C2A0808083E08080050300044
:10261C0000080808080800303000002010080402E8
:10262C003E5149453E00427F40004261514946219E
:10263C0041454B311814127F1027454545393C4A0A
:10264C00494930017109050336494949360649495A
:10265C00291E0036360000005636000000081422F1
:10266C0041141414141441221408000201510906D7
:10267C00324979413E7E1111117E7F494949363EDE
:10268C00414141227F4141221C7F494949417F09F7
:10269C000901013E414151327F0808087F00417F0A
:1026AC0041002040413F017F081422417F404040BF
:1026BC00407F0204027F7F0408107F3E4141413E6F
:1026CC007F090909063E4151215E7F0919294646B9
:1026DC004949493101017F01013F4040403F1F20E2
:1026EC0040201F7F2018207F631408146303047894
:1026FC000403615149454300007F41410204081025
:10270C002041417F0000040201020440404040404F
:10271C00000102040020545454787F484444383853
:10272C0044444420384444487F3854545418087E58
:10273C00090102081454543C7F0804047800447DB9
:10274C0040002040443D00007F10284400417F4061
:10275C00007C041804787C08040478384444443819
:10276C007C14141408081414187C7C0804040848FD
:10277C0054545420043F4440203C4040207C1C20B6
:10278C0040201C3C4030403C44281028440C505005
:10279C00503C4464544C44000836410000007F0017
:1027AC0000004136080008082A1C08081C2A0808E2
:1027BC0080C0E4F6FFF6E4C08000000001000100D8
:0227CC0000000B
:1027CE0000000000000000000000000000000000FB
:0227DE000000F9
:020000040030CA
:0E000000010C1F1EFF8381FF0FC00FE00F4099
:00000001FF
