:1000000036EF06F00000000000EF00F000000000F6
:0A0010000000000000000000F3D71C
:0C001C00060E0D6E0D2EFED70000120027
:0A002800F9DF8A88F7DF8A981200DA
:06003200000000001200B6
:10003800120E006E000E016E830E0024E16E0F0E8C
:100048000120E26EFF0EE66EF0DFEFDF8A848A9809
:100058008A868A88DFDF83CF5AF08A988A96E5DF16
:10006800E4DF120E006E000E016E830E0024E16EB6
:0E0078000F0E0120E26EE66A5AC000F0120080
:100086007F0E5A14006E00C05AF08A948A96BF0EEC
:10009600001600C05AF0008C00C05AF000C083FF62
:0400A600C0DF1200A5
:0E00AA008A948A96B80E5A10836EB9DF12003F
:1000B8007F0E5A14016E01C05AF001AC03D08A8039
:0A00C8008A9202D08A908A82120008
:0E00D2008A988A848A965AC083FFA5DF12009E
:1000E000000E545C0AE354507F0807E3000E555C91
:1000F00004E355503F0801E301D04AD054C05AF000
:10010000DBDF55C05AF05A325A9E5A325A9E5A3242
:100110005A9ECBDF54C05AF0B6DF8EDF00C059F0D4
:100120008BDF00C059F055C05AF05A325A9E5A32ED
:100130005A9E5A325A9EB9DF54C05AF0A4DF070EB5
:100140005514006E00C057F000C001F0010E006EA3
:10015000015004E000360090FF0FFBD700C057F0BD
:10016000001C586E09D0585059160FD057505912CC
:100170000CD05750591A09D05650000AF4E0565086
:10018000010AF4E05650020AF4E059C05AF0A1DF27
:0201900012005B
:10019200000E475C04E347503F0801E301D027D03B
:1001A200000E455CD8A0456A45507F0802E27F0EEA
:1001B200456E000E465CD8A0466A46507F0802E2B1
:1001C2007F0E466E4550465C06E245C049F046C089
:1001D20045F049C046F04550465C09E345C054F03D
:1001E20047C055F048C056F07ADF452AF4D71200CE
:1001F200000E4A1802E1000E491808E145C054F009
:1002020047C055F04BC056F06ADFD2D0506A516AEF
:100212004550475C526E46504858536E49C04EF0A6
:100222004AC04FF049C000F04AC001F000360090C9
:10023200013600C04CF001C04DF0005003084C6E76
:1002420001C04DF0000E4D56010E4E24016E000EFF
:100252004F20026E800E5118006E800E0218005C54
:1002620002E10150505CD8B0A3D050504524546EE6
:100272004E504724556E4BC056F031DF5050452446
:10028200546E4E50475C556E4BC056F028DF800EC0
:10029200006E800E5118005C02E15050000812E21C
:1002A2005050455C546E4E504724556E4BC056F02C
:1002B20016DF5050455C546E4E50475C556E4BC035
:1002C20056F00DDF51504F1802E14E50501835E0F4
:1002D2004E504724546E5250545E50504724556E2F
:1002E2004BC056F0FCDE4E50475C546E5250545E8A
:1002F20050504724556E4BC056F0F1DE800E006E12
:10030200800E5118005C02E15050000816E24E5077
:100312004724546E5250545E5050475C556E4BC049
:1003220056F0DDDE4E50475C546E5250545E5050D3
:10033200475C556E4BC056F0D2DE800E4D18006EF3
:10034200800E005C02E1000E4C5C13E250C000F033
:1003520051C001F00036009001360036009001369F
:10036200060E0026000E012200504C2601504D229E
:100372001CD04E50505C036E4F505158046E03C057
:1003820000F004C001F00036009001360036009003
:1003920001360A0E0026000E012200504C260150A2
:1003A2004D22010E4E5E000E4F5A504A512A4CD732
:0203B200120037
:1003B4008A908A82476A475007080EE347C05AF07A
:1003C40072DE466A46503F0805E345C05AF07FDEB8
:1003D400462AF8D7472AEFD78A928A80476A475035
:1003E40007080EE347C05AF05EDE466A46503F08EF
:1003F40005E345C05AF06BDE462AF8D7472AEFD703
:020404001200E4
:10040600496A4A6A4B6A495007083DE35A6A51DE0F
:1004160049C05AF047DE5A6A33DE486A48503F08F8
:1004260011E34A504524F66E4B504620F76E000EF7
:100436004720F86E0900F5CF5AF048DE4A4A4B2AA3
:10044600482AECD7400E5A6E34DE49C05AF02ADEEE
:10045600400E5A6E15DE400E486E48507F0811E376
:100466004A504524F66E4B504620F76E000E472044
:10047600F86E0900F5CF5AF029DE4A4A4B2A482A77
:08048600ECD7492AC0D712008F
:10048E0040C045F0000E40BEFF0E466E41C047F024
:10049E00000E41BEFF0E486E42C049F0000E42BE35
:0C04AE00FF0E4A6E44C04BF09DDE1200B1
:1004BA008C0E456E110E466E000E476E9FDF1200BF
:1004CA0000C002F001C003F0016A80B4012A0150A1
:1004DA00010A010ED8A4000E006E00C004F0016AE1
:1004EA0080B6012A0150010A010ED8A4000E006E3E
:1004FA0000C005F0016A80B8012A0150010A010E04
:10050A00D8A4000E006E00C006F0030E006E02C0F2
:10051A00E1FF03C0E2FF040EE96E000EEA6EEECFC1
:08052A00E6FF0006FCE11200EF
:1005320040C045F042504024466E41C047F044C09E
:0605420048F026DE120065
:06054800456A34DF1200D9
:10054E008C0E456E0D0E466E000E476E55DF290E53
:10055E000B6E960E0C6E7F0E0D6E0D2EFED70C2EA4
:0A056E00FCD70B2EFAD7E9DF1200CC
:10057800156A166A176A939A939893949396939028
:1005880093928A9A120E006E000E016E830E00245A
:10059800E16E0F0E0120E26EE66A8A948A968A90CE
:1005A8008A828A8A3F0E836E3BDDC00E836E38DDF9
:1005B8008A808A923F0E836E33DDC00E836E30DDF3
:0205C80012001F
:1005CA000900F5CFE6FF0006FBE10106F9E112009A
:1005DA00140E066E0F0E076E056A05500308D8A0A2
:1005EA0012D1010E0514016E0150000AD8A4B5D02B
:1005FA0005C000F0000E016E00360090013600368C
:10060A00009001363250002633500122020E002497
:10061A00E16E000E0120E26E030EE66E05C000F0E8
:10062A00000E016E00360090013600360090013649
:10063A003250002633500122030E0024E16E000ED0
:10064A000120E26E010EE66E0550000A28E105C09F
:10065A0000F0000E016E0036009001360036009060
:10066A00013600503224E16E01503320E26EE66A10
:10067A0005C000F0000E016E00360090013600360B
:10068A00009001363250002633500122010E002418
:10069A00E16E000E0120E26E3C0EE66E5DD005C0F2
:1006AA0000F0000E016E0036009001360036009010
:1006BA00013600503224E16E01503320E26E050407
:1006CA00036E046A000E045A03C000F004C001F06D
:1006DA000036009001360036009001360050322470
:1006EA00E96E01503320EA6EEECF00F00650002684
:1006FA0000C0E6FF05C000F0000E016E0036009053
:10070A00013600360090013632500026335001225D
:10071A00010E0024E16E000E0120E26E0504036E54
:10072A00046A000E045A03C000F004C001F0003647
:10073A0000900136003600900136325000263350C0
:10074A000122010E0024E96E000E0120EA6E075014
:10075A00EE5C006E00C0E6FF54D005C000F0000E4B
:10076A00016E0036009001360036009001360050C6
:10077A003224E16E01503320E26E7C0EE66E05C033
:10078A0000F0000E016E003600900136003600902F
:10079A0001363250002633500122010E0024E16E48
:1007AA00000E0120E26E370EE66E05C000F0000E64
:1007BA00016E003600900136003600900136325044
:1007CA00002633500122020E0024E16E000E0120A1
:1007DA00E26E030EE66E05C000F0000E016E0036F2
:1007EA000090013600360090013632500026335010
:1007FA000122030E0024E16E000E0120E26E010EBA
:08080A00E66E052AEAD6120091
:1008120000C038F001C039F03D0E006E000E016ECE
:1008220053DE030E006E3A0EE16E000EE26E3D0ED6
:10083200E96E000EEA6EEECFE6FF0006FCE13B52E7
:100842000FE037503324016E01C033F0800E0118DF
:10085200006E800E3F0A005C02E33F0E336E1FD033
:100862003A520EE03750335C016E01C033F0800E15
:10087200000A006E800E0118005CD8B0336A0FD0F7
:10088200060E006E38C0E1FF39C0E2FF320EE96E9B
:10089200000EEA6EEECFE6FF0006FCE10ED0060E79
:1008A200006E38C0E1FF39C0E2FF320EE96E000E81
:0C08B200EA6EEECFE6FF0006FCE112004B
:1008BE0032C054F033C055F038C056F00ADC120086
:1008CE00346A34500308D8A00BD1010E3414016ED3
:1008DE000150000AD8A481D034C000F0000E016E81
:1008EE00003600900136003600900136005032245A
:1008FE00E96E01503320EA6E040E006E400EE16E7A
:10090E00000EE26EEECFE6FF0006FCE1446A0ADE60
:10091E0034C000F0000E016E003600900136003635
:10092E000090013600503224E96E01503320EA6EF9
:10093E00EECF01F0800E0118006E800E7C0A005C76
:10094E0011E334C000F0000E016E00360090013647
:10095E0000360090013600503224E16E01503320F3
:10096E00E26EE66A34C000F0000E016E00360090B2
:10097E00013600360090013600503224026E0150CE
:10098E003320036E02C0E9FF03C0EAFFEECF00F092
:10099E00002A02C0E1FF03C0E2FF00C0E6FF34C040
:1009AE0000F0000E016E0036009001360036009009
:1009BE00013600503224E96E01503320EA6E040EE7
:1009CE00006E400EE16E000EE26EEECFE6FF000608
:1009DE00FCE1010E446EA6DD81D034C000F0000EA5
:1009EE00016E003600900136003600900136005040
:1009FE003224E96E01503320EA6E040E006E400E72
:100A0E00E16E000EE26EEECFE6FF0006FCE1446AF8
:100A1E0089DD34C000F0000E016E00360090013604
:100A2E0000360090013600503224E96E015033201A
:100A3E00EA6EEECF01F0800E000A006E800E0118F5
:100A4E00005C12E334C000F0000E016E0036009020
:100A5E00013600360090013600503224E16E01500E
:100A6E003320E26E7C0EE66E34C000F0000E016E96
:100A7E0000360090013600360090013600503224C8
:100A8E00026E01503320036E02C0E9FF03C0EAFF7D
:100A9E00EECF00F0000602C0E1FF03C0E2FF00C08F
:100AAE00E6FF34C000F0000E016E003600900136F5
:100ABE0000360090013600503224E96E015033208A
:100ACE00EA6E040E006E400EE16E000EE26EEECF88
:100ADE00E6FF0006FCE1010E446E24DD342AF1D659
:020AEE001200F4
:100AF000190E366E220E376E030E386E396ADDDC43
:100B0000040E006E400EE16E000EE26E360EE96ECF
:100B1000000EEA6EEECFE6FF0006FCE1010E446E29
:100B2000B6DC3A0E006E000E016ECFDC030E006ED6
:100B3000330EE16E000EE26E3A0EE96E000EEA6EC2
:100B4000EECFE6FF0006FCE1355209E03250000A24
:100B500006E1FADC020E006E000E016E86D0335202
:100B600003E1345201E139D03250000A36E1040E7B
:100B7000006E400EE16E000EE26E360EE96E000E63
:100B8000EA6EEECFE6FF0006FCE1446A80DC0E0E62
:100B90003724006E00C037F0040E006E400EE16E88
:100BA000000EE26E360EE96E000EEA6EEECFE6FF44
:100BB0000006FCE1010E446E6ADC010E326E070E87
:100BC0000B6EC20E0C6ED80E0D6E0D2EFED70C2EB7
:100BD000FCD70B2EFAD70000A4D7355209E03250CB
:100BE000010A06E1B1DC030E006E000E016E3DD07D
:100BF000335203E1345201E137D03250010A34E17B
:100C0000040E006E400EE16E000EE26E360EE96ECE
:100C1000000EEA6EEECFE6FF0006FCE1446A37DC28
:100C20000E0E375C006E00C037F0040E006E400EF2
:100C3000E16E000EE26E360EE96E000EEA6EEECF49
:100C4000E6FF0006FCE1010E446E21DC326A070E6D
:100C50000B6EC20E0C6ED80E0D6E0D2EFED70C2E26
:0C0C6000FCD70B2EFAD700005CD7120066
:100C6C00020E2A6E2B6A400E186E200E196E010EA3
:100C7C001A6E010E1B6E1C6A010E1D6E1E0E326E5C
:100C8C00000E336EA4DC0F0EC16E70DC6DD059DC1F
:100C9C00010E2A6E73D02BC032F024DF00C02AF074
:100CAC006DD04CDC060E006E320EE16E000EE26E64
:100CBC00180EE96E000EEA6EEECFE6FF0006FCE1C0
:100CCC00010E386EF6DD060E006E320EE16E000E71
:100CDC00E26E180EE96E000EEA6EEECFE6FF00062D
:100CEC00FCE1386AE6DD060E006E320EE16E000E97
:100CFC00E26E180EE96E000EEA6EEECFE6FF00060D
:100D0C00FCE12C0E006E000E016E7DDD060E006EF9
:100D1C00180EE16E000EE26E2C0EE96E000EEA6EFD
:100D2C00EECFE6FF0006FCE11E0E326E000E336EB7
:100D3C00C8DD060E006E320EE16E000EE26E180E6D
:100D4C00E96E000EEA6EEECFE6FF0006FCE1010E46
:100D5C00386EAFDD9C0E0C6ED70E0D6E0D2EFED7C1
:100D6C000C2EFCD7B0D70AD02A50000A90E02A509B
:100D7C00010A91E02A50020A94E0F5D787D7FFD7F1
:100D8C000000000000000000FFFFFF8787878787B7
:100D9C00878787000000FFFFFF0707070707FFFF94
:100DAC00FF0000FFFFFF878787FFFFFF0000FFFFAB
:100DBC00FFFF0707070707070700FFFFFF87878766
:100DCC000707000000000000FFFFFF0707070707E9
:100DDC00070707F8F8F80000FFFFFF878787FFFF7A
:100DEC00FF0000FFFFFF070707070700FFFFFF8754
:100DFC008787870707000000000000000000000044
:100E0C000000000000000000C3C3C3C3C3C3C3FF82
:100E1C00FFFFFF000000FFFFFF070707070707079B
:100E2C00070000FFFFFF030303FFFFFF0000FFFFAE
:100E3C00FFFFC0C0C0C0C0C0C000FFFFFFC3C3C322
:100E4C00C0C0000000000000FFFFFF0E0E0E7E7EF3
:100E5C007E7ECEC1C1010000FFFFFF030303FFFF35
:100E6C00FF0000FFFFFFC0C0C0C0C000FFFFFFC3FA
:100E7C00C3C3C3C0C000000000000000000000009D
:100E8C00000000000000000001010101E1E101810E
:100E9C0081C1E160000001616160E0E060606000C0
:100EAC0000E0E00101C1C0C0C0C1C10100C0C1C1AE
:100EBC00C1C1C1C10101E1E1C10001E1E1010101D7
:100ECC000101000000C0C0C0C1C1C10000C0C0C051
:100EDC00C0C0C1C101C0C0C0C1C1C100C0C0C1C17E
:100EEC00C1C000E1E1C10101E1E101C0C1C1C1C169
:100EFC00C1C10101C1C0C0C0C000000000000000A1
:100F0C000000000000000000000000007F7F070FC1
:100F1C000F1D38787000006060607F7F000000005B
:100F2C00007F7F00007F7F0C1E7F7700007F7F603B
:100F3C0060607F7F00007F7F030F3C7F7F0000009D
:100F4C0060600000007F7F0C1E7F7700007F7F6653
:100F5C0066667F3F007F7F0C1E7F77007F7F666019
:100F6C006060007F7F030F3C7F7F007F7F66606047
:100F7C00606000006F6F6C7D7D0000000000000061
:100F8C0000000000000000000000606060E0E06015
:100F9C0060606000E0E06060E0E000E0E000000025
:100FAC00E0E000000000E0E06060606000E0E06015
:100FBC006060E0E000000000E0E060606060000065
:100FCC00E0E0C00080C0E0E00000E0E06060E0E055
:100FDC00E000E0E06060606000E0E06060E0E000A5
:100FEC0000E0E00000E0E0E0E0C00000E0E0606075
:100FFC0060E0E000E0E060E0E000000000000000E5
:10100C00000000000000000000000000003F3F0056
:10101C00000000003F3F06063F3F003F3F303000DE
:10102C003F3F303000003F3F33303030003F3F0611
:10103C00060F3F3B000000003F3F333030300000D4
:10104C003F3F030707013F3F00003F3F33333F1F44
:10105C001F003F3F33303030003F3F33333F1F00E2
:10106C00003F3F00003F3F30391F0F003F3F303003
:10107C00303F3F003737363E3E0000000000000096
:10108C000000000000000000000000000000000054
:10109C000000000000000000000000000000000044
:1010AC00000000000000000000F8F8D81818180024
:1010BC000000F8F898D8F8F80000FCFC00007C7CE4
:1010CC00C0C000C0E07C7C0000F8F8D818181800EC
:1010DC0000F8F898D8F8F800F8F89898F8F80000A4
:1010EC0000000000000000000000000000000000F4
:1010FC0000000000000000000000000000000000E4
:10110C0000000000000000000000000000000000D3
:10111C0000000000000000000000000000000000C3
:10112C000000000000000000000F0F0C0C0C0C0065
:10113C0000000F0F01030F0E00000F0F0000000046
:10114C00030F0C0F03000000000F0F0C0C0C0C0015
:10115C00000F0F01030F0E000F0F01010F0F000006
:10116C000000000000000000000000000000000073
:10117C000000000000000000000000000000000063
:10118C00000000000000000000000000FCFCFC1C43
:10119C001C1C1C1C1C1C1C000000FCFCFC1C1C1C37
:1011AC001C1CFCFCFC0000FCFCFC1C1C1CFCFCFCCB
:1011BC00FC0000FCFCFC1C1C1C1C1C1C1C00FCFC77
:1011CC00FC1C1C1C1C1C000000000000FCFCFC1C7B
:1011DC001C1C1C1C1C1C1CE0E0E00000FCFCFC1C8F
:1011EC001C1CFCFCFC0000FCFCFC1C1C1C1C1C0047
:1011FC0000FCFCFC1C1C1C1C1C0000000000000063
:10120C000000000000000000000000000F0F0F0E97
:10121C000E0E0E0EFEFEFE000000FFFFFF1C1C1C3F
:10122C001C1C1F1F1F0000FFFFFF0E0E0EFFFFFFF9
:10123C00FF0000FFFFFF0000000000000000FFFFA8
:10124C00FF0E0E0E0000000000000000FFFFFF3834
:10125C00383838F8F8F8380707070000FFFFFF0E9A
:10126C000E0EFFFFFF0000FFFFFF0000000000005C
:10127C0000FFFFFF0E0E0E0000000000000000003B
:10128C000000000000000000000000000707070736
:10129C0007070707070707000000070707000000FC
:1012AC000000000000000007070700000007070708
:1012BC0007000007070707070707070707000707C7
:1012CC0007070707070700000000000007070700D3
:1012DC0000000001010107070700000007070700D5
:1012EC0000000707070000070707070707070700A5
:1012FC0000070707070707070700000000000000AA
:10130C0000000000000000000000000000000000D1
:10131C0000000000000000000000000000000000C1
:10132C00000000000000C0C0C0C0000000000000B1
:10133C0000E0E0606060E0E00000E0E00000000041
:10134C00E0E0606060E0E00000E0E00000E0E00071
:10135C0000E0E0606060600000E0E06060E0E00001
:10136C000000000000000000000000000000000071
:10137C000000000000000000000000000000000061
:10138C000000000000000000000000000000000051
:10139C000000000000000000000000000000000041
:1013AC0000000000000060607F7F606000000000B3
:1013BC00007F7F060606070700007F7F60606000E5
:1013CC007F7F0606067F7F000001037F7F030100FD
:1013DC00007F7F6660606000007F7F0C1E7F730063
:1013EC0000000000000000000000000000000000F1
:1013FC0000000000000000000000000000000000E1
:10140C0000000000000000000000000000000000D0
:10141C0000000000000000000000000000000000C0
:10142C00000000000000B0B0B0B0F0F00000000010
:10143C0000F8F8989898F8F80000F8F80000000008
:10144C00F8F8989898F8F8000078F8C0C0F8780088
:10145C0000F8F8981818180000F8F81898F8F80020
:10146C00F8F8989898980000000000000000000020
:10147C000000000000000000000000000000000060
:10148C000000000000000000000000000000000050
:10149C000000000000000000000000000000000040
:1014AC000000000000000F0F0D0D0D0D00000000DE
:1014BC00001F1F010101010100001F1F1818180057
:1014CC001F1F0101011F1F000000001F1F00000053
:1014DC00001F1F1918181800001F1F03071F1C00DE
:1014EC000D0D0D0D0F0F000000000000000000009E
:1014FC0000000000000000000000000000000000E0
:10150C0000000000000000000000000000000000CF
:10151C0000000000000000000000000000000000BF
:10152C0000000000000000000000000000000000AF
:10153C00000000000000000000000000000000009F
:10154C00000000000000000000000000000000008F
:10155C00000000000000000000000000000000007F
:10156C00000000000000000000000000000000006F
:10157C00000000000000000000000000000000005F
:020000040030CA
:0E000000000C1F1EFF8381FF0FC00FE00F409A
:00000001FF
