:04000000AFEF0BF063
:1000080000C015F0F2A40CD0F2940B0ED76EDC0EE3
:10001800D66E192A020E195C03E3010E186E196ACE
:0600280015C000F01100FC
:0C002E00060E0D6E0D2EFED70000120015
:0A003A00F9DF8A88F7DF8A981200C8
:06004400000000001200A4
:10004A00120E006E000E016E830E0024E16E0F0E7A
:10005A000120E26EFF0EE66EF0DFEFDF8A848A98F7
:10006A008A868A88DFDF83CFC2F08A988A96E5DF9C
:10007A00E4DF120E006E000E016E830E0024E16EA4
:0E008A000F0E0120E26EE66AC2C000F0120006
:100098008A948A96B80E0001C211836ECADF1200D4
:1000A8000B6A0A6A096A00500402F4CF09F0F3CF18
:1000B80008F001500502F4CF0BF0F3CF0AF000501E
:1000C8000502F3500926F4500A22E86A0B2201506F
:1000D8000402F3500926F4500A22E86A0B2208C0E9
:1000E80000F009C001F00AC002F00BC003F01200D2
:1000F800086A080E0C6E003408360450085ED8B042
:0E01080002D00826D89000360C2EF5D7120033
:100116007F0E0001C215006E00C0C2F08A948A9656
:10012600BF0E001600C0C2F0008C00C0C2F000C0B6
:0601360083FF80DF1200D0
:0E013C008A988A848A96C2C083FF79DF1200F7
:10014A007F0E0001C215016E01C0C2F001AC03D0DE
:0C015A008A808A9202D08A908A82120069
:10016600B8C026F0B9C027F0000E286E296E010E21
:040176001B6E1200EA
:10017A000134083609360450085E0550D8A0053CFB
:10018A00095E003601360F0E0C6E01340836093648
:10019A00045000A006D0085E0550D8A0053C095EB0
:1001AA0005D008260550D8B0053C09260036013688
:1001BA000C2EEBD700B006D0045008260550D8B054
:0801CA00053C092600001200AB
:1001D200000E0001B85D0AE3B8517F0807E3000E84
:1001E200B95D04E3B9513F0801E301D04AD0B8C078
:1001F200C2F0AADFB9C0C2F0C233C29FC233C29FEB
:10020200C233C29F48DFB8C0C2F084DF1DDF00C026
:10021200BDF01ADF00C0BDF0B9C0C2F0C233C29F48
:10022200C233C29FC233C29F36DFB8C0C2F072DF90
:10023200070EB915006E00C0BBF000C001F0010E40
:10024200006E015004E000360090FF0FFBD700C0A3
:10025200BBF0001CBC6F09D0BC51BD170FD0BB5105
:10026200BD130CD0BB51BD1B09D0BA51000AF4E03A
:10027200BA51010AF4E0BA51020AF4E0BDC0C2F078
:040282005CDF12002B
:100286000001BA51070801E282D02A50B85D006E1B
:100296002BC001F0000E01561CC004F0000E056EC6
:1002A60000DF00C0C0F001C0C1F0B9C0C2F030DF4D
:1002B600BAC0C2F0EEDEBC6B1C50BC5D49E2B9515F
:1002C6007F0801E264D0B9C0C2F03CDFBAC0C2F018
:1002D600E0DEB9C0C2F01CDFB5DE00C0BDF0B2DEA4
:1002E60000C0BDF0B9C0C2F02DDFBAC0C2F0D1DE89
:1002F600B9C0C2F00DDFC0511D24F66EC1511E20DB
:10030600F76E000EC1BFFF0E1F20F86E0900F5CF75
:1003160000F000C0BEF0C04BC12B001CBF6F09D05F
:10032600BFC0BDF00FD0BEC0BDF00CD0BE51BD1BCE
:1003360009D0BB51000AF4E0BB51010AF4E0BB51FD
:10034600020AF4E0BDC0C2F0F6DEB92BBC2BB4D76E
:10035600B9C0C2F0F7DEBAC0C2F09BDEB9C0C2F0C7
:10036600D7DEFF0EBE6FBF6B0CD0BEC0BDF0BEC0E9
:10037600C2F0E1DE0CD0BFC0BDF0BFC0C2F0DBDE14
:1003860006D0BB51000AF1E0BB51010AF4E01200AD
:10039600220E0C6E086A096A0A6A0B6A0C06D8B441
:1003A6001FD0D8900B320A32093208320332023299
:1003B60001320032D8A0F2D70C06D8B409D00450C6
:1003C60008260550092206500A2207500B22EAD7B2
:1003D600045008260550092206500A2207500B220F
:0203E600120003
:1003E8000001BB6B030EBB5D0AE2BB51B925E16E90
:1003F800000EBA21E26E200EE66EBB2BF3D7BB517E
:10040800B925E16E000EBA21E26EE66ABB07BB5160
:10041800B925BC6F000EBA21BD6F0A0E046EB8C0B4
:1004280000F066DE08C000F0300E0026BCC0E1FF18
:10043800BDC0E2FF00C0E6FF0A0E046EB8C000F0BF
:1004480057DE00C0B8F00050000A01E102D0BB0737
:04045800DED71200D9
:10045C000001AF51AD25016E000EADBFFF0E026E57
:10046C00000EAFBFFF0E0222800EA9BF7F0E006EE2
:10047C00800E0218005C02E10150A95D45E2AB510F
:10048C00A925016E000EA9BFFF0E026E000EABBFB8
:10049C00FF0E0222800EADBF7F0E006E800E021882
:1004AC00005C02E10150AD5D2FE2B051AE25016E52
:1004BC00000EAEBFFF0E026E000EB0BFFF0E02228A
:1004CC00800EAABF7F0E006E800E0218005C02E147
:1004DC000150AA5D19E2AA51AC25016E000EACBF09
:1004EC00FF0E026E000EAABFFF0E0222800EAEBFE0
:1004FC007F0E006E800E0218005C02E10150AE5DB2
:0C050C0003E2010E006E01D0006A120034
:100518001B5206E1010E0001B86F000EB96F1FDE15
:1005280026C000F027C001F028C002F029C003F05F
:100538006D0E046E4E0E056EC60E066E410E076EEB
:1005480026DF390E0024056E300E0120066E000EDF
:100558000220076E000E0320086E07C000F008C0D6
:1005680001F0000E08BEFF0E026E036EFF0E0016AD
:100578007F0E0116000E0216031600C026F001C0F9
:0C05880027F002C028F003C029F0120088
:100594008A908A820001AB6BAB5107080EE3ABC0B3
:1005A400C2F078DDAA6BAA513F0805E3A9C0C2F0E6
:1005B400C3DDAA2BF8D7AB2BEFD78A928A80AB6B1B
:1005C400AB5107080EE3ABC0C2F064DDAA6BAA51BD
:1005D4003F0805E3A9C0C2F0AFDDAA2BF8D7AB2BC7
:0405E400EFD712003B
:1005E800000E0001AE1902E1000EAD1908E1A9C024
:1005F800B8F0ABC0B9F0AFC0BAF0E7DDD2D0B46B99
:10060800B56BA951AB5DB66FAA51AC59B76FADC008
:10061800B2F0AEC0B3F0ADC000F0AEC001F000362D
:100628000090013600C0B0F001C0B1F000500308DE
:10063800B06F01C0B1F0000EB157010EB225016EC6
:10064800000EB321026E800EB519006E800E0218DE
:10065800005C02E10150B45DD8B0A3D0B451A92523
:10066800B86FB251AB25B96FAFC0BAF0AEDDB451B7
:10067800A925B86FB251AB5DB96FAFC0BAF0A5DDAF
:10068800800E006E800EB519005C02E1B4510008BE
:1006980012E2B451A95DB86FB251AB25B96FAFC0C2
:1006A800BAF093DDB451A95DB86FB251AB5DB96FC3
:1006B800AFC0BAF08ADDB551B31902E1B251B4192D
:1006C80035E0B251AB25B86FB651B85FB451AB2520
:1006D800B96FAFC0BAF079DDB251AB5DB86FB65142
:1006E800B85FB451AB25B96FAFC0BAF06EDD800EFC
:1006F800006E800EB519005C02E1B451000816E2E4
:10070800B251AB25B86FB651B85FB451AB5DB96F94
:10071800AFC0BAF05ADDB251AB5DB86FB651B85F31
:10072800B451AB5DB96FAFC0BAF04FDD800EB119EF
:10073800006E800E005C02E1000EB05D13E2B4C0F2
:1007480000F0B5C001F00036009001360036009088
:100758000136060E0026000E01220050B027015077
:10076800B1231CD0B251B45D036EB351B559046EB8
:1007780003C000F004C001F00036009001360036D6
:10078800009001360A0E0026000E01220050B02704
:100798000150B123010EB25F000EB35BB44BB52B11
:0407A8004CD7120018
:1007AC000001AB6BAC6BA9C003F0AAC004F0A9C0EC
:1007BC0005F0AAC006F003C0E9FF04C0EAFFEE5042
:1007CC00200A04E1AB51AC1101E110D0010EAB6F6A
:1007DC00000EAC6F03C0E9FF04C0EAFF05C0E1FFE7
:1007EC0006C0E2FFEECFE6FF054A062A03C001F081
:1007FC0004C002F0034A042A01C0E9FF02C0EAFF68
:10080C00EE50000AD8E1A9C000F0AAC001F0120015
:10081C000450000A08E10550000A05E1FF0E006EC5
:10082C007F0E016E57D00D6A096A086A01500010DC
:10083C00D8B4000C015005180A6E0ABE0D1E0B6AC6
:10084C0005AE05D0041E051E042AD8B4052A01AE37
:10085C0005D0001E011E002AD8B4012A0150051033
:10086C000A6E0ABE10D083DC0BB020D00DAE000C8B
:10087C00001E011E002AD8B4012A081E091E082ACF
:10088C00D8B4092A000C05AE0DD001BE07D001501A
:10089C00096E0050086E016A006AE8D7016A006AA6
:1008AC00002A000C011E001E0B2ADDD7082AD8B422
:1008BC00092A0450085CD8A4D9D70550095CD8A4DF
:1008CC00D5D7096A086A002AD8B4012A01AECED756
:0608DC000000FF0C1200F9
:1008E200000E0001AB5D04E3AB513F0801E301D010
:1008F20027D0000EA95DD8A0A96BA9517F0802E2FA
:100902007F0EA96F000EAA5DD8A0AA6BAA517F081C
:1009120002E27F0EAA6FA951AA5D06E2A9C0ADF05C
:10092200AAC0A9F0ADC0AAF0A951AA5D09E3A9C065
:10093200B8F0ABC0B9F0ACC0BAF04ADCA92BF4D71E
:020942001200A1
:100944000001AD6BAE6BAF6BAD51070845E3C26BF5
:10095400A5EC00F0ADC0C2F04CEC00F0C26B8BEC27
:1009640000F0AC6BAC513F0812E3AE51A925F66E12
:10097400AF51AA21F76E000EAB21F86E0900F5CF36
:10098400C2F09EEC00F0AE4BAF2BAC2BEBD7400E7D
:10099400C26FA5EC00F0ADC0C2F04CEC00F0400E0C
:1009A400C26F8BEC00F0400EAC6FAC517F0812E3C9
:1009B400AE51A925F66EAF51AA21F76E000EAB21F8
:1009C400F86E0900F5CFC2F09EEC00F0AE4BAF2BF1
:0A09D400AC2BEBD7AD2BB8D7120007
:1009DE000001AE6BAF6BA9C0B0F0000EA9BFFF0E49
:1009EE00B16F800EA919006E800E000A005C0AE23B
:1009FE00AE4BAF2BA9510008B06FB16B000EA9BF63
:100A0E00FF0EB15BB0C0B8F0AAC0B9F0ABC0BAF07F
:100A1E00E4DC040EAC6F000EAD6F000E006EAD5137
:100A2E00005C02E1AC51000819E2AC51AA25E16E5E
:100A3E00AD51AB21E26E010EAC5D006E000EAD59F4
:100A4E00016E0050AA25E96E0150AB21EA6EEECF81
:100A5E00E6FF010EAC5F000EAD5BDFD7AAC0E1FF73
:100A6E00ABC0E2FF200EE66EAE51AF111AE0AC6BDA
:100A7E00AD6BAC51AA25E96EAD51AB21EA6EEE50CD
:100A8E00200A03E1AC4BAD2BF4D7010EAC5F000E88
:100A9E00AD5BAC51AA25E16EAD51AB21E26E2D0ED0
:040AAE00E66E1200DE
:100AB2000001AE6B1A50000A0EE1050E1C6E070E05
:100AC200206EEC0E1D6E210E1E6E000E1F6E200E8D
:100AD2002A6E000E2B6EAE51A925E96E000EAA21D8
:100AE200EA6EEE5217E0AE51A925E96E000EAA2178
:100AF200EA6EEECFB8F0ABC0B9F0ACC0BAF0ADC0A0
:100B0200BBF043EC01F01C50010F006E0050AB270C
:060B1200AE2BE1D712003A
:100B180086C0A9F0000E000186BFFF0EAA6F87C02D
:100B2800ABF0000E87BFFF0EAC6F88C0ADF0000EB3
:0E0B380088BFFF0EAE6F8AC0AFF052DD120014
:100B4600EC0E0001A96F1D0EAA6F000EAB6FF7DE4B
:020B560012008B
:080B58000001A96B1BDD120076
:100B6000DBDC00018651010F046E056A000E0522D0
:0C0B700055DE08C000F009C001F01200C2
:100B7C00040E006EA90EE16E000EE26E860EE96E9A
:100B8C00000EEA6EEECFE6FF0006FCE1040E006EEE
:100B9C00AD0EE16E000EE26E8A0EE96E000EEA6E8C
:0C0BAC00EECFE6FF0006FCE153DC120077
:100BB80086C0A9F0210E0001AA6F000EAB6F0BDFF3
:100BC800210EA96F000EAA6FEDDD00C0A9F001C0CB
:100BD800AAF00F0EAB6F070EAC6F010EAD6F65DF9D
:100BE80087C0A9F0210EAA6F000EAB6FF4DE210EAC
:100BF800A96F000EAA6FD6DD00C0A9F001C0AAF047
:100C08006B0EAB6F070EAC6F010EAD6F4EDF1200AF
:100C180000019B6B9C6B9D6B9E6B9F6BA06BA16B8C
:100C2800A26B8A518625006E8B518721016E010EB9
:100C3800005C026E000E0158036E000E006E035039
:100C4800005C02E102507F0807E2865180088A6F43
:100C580087C08BF0000E8B578C518825006E8D5104
:100C68008921016E010E005C026E000E0158036EB0
:100C7800000E006E0350005C02E102503F0807E2DC
:100C8800885140088C6F89C08DF0000E8D5788C040
:100C980000F089C001F001320032019E01320032B9
:100CA800019E01320032019E00C095F08C518825CA
:100CB800056E8D518921066E010E055C036E000ECE
:100CC8000658046E03C000F004C001F0013200327F
:100CD800019E01320032019E01320032019E00C0A5
:100CE80096F0070E8815006E89C001F0000E0116F7
:100CF80000C098F0070E0514006E06C001F0000E43
:100D0800011600C099F091518D5D02E190518C5D02
:100D180003E296C09AF01BD090518825006E91513D
:100D28008921016E010E005C036E000E0158046EED
:100D380003C000F004C001F001320032019E01320C
:100D48000032019E01320032019E00C09AF0070E67
:100D58009015016E91C002F0000E0216000E0218E6
:100D680002E1000E011818E190C000F091C001F0F6
:100D780001320032019E01320032019E01320032FE
:100D8800019E8EC004F08FC005F054EC00F000C046
:100D9800A5F001C0A6F019D090C000F091C001F0F4
:100DA80001320032019E01320032019E01320032CE
:100DB800019E004A012A8EC004F08FC005F054EC51
:100DC80000F000C0A5F001C0A6F095C09BF0000E91
:100DD8009C6F000E006E9C51005C02E19B51965D79
:100DE800D8A003D1A36BA46B9D6B9E6B8B519E5DAA
:100DF80002E18A519D5DD8B0E7D09D518625C26F2A
:100E0800A5EC00F09BC0C2F04CEC00F08F519E5D49
:100E180002E18E519D5D3DE2000E006E9C51005C2A
:100E280002E19B519A5D35E3000E9C1902E1955150
:100E38009B1902E1A76B12D0A151A325006EA25104
:100E4800A421016E00509225F66E01509321F76E91
:100E5800000E9421F86E0900F5CFA7F0A651A05D09
:100E680002E1A5519F5D02E3A86B12D09F51A32513
:100E7800006EA051A421016E00509225F66E01501B
:100E88009321F76E000E9421F86E0900F5CFA8F0B3
:100E980002D0A86BA76BA8C097F0985100081AE277
:100EA80098510808006E016A000E015AA7C097F011
:100EB800005004E09733979FFF0FFBD798C001F0CD
:100EC800A8C000F0015004E000360090FF0FFBD7E7
:100ED80000509713000E9C1902E195519B192DE1C2
:100EE800985100082AE29D518625C26F8BEC00F0CC
:100EF80025EC00F025EC00F098510808016E026A14
:100F0800000E025A01C002F0FF0E016E025004E00A
:100F18000132019EFF0FFBD701500014026E98C0EA
:100F280001F0FF0E006E015004E000360090FF0F44
:100F3800FBD70050971702509713000E9C1902E137
:100F480096519B192DE1995100082AE29D51862559
:100F5800C26F8BEC00F025EC00F025EC00F099C096
:100F680002F0FF0E016E025004E001360190FF0FFF
:100F7800FBD701500014026E99510808006E016AEF
:100F8800000E015A00C001F0FF0E006E015004E08F
:100F98000032009EFF0FFBD700509717025097139F
:100FA8008F519E5D02E18E519D5D02E2A34BA42B01
:100FB8009D518625C26F8BEC00F097C0C2F09EEC65
:100FC80000F09D4B9E2B12D7000E9C5D02E19A51BA
:100FD8009B5D08E29FC0A1F0A0C0A2F08E519F27A0
:0C0FE8008F51A0239B4B9C2BF4D61200D1
:100FF40000C002F001C003F0016A80B4012A01506C
:10100400010A010ED8A4000E006E00C004F0016AAB
:1010140080B6012A0150010A010ED8A4000E006E08
:1010240000C005F0016A80B8012A0150010A010ECE
:10103400D8A4000E006E00C006F0030E006E02C0BD
:10104400E1FF03C0E2FF040EE96E000EEA6EEECF8C
:08105400E6FF0006FCE11200BA
:10105C0087C08BF000018B51895D0BE386C0A9F032
:10106C0088C0AAF08BC0ABF08AC0ACF034DC8B2B00
:04107C00F1D7120096
:101080001A6A2C6A2D6A939A9398939493969390E4
:1010900093928A9A120E006E000E016E830E002447
:1010A000E16E0F0E0120E26EE66A8A948A968A90BB
:1010B0008A828A8A3F0E836E1DEC00F0C00E836E1A
:1010C0001DEC00F08A808A923F0E836E1DEC00F0CA
:0A10D000C00E836E1DEC00F012004C
:1010DA000900F5CFE6FF0006FBE10106F9E112007F
:1010EA000001786B350E796F776B77510C085EE3E8
:1010FA0077C000F0000E016E00360090013600360F
:10110A000090013600507525E16E01507621E26E9D
:10111A0078C0E6FF77C000F0000E016E003600903E
:10112A0001360036009001367551002676510122AB
:10113A00010E0024E16E000E0120E26E79C0E6FF86
:10114A0077C000F0000E016E0036009001360036BE
:10115A00009001367551002676510122020E0024B4
:10116A00E16E000E0120E26E030EE66E77C000F01B
:10117A00000E016E003600900136003600900136EE
:10118A007551002676510122030E0024E16E000EED
:10119A000120E26E010EE66E7B0E866FDCDC00C07B
:0E11AA0078F0040E0001795F772B9FD71200BA
:1011B800010E00017525E96E000E7621EA6E800E9B
:1011C800EE18006E800E3F0A005C08E3010E7525DC
:1011D800E16E000E7621E26E030EE66E185214E000
:1011E800010E7525016E000E7621026E01C0E9FF21
:1011F80002C0EAFFEECF00F0002A01C0E1FF02C002
:0A120800E2FF00C0E6FF186A1200C2
:1012120075C086F076C087F0000177517525886F1A
:0E12220078517625896F79C08AF017DF1200A7
:10123000046A800E000A006E800E005C02E1045019
:101240000C08D8A09AD0010E0414016E0150010AB6
:101250004AE104C000F0000E016E00360090013635
:10126000003600900136005000017525E96E0150EE
:101270007621EA6EEECF01F0800E000A006E800E3D
:101280000118005C12E304C000F0000E016E00368D
:101290000090013600360090013600507525E16E51
:1012A00001507621E26E7C0EE66E04C000F0000E66
:1012B000016E003600900136003600900136005075
:1012C0007525026E01507621036E02C0E9FF03C04E
:1012D000EAFFEECF00F0000602C0E1FF03C0E2FF2C
:1012E00000C0E6FF48D0000104C000F0000E016E0F
:1012F000003600900136003600900136005075250A
:10130000E96E01507621EA6EEECF01F0800E0118F1
:10131000006E800E7C0A005C11E304C000F0000E39
:10132000016E003600900136003600900136005004
:101330007525E16E01507621E26EE66A04C000F088
:10134000000E016E00360090013600360090013626
:1013500000507525026E01507621036E02C0E9FF30
:1013600003C0EAFFEECF00F0002A02C0E1FF03C095
:0C137000E2FF00C0E6FF042A5CD7120078
:10137C0000C07DF001C07EF0830E006E000E016E89
:10138C0033DE030E006E7F0EE16E000EE26E830EF6
:10139C00E96E000EEA6EEECFE6FF0006FCE10001FE
:1013AC00826B800E000A006E800E005C02E182519E
:1013BC000C0841E382C000F0000E016E0036009074
:1013CC00013600360090013600507B25E96E015045
:1013DC007C21EA6E040E006E860EE16E000EE26E4B
:1013EC00EECFE6FF0006FCE1040E006E8A0EE16E05
:1013FC00000EE26E750EE96E000EEA6EEECFE6FFA1
:10140C000006FCE1BEEC05F0005213E0200E756FF7
:10141C00370E766F060E006E7DC0E1FF7EC0E2FFD8
:10142C00750EE96E000EEA6EEECFE6FF0006FCE1EB
:10143C006BD0822BB6D7805321E07A517625026E81
:10144C0002C076F07805006E000E78BFFF0E016EBC
:10145C00000E015A02500024026E000E02BEFF0E56
:10146C000120036E800E0318006E800E005C02E1FA
:10147C003F0E025C02E3370E766F38D07F5327E0C5
:10148C007A51765D016E01C076F0800E000A006E16
:10149C00800E0118005C1AE3200E756F370E766F04
:1014AC00162A16C086F017C087F0DCEC05F0060E85
:1014BC00006E7DC0E1FF7EC0E2FF750EE96E000E8E
:1014CC00EA6EEECFE6FF0006FCE11ED00FD0060E52
:1014DC00006E7DC0E1FF7EC0E2FF750EE96E000E6E
:1014EC00EA6EEECFE6FF0006FCE10ED0060E006EB3
:1014FC007DC0E1FF7EC0E2FF750EE96E000EEA6E64
:0A150C00EECFE6FF0006FCE112003E
:1015160075C086F0000E000175BFFF0E876F76C09E
:1015260088F0000E76BFFF0E896F77C08AF0000E36
:1015360077BFFF0E8B6F78C08CF0000E78BFFF0E62
:101546008D6F77C08EF0000E77BFFF0E8F6F78C05D
:1015560090F0000E78BFFF0E916F79C092F07AC0BE
:0C15660093F07BC094F00CEC06F0120037
:10157200EC0E0001A96F190EAA6F000EAB6FA2EC60
:1015820004F0290E0B6E960E0C6E7F0E0D6E0D2E54
:10159200FED70C2EFCD70B2EFAD7ACEC05F01200BE
:1015A200830ED56E0B0ED76EDC0ED66EF28EF28ADD
:0215B200120025
:1015B40075C0A9F0000177517525AA6F76C0ABF00C
:0A15C40079C0ACF071EC04F01200E5
:1015CE00190E0001796F220E7A6F030E7B6F7C6B02
:1015DE00A3EC05F0040E006E860EE16E000EE26EB8
:1015EE00790EE96E000EEA6EEECFE6FF0006FCE124
:1015FE00010E8A6F8CEC05F07D0E006E000E016EF2
:10160E00F2DC030E006E760EE16E000EE26E7D0EC3
:10161E00E96E000EEA6EEECFE6FF0006FCE1000179
:10162E0078530AE07551000A07E1ACEC05F0020EA2
:10163E00006E000E016E8BD0765303E1775301E1FD
:10164E003BD07551000A38E1040E006E860EE16E35
:10165E00000EE26E790EE96E000EEA6EEECFE6FF38
:10166E000006FCE18A6B8CEC05F00E0E7A25006EFE
:10167E0000C07AF0040E006E860EE16E000EE26E71
:10168E00790EE96E000EEA6EEECFE6FF0006FCE183
:10169E00010E8A6F8CEC05F0010E756F070E0B6E46
:1016AE00C20E0C6ED80E0D6E0D2EFED70C2EFCD764
:1016BE000B2EFAD70000A0D778530AE07551010A15
:1016CE0007E1ACEC05F0030E006E000E016E3FD08C
:1016DE00765303E1775301E139D07551010A36E1B2
:1016EE00040E006E860EE16E000EE26E790EE96E4D
:1016FE00000EEA6EEECFE6FF0006FCE18A6B8CEC84
:10170E0005F00E0E7A5D006E00C07AF0040E006ECB
:10171E00860EE16E000EE26E790EE96E000EEA6E36
:10172E00EECFE6FF0006FCE1010E8A6F8CEC05F0B1
:10173E00756B070E0B6EC20E0C6ED80E0D6E0D2E47
:10174E00FED70C2EFCD70B2EFAD7000055D7120061
:10175E00166A176A186A196A020E00016D6F6E6BAF
:10176E00200E676F370E686F090E696F090E6A6F6C
:10177E006B6B010E6C6F3E0E626F030E636F010E8C
:10178E00646F3C0E656F2E0E756F000E766FA6DCC5
:10179E000F0EC16E6EDCFEDE13D1E4DE010E6D6F38
:1017AE001CD16EC075F00CDF00C06DF016D1ACEC24
:1017BE0005F0040E006E750EE16E000EE26E670E01
:1017CE00E96E000EEA6EEECFE6FF0006FCE1CC0EEF
:1017DE00796F230E7A6F000E7B6F96DE16C086F041
:1017EE0017C087F0DCEC05F0040E006E750EE16E8E
:1017FE00000EE26E620EE96E000EEA6EEECFE6FFAE
:10180E000006FCE1010E796FFDDC620E756F000EB5
:10181E00766FCBDC060E006E750EE16E000EE26E7C
:10182E00670EE96E000EEA6EEECFE6FF0006FCE1F3
:10183E002E0E7B6F000E7C6F6F0E006E000E016E13
:10184E0096DD060E006E670EE16E000EE26E6F0EF6
:10185E00E96E000EEA6EEECFE6FF0006FCE12E0EFC
:10186E000001756F000E766FDCDC040E006E750ED7
:10187E00E16E000EE26E620EE96E000EEA6EEECFC3
:10188E00E6FF0006FCE1010E0001796FBBDC040EE1
:10189E00006E750EE16E000EE26E670EE96E000EC2
:1018AE00EA6EEECFE6FF0006FCE10001CC0E796F8A
:1018BE00230E7A6F000E7B6F27DE666B800E000A9A
:1018CE00006E800E005C02E166510C0820E366C0DB
:1018DE0000F0000E016E00360090013600360090CA
:1018EE0001362E0E0024E96E000E0120EA6E040E63
:1018FE00006E750EE16E000EE26EEECFE6FF000694
:10190E00FCE10001010E796F4EDE662BD7D79C0EDF
:10191E000C6ED70E0D6E0D2EFED70C2EFCD7666BF1
:10192E00800E000A006E800E005C02E166510C080B
:10193E001EE366C000F0000E016E00360090013608
:10194E000036009001362E0E0024E96E000E0120A6
:10195E00EA6E040E006E750EE16E000EE26EEECFB4
:10196E00E6FF0006FCE1796B1EDE662BD9D7040E6E
:10197E00006E750EE16E000EE26E620EE96E000EE6
:10198E00EA6EEECFE6FF0006FCE10001796B3ADC71
:10199E00040E006E750EE16E000EE26E670EE96EBD
:1019AE00000EEA6EEECFE6FF0006FCE10001DE0E51
:1019BE00796F230E7A6F000E7B6FA6DD26D70DD0C2
:1019CE006D51000AD8B4E9D66D51010AD8B4E9D6E2
:0E19DE006D51020AD8B4EBD6F2D7DED6FFD791
:1019EC000000000000000000FFFFFF87878787874B
:1019FC00878787000000FFFFFF0707070707FFFF28
:101A0C00FF0000FFFFFF878787FFFFFF0000FFFF3E
:101A1C00FFFF0707070707070700FFFFFF878787F9
:101A2C000707000000000000FFFFFF07070707077C
:101A3C00070707F8F8F80000FFFFFF878787FFFF0D
:101A4C00FF0000FFFFFF070707070700FFFFFF87E7
:101A5C0087878707070000000000000000000000D7
:101A6C000000000000000000C3C3C3C3C3C3C3FF16
:101A7C00FFFFFF000000FFFFFF070707070707072F
:101A8C00070000FFFFFF030303FFFFFF0000FFFF42
:101A9C00FFFFC0C0C0C0C0C0C000FFFFFFC3C3C3B6
:101AAC00C0C0000000000000FFFFFF0E0E0E7E7E87
:101ABC007E7ECEC1C1010000FFFFFF030303FFFFC9
:101ACC00FF0000FFFFFFC0C0C0C0C000FFFFFFC38E
:101ADC00C3C3C3C0C0000000000000000000000031
:101AEC00000000000000000001010101E1E10181A2
:101AFC0081C1E160000001616160E0E06060600054
:101B0C0000E0E00101C1C0C0C0C1C10100C0C1C141
:101B1C00C1C1C1C10101E1E1C10001E1E10101016A
:101B2C000101000000C0C0C0C1C1C10000C0C0C0E4
:101B3C00C0C0C1C101C0C0C0C1C1C100C0C0C1C111
:101B4C00C1C000E1E1C10101E1E101C0C1C1C1C1FC
:101B5C00C1C10101C1C0C0C0C00000000000000034
:101B6C000000000000000000000000007F7F070F55
:101B7C000F1D38787000006060607F7F00000000EF
:101B8C00007F7F00007F7F0C1E7F7700007F7F60CF
:101B9C0060607F7F00007F7F030F3C7F7F00000031
:101BAC0060600000007F7F0C1E7F7700007F7F66E7
:101BBC0066667F3F007F7F0C1E7F77007F7F6660AD
:101BCC006060007F7F030F3C7F7F007F7F666060DB
:101BDC00606000006F6F6C7D7D00000000000000F5
:101BEC0000000000000000000000606060E0E060A9
:101BFC0060606000E0E06060E0E000E0E0000000B9
:101C0C00E0E000000000E0E06060606000E0E060A8
:101C1C006060E0E000000000E0E0606060600000F8
:101C2C00E0E0C00080C0E0E00000E0E06060E0E0E8
:101C3C00E000E0E06060606000E0E06060E0E00038
:101C4C0000E0E00000E0E0E0E0C00000E0E0606008
:101C5C0060E0E000E0E060E0E00000000000000078
:101C6C00000000000000000000000000003F3F00EA
:101C7C00000000003F3F06063F3F003F3F30300072
:101C8C003F3F303000003F3F33303030003F3F06A5
:101C9C00060F3F3B000000003F3F33303030000068
:101CAC003F3F030707013F3F00003F3F33333F1FD8
:101CBC001F003F3F33303030003F3F33333F1F0076
:101CCC00003F3F00003F3F30391F0F003F3F303097
:101CDC00303F3F003737363E3E000000000000002A
:101CEC0000000000000000000000000000000000E8
:101CFC0000000000000000000000000000000000D8
:101D0C00000000000000000000F8F8D818181800B7
:101D1C000000F8F898D8F8F80000FCFC00007C7C77
:101D2C00C0C000C0E07C7C0000F8F8D8181818007F
:101D3C0000F8F898D8F8F800F8F89898F8F8000037
:101D4C000000000000000000000000000000000087
:101D5C000000000000000000000000000000000077
:101D6C000000000000000000000000000000000067
:101D7C000000000000000000000000000000000057
:101D8C000000000000000000000F0F0C0C0C0C00F9
:101D9C0000000F0F01030F0E00000F0F00000000DA
:101DAC00030F0C0F03000000000F0F0C0C0C0C00A9
:101DBC00000F0F01030F0E000F0F01010F0F00009A
:101DCC000000000000000000000000000000000007
:101DDC0000000000000000000000000000000000F7
:101DEC00000000000000000000000000FCFCFC1CD7
:101DFC001C1C1C1C1C1C1C000000FCFCFC1C1C1CCB
:101E0C001C1CFCFCFC0000FCFCFC1C1C1CFCFCFC5E
:101E1C00FC0000FCFCFC1C1C1C1C1C1C1C00FCFC0A
:101E2C00FC1C1C1C1C1C000000000000FCFCFC1C0E
:101E3C001C1C1C1C1C1C1CE0E0E00000FCFCFC1C22
:101E4C001C1CFCFCFC0000FCFCFC1C1C1C1C1C00DA
:101E5C0000FCFCFC1C1C1C1C1C00000000000000F6
:101E6C000000000000000000000000000F0F0F0E2B
:101E7C000E0E0E0EFEFEFE000000FFFFFF1C1C1CD3
:101E8C001C1C1F1F1F0000FFFFFF0E0E0EFFFFFF8D
:101E9C00FF0000FFFFFF0000000000000000FFFF3C
:101EAC00FF0E0E0E0000000000000000FFFFFF38C8
:101EBC00383838F8F8F8380707070000FFFFFF0E2E
:101ECC000E0EFFFFFF0000FFFFFF000000000000F0
:101EDC0000FFFFFF0E0E0E000000000000000000CF
:101EEC0000000000000000000000000007070707CA
:101EFC000707070707070700000007070700000090
:101F0C00000000000000000707070000000707079B
:101F1C00070000070707070707070707070007075A
:101F2C000707070707070000000000000707070066
:101F3C000000000101010707070000000707070068
:101F4C000000070707000007070707070707070038
:101F5C00000707070707070707000000000000003D
:101F6C000000000000000000000000000000000065
:101F7C000000000000000000000000000000000055
:101F8C00000000000000C0C0C0C000000000000045
:101F9C0000E0E0606060E0E00000E0E000000000D5
:101FAC00E0E0606060E0E00000E0E00000E0E00005
:101FBC0000E0E0606060600000E0E06060E0E00095
:101FCC000000000000000000000000000000000005
:101FDC0000000000000000000000000000000000F5
:101FEC0000000000000000000000000000000000E5
:101FFC0000000000000000000000000000000000D5
:10200C0000000000000060607F7F60600000000046
:10201C00007F7F060606070700007F7F6060600078
:10202C007F7F0606067F7F000001037F7F03010090
:10203C00007F7F6660606000007F7F0C1E7F7300F6
:10204C000000000000000000000000000000000084
:10205C000000000000000000000000000000000074
:10206C000000000000000000000000000000000064
:10207C000000000000000000000000000000000054
:10208C00000000000000B0B0B0B0F0F000000000A4
:10209C0000F8F8989898F8F80000F8F8000000009C
:1020AC00F8F8989898F8F8000078F8C0C0F878001C
:1020BC0000F8F8981818180000F8F81898F8F800B4
:1020CC00F8F89898989800000000000000000000B4
:1020DC0000000000000000000000000000000000F4
:1020EC0000000000000000000000000000000000E4
:1020FC0000000000000000000000000000000000D4
:10210C000000000000000F0F0D0D0D0D0000000071
:10211C00001F1F010101010100001F1F18181800EA
:10212C001F1F0101011F1F000000001F1F000000E6
:10213C00001F1F1918181800001F1F03071F1C0071
:10214C000D0D0D0D0F0F0000000000000000000031
:10215C000000000000000000000000000000000073
:10216C000000000000000000000000000000000063
:10217C000000000000000000000000000000000053
:10218C000000000000000000000000000000000043
:10219C000000000000000000000000000000000033
:1021AC000000000000000000000000000000000023
:1021BC000000000000000000000000000000000013
:1021CC000000000000000000000000000000000003
:1021DC0000000000000000000000000000000000F3
:1021EC00000000000000005F000000070007001462
:1021FC007F147F14242A7F2A122313086462364921
:10220C005522500005030000001C22410000412211
:10221C001C00082A1C2A0808083E08080050300038
:10222C0000080808080800303000002010080402DC
:10223C003E5149453E00427F400042615149462192
:10224C0041454B311814127F1027454545393C4AFE
:10225C00494930017109050336494949360649494E
:10226C00291E0036360000005636000000081422E5
:10227C0041141414141441221408000201510906CB
:10228C00324979413E7E1111117E7F494949363ED2
:10229C00414141227F4141221C7F494949417F09EB
:1022AC000901013E414151327F0808087F00417FFE
:1022BC0041002040413F017F081422417F404040B3
:1022CC00407F0204027F7F0408107F3E4141413E63
:1022DC007F090909063E4151215E7F0919294646AD
:1022EC004949493101017F01013F4040403F1F20D6
:1022FC0040201F7F2018207F631408146303047888
:10230C000403615149454300007F41410204081018
:10231C002041417F00000402010204404040404043
:10232C00000102040020545454787F484444383847
:10233C0044444420384444487F3854545418087E4C
:10234C00090102081454543C7F0804047800447DAD
:10235C0040002040443D00007F10284400417F4055
:10236C00007C041804787C0804047838444444380D
:10237C007C14141408081414187C7C0804040848F1
:10238C0054545420043F4440203C4040207C1C20AA
:10239C0040201C3C4030403C44281028440C5050F9
:1023AC00503C4464544C44000836410000007F000B
:1023BC0000004136080008082A1C08081C2A0808D6
:1023CC0080C0E4F6FFF6E4C08000000001000100CC
:0223DC000000FF
:1023DE0000000000000000000000000000000000EF
:0223EE000000ED
:020000040030CA
:0E000000010C1F1EFF8381FF0FC00FE00F4099
:00000001FF
