:1000000072EF06F00000000000EF00F000000000BA
:0A0010000000000000000000F3D71C
:0C001C00060E0D6E0D2EFED70000120027
:0A002800F9DF8A88F7DF8A981200DA
:06003200000000001200B6
:10003800120E006E000E016E830E0024E16E0F0E8C
:100048000120E26EFF0EE66EF0DFEFDF8A848A9809
:100058008A868A88DFDF83CF87F08A988A96E5DFE9
:10006800E4DF120E006E000E016E830E0024E16EB6
:0E0078000F0E0120E26EE66A87C000F0120053
:100086007F0E00018715006E00C087F08A948A965D
:10009600BF0E001600C087F0008C00C087F000C0BD
:0600A60083FFBFDF120022
:1000AC007F0E00018715016E01C087F001AC03D0F3
:0C00BC008A808A9202D08A908A82120008
:1000C8008A948A96B80E00018711836EA9DF120000
:0E00D8008A988A848A9687C083FFA2DF12006E
:1000E60081C016F082C017F0000E186E196E010E50
:0400F600156E120071
:1000FA00000E0001815D0AE381517F0807E3000ECB
:10010A00825D04E382513F0801E301D04AD081C0F5
:10011A0087F0C7DF82C087F08733879F8733879F3F
:10012A008733879FCCDF81C087F0A8DF80DF00C0DC
:10013A0086F07DDF00C086F082C087F08733879F14
:10014A008733879F8733879FBADF81C087F096DF1F
:10015A00070E8215006E00C084F000C001F0010E87
:10016A00006E015004E000360090FF0FFBD700C07C
:10017A0084F0001C856F09D0855186170FD08451F1
:10018A0086130CD08451861B09D08351000AF4E0EF
:10019A008351010AF4E08351020AF4E086C087F031
:0401AA0096DF1200CA
:1001AE00220E0C6E086A096A0A6A0B6A0C06D8B42B
:1001BE001FD0D8900B320A32093208320332023283
:1001CE0001320032D8A0F2D70C06D8B409D00450B0
:1001DE0008260550092206500A2207500B22EAD79C
:1001EE00045008260550092206500A2207500B22F9
:0201FE001200ED
:100200000134083609360450085E0550D8A0053C74
:10021000095E003601360F0E0C6E013408360936C1
:10022000045000A006D0085E0550D8A0053C095E29
:1002300005D008260550D8B0053C09260036013601
:100240000C2EEBD700B006D0045008260550D8B0CD
:08025000053C09260000120024
:10025800000E0001745D04E374513F0801E301D00E
:1002680027D0000E725DD8A0726B72517F0802E22F
:100278007F0E726F000E735DD8A0736B73517F0889
:1002880002E27F0E736F7251735D06E272C076F000
:1002980073C072F076C073F07251735D09E372C077
:1002A80081F074C082F075C083F023DF722BF4D71D
:0202B800120032
:1002BA008A908A820001746B745107080EE374C035
:1002CA0087F0FDDE736B73513F0805E372C087F058
:1002DA00FEDE732BF8D7742BEFD78A928A80746B61
:1002EA00745107080EE374C087F0E9DE736B73512B
:1002FA003F0805E372C087F0EADE732BF8D7742B48
:04030A00EFD7120017
:10030E00155206E1010E0001816F000E826FE4DED0
:10031E0016C000F017C001F018C002F019C003F0AB
:10032E006D0E046E4E0E056EC60E066E410E076EF7
:10033E0037DF390E0024056E300E0120066E000EDA
:10034E000220076E000E0320086E07C000F008C0E2
:10035E0001F0000E08BEFF0E026E036EFF0E0016B9
:10036E007F0E0116000E0216031600C016F001C015
:0C037E0017F002C018F003C019F01200C4
:10038A000450000A08E10550000A05E1FF0E006E5C
:10039A007F0E016E57D00D6A096A086A0150001073
:1003AA00D8B4000C015005180A6E0ABE0D1E0B6A5D
:1003BA0005AE05D0041E051E042AD8B4052A01AECE
:1003CA0005D0001E011E002AD8B4012A01500510CA
:1003DA000A6E0ABE10D00FDF0BB020D00DAE000C93
:1003EA00001E011E002AD8B4012A081E091E082A66
:1003FA00D8B4092A000C05AE0DD001BE07D00150B1
:10040A00096E0050086E016A006AE8D7016A006A3C
:10041A00002A000C011E001E0B2ADDD7082AD8B4B8
:10042A00092A0450085CD8A4D9D70550095CD8A475
:10043A00D5D7096A086A002AD8B4012A01AECED7EC
:06044A000000FF0C12008F
:10045000000E0001771902E1000E761908E172C062
:1004600081F074C082F078C083F047DED2D07D6B1B
:100470007E6B7251745D7F6F73517559806F76C05A
:100480007BF077C07CF076C000F077C001F00036DA
:100490000090013600C079F001C07AF000500308E6
:1004A000796F01C07AF0000E7A57010E7B25016E3C
:1004B000000E7C21026E800E7E19006E800E0218E6
:1004C000005C02E101507D5DD8B0A3D07D51722562
:1004D000816F7B517425826F78C083F00EDE7D5171
:1004E0007225816F7B51745D826F78C083F005DE69
:1004F000800E006E800E7E19005C02E17D510008C6
:1005000012E27D51725D816F7B517425826F78C0DC
:1005100083F0F3DD7D51725D816F7B51745D826F7D
:1005200078C083F0EADD7E517C1902E17B517D19B0
:1005300035E07B517425816F7F51815F7D5174253A
:10054000826F78C083F0D9DD7B51745D816F7F51FC
:10055000815F7D517425826F78C083F0CEDD800E7F
:10056000006E800E7E19005C02E17D51000816E2EB
:100570007B517425816F7F51815F7D51745D826FE6
:1005800078C083F0BADD7B51745D816F7F51815FEC
:100590007D51745D826F78C083F0AFDD800E7A1973
:1005A000006E800E005C02E1000E795D13E27DC0FA
:1005B00000F07EC001F00036009001360036009059
:1005C0000136060E0026000E012200507927015048
:1005D0007A231CD07B517D5D036E7C517E59046E65
:1005E00003C000F004C001F0003600900136003670
:1005F000009001360A0E0026000E012200507927D5
:1006000001507A23010E7B5F000E7C5B7D4B7E2BBD
:040610004CD71200B1
:100614000001766B776B786B765107083DE3876B47
:1006240043DD76C087F04EDD876B2BDD756B75512E
:100634003F0811E377517225F66E78517321F76EF6
:10064400000E7421F86E0900F5CF87F043DD774B77
:10065400782B752BECD7400E876F26DD76C087F09C
:1006640031DD400E876F0DDD400E756F75517F08CB
:1006740011E377517225F66E78517321F76E000EEF
:100684007421F86E0900F5CF87F024DD774B782BC1
:0A069400752BECD7762BC0D71200AF
:10069E0037DE00016D51010F046E056A000E052252
:0C06AE006DDE08C000F009C001F0120071
:0806BA000001726BFDDD12006E
:1006C2006DC072F000016F516D25736F6EC074F0D2
:0806D20071C075F0C0DD1200DB
:1006DA006DC072F0000E00016DBFFF0E736F6EC029
:1006EA0074F0000E6EBFFF0E756F6FC076F0000ECD
:0E06FA006FBFFF0E776F71C078F0A5DE1200A3
:1007080000C002F001C003F0016A80B4012A015060
:10071800010A010ED8A4000E006E00C004F0016AA0
:1007280080B6012A0150010A010ED8A4000E006EFD
:1007380000C005F0016A80B8012A0150010A010EC3
:10074800D8A4000E006E00C006F0030E006E02C0B2
:10075800E1FF03C0E2FF040EE96E000EEA6EEECF81
:08076800E6FF0006FCE11200AF
:10077000080E0001726F120E736F000E746F4ADF65
:02078000120065
:100782005F6A800E000A006E800E005C02E15F501C
:100792000C08D8A0D3D05FC000F0000E016E003666
:1007A20000900136003600900136005000016125AC
:1007B200E96E01506221EA6E040E006E6D0EE16E6A
:1007C200000EE26EEECFE6FF0006FCE10001716B67
:1007D20077DF010E5F14016E0150010A49E15FC02B
:1007E20000F0000E016E00360090013600360090D7
:1007F200013600506125E96E01506221EA6EEECFAA
:1008020001F0800E000A006E800E0118005C12E3F7
:100812005FC000F0000E016E003600900136003617
:100822000090013600506125E16E01506221E26EB6
:100832007C0EE66E5FC000F0000E016E0036009086
:10084200013600360090013600506125026E0150DB
:100852006221036E02C0E9FF03C0EAFFEECF00F09F
:10086200000602C0E1FF03C0E2FF00C0E6FF47D07E
:100872005FC000F0000E016E0036009001360036B7
:100882000090013600506125E96E01506221EA6E46
:10089200EECF01F0800E0118006E800E7C0A005C23
:1008A20011E35FC000F0000E016E003600900136C9
:1008B20000360090013600506125E16E0150622140
:1008C200E26EE66A5FC000F0000E016E0036009034
:1008D200013600360090013600506125026E01504B
:1008E2006221036E02C0E9FF03C0EAFFEECF00F00F
:1008F200002A02C0E1FF03C0E2FF00C0E6FF5FC0C2
:1009020000F0000E016E00360090013600360090B5
:10091200013600506125E96E01506221EA6E040E33
:10092200006E6D0EE16E000EE26EEECFE6FF000687
:0E093200FCE1010E716FC4DE5F2A23D71200B4
:100940000900F5CFE6FF0006FBE10106F9E1120020
:100950000001606B350E636F5F6A5F500C085EE3E9
:100960005FC000F0000E016E0036009001360036C8
:100970000090013600506125E16E01506221E26E67
:1009800060C0E6FF5FC000F0000E016E0036009010
:100990000136003600900136615100266251012275
:1009A000010E0024E16E000E0120E26E63C0E6FF3E
:1009B0005FC000F0000E016E003600900136003678
:1009C000009001366151002662510122020E00247E
:1009D000E16E000E0120E26E030EE66E5FC000F0D5
:1009E000000E016E00360090013600360090013690
:1009F0006151002662510122030E0024E16E000EB7
:100A00000120E26E010EE66E7B0E6D6F48DE00C0C7
:0E0A100060F0040E0001635F5F2A9FD71200A2
:100A1E0000C065F001C066F06A0E006E000E016E39
:100A2E006CDE030E006E670EE16E000EE26E6A0E55
:100A3E00E96E000EEA6EEECFE6FF0006FCE1000165
:100A4E0068530FE064516025016E01C060F0800EA6
:100A5E000118006E800E3F0A005C02E33F0E606FCD
:100A6E001FD067530EE06451605D016E01C060F0EF
:100A7E00800E000A006E800E0118005CD8B0606B0C
:100A8E000FD0060E006E65C0E1FF66C0E2FF5F0E7E
:100A9E00E96E000EEA6EEECFE6FF0006FCE10ED028
:100AAE00060E006E65C0E1FF66C0E2FF5F0EE96EE6
:0E0ABE00000EEA6EEECFE6FF0006FCE112002D
:100ACC00080E0001726F0E0E736F000E746F9CDDBA
:100ADC00290E0B6E960E0C6E7F0E0D6E0D2EFED724
:0C0AEC000C2EFCD70B2EFAD7E2DD120016
:100AF800190E0001636F220E646F030E656F666B3B
:100B080033DE040E006E6D0EE16E000EE26E630EB3
:100B1800E96E000EEA6EEECFE6FF0006FCE1010E7C
:100B2800716FD7DD670E006E000E016EE9DD030EF2
:100B3800006E600EE16E000EE26E670EE96E000E4A
:100B4800EA6EEECFE6FF0006FCE10001625309E021
:100B58005F50000A06E1ADDD020E006E000E016E68
:100B680086D0605303E1615301E139D05F50000A38
:100B780036E1040E006E6D0EE16E000EE26E630E3D
:100B8800E96E000EEA6EEECFE6FF0006FCE1716B3F
:100B9800A0DD0E0E6425006E00C064F0040E006E29
:100BA8006D0EE16E000EE26E630EE96E000EEA6EE7
:100BB800EECFE6FF0006FCE1010E716F8ADD010E43
:100BC8005F6E070E0B6EC20E0C6ED80E0D6E0D2EDC
:100BD800FED70C2EFCD70B2EFAD70000A3D76253F2
:100BE80009E05F50010A06E164DD030E006E000EA5
:100BF800016E3DD0605303E1615301E137D05F508E
:100C0800010A34E1040E006E6D0EE16E000EE26E14
:100C1800630EE96E000EEA6EEECFE6FF0006FCE119
:100C2800716B57DD0E0E645D006E00C064F0040E3B
:100C3800006E6D0EE16E000EE26E630EE96E000E40
:100C4800EA6EEECFE6FF0006FCE1010E716F41DDB2
:100C58005F6A070E0B6EC20E0C6ED80E0D6E0D2E4F
:100C6800FED70C2EFCD70B2EFAD700005BD712004C
:100C780061C081F062C082F067C083F07DEC00F053
:020C8800120058
:100C8A001C6A1A6A1B6A939A939893949396939000
:100C9A0093928A9A120E006E000E016E830E002441
:100CAA00E16E0F0E0120E26EE66A8A948A968A90B5
:100CBA008A828A8A3F0E836E14EC00F0C00E836E1D
:100CCA0014EC00F08A808A923F0E836E14EC00F0D6
:0A0CDA00C00E836E14EC00F012004F
:100CE400020E576E586A400E516E200E526E010E5F
:100CF400536E010E546E556A010E566E1D0E0001A0
:100D0400616F000E626F22DE0F0EC16EBCDF6ED00B
:100D1400DBDE010E576E74D058C05FF0EBDE00C00E
:100D240057F06ED0C8DC060E006E610EE16E000E48
:100D3400E26E510EE96E000EEA6EEECFE6FF00069B
:100D4400FCE1010E676F96DF060E006E610EE16E28
:100D5400000EE26E510EE96E000EEA6EEECFE6FF73
:100D64000006FCE1676B86DF060E006E5F0EE16E27
:100D7400000EE26E510EE96E000EEA6EEECFE6FF53
:100D84000006FCE1590E006E000E016E46DE060EF2
:100D9400006E510EE16E000EE26E590EE96E000E09
:100DA400EA6EEECFE6FF0006FCE11D0E616F000E59
:100DB400626FE5DC060E006E610EE16E000EE26EFF
:100DC400510EE96E000EEA6EEECFE6FF0006FCE17E
:100DD400010E0001676F4EDF9C0E0C6ED70E0D6E78
:100DE4000D2EFED70C2EFCD7AFD70AD05750000AD1
:100DF4008FE05750010A90E05750020A93E0F5D76C
:040E040086D7FFD7B7
:100E08000000000000000000FFFFFF87878787873A
:100E1800878787000000FFFFFF0707070707FFFF17
:100E2800FF0000FFFFFF878787FFFFFF0000FFFF2E
:100E3800FFFF0707070707070700FFFFFF878787E9
:100E48000707000000000000FFFFFF07070707076C
:100E5800070707F8F8F80000FFFFFF878787FFFFFD
:100E6800FF0000FFFFFF070707070700FFFFFF87D7
:100E780087878707070000000000000000000000C7
:100E88000000000000000000C3C3C3C3C3C3C3FF06
:100E9800FFFFFF000000FFFFFF070707070707071F
:100EA800070000FFFFFF030303FFFFFF0000FFFF32
:100EB800FFFFC0C0C0C0C0C0C000FFFFFFC3C3C3A6
:100EC800C0C0000000000000FFFFFF0E0E0E7E7E77
:100ED8007E7ECEC1C1010000FFFFFF030303FFFFB9
:100EE800FF0000FFFFFFC0C0C0C0C000FFFFFFC37E
:100EF800C3C3C3C0C0000000000000000000000021
:100F0800000000000000000001010101E1E1018191
:100F180081C1E160000001616160E0E06060600043
:100F280000E0E00101C1C0C0C0C1C10100C0C1C131
:100F3800C1C1C1C10101E1E1C10001E1E10101015A
:100F48000101000000C0C0C0C1C1C10000C0C0C0D4
:100F5800C0C0C1C101C0C0C0C1C1C100C0C0C1C101
:100F6800C1C000E1E1C10101E1E101C0C1C1C1C1EC
:100F7800C1C10101C1C0C0C0C00000000000000024
:100F88000000000000000000000000007F7F070F45
:100F98000F1D38787000006060607F7F00000000DF
:100FA800007F7F00007F7F0C1E7F7700007F7F60BF
:100FB80060607F7F00007F7F030F3C7F7F00000021
:100FC80060600000007F7F0C1E7F7700007F7F66D7
:100FD80066667F3F007F7F0C1E7F77007F7F66609D
:100FE8006060007F7F030F3C7F7F007F7F666060CB
:100FF800606000006F6F6C7D7D00000000000000E5
:1010080000000000000000000000606060E0E06098
:1010180060606000E0E06060E0E000E0E0000000A8
:10102800E0E000000000E0E06060606000E0E06098
:101038006060E0E000000000E0E0606060600000E8
:10104800E0E0C00080C0E0E00000E0E06060E0E0D8
:10105800E000E0E06060606000E0E06060E0E00028
:1010680000E0E00000E0E0E0E0C00000E0E06060F8
:1010780060E0E000E0E060E0E00000000000000068
:10108800000000000000000000000000003F3F00DA
:10109800000000003F3F06063F3F003F3F30300062
:1010A8003F3F303000003F3F33303030003F3F0695
:1010B800060F3F3B000000003F3F33303030000058
:1010C8003F3F030707013F3F00003F3F33333F1FC8
:1010D8001F003F3F33303030003F3F33333F1F0066
:1010E800003F3F00003F3F30391F0F003F3F303087
:1010F800303F3F003737363E3E000000000000001A
:1011080000000000000000000000000000000000D7
:1011180000000000000000000000000000000000C7
:10112800000000000000000000F8F8D818181800A7
:101138000000F8F898D8F8F80000FCFC00007C7C67
:10114800C0C000C0E07C7C0000F8F8D8181818006F
:1011580000F8F898D8F8F800F8F89898F8F8000027
:101168000000000000000000000000000000000077
:101178000000000000000000000000000000000067
:101188000000000000000000000000000000000057
:101198000000000000000000000000000000000047
:1011A8000000000000000000000F0F0C0C0C0C00E9
:1011B80000000F0F01030F0E00000F0F00000000CA
:1011C800030F0C0F03000000000F0F0C0C0C0C0099
:1011D800000F0F01030F0E000F0F01010F0F00008A
:1011E80000000000000000000000000000000000F7
:1011F80000000000000000000000000000000000E7
:10120800000000000000000000000000FCFCFC1CC6
:101218001C1C1C1C1C1C1C000000FCFCFC1C1C1CBA
:101228001C1CFCFCFC0000FCFCFC1C1C1CFCFCFC4E
:10123800FC0000FCFCFC1C1C1C1C1C1C1C00FCFCFA
:10124800FC1C1C1C1C1C000000000000FCFCFC1CFE
:101258001C1C1C1C1C1C1CE0E0E00000FCFCFC1C12
:101268001C1CFCFCFC0000FCFCFC1C1C1C1C1C00CA
:1012780000FCFCFC1C1C1C1C1C00000000000000E6
:101288000000000000000000000000000F0F0F0E1B
:101298000E0E0E0EFEFEFE000000FFFFFF1C1C1CC3
:1012A8001C1C1F1F1F0000FFFFFF0E0E0EFFFFFF7D
:1012B800FF0000FFFFFF0000000000000000FFFF2C
:1012C800FF0E0E0E0000000000000000FFFFFF38B8
:1012D800383838F8F8F8380707070000FFFFFF0E1E
:1012E8000E0EFFFFFF0000FFFFFF000000000000E0
:1012F80000FFFFFF0E0E0E000000000000000000BF
:1013080000000000000000000000000007070707B9
:10131800070707070707070000000707070000007F
:10132800000000000000000707070000000707078B
:10133800070000070707070707070707070007074A
:101348000707070707070000000000000707070056
:101358000000000101010707070000000707070058
:101368000000070707000007070707070707070028
:10137800000707070707070707000000000000002D
:101388000000000000000000000000000000000055
:101398000000000000000000000000000000000045
:1013A800000000000000C0C0C0C000000000000035
:1013B80000E0E0606060E0E00000E0E000000000C5
:1013C800E0E0606060E0E00000E0E00000E0E000F5
:1013D80000E0E0606060600000E0E06060E0E00085
:1013E80000000000000000000000000000000000F5
:1013F80000000000000000000000000000000000E5
:1014080000000000000000000000000000000000D4
:1014180000000000000000000000000000000000C4
:1014280000000000000060607F7F60600000000036
:10143800007F7F060606070700007F7F6060600068
:101448007F7F0606067F7F000001037F7F03010080
:10145800007F7F6660606000007F7F0C1E7F7300E6
:101468000000000000000000000000000000000074
:101478000000000000000000000000000000000064
:101488000000000000000000000000000000000054
:101498000000000000000000000000000000000044
:1014A800000000000000B0B0B0B0F0F00000000094
:1014B80000F8F8989898F8F80000F8F8000000008C
:1014C800F8F8989898F8F8000078F8C0C0F878000C
:1014D80000F8F8981818180000F8F81898F8F800A4
:1014E800F8F89898989800000000000000000000A4
:1014F80000000000000000000000000000000000E4
:1015080000000000000000000000000000000000D3
:1015180000000000000000000000000000000000C3
:101528000000000000000F0F0D0D0D0D0000000061
:10153800001F1F010101010100001F1F18181800DA
:101548001F1F0101011F1F000000001F1F000000D6
:10155800001F1F1918181800001F1F03071F1C0061
:101568000D0D0D0D0F0F0000000000000000000021
:101578000000000000000000000000000000000063
:101588000000000000000000000000000000000053
:101598000000000000000000000000000000000043
:1015A8000000000000000000000000000000000033
:1015B8000000000000000000000000000000000023
:1015C8000000000000000000000000000000000013
:1015D8000000000000000000000000000000000003
:1015E80000000000000000000000000000000000F3
:1015F80000000000000000000000000000000000E3
:020000040030CA
:0E000000000C1F1EFF8381FF0FC00FE00F409A
:00000001FF
