:10000000F9EF08F00000000000EF00F00000000031
:0A0010000000000000000000F3D71C
:0C001C00060E0D6E0D2EFED70000120027
:0A002800F9DF8A88F7DF8A981200DA
:06003200000000001200B6
:10003800120E006E000E016E830E0024E16E0F0E8C
:100048000120E26EFF0EE66EF0DFEFDF8A848A9809
:100058008A868A88DFDF83CFA1F08A988A96E5DFCF
:10006800E4DF120E006E000E016E830E0024E16EB6
:0E0078000F0E0120E26EE66AA1C000F0120039
:0E0086008A988A848A96A1C083FFCBDF12007D
:100094007F0E0001A115016E01C0A1F001AC03D0D7
:0C00A4008A808A9202D08A908A82120020
:1000B0008A948A96B80E0001A111836EB5DF1200F2
:1000C0007F0E0001A115006E00C0A1F08A948A96EF
:1000D000BF0E001600C0A1F0008C00C0A1F000C04F
:0600E00083FFA2DF120005
:1000E600220E0C6E086A096A0A6A0B6A0C06D8B4F4
:1000F6001FD0D8900B320A3209320832033202324C
:1001060001320032D8A0F2D70C06D8B409D0045078
:1001160008260550092206500A2207500B22EAD764
:10012600045008260550092206500A2207500B22C1
:020136001200B5
:100138000B6A0A6A096A00500402F4CF09F0F3CF87
:1001480008F001500502F4CF0BF0F3CF0AF000508D
:100158000502F3500926F4500A22E86A0B220150DE
:100168000402F3500926F4500A22E86A0B2208C058
:1001780000F009C001F00AC002F00BC003F0120041
:10018800000E00019B5D0AE39B517F0807E3000E08
:100198009C5D04E39C513F0801E301D04AD09BC019
:1001A800A1F074DF9CC0A1F0A133A19FA133A19F4E
:1001B800A133A19F79DF9BC0A1F07EDF39DF00C0AA
:1001C800A0F036DF00C0A0F09CC0A1F0A133A19F31
:1001D800A133A19FA133A19F67DF9BC0A1F06CDF72
:1001E800070E9C15006E00C09EF000C001F0010EC5
:1001F800006E015004E000360090FF0FFBD700C0EE
:100208009EF0001C9F6F09D09F51A0170FD09E51E0
:10021800A0130CD09E51A01B09D09D51000AF4E0F8
:100228009D51010AF4E09D51020AF4E0A0C0A1F03A
:0402380026DF1200AB
:10023C009BC016F09CC017F0000E186E196E010EC4
:04024C00156E120019
:100250000134083609360450085E0550D8A0053C24
:10026000095E003601360F0E0C6E01340836093671
:10027000045000A006D0085E0550D8A0053C095ED9
:1002800005D008260550D8B0053C092600360136B1
:100290000C2EEBD700B006D0045008260550D8B07D
:0802A000053C092600001200D4
:1002A800000E00017A5D04E37A513F0801E301D0B2
:1002B80027D0000E785DD8A0786B78517F0802E2CD
:1002C8007F0E786F000E795DD8A0796B79517F0821
:1002D80002E27F0E796F7851795D06E278C07CF092
:1002E80079C078F07CC079F07851795D09E378C0FD
:1002F8009BF07AC09CF07BC09DF042DF782BF4D74E
:020308001200E1
:10030A008A908A8200017A6B7A5107080EE37AC0D2
:10031A00A1F0C9DE796B79513F0805E378C0A1F0F5
:10032A00ADDE792BF8D77A2BEFD78A928A807A6B4F
:10033A007A5107080EE37AC0A1F0B5DE796B7951DC
:10034A003F0805E378C0A1F099DE792BF8D77A2B1C
:04035A00EFD71200C7
:10035E00000E00017D1902E1000E7C1908E178C043
:10036E009BF07AC09CF07EC09DF007DFD2D0836BED
:10037E00846B78517A5D856F79517B59866F7CC01D
:10038E0081F07DC082F07CC000F07DC001F00036AF
:10039E000090013600C07FF001C080F000500308CD
:1003AE007F6F01C080F0000E8057010E8125016E17
:1003BE00000E8221026E800E8419006E800E0218CD
:1003CE00005C02E10150835DD8B0A3D08351782543
:1003DE009B6F81517A259C6F7EC09DF0CEDE83513E
:1003EE0078259B6F81517A5D9C6F7EC09DF0C5DE36
:1003FE00800E006E800E8419005C02E183510008AD
:10040E0012E28351785D9B6F81517A259C6F7EC07D
:10041E009DF0B3DE8351785D9B6F81517A5D9C6F49
:10042E007EC09DF0AADE8451821902E181518319AA
:10043E0035E081517A259B6F85519B5F83517A25DB
:10044E009C6F7EC09DF099DE81517A5D9B6F8551C8
:10045E009B5F83517A259C6F7EC09DF08EDE800E51
:10046E00006E800E8419005C02E18351000816E2D2
:10047E0081517A259B6F85519B5F83517A5D9C6F6D
:10048E007EC09DF07ADE81517A5D9B6F85519B5FB8
:10049E0083517A5D9C6F7EC09DF06FDE800E801959
:1004AE00006E800E005C02E1000E7F5D13E283C0E1
:1004BE0000F084C001F00036009001360036009046
:1004CE000136060E0026000E012200507F27015035
:1004DE0080231CD08151835D036E82518459046E3A
:1004EE0003C000F004C001F0003600900136003663
:1004FE00009001360A0E0026000E012200507F27C2
:10050E0001508023010E815F000E825B834B842B92
:04051E004CD71200A4
:1005220000018D6B8E6B8F6B906B916B926B936BEB
:10053200946B7C517825006E7D517921016E010EFC
:10054200005C026E000E0158036E000E006E035036
:10055200005C02E102507F0807E2785180087C6F5C
:1005620079C07DF0000E7D577E517A25006E7F5155
:100572007B21016E010E005C026E000E0158036EBB
:10058200000E006E0350005C02E102503F0807E2D9
:100592007A5140087E6F7BC07FF0000E7F577AC091
:1005A20000F07BC001F001320032019E01320032C4
:1005B200019E01320032019E00C087F07E517A25F1
:1005C200056E7F517B21066E010E055C036E000EE7
:1005D2000658046E03C000F004C001F0013200327C
:1005E200019E01320032019E01320032019E00C0A2
:1005F20088F0070E7A15006E7BC001F0000E01161E
:1006020000C08AF0070E0514006E06C001F0000E4D
:10061200011600C08BF083517F5D02E182517E5D45
:1006220003E288C08CF01BD082517A25006E835180
:100632007B21016E010E005C036E000E0158046EF8
:1006420003C000F004C001F001320032019E013209
:100652000032019E01320032019E00C08CF0070E72
:100662008215016E83C002F0000E0216000E0218FF
:1006720002E1000E011817E182C000F083C001F010
:1006820001320032019E01320032019E01320032FB
:10069200019E80C004F081C005F04DDD00C097F0DE
:1006A20001C098F018D082C000F083C001F001327E
:1006B2000032019E01320032019E01320032019E5F
:1006C200004A012A80C004F081C005F034DD00C078
:1006D20097F001C098F087C08DF0000E8E6F000E6B
:1006E200006E8E51005C02E18D51885DD8A0FCD075
:1006F200956B966B8F6B906B7D51905D02E17C5197
:100702008F5DD8B0E0D08F517825A16FC2DC8DC04B
:10071200A1F0CDDC8151905D02E180518F5D3DE21F
:10072200000E006E8E51005C02E18D518C5D35E34E
:10073200000E8E1902E187518D1902E1996B12D0D8
:1007420093519525006E94519621016E0050842597
:10075200F66E01508521F76E000E8621F86E0900B3
:10076200F5CF99F09851925D02E19751915D02E3C4
:100772009A6B12D091519525006E92519621016E7D
:1007820000508425F66E01508521F76E000E8621F9
:10079200F86E0900F5CF9AF002D09A6B996B9AC065
:1007A20089F08A5100081AE28A510808006E016A2B
:1007B200000E015A99C089F0005004E08933899FE4
:1007C200FF0FFBD78AC001F09AC000F0015004E08D
:1007D20000360090FF0FFBD700508913000E8E19D0
:1007E20002E187518D192AE18A51000827E28F51CF
:1007F2007825A16F64DC1FDC1EDC8A510808016EBB
:10080200026A000E025A01C002F0FF0E016E02508F
:1008120004E00132019EFF0FFBD701500014026E6B
:100822008AC001F0FF0E006E015004E00036009015
:10083200FF0FFBD70050891702508913000E8E1943
:1008420002E188518D192CE18B51000829E28F5168
:100852007825A16F34DC1CEC00F01CEC00F08BC09E
:1008620002F0FF0E016E025004E001360190FF0F0C
:10087200FBD701500014026E8B510808006E016A0A
:10088200000E015A00C001F0FF0E006E015004E09C
:100892000032009EFF0FFBD70050891702508913C8
:1008A2008151905D02E180518F5D02E2954B962B62
:1008B2008F517825A16F03DC89C0A1F043EC00F0D1
:1008C2008F4B902B19D7000E8E5D02E18C518D5DFE
:1008D20008E291C093F092C094F080519127815127
:0A08E20092238D4B8E2BFBD61200E3
:1008EC00155206E1010E00019B6F000E9C6FA0DCFF
:1008FC0016C000F017C001F018C002F019C003F0C8
:10090C006D0E046E4E0E056EC60E066E410E076E13
:10091C0073EC00F0390E0024056E300E0120066ECB
:10092C00000E0220076E000E0320086E07C000F0B8
:10093C0008C001F0000E08BEFF0E026E036EFF0E23
:10094C0000167F0E0116000E0216031600C016F0DC
:0E095C0001C017F002C018F003C019F012001D
:10096A000450000A08E10550000A05E1FF0E006E76
:10097A007F0E016E57D00D6A096A086A015000108D
:10098A00D8B4000C015005180A6E0ABE0D1E0B6A77
:10099A0005AE05D0041E051E042AD8B4052A01AEE8
:1009AA0005D0001E011E002AD8B4012A01500510E4
:1009BA000A6E0ABE10D047DC0BB020D00DAE000C78
:1009CA00001E011E002AD8B4012A081E091E082A80
:1009DA00D8B4092A000C05AE0DD001BE07D00150CB
:1009EA00096E0050086E016A006AE8D7016A006A57
:1009FA00002A000C011E001E0B2ADDD7082AD8B4D3
:100A0A00092A0450085CD8A4D9D70550095CD8A48F
:100A1A00D5D7096A086A002AD8B4012A01AECED706
:060A2A000000FF0C1200A9
:100A300000017C6B7D6B7E6B7C51070845E3A16BED
:100A40004AEC00F07CC0A1F058EC00F0A16B60EC27
:100A500000F07B6B7B513F0812E37D517825F66EE9
:100A60007E517921F76E000E7A21F86E0900F5CFDC
:100A7000A1F043EC00F07D4B7E2B7B2BEBD7400E9F
:100A8000A16F4AEC00F07CC0A1F058EC00F0400EE1
:100A9000A16F60EC00F0400E7B6F7B517F0812E38A
:100AA0007D517825F66E7E517921F76E000E7A2100
:100AB000F86E0900F5CFA1F043EC00F07D4B7E2BE2
:0A0AC0007B2BEBD77C2BB8D712007C
:100ACA0071C078F0000E000171BFFF0E796F72C01D
:100ADA007AF0000E72BFFF0E7B6F73C07CF0000EBF
:100AEA0073BFFF0E7D6F74C07EF0000E74BFFF0EE1
:100AFA007F6F73C080F0000E73BFFF0E816F74C0EA
:100B0A0082F0000E74BFFF0E836F75C084F076C04A
:0A0B1A0085F077C086F000DD1200C0
:100B2400E3DE00017151010F046E056A000E052217
:0C0B34001ADF08C000F009C001F0120038
:100B400071C078F0000173517125796F72C07AF02D
:0A0B500075C07BF054EC01F01200B8
:0A0B5A000001786B85EC01F0120039
:100B6400080E0001786F130E796F000E7A6F5EDF46
:020B740012006D
:100B760000C002F001C003F0016A80B4012A0150EE
:100B8600010A010ED8A4000E006E00C004F0016A2E
:100B960080B6012A0150010A010ED8A4000E006E8B
:100BA60000C005F0016A80B8012A0150010A010E51
:100BB600D8A4000E006E00C006F0030E006E02C040
:100BC600E1FF03C0E2FF040EE96E000EEA6EEECF0F
:080BD600E6FF0006FCE112003D
:100BDE0071C078F0000E000171BFFF0E796F72C008
:100BEE007AF0000E72BFFF0E7B6F73C07CF0000EAA
:100BFE0073BFFF0E7D6F75C07EF0AFEC01F012007B
:100C0E00080E0001786F170E796F000E7A6F09DFEC
:100C1E00290E0B6E960E0C6E7F0E0D6E0D2EFED7E0
:0C0C2E000C2EFCD70B2EFAD791DF120021
:100C3A000001606B350E636F5F6A5F500C085EE3FC
:100C4A005FC000F0000E016E0036009001360036DB
:100C5A000090013600506125E16E01506221E26E7A
:100C6A0060C0E6FF5FC000F0000E016E0036009023
:100C7A000136003600900136615100266251012288
:100C8A00010E0024E16E000E0120E26E63C0E6FF51
:100C9A005FC000F0000E016E00360090013600368B
:100CAA00009001366151002662510122020E002491
:100CBA00E16E000E0120E26E030EE66E5FC000F0E8
:100CCA00000E016E003600900136003600900136A3
:100CDA006151002662510122030E0024E16E000ECA
:100CEA000120E26E010EE66E7B0E716F16DF00C008
:0E0CFA0060F0040E0001635F5F2A9FD71200B6
:100D08000900F5CFE6FF0006FBE10106F9E1120054
:100D18001C6A1A6A1B6A939A939893949396939071
:100D280093928A9A120E006E000E016E830E0024B2
:100D3800E16E0F0E0120E26EE66A8A948A968A9026
:100D48008A828A8A3F0E836E14EC00F0C00E836E8E
:100D580014EC00F08A808A923F0E836E14EC00F047
:0A0D6800C00E836E14EC00F01200C0
:100D7200190E0001636F220E646F030E656F666BBE
:100D8200F0DE040E006E710EE16E000EE26E630E76
:100D9200E96E000EEA6EEECFE6FF0006FCE1010E00
:100DA200756F1CDF670E006E000E016EE3DE030E30
:100DB200006E600EE16E000EE26E670EE96E000ECE
:100DC200EA6EEECFE6FF0006FCE10001625309E0A5
:100DD2005F50000A06E1C0DE020E006E000E016ED8
:100DE20086D0605303E1615301E139D05F50000ABC
:100DF20036E1040E006E710EE16E000EE26E630EBD
:100E0200E96E000EEA6EEECFE6FF0006FCE1756BBE
:100E1200E5DE0E0E6425006E00C064F0040E006E66
:100E2200710EE16E000EE26E630EE96E000EEA6E66
:100E3200EECFE6FF0006FCE1010E756FCFDE010E7C
:100E42005F6E070E0B6EC20E0C6ED80E0D6E0D2E5F
:100E5200FED70C2EFCD70B2EFAD70000A3D7625375
:100E620009E05F50010A06E177DE030E006E000E14
:100E7200016E3DD0605303E1615301E137D05F5011
:100E8200010A34E1040E006E710EE16E000EE26E94
:100E9200630EE96E000EEA6EEECFE6FF0006FCE19D
:100EA200756B9CDE0E0E645D006E00C064F0040E75
:100EB200006E710EE16E000EE26E630EE96E000EC0
:100EC200EA6EEECFE6FF0006FCE1010E756F86DEEC
:100ED2005F6A070E0B6EC20E0C6ED80E0D6E0D2ED3
:100EE200FED70C2EFCD70B2EFAD700005BD71200D0
:100EF2005F6A800E000A006E800E005C02E15F50A5
:100F02000C08D8A0D3D05FC000F0000E016E0036EE
:100F12000090013600360090013600500001612534
:100F2200E96E01506221EA6E040E006E710EE16EEE
:100F3200000EE26EEECFE6FF0006FCE10001756BEB
:100F4200FEDD010E5F14016E0150010A49E15FC02E
:100F520000F0000E016E003600900136003600905F
:100F6200013600506125E96E01506221EA6EEECF32
:100F720001F0800E000A006E800E0118005C12E380
:100F82005FC000F0000E016E0036009001360036A0
:100F92000090013600506125E16E01506221E26E3F
:100FA2007C0EE66E5FC000F0000E016E003600900F
:100FB200013600360090013600506125026E015064
:100FC2006221036E02C0E9FF03C0EAFFEECF00F028
:100FD200000602C0E1FF03C0E2FF00C0E6FF47D007
:100FE2005FC000F0000E016E003600900136003640
:100FF2000090013600506125E96E01506221EA6ECF
:10100200EECF01F0800E0118006E800E7C0A005CAB
:1010120011E35FC000F0000E016E00360090013651
:1010220000360090013600506125E16E01506221C8
:10103200E26EE66A5FC000F0000E016E00360090BC
:10104200013600360090013600506125026E0150D3
:101052006221036E02C0E9FF03C0EAFFEECF00F097
:10106200002A02C0E1FF03C0E2FF00C0E6FF5FC04A
:1010720000F0000E016E003600900136003600903E
:10108200013600506125E96E01506221EA6E040EBC
:10109200006E710EE16E000EE26EEECFE6FF00060C
:0E10A200FCE1010E756F4BDD5F2A23D71200B3
:1010B00000C065F001C066F0040E006E6A0EE16EBD
:1010C000000EE26E5F0EE96E000EEA6EEECFE6FFF6
:1010D0000006FCE16E0E006E000E016E4CDD030E8C
:1010E000006E670EE16E000EE26E6E0EE96E000E8F
:1010F000EA6EEECFE6FF0006FCE10001685336E041
:1011000064516025026E02C060F06205006E000E40
:1011100062BFFF0E016E000E015A02500024026EE3
:10112000000E02BEFF0E0120036E800E0318006E3B
:10113000800E005C02E13F0E025C02E3370E606F3E
:10114000040E006E710EE16E000EE26E6A0EE96E24
:10115000000EEA6EEECFE6FF0006FCE11A0E756F98
:101160001B0E766F000E776FB0DC34D0675323E030
:101170006451605D016E01C060F0800E000A006E77
:10118000800E0118005CD8B0606B040E006E710E0A
:10119000E16E000EE26E6A0EE96E000EEA6EEECFB0
:1011A000E6FF0006FCE11A0E756F1B0E766F000E4F
:1011B000776F8BDC0FD0060E006E65C0E1FF66C056
:1011C000E2FF5F0EE96E000EEA6EEECFE6FF00066C
:1011D000FCE10ED0060E006E65C0E1FF66C0E2FFC6
:1011E0005F0EE96E000EEA6EEECFE6FF0006FCE150
:0211F0001200EB
:1011F200020E576E586A200E516E370E526E090E4D
:10120200536E090E546E556A010E566E1D0E000184
:10121200616F000E626F10DD0F0EC16E7CDD67D054
:10122200F5DC010E576E6DD058C05FF0A1DD00C035
:1012320057F067D091DC040E006E710EE16E000E65
:10124200E26E510EE96E000EEA6EEECFE6FF000688
:10125200FCE1080E756F1B0E766F000E776F34DCA3
:10126200060E006E5F0EE16E000EE26E510EE96E2A
:10127200000EEA6EEECFE6FF0006FCE1590E006EAC
:10128200000E016E14DF060E006E510EE16E000EAE
:10129200E26E590EE96E000EEA6EEECFE6FF000630
:1012A200FCE11D0E616F000E626F22DE040E006E05
:1012B200710EE16E000EE26E510EE96E000EEA6EE4
:1012C200EECFE6FF0006FCE1080E0001756F1B0E73
:1012D200766F000E776F65EC05F09C0E0C6ED70EE4
:1012E2000D6E0D2EFED70C2EFCD7BAD70AD0575052
:1012F200000A96E05750010A97E05750020A9AE016
:06130200F5D78DD7FFD7DF
:10130800000000000000000000000000FCFCFC1CC5
:101318001C1C1C1C1C1C1C000000FCFCFC1C1C1CB9
:101328001C1CFCFCFC0000FCFCFC1C1C1CFCFCFC4D
:10133800FC0000FCFCFC1C1C1C1C1C1C1C00FCFCF9
:10134800FC1C1C1C1C1C000000000000FCFCFC1CFD
:101358001C1C1C1C1C1C1CE0E0E00000FCFCFC1C11
:101368001C1CFCFCFC0000FCFCFC1C1C1C1C1C00C9
:1013780000FCFCFC1C1C1C1C1C00000000000000E5
:101388000000000000000000000000000F0F0F0E1A
:101398000E0E0E0EFEFEFE000000FFFFFF1C1C1CC2
:1013A8001C1C1F1F1F0000FFFFFF0E0E0EFFFFFF7C
:1013B800FF0000FFFFFF0000000000000000FFFF2B
:1013C800FF0E0E0E0000000000000000FFFFFF38B7
:1013D800383838F8F8F8380707070000FFFFFF0E1D
:1013E8000E0EFFFFFF0000FFFFFF000000000000DF
:1013F80000FFFFFF0E0E0E000000000000000000BE
:1014080000000000000000000000000007070707B8
:10141800070707070707070000000707070000007E
:10142800000000000000000707070000000707078A
:101438000700000707070707070707070700070749
:101448000707070707070000000000000707070055
:101458000000000101010707070000000707070057
:101468000000070707000007070707070707070027
:10147800000707070707070707000000000000002C
:101488000000000000000000000000000000000054
:101498000000000000000000000000000000000044
:1014A800000000000000C0C0C0C000000000000034
:1014B80000E0E0606060E0E00000E0E000000000C4
:1014C800E0E0606060E0E00000E0E00000E0E000F4
:1014D80000E0E0606060600000E0E06060E0E00084
:1014E80000000000000000000000000000000000F4
:1014F80000000000000000000000000000000000E4
:1015080000000000000000000000000000000000D3
:1015180000000000000000000000000000000000C3
:1015280000000000000060607F7F60600000000035
:10153800007F7F060606070700007F7F6060600067
:101548007F7F0606067F7F000001037F7F0301007F
:10155800007F7F6660606000007F7F0C1E7F7300E5
:101568000000000000000000000000000000000073
:101578000000000000000000000000000000000063
:101588000000000000000000000000000000000053
:101598000000000000000000000000000000000043
:1015A800000000000000B0B0B0B0F0F00000000093
:1015B80000F8F8989898F8F80000F8F8000000008B
:1015C800F8F8989898F8F8000078F8C0C0F878000B
:1015D80000F8F8981818180000F8F81898F8F800A3
:1015E800F8F89898989800000000000000000000A3
:1015F80000000000000000000000000000000000E3
:1016080000000000000000000000000000000000D2
:1016180000000000000000000000000000000000C2
:101628000000000000000F0F0D0D0D0D0000000060
:10163800001F1F010101010100001F1F18181800D9
:101648001F1F0101011F1F000000001F1F000000D5
:10165800001F1F1918181800001F1F03071F1C0060
:101668000D0D0D0D0F0F0000000000000000000020
:101678000000000000000000000000000000000062
:101688000000000000000000000000000000000052
:101698000000000000000000000000000000000042
:1016A8000000000000000000000000000000000032
:1016B8000000000000000000000000000000000022
:1016C8000000000000000000000000000000000012
:1016D8000000000000000000000000000000000002
:1016E80000000000000000000000000000000000F2
:1016F80000000000000000000000000000000000E2
:101708000000000000000000FFFFFF878787878731
:10171800878787000000FFFFFF0707070707FFFF0E
:10172800FF0000FFFFFF878787FFFFFF0000FFFF25
:10173800FFFF0707070707070700FFFFFF878787E0
:101748000707000000000000FFFFFF070707070763
:10175800070707F8F8F80000FFFFFF878787FFFFF4
:10176800FF0000FFFFFF070707070700FFFFFF87CE
:1017780087878707070000000000000000000000BE
:101788000000000000000000C3C3C3C3C3C3C3FFFD
:10179800FFFFFF000000FFFFFF0707070707070716
:1017A800070000FFFFFF030303FFFFFF0000FFFF29
:1017B800FFFFC0C0C0C0C0C0C000FFFFFFC3C3C39D
:1017C800C0C0000000000000FFFFFF0E0E0E7E7E6E
:1017D8007E7ECEC1C1010000FFFFFF030303FFFFB0
:1017E800FF0000FFFFFFC0C0C0C0C000FFFFFFC375
:1017F800C3C3C3C0C0000000000000000000000018
:10180800000000000000000001010101E1E1018188
:1018180081C1E160000001616160E0E0606060003A
:1018280000E0E00101C1C0C0C0C1C10100C0C1C128
:10183800C1C1C1C10101E1E1C10001E1E101010151
:101848000101000000C0C0C0C1C1C10000C0C0C0CB
:10185800C0C0C1C101C0C0C0C1C1C100C0C0C1C1F8
:10186800C1C000E1E1C10101E1E101C0C1C1C1C1E3
:10187800C1C10101C1C0C0C0C0000000000000001B
:101888000000000000000000000000007F7F070F3C
:101898000F1D38787000006060607F7F00000000D6
:1018A800007F7F00007F7F0C1E7F7700007F7F60B6
:1018B80060607F7F00007F7F030F3C7F7F00000018
:1018C80060600000007F7F0C1E7F7700007F7F66CE
:1018D80066667F3F007F7F0C1E7F77007F7F666094
:1018E8006060007F7F030F3C7F7F007F7F666060C2
:1018F800606000006F6F6C7D7D00000000000000DC
:1019080000000000000000000000606060E0E0608F
:1019180060606000E0E06060E0E000E0E00000009F
:10192800E0E000000000E0E06060606000E0E0608F
:101938006060E0E000000000E0E0606060600000DF
:10194800E0E0C00080C0E0E00000E0E06060E0E0CF
:10195800E000E0E06060606000E0E06060E0E0001F
:1019680000E0E00000E0E0E0E0C00000E0E06060EF
:1019780060E0E000E0E060E0E0000000000000005F
:10198800000000000000000000000000003F3F00D1
:10199800000000003F3F06063F3F003F3F30300059
:1019A8003F3F303000003F3F33303030003F3F068C
:1019B800060F3F3B000000003F3F3330303000004F
:1019C8003F3F030707013F3F00003F3F33333F1FBF
:1019D8001F003F3F33303030003F3F33333F1F005D
:1019E800003F3F00003F3F30391F0F003F3F30307E
:1019F800303F3F003737363E3E0000000000000011
:101A080000000000000000000000000000000000CE
:101A180000000000000000000000000000000000BE
:101A2800000000000000000000F8F8D8181818009E
:101A38000000F8F898D8F8F80000FCFC00007C7C5E
:101A4800C0C000C0E07C7C0000F8F8D81818180066
:101A580000F8F898D8F8F800F8F89898F8F800001E
:101A6800000000000000000000000000000000006E
:101A7800000000000000000000000000000000005E
:101A8800000000000000000000000000000000004E
:101A9800000000000000000000000000000000003E
:101AA8000000000000000000000F0F0C0C0C0C00E0
:101AB80000000F0F01030F0E00000F0F00000000C1
:101AC800030F0C0F03000000000F0F0C0C0C0C0090
:101AD800000F0F01030F0E000F0F01010F0F000081
:101AE80000000000000000000000000000000000EE
:101AF80000000000000000000000000000000000DE
:101B080080C0E4F6FFF6E4C0800000000100010098
:021B18000000CB
:101B1A0000000000000000000000000000000000BB
:021B2A000000B9
:020000040030CA
:0E000000000C1F1EFF8381FF0FC00FE00F409A
:00000001FF
