:0400000063EF0FF0AB
:1000080000C016F001C015F0E1CF17F0E2CF18F0EC
:100018009DAA28D02450235C006E016A000E015A64
:1000280000C03CF12350000806E201013C51000ADF
:1000380002E16CEC0AF001019C0E3D6F000E3E6F70
:1000480023503D27D8B03E2BACEC0BF03DC1E1FF6F
:100058003EC1E2FF00C0E6FF232A2350400A02E126
:100068006CEC0AF0F2A40CD0F2940B0ED76EDC0EF6
:10007800D66E1D2A020E1D5C03E3010E206E1D6A5A
:1000880016C000F015C001F017C0E1FF18C0E2FF6C
:02009800110055
:0C009A00060E0D6E0D2EFED700001200A9
:1000A600220E0C6E086A096A0A6A0B6A0C06D8B434
:1000B6001FD0D8900B320A3209320832033202328C
:1000C60001320032D8A0F2D70C06D8B409D00450B9
:1000D60008260550092206500A2207500B22EAD7A5
:1000E600045008260550092206500A2207500B2202
:0200F6001200F6
:1000F8000134083609360450085E0550D8A0053C7E
:10010800095E003601360F0E0C6E013408360936CA
:10011800045000A006D0085E0550D8A0053C095E32
:1001280005D008260550D8B0053C0926003601360A
:100138000C2EEBD700B006D0045008260550D8B0D6
:08014800053C0926000012002D
:100150003AC1DCF03BC1DDF0000E0001DE6FDF6F65
:06016000010E9A6F12006F
:0A01660099DF8A8897DF8A9812005B
:0601700000000000120077
:100176000B6A0A6A096A00500402F4CF09F0F3CF49
:1001860008F001500502F4CF0BF0F3CF0AF000504F
:100196000502F3500926F4500A22E86A0B220150A0
:1001A6000402F3500926F4500A22E86A0B2208C01A
:1001B60000F009C001F00AC002F00BC003F0120003
:1001C6008A948A96B80E01013911836EC9DF12002E
:1001D6007F0E01013915006E00C039F18A948A96A6
:1001E600BF0E001600C039F1008C00C039F100C006
:0601F60083FFB6DF1200DA
:1001FC00120E006E000E016E830E0024E16E0F0EC7
:10020C000120E26EFF0EE66EADDFACDF8A848A98C9
:10021C008A868A883CDF83CF39F18A988A96A2DF56
:10022C00A1DF120E006E000E016E830E0024E16E33
:0E023C000F0E0120E26EE66A39C100F01200DA
:0E024A008A988A848A9639C183FF88DF120061
:100258007F0E01013915016E01C039F101AC03D0DF
:0C0268008A808A9202D08A908A8212005A
:100274000450000A08E10550000A05E1FF0E006E73
:100284007F0E016E57D00D6A096A086A015000108A
:10029400D8B4000C015005180A6E0ABE0D1E0B6A74
:1002A40005AE05D0041E051E042AD8B4052A01AEE5
:1002B40005D0001E011E002AD8B4012A01500510E1
:1002C4000A6E0ABE10D016DF0BB020D00DAE000CA3
:1002D400001E011E002AD8B4012A081E091E082A7D
:1002E400D8B4092A000C05AE0DD001BE07D00150C8
:1002F400096E0050086E016A006AE8D7016A006A54
:10030400002A000C011E001E0B2ADDD7082AD8B4CF
:10031400092A0450085CD8A4D9D70550095CD8A48C
:10032400D5D7096A086A002AD8B4012A01AECED703
:060334000000FF0C1200A6
:10033A0000019A5306E1010E01013A6F000E3B6F6C
:10034A0002DFDCC000F0DDC001F0DEC002F0DFC079
:10035A0003F06D0E046E4E0E056EC60E066E410E4D
:10036A00076E9CDE390E0024056E300E0120066EE3
:10037A00000E0220076E000E0320086E07C000F070
:10038A0008C001F0000E08BEFF0E026E036EFF0EDB
:10039A0000167F0E0116000E0216031600C0DCF0CE
:0E03AA0001C0DDF002C0DEF003C0DFF0120083
:1003B800086A080E0C6E003408360450085ED8B07F
:0E03C80002D00826D89000360C2EF5D7120071
:1003D600B1DF01012F51010F046E056A000E0522DF
:0C03E60046DF08C000F009C001F0120062
:1003F2000101326B030E325D0AE232513025E16EA9
:10040200000E3121E26E200EE66E322BF3D732510E
:100412003025E16E000E3121E26EE66A320732517A
:100422003025336F000E3121346F0A0E046E2FC156
:1004320000F0C1DF08C000F0300E002633C1E1FF3A
:1004420034C1E2FF00C0E6FF0A0E046E2FC100F0C5
:10045200B2DF00C02FF10050000A01E102D03207E2
:04046200DED71200CF
:1004660001013151070801E28CD0000181510101DF
:100476002F5D006E82C001F0000E015683C004F0AD
:10048600000E056E75DE00C037F101C038F130C1CF
:1004960039F19EDE31C139F193DE336B00018351B0
:1004A6000101335D4FE230517F0801E26AD030C16D
:1004B60039F1CFDE31C139F183DE30C139F188DE61
:1004C6009ADE00C034F197DE00C034F130C139F154
:1004D600C0DE31C139F174DE30C139F179DE375110
:1004E60000017D25F66E0101385100017E21F76E6F
:1004F600000E010138BFFF0E00017F21F86E0900D2
:10050600F5CF00F000C035F10101374B382B001C48
:10051600366F09D036C134F10FD035C134F10CD065
:100526003551341B09D03251000AF4E03251010A28
:10053600F4E03251020AF4E034C139F183DE302BA3
:10054600332BACD730C139F184DE31C139F138DE15
:1005560030C139F13DDEFF0E356F366B0CD035C13B
:1005660034F135C139F16EDE0CD036C134F136C105
:1005760039F168DE06D03251000AF1E03251010A43
:04058600F4E012008B
:10058A0031C104F032C105F02FC102F030C103F0CD
:10059A0033C100F034C101F0010E0101335F000ED6
:1005AA00345B005001100FE004C0E9FF05C0EAFF08
:1005BA0002C0E1FF03C0E2FFEECFE6FF024A032AD0
:1005CA00044A052AE5D72FC100F030C101F0120014
:1005DA00000E01012F5D0AE32F517F0807E3000E89
:1005EA00305D04E330513F0801E301D04AD02FC106
:1005FA0039F12DDE30C139F13933399F3933399F19
:10060A003933399FDBDD2FC139F1E0DDF2DD00C07E
:10061A0034F1EFDD00C034F130C139F13933399F9B
:10062A003933399F3933399FC9DD2FC139F1CEDDCD
:10063A00070E3015006E00C032F100C001F0010E45
:10064A00006E015004E000360090FF0FFBD700C097
:10065A0032F1001C336F09D0335134170FD03251A5
:10066A0034130CD03251341B09D03151000AF4E052
:10067A003151010AF4E03151020AF4E034C139F18E
:04068A00DFDD12009E
:10068E00010126512425016E000E24BFFF0E026EBD
:10069E00000E26BFFF0E0222800E20BF7F0E006EC0
:1006AE00800E0218005C02E10150205D45E22251ED
:1006BE002025016E000E20BFFF0E026E000E22BF1F
:1006CE00FF0E0222800E24BF7F0E006E800E0218D7
:1006DE00005C02E10150245D2FE227512525016EB9
:1006EE00000E25BFFF0E026E000E27BFFF0E022268
:1006FE00800E21BF7F0E006E800E0218005C02E19C
:10070E000150215D19E221512325016E000E23BFF8
:10071E00FF0E026E000E21BFFF0E0222800E25BFBD
:10072E007F0E006E800E0218005C02E10150255D06
:0C073E0003E2010E006E01D0006A120000
:0E074A00ACB202D00000FCD720C1ADFF1200FF
:100758000101256B266B20C127F1000E20BFFF0E7B
:10076800286F800E2019006E800E000A005C0AE2D5
:10077800254B262B20510008276F286B000E20BF21
:10078800FF0E285B27C12FF121C130F122C131F1C1
:100798002CDE040E236F000E246F000E006E245111
:1007A800005C02E12351000819E223512125E16E82
:1007B80024512221E26E010E235D006E000E2459A1
:1007C800016E00502125E96E01502221EA6EEECF1C
:1007D800E6FF010E235F000E245BDFD721C1E1FF96
:1007E80022C1E2FF200EE66E255126111AE0236B86
:1007F800246B23512125E96E24512221EA6EEE5003
:10080800200A03E1234B242BF4D7010E235F000EAB
:10081800245B23512125E16E24512221E26E2D0E05
:04082800E66E120066
:0A082C00000EACB2010E006E1200C7
:100836008A908A820101226B225107080EE322C1A7
:1008460039F1BEDC216B21513F0805E320C139F1A6
:10085600F9DC212BF8D7222BEFD78A928A80226BDC
:10086600225107080EE322C139F1AADC216B21517E
:100876003F0805E320C139F1E5DC212BF8D7222B0F
:04088600EFD7120096
:10088A0020C12FF121C130F19C0E0101316F000E00
:10089A00326F24503127D8B0322B22C133F123C111
:1008AA0034F16EDE2251242622C100F023C101F068
:0208BA0012002A
:1008BC002450235C006E016A000E015A000E016E7A
:0208CC00120018
:1008CE000101236B350E246F226B22510C085EE35F
:1008DE0022C100F0000E016E003600900136003687
:1008EE000090013600502025E16E01502121E26E6C
:1008FE0023C1E6FF22C100F0000E016E003600900B
:10090E000136003600900136205100262151012279
:10091E00010E0024E16E000E0120E26E24C1E6FFFE
:10092E0022C100F0000E016E003600900136003636
:10093E00009001362051002621510122020E002482
:10094E00E16E000E0120E26E030EE66E22C100F093
:10095E00000E016E00360090013600360090013612
:10096E002051002621510122030E0024E16E000EBB
:10097E000120E26E010EE66E7B0E2F6F25DD00C0AC
:0E098E0023F1040E0101245F222B9FD71200DB
:10099C000101246B256B266B245107083FE3396B4F
:1009AC0055DC24C139F109DC396B0FDC236B235185
:1009BC003F0811E325512025F66E26512121F76EB3
:1009CC00000E2221F86E0900F5CF39F138DC254BE9
:1009DC00262B232BECD7400E396F38DC24C139F190
:1009EC00E3EC00F0400E396FEBEC00F0400E236F9F
:1009FC0023517F0811E325512025F66E2651212124
:100A0C00F76E000E2221F86E0900F5CF39F117DCD4
:0E0A1C00254B262B232BECD7242BBED7120004
:100A2A00000E0101225D04E322513F0801E301D0D7
:100A3A0027D0000E205DD8A0206B20517F0802E24B
:100A4A007F0E206F000E215DD8A0216B21517F08F7
:100A5A0002E27F0E216F2051215D06E220C124F1BE
:100A6A0021C120F124C121F12051215D09E320C1D6
:100A7A002FF122C130F123C131F1AADD202BF4D7A5
:020A8A00120058
:100A8C00000E0101251902E1000E241908E120C114
:100A9C002FF122C130F126C131F199DDD2D02B6B6F
:100AAC002C6B2051225D2D6F215123592E6F24C1A7
:100ABC0029F125C12AF124C100F025C101F000362D
:100ACC000090013600C027F101C028F10050030846
:100ADC00276F01C028F1000E2857010E2925016E41
:100AEC00000E2A21026E800E2C19006E800E021848
:100AFC00005C02E101502B5DD8B0A3D02B51202516
:100B0C002F6F29512225306F26C131F160DD2B5119
:100B1C0020252F6F2951225D306F26C131F157DD11
:100B2C00800E006E800E2C19005C02E12B51000827
:100B3C0012E22B51205D2F6F29512225306F26C1D7
:100B4C0031F145DD2B51205D2F6F2951225D306F26
:100B5C0026C131F13CDD2C512A1902E129512B1906
:100B6C0035E0295122252F6F2D512F5F2B51222536
:100B7C00306F26C131F12BDD2951225D2F6F2D51A4
:100B8C002F5F2B512225306F26C131F120DD800ED5
:100B9C00006E800E2C19005C02E12B51000816E24D
:100BAC00295122252F6F2D512F5F2B51225D306F34
:100BBC0026C131F10CDD2951225D2F6F2D512F5F94
:100BCC002B51225D306F26C131F101DD800E2819C9
:100BDC00006E800E005C02E1000E275D13E22BC15B
:100BEC0000F02CC101F00036009001360036009068
:100BFC000136060E0026000E012200502727015058
:100C0C0028231CD029512B5D036E2A512C59046EBC
:100C1C0003C000F004C001F000360090013600362D
:100C2C00009001360A0E0026000E012200502727E4
:100C3C0001502823010E295F000E2A5B2B4B2C2B15
:040C4C004CD712006F
:100C50000101226B236B20C103F021C104F020C1EC
:100C600005F021C106F003C0E9FF04C0EAFFEE5021
:100C7000200A04E12251231101E110D0010E226F5C
:100C8000000E236F03C0E9FF04C0EAFF05C0E1FFC7
:100C900006C0E2FFEECFE6FF054A062A03C001F0D8
:100CA00004C002F0034A042A01C0E9FF02C0EAFFBF
:100CB000EE50000AD8E120C100F021C101F012007D
:100CC0000101256B00019B51000A0EE1050E836FA7
:100CD000070E806F720E7D6F340E7E6F000E7F6F79
:100CE000200E816F000E826F010125512025E96ED3
:100CF000000E2121EA6EEE5219E025512025E96E01
:100D0000000E2121EA6EEECF2FF122C130F123C176
:100D100031F124C132F133EC02F000018351010FB3
:0E0D2000006E005001012227252BDED71200A5
:100D2E000101016B026BC3DD800E0118026E800E95
:100D3E00025C02E1020E005C20E3FD0E206F000E4D
:100D4E00216F020E226F000E236F98DD0001FE51FF
:100D5E001A1802E11950FD1905E1010E006E000E80
:100D6E00016E24D0FE511C1802E11B50FD1905E145
:100D7E00020E006E000E016E19D0000E0101021956
:100D8E0002E1050E011903E1006A016A0FD0014B61
:100D9E00022B030E0B6E080E0C6E770E0D6E0D2EC3
:0E0DAE00FED70C2EFCD70B2EFAD7BDD71200A5
:100DBC0000C002F001C003F0016A80B4012A0150A6
:100DCC00010A010ED8A4000E006E00C004F0016AE6
:100DDC0080B6012A0150010A010ED8A4000E006E43
:100DEC0000C005F0016A80B8012A0150010A010E09
:100DFC00D8A4000E006E00C006F0030E006E02C0F8
:100E0C00E1FF03C0E2FF040EE96E000EEA6EEECFC6
:080E1C00E6FF0006FCE11200F4
:100E240001C120F1000E010101BFFF0E216F02C1BB
:100E340022F1000E02BFFF0E236F03C124F1000E46
:0E0E440003BFFF0E256F05C126F11EDE120052
:100E5200216A226A206A1D6A5D6A200E0001766F8D
:100E6200370E776F090E786F090E796F7A6B010E64
:100E72007B6F5E0E5E6E370E5F6E090E606F090E3F
:100E8200616F626B010E636F060E006E6F0EE16E94
:100E9200000EE26E5E0EE96E000EEA6EEECFE6FF27
:100EA2000006FCE13E0E256E030E266E010E276E35
:100EB2003C0E286E290E0101206F000E216F06DD07
:020EC20012001C
:100EC4004A0E00018C6F070E8D6F200E8E6F010E7F
:100ED4008F6F580E906F170E916F000E926F000E69
:100EE400936FFF0E846FFF0E856F000E866F000EEA
:100EF400876F2C0E886F080E896F000E8A6F000EA4
:100F04008B6FAC8A900EAB6E948E949C9EAA03D089
:080F1400AECF00F0FBD7120084
:100F1C00720E0101206F280E216F000E226F38DD3A
:020F2C001200B1
:100F2E00720E0101206F300E216F000E226F2FDD29
:100F3E00290E0B6E960E0C6E7F0E0D6E0D2EFED7BD
:0E0F4E000C2EFCD70B2EFAD7206B6EDC120097
:100F5C0002C1FDF00001FD510101045D0CE301C172
:100F6C0020F103C121F1FDC022F105C123F157DDB0
:080F7C000001FD2BEFD712006C
:100F84000001FE51E11911E0060E006EE00EE16E63
:100F9400000EE26EFD0EE96E000EEA6EEECFE6FF85
:0E0FA4000006FCE1010E006E01D0006A120092
:100FB20001C1FDF002C1FEF00101056B066B045197
:100FC200065D02E10351055D15E22FDC0050010AC6
:100FD20010E105510001FD25E96E010106510001F4
:100FE200FE21EA6EEECF20F1A5EC03F00101054BE4
:0E0FF200062BE5D703C100F004C101F0120088
:101000000101126B136B146B156B166B176B186B5E
:10101000196B05510125006E06510221016E010E6A
:10102000005C026E000E0158036E000E006E03504D
:10103000005C02E102507F0807E201518008056F61
:1010400002C106F1000E065707510325006E085134
:101050000421016E010E005C026E000E0158036E49
:10106000000E006E0350005C02E102503F0807E2F0
:1010700003514008076F04C108F1000E085703C16F
:1010800000F004C101F001320032019E0132003251
:10109000019E01320032019E00C0FDF00751032580
:1010A000056E08510421066E010E055C036E000EEC
:1010B0000658046E03C000F004C001F00132003293
:1010C000019E01320032019E01320032019E00C0B9
:1010D000FEF0070E0315006E04C101F0000E0116AC
:1010E00000C000F1070E0514006E06C001F0000EEE
:1010F000011600C010F10C51085D02E10B51075DB3
:1011000003E2FEC011F11BD00B510325006E0C5100
:101110000421016E010E005C036E000E0158046E86
:1011200003C000F004C001F001320032019E013220
:101130000032019E01320032019E00C011F1070E03
:101140000B15016E0CC102F0000E0216000E021803
:1011500002E1000E011818E10BC100F00CC101F012
:1011600001320032019E01320032019E0132003212
:10117000019E09C104F00AC105F0BBEC00F000C0FB
:101180001CF101C01DF119D00BC100F00CC101F020
:1011900001320032019E01320032019E01320032E2
:1011A000019E004A012A09C104F00AC105F0BBEC06
:1011B00000F000C01CF101C01DF1FDC012F1000ED5
:1011C000136F000E006E1351005C03E11251000119
:1011D000FE5DD8A011D101011A6B1B6B146B156B4E
:1011E0000651155D02E10551145DD8B0F4D01451DB
:1011F0000125396F2CEC01F012C139F1E3EC00F05C
:101200000A51155D02E10951145D3FE2000E006EC6
:101210001351005C02E11251115D37E3000E131906
:1012200004E10001FD510101121902E11E6B12D00F
:1012300018511A25006E19511B21016E00500D2501
:10124000F66E01500E21F76E000E0F21F86E0900A8
:10125000F5CF1EF11D51175D02E11C51165D02E331
:101260001F6B12D016511A25006E17511B21016EEB
:1012700000500D25F66E01500E21F76E000E0F2165
:10128000F86E0900F5CF1FF102D01F6B1E6B1FC156
:10129000FFF0005100081CE200510808006E016ACE
:1012A000000E015A1EC1FFF0005005E00001FF339F
:1012B000FF9FFF0FFAD700C101F01FC100F00150DE
:1012C00004E000360090FF0FFBD700010050FF1331
:1012D000000E0101131904E10001FD510101121971
:1012E0002EE1005100082BE214510125396FEBEC7F
:1012F00000F0FEEC00F0FEEC00F000510808016E7A
:10130000026A000E025A01C002F0FF0E016E025086
:1013100004E00132019EFF0FFBD701500014026E62
:1013200000C101F0FF0E006E015004E00036009095
:10133000FF0FFBD700500001FF170250FF13000EF4
:101340000101131904E10001FE51010112192EE1FE
:10135000105100082BE214510125396FEBEC00F01D
:10136000FEEC00F0FEEC00F010C102F0FF0E016E8A
:10137000025004E001360190FF0FFBD7015000142A
:10138000026E10510808006E016A000E015A00C07A
:1013900001F0FF0E006E015004E00032009EFF0FCE
:1013A000FBD700500001FF170250FF1301010A5143
:1013B000155D02E10951145D02E21A4B1B2B145119
:1013C0000125396FEBEC00F0FFC039F125EC01F09D
:1013D000144B152B05D7000E135D02E11151125D60
:1013E00008E216C118F117C119F1095116270A515F
:0A13F0001723124B132BE5D6120051
:1013FA00FDC020F1640E0101216F000E226FACECDA
:10140A0003F0640E206F000E216F1DDC00C020F176
:10141A0001C021F10F0E226F070E236F010E246FF8
:10142A004ADCFEC020F1640E216F000E226FACEC84
:10143A0003F0640E206F000E216F05DC00C020F15E
:10144A0001C021F16B0E226F070E236F010E246F6C
:04145A0032DC12006E
:10145E00720E0101206F2C0E216F000E226FCEEC4A
:10146E0004F0290E0B6E960E0C6E7F0E0D6E0D2E69
:10147E00FED70C2EFCD70B2EFAD7206B1BEC04F0EC
:02148E0012004A
:0A1490000101206B1BEC04F01200B8
:10149A00040E006E200EE16E010EE26EFD0EE96E84
:1014AA00000EEA6EEECFE6FF0006FCE1040E006EC7
:1014BA00240EE16E010EE26E010EE96E010EEA6E75
:0E14CA00EECFE6FF0006FCE147EC03F0120057
:0614D800236A246A1200E1
:1014DE00190E0001F06F220EF16F030EF26FF36B17
:1014EE0016DD040E006E010EE16E010EE26EF00EC0
:1014FE00E96E000EEA6EEECFE6FF0006FCE1010E8D
:10150E00056F89DCF40E006E000E016E50DC030ECA
:10151E00006EED0EE16E000EE26EF40EE96E000E40
:10152E00EA6EEECFE6FF0006FCE10001EF5309E0A4
:10153E00EC51000A06E1A5DF020E006E000E016EF0
:10154E0091D00001ED5303E1EE5301E13DD0EC519A
:10155E00000A3AE1040E006E010EE16E010EE26E1B
:10156E00F00EE96E000EEA6EEECFE6FF0006FCE12D
:10157E000101056B50DC0E0E0001F125006E00C05E
:10158E00F1F0040E006E010EE16E010EE26EF00E31
:10159E00E96E000EEA6EEECFE6FF0006FCE1010EEC
:1015AE000101056F38DC010E0001EC6F070E0B6EAA
:1015BE00C20E0C6ED80E0D6E0D2EFED70C2EFCD755
:1015CE000B2EFAD700009ED7EF5309E0EC51010A1B
:1015DE0006E157DF030E006E000E016E43D00001D0
:1015EE00ED5303E1EE5301E13CD0EC51010A39E138
:1015FE00040E006E010EE16E010EE26EF00EE96E4B
:10160E00000EEA6EEECFE6FF0006FCE10101056B6F
:10161E0002DC0E0E0001F15D006E00C0F1F0040E52
:10162E00006E010EE16E010EE26EF00EE96E000E1E
:10163E00EA6EEECFE6FF0006FCE1010E0101056F3A
:10164E0012EC07F00001EC6B070E0B6EC20E0C6E67
:10165E00D80E0D6E0D2EFED70C2EFCD70B2EFAD7F4
:06166E00000050D712003D
:10167400830ED56E0B0ED76EDC0ED66EF28EF28A0A
:02168400120052
:10168600720E0101206F240E216F000E226FCEEC28
:1016960004F0290E0B6E960E0C6E7F0E0D6E0D2E3F
:0E16A600FED70C2EFCD70B2EFAD7EFDE12006B
:1016B4000900F5CFE6FF0006FBE10106F9E112009F
:1016C400ECC001F1EDC002F10001EE51EC25010185
:1016D400036F0001EF51ED250101046FF0C005F126
:0416E4003BDC1200D9
:1016E800ECC001F1000E0001ECBFFF0E0101026F1A
:1016F800EDC003F1000E0001EDBFFF0E0101046F04
:10170800EEC005F1000E0001EEBFFF0E0101066FED
:10171800EFC007F1000E0001EFBFFF0E0101086FD7
:10172800EEC009F1000E0001EEBFFF0E01010A6FC5
:10173800EFC00BF1000E0001EFBFFF0E01010C6FAF
:10174800F0C00DF1F1C00EF1F2C00FF155DC12003E
:10175800AECF01F0ABA202D0AB98AB8801C000F0CD
:0217680012006D
:10176A0000C0F4F001C0F5F0C80E01012F6FEBECD8
:10177A0001F000C0F7F00001F66B800E000A006E5F
:10178A00800E005C02E1F6510C0842E3F6C000F05C
:10179A00000E016E003600900136003600900136C8
:1017AA000050F225E96E0150F321EA6E040E006E34
:1017BA00FD0EE16E000EE26EEECFE6FF0006FCE1E2
:1017CA00040E006E010EE16E010EE26EEC0EE96E81
:1017DA00000EEA6EEECFE6FF0006FCE159DE00528B
:1017EA0014E05E0E0001EC6F370EED6F060E006E10
:1017FA00F4C0E1FFF5C0E2FFEC0EE96E000EEA6EFE
:10180A00EECFE6FF0006FCE18FD00001F62BB5D73C
:10181A00F751B90814E2F151ED25006E00C0EDF060
:10182A00060E006EF4C0E1FFF5C0E2FFEC0EE96EB1
:10183A00000EEA6EEECFE6FF0006FCE175D00F0E51
:10184A00F75D14E2F151ED5D006E00C0EDF0060E99
:10185A00006EF4C0E1FFF5C0E2FFEC0EE96E000E87
:10186A00EA6EEECFE6FF0006FCE15ED0F151ED5DD7
:10187A00016E01C0EDF0800E000A006E800E0118A4
:10188A00005C19E35E0EEC6F370EED6F222A21C061
:10189A00FDF022C0FEF0ACDD060E006EF4C0E1FFE2
:1018AA00F5C0E2FFEC0EE96E000EEA6EEECFE6FF3F
:1018BA000006FCE139D00001EF05006E000EEFBF13
:1018CA00FF0E016E000E015AED510024026E000E49
:1018DA00EDBFFF0E0120036E800E0318006E800E0E
:1018EA00005C02E13F0E025C11E3370EED6F060E5B
:1018FA00006EF4C0E1FFF5C0E2FFEC0EE96E000EE7
:10190A00EA6EEECFE6FF0006FCE10ED0060E006E90
:10191A00F4C0E1FFF5C0E2FFEC0EE96E000EEA6EDC
:0A192A00EECFE6FF0006FCE112001C
:10193400B886B06ACF0EAF6EAC8462EC07F0020ECC
:101944000B6E040E0C6EBA0E0D6E0D2EFED70C2E01
:10195400FCD70B2EFAD700009D8AF28CF28E12006F
:10196400B9DD97EC06F000C0ECF001C0EDF0000E1C
:10197400011802E1010E001810E11B0E0101016FB4
:10198400000E026F020E036F000E046FD9EC07F015
:10199400020E006E000E016E18D0000E0001ED194B
:1019A40002E1020EEC1905E1010E006E000E016E5B
:1019B4000CD0190E0101016F000E026F020E036FAD
:0C19C400000E046FD9EC07F0CCD7120025
:1019D0005EEC04F0800E0118026E800E000A025CBC
:1019E00002E1080E005C1FE3EC0E0101206F000E07
:1019F000216F020E226F000E236F45EC04F00001F0
:101A0000ED511F1802E11E50EC190CE1690E0101A5
:101A1000206F000E216F060E226F000E236F45EC23
:081A200004F0D6D759DD1200D5
:101A2800010E0001EC25E96E000EED21EA6E800E34
:101A3800EE18006E800E3F0A005C14E32150225C11
:101A480008E297EC07F029EC07F0010E00017C6F23
:101A580009D02250215C06E2FEDC29EC07F0010ED9
:101A680000017C6F205214E0010EEC25016E000E7F
:101A7800ED21026E01C0E9FF02C0EAFFEECF00F0DF
:101A8800002A01C0E1FF02C0E2FF00C0E6FF206AB1
:021A980012003A
:101A9A00ECC020F10001EE51EC250101216FEDC0EF
:0C1AAA0022F1F0C023F115EC05F0120051
:101AB60000C0F4F001C0F5F0FA0E006E000E016EE3
:101AC600DEEC06F0030E006EF60EE16E000EE26E20
:101AD600FA0EE96E000EEA6EEECFE6FF0006FCE1B6
:101AE6000001F96B800E000A006E800E005C02E1B8
:101AF600F9510C0842E3F9C000F0000E016E003601
:101B0600009001360036009001360050F225E96E4D
:101B16000150F321EA6E040E006EFD0EE16E000E1A
:101B2600E26EEECFE6FF0006FCE1040E006E010E4B
:101B3600E16E010EE26EEC0EE96E000EEA6EEECF7D
:101B4600E6FF0006FCE1A6DC005214E0200E0001D0
:101B5600EC6F370EED6F060E006EF4C0E1FFF5C0B8
:101B6600E2FFEC0EE96E000EEA6EEECFE6FF00062F
:101B7600FCE16BD00001F92BB5D7F75321E0F15109
:101B8600ED25026E02C0EDF0EF05006E000EEFBF10
:101B9600FF0E016E000E015A02500024026E000E66
:101BA60002BEFF0E0120036E800E0318006E800E2B
:101BB600005C02E13F0E025C02E3370EED6F37D0A8
:101BC600F65326E0F151ED5D016E01C0EDF0800E99
:101BD600000A006E800E0118005C19E3200EEC6FFF
:101BE600370EED6F212A21C0FDF022C0FEF002DC87
:101BF600060E006EF4C0E1FFF5C0E2FFEC0EE96EE2
:101C0600000EEA6EEECFE6FF0006FCE11ED00FD016
:101C1600060E006EF4C0E1FFF5C0E2FFEC0EE96EC1
:101C2600000EEA6EEECFE6FF0006FCE10ED0060ED1
:101C3600006EF4C0E1FFF5C0E2FFEC0EE96E000EA7
:0C1C4600EA6EEECFE6FF0006FCE11200A3
:101C5200046A800E000A006E800E005C02E10450ED
:101C62000C08D8A09AD0010E0414016E0150010A8A
:101C72004AE104C000F0000E016E00360090013609
:101C820000360090013600500001EC25E96E01504B
:101C9200ED21EA6EEECF01F0800E000A006E800E9A
:101CA2000118005C12E304C000F0000E016E003661
:101CB200009001360036009001360050EC25E16EAE
:101CC2000150ED21E26E7C0EE66E04C000F0000EC3
:101CD200016E003600900136003600900136005049
:101CE200EC25026E0150ED21036E02C0E9FF03C034
:101CF200EAFFEECF00F0000602C0E1FF03C0E2FF00
:101D020000C0E6FF48D0000104C000F0000E016EE2
:101D12000036009001360036009001360050EC2566
:101D2200E96E0150ED21EA6EEECF01F0800E01184E
:101D3200006E800E7C0A005C11E304C000F0000E0D
:101D4200016E0036009001360036009001360050D8
:101D5200EC25E16E0150ED21E26EE66A04C000F06E
:101D6200000E016E003600900136003600900136FA
:101D72000050EC25026E0150ED21036E02C0E9FF16
:101D820003C0EAFFEECF00F0002A02C0E1FF03C069
:0C1D9200E2FF00C0E6FF042A5CD712004C
:101D9E0000019B6B946B956B939A93989394939687
:101DAE00939093928A9A120E006E000E016E830E1D
:101DBE000024E16E0F0E0120E26EE66A8A948A9686
:101DCE008A908A828A8A3F0E836EB3EC00F0C00E30
:101DDE00836EB3EC00F08A808A923F0E836EB3EC72
:0C1DEE0000F0C00E836EB3EC00F0120099
:101DFA0000017551010A25E1060E006EFD0EE16E25
:101E0A00000EE26E760EE96E000EEA6EEECFE6FF87
:101E1A000006FCE1C2EC07F01E0E0101016F000E84
:101E2A00026F020E036F000E046FD9EC07F0760EF4
:101E3A00016F000E026F060E036F000E046FD9ECDD
:101E4A0007F000017551020A25E1060E006EFD0E2B
:101E5A00E16E000EE26E6F0EE96E000EEA6EEECFD4
:101E6A00E6FF0006FCE1C2EC07F01E0E0101016F5D
:101E7A00000E026F020E036F000E046FD9EC07F01A
:101E8A006F0E016F000E026F060E036F000E046FD5
:061E9A00D9EC07F0120074
:101EA00000C002F001C003F0060E006E02C0E1FFA8
:101EB00003C0E2FF690EE96E000EEA6EEECFE6FFA8
:061EC0000006FCE1120027
:101EC60041EC1BF000017C6B29EC07F00F0EC16E94
:101ED60063DF2DDD3AEC0BF0B5D243EC0BF0010ECF
:101EE60000017C6FC1D25DC0ECF06FEC0AF000C05F
:101EF6007CF0BAD229EC07F048EC0AF021C0FDF0DC
:101F060022C0FEF0FDEC09F0F28A250E0001EC6F0E
:101F1600000EED6F86DD7C51010A03E148EC0AF004
:101F260032D1060E006EEC0EE16E000EE26E760EFB
:101F3600E96E000EEA6EEECFE6FF0006FCE1290E22
:101F46000001F26F000EF36FE60E006E000E016EDA
:101F5600AFDD060E006E760EE16E000EE26EE60E48
:101F6600E96E000EEA6EEECFE6FF0006FCE1290EF2
:101F76000001EC6F000EED6F69DE060E006EEC0ED2
:101F8600E16E000EE26E5E0EE96E000EEA6EEECFB8
:101F9600E6FF0006FCE1290E0001F26F000EF36F6A
:101FA600E60E006E000E016EB5EC0BF0060E006E2E
:101FB6005E0EE16E000EE26EE60EE96E000EEA6E51
:101FC600EECFE6FF0006FCE1040E006EEC0EE16EBD
:101FD600000EE26E250EE96E000EEA6EEECFE6FF0B
:101FE6000006FCE1010E0001F06F62EC0BF0040E3E
:101FF600006EEC0EE16E000EE26E5E0EE96E000EF5
:10200600EA6EEECFE6FF0006FCE1640E0001F06F1B
:10201600360EF16F000EF26F74EC0BF0040E006ECC
:10202600EC0EE16E000EE26E760EE96E000EEA6EC2
:10203600EECFE6FF0006FCE1640E0001F06F360EFF
:10204600F16F000EF26F74EC0BF00001966B800ED0
:10205600000A006E800E005C02E196510C0821E336
:1020660096C000F0000E016E003600900136003674
:1020760000900136290E0024E96E000E0120EA6E5A
:10208600040E006EEC0EE16E000EE26EEECFE6FF81
:102096000006FCE10001010EF06FFCDC0001962B4E
:1020A600D6D79C0E0C6ED70E0D6E0D2EFED70C2EAF
:1020B600FCD7966B800E000A006E800E005C02E173
:1020C60096510C081FE396C000F0000E016E003614
:1020D60000900136003600900136290E0024E96E84
:1020E600000E0120EA6E040E006EEC0EE16E000E8C
:1020F600E26EEECFE6FF0006FCE1F06BCBDC000102
:10210600962BD8D7040E006EEC0EE16E000EE26E32
:10211600250EE96E000EEA6EEECFE6FF0006FCE144
:102126000001F06B62EC0BF0040E006EEC0EE16E3B
:10213600000EE26E760EE96E000EEA6EEECFE6FF58
:102146000006FCE1520E0001F06F360EF16F000E34
:10215600F26F74EC0BF0040E006EEC0EE16E000EE6
:10216600E26E5E0EE96E000EEA6EEECFE6FF000648
:10217600FCE1520E0001F06F360EF16F000EF26FA9
:1021860074EC0BF0C2D670D129EC07F048EC0AF0DB
:10219600F29AB2EC0CF000C075F06CEC0AF0150E79
:1021A6000B6E4B0E0C6EBE0E0D6E0D2EFED70C2E4C
:1021B600FCD70B2EFAD700001DDE07DC0001755197
:1021C600010A6BE1060E006EEC0EE16E000EE26E89
:1021D6006F0EE96E000EEA6EEECFE6FF0006FCE13A
:1021E600E60E006E000E016E58DE060E006E6F0ED5
:1021F600E16E000EE26EE60EE96E000EEA6EEECFBE
:10220600E6FF0006FCE1E60E006E000E016EDEEC57
:1022160006F0030E006E970EE16E000EE26EE60EFD
:10222600E96E000EEA6EEECFE6FF0006FCE1000165
:10223600975305E07705006E00C077F007D09853F6
:1022460005E07751010F006E00C077F0060E006EB4
:10225600FD0EE16E000EE26E760EE96E000EEA6E7F
:10226600EECFE6FF0006FCE1C2EC07F0005215E0F7
:102276001E0E0101016F000E026F020E036F000EAB
:10228600046FD9EC07F0760E016F000E026F060E92
:10229600036F000E046FD9EC07F000017551020AB6
:1022A6006BE1060E006EEC0EE16E000EE26E760E2F
:1022B600E96E000EEA6EEECFE6FF0006FCE1E60EE2
:1022C600006E000E016EE9DD060E006E760EE16E02
:1022D600000EE26EE60EE96E000EEA6EEECFE6FF47
:1022E6000006FCE1E60E006E000E016EDEEC06F066
:1022F600030E006E970EE16E000EE26EE60EE96EBC
:10230600000EEA6EEECFE6FF0006FCE100019753F1
:1023160005E07005006E00C070F007D0985305E028
:102326007051010F006E00C070F0060E006EFD0EBB
:10233600E16E000EE26E6F0EE96E000EEA6EEECFF3
:10234600E6FF0006FCE1C2EC07F0005215E01E0EA7
:102356000101016F000E026F020E036F000E046F83
:10236600D9EC07F06F0E016F000E026F060E036FB9
:10237600000E046FD9EC07F0040E006EEC0EE16E51
:10238600000EE26E6F0EE96E000EEA6EEECFE6FF0D
:102396000006FCE1640E0001F06F360EF16F000ED0
:1023A600F26F74EC0BF0040E006EEC0EE16E000E94
:1023B600E26E760EE96E000EEA6EEECFE6FF0006DE
:1023C600FCE1640E0001F06F360EF16F000EF26F45
:1023D60074EC0BF0750E0C6EE10E0D6E0D2EFED725
:1023E6000C2EFCD7040E006EEC0EE16E000EE26EB3
:1023F600760EE96E000EEA6EEECFE6FF0006FCE111
:10240600520E0001F06F360EF16F000EF26F74EC93
:102416000BF0040E006EEC0EE16E000EE26E6F0E17
:10242600E96E000EEA6EEECFE6FF0006FCE1520E04
:102436000001F06F360EF16F000EF26F74EC0BF0C8
:10244600BCD612D000017C51000AD8B446D57C51C6
:10245600010AD8B448D57C51020AD8B44BD57C5170
:0C246600030AD8B491D6EDD737D5FFD7C4
:1036820010EE19F00C0E006E010E016E760EF66E43
:0E369200360EF76E000EF86E5AEC0BF01200BA
:102472000000000000000000FFFFFF8787878787BA
:10248200878787000000FFFFFF0707070707FFFF97
:10249200FF0000FFFFFF878787FFFFFF0000FFFFAE
:1024A200FFFF0707070707070700FFFFFF87878769
:1024B2000707000000000000FFFFFF0707070707EC
:1024C200070707F8F8F80000FFFFFF878787FFFF7D
:1024D200FF0000FFFFFF070707070700FFFFFF8757
:1024E2008787870707000000000000000000000047
:1024F2000000000000000000C3C3C3C3C3C3C3FF86
:10250200FFFFFF000000FFFFFF070707070707079E
:10251200070000FFFFFF030303FFFFFF0000FFFFB1
:10252200FFFFC0C0C0C0C0C0C000FFFFFFC3C3C325
:10253200C0C0000000000000FFFFFF0E0E0E7E7EF6
:102542007E7ECEC1C1010000FFFFFF030303FFFF38
:10255200FF0000FFFFFFC0C0C0C0C000FFFFFFC3FD
:10256200C3C3C3C0C00000000000000000000000A0
:10257200000000000000000001010101E1E1018111
:1025820081C1E160000001616160E0E060606000C3
:1025920000E0E00101C1C0C0C0C1C10100C0C1C1B1
:1025A200C1C1C1C10101E1E1C10001E1E1010101DA
:1025B2000101000000C0C0C0C1C1C10000C0C0C054
:1025C200C0C0C1C101C0C0C0C1C1C100C0C0C1C181
:1025D200C1C000E1E1C10101E1E101C0C1C1C1C16C
:1025E200C1C10101C1C0C0C0C000000000000000A4
:1025F2000000000000000000000000007F7F070FC5
:102602000F1D38787000006060607F7F000000005E
:10261200007F7F00007F7F0C1E7F7700007F7F603E
:1026220060607F7F00007F7F030F3C7F7F000000A0
:1026320060600000007F7F0C1E7F7700007F7F6656
:1026420066667F3F007F7F0C1E7F77007F7F66601C
:102652006060007F7F030F3C7F7F007F7F6660604A
:10266200606000006F6F6C7D7D0000000000000064
:1026720000000000000000000000606060E0E06018
:1026820060606000E0E06060E0E000E0E000000028
:10269200E0E000000000E0E06060606000E0E06018
:1026A2006060E0E000000000E0E060606060000068
:1026B200E0E0C00080C0E0E00000E0E06060E0E058
:1026C200E000E0E06060606000E0E06060E0E000A8
:1026D20000E0E00000E0E0E0E0C00000E0E0606078
:1026E20060E0E000E0E060E0E000000000000000E8
:1026F200000000000000000000000000003F3F005A
:10270200000000003F3F06063F3F003F3F303000E1
:102712003F3F303000003F3F33303030003F3F0614
:10272200060F3F3B000000003F3F333030300000D7
:102732003F3F030707013F3F00003F3F33333F1F47
:102742001F003F3F33303030003F3F33333F1F00E5
:10275200003F3F00003F3F30391F0F003F3F303006
:10276200303F3F003737363E3E0000000000000099
:102772000000000000000000000000000000000057
:102782000000000000000000000000000000000047
:10279200000000000000000000F8F8D81818180027
:1027A2000000F8F898D8F8F80000FCFC00007C7CE7
:1027B200C0C000C0E07C7C0000F8F8D818181800EF
:1027C20000F8F898D8F8F800F8F89898F8F80000A7
:1027D20000000000000000000000000000000000F7
:1027E20000000000000000000000000000000000E7
:1027F20000000000000000000000000000000000D7
:1028020000000000000000000000000000000000C6
:102812000000000000000000000F0F0C0C0C0C0068
:1028220000000F0F01030F0E00000F0F0000000049
:10283200030F0C0F03000000000F0F0C0C0C0C0018
:10284200000F0F01030F0E000F0F01010F0F000009
:102852000000000000000000000000000000000076
:102862000000000000000000000000000000000066
:10287200000000000000000000000000FCFCFC1C46
:102882001C1C1C1C1C1C1C000000FCFCFC1C1C1C3A
:102892001C1CFCFCFC0000FCFCFC1C1C1CFCFCFCCE
:1028A200FC0000FCFCFC1C1C1C1C1C1C1C00FCFC7A
:1028B200FC1C1C1C1C1C000000000000FCFCFC1C7E
:1028C2001C1C1C1C1C1C1CE0E0E00000FCFCFC1C92
:1028D2001C1CFCFCFC0000FCFCFC1C1C1C1C1C004A
:1028E20000FCFCFC1C1C1C1C1C0000000000000066
:1028F2000000000000000000000000000F0F0F0E9B
:102902000E0E0E0EFEFEFE000000FFFFFF1C1C1C42
:102912001C1C1F1F1F0000FFFFFF0E0E0EFFFFFFFC
:10292200FF0000FFFFFF0000000000000000FFFFAB
:10293200FF0E0E0E0000000000000000FFFFFF3837
:10294200383838F8F8F8380707070000FFFFFF0E9D
:102952000E0EFFFFFF0000FFFFFF0000000000005F
:1029620000FFFFFF0E0E0E0000000000000000003E
:102972000000000000000000000000000707070739
:1029820007070707070707000000070707000000FF
:10299200000000000000000707070000000707070B
:1029A20007000007070707070707070707000707CA
:1029B20007070707070700000000000007070700D6
:1029C20000000001010107070700000007070700D8
:1029D20000000707070000070707070707070700A8
:1029E20000070707070707070700000000000000AD
:1029F20000000000000000000000000000000000D5
:102A020000000000000000000000000000000000C4
:102A1200000000000000C0C0C0C0000000000000B4
:102A220000E0E0606060E0E00000E0E00000000044
:102A3200E0E0606060E0E00000E0E00000E0E00074
:102A420000E0E0606060600000E0E06060E0E00004
:102A52000000000000000000000000000000000074
:102A62000000000000000000000000000000000064
:102A72000000000000000000000000000000000054
:102A82000000000000000000000000000000000044
:102A920000000000000060607F7F606000000000B6
:102AA200007F7F060606070700007F7F60606000E8
:102AB2007F7F0606067F7F000001037F7F03010000
:102AC200007F7F6660606000007F7F0C1E7F730066
:102AD20000000000000000000000000000000000F4
:102AE20000000000000000000000000000000000E4
:102AF20000000000000000000000000000000000D4
:102B020000000000000000000000000000000000C3
:102B1200000000000000B0B0B0B0F0F00000000013
:102B220000F8F8989898F8F80000F8F8000000000B
:102B3200F8F8989898F8F8000078F8C0C0F878008B
:102B420000F8F8981818180000F8F81898F8F80023
:102B5200F8F8989898980000000000000000000023
:102B62000000000000000000000000000000000063
:102B72000000000000000000000000000000000053
:102B82000000000000000000000000000000000043
:102B92000000000000000F0F0D0D0D0D00000000E1
:102BA200001F1F010101010100001F1F181818005A
:102BB2001F1F0101011F1F000000001F1F00000056
:102BC200001F1F1918181800001F1F03071F1C00E1
:102BD2000D0D0D0D0F0F00000000000000000000A1
:102BE20000000000000000000000000000000000E3
:102BF20000000000000000000000000000000000D3
:102C020000000000000000000000000000000000C2
:102C120000000000000000000000000000000000B2
:102E0200000000000000000000E0F0D01010107080
:102E12006000C0E0301010F0E0C000F0F0E0C0C090
:102E2200F0F0F00010F0F09090B0301000000000D0
:102E3200000000000000F0F0101010F0F00010F0A0
:102E4200F0000000F0F00000F0F0F09090B03000E0
:102E520010F0F0F09090F0E00000000000000000A0
:102E62000000000000000000000000000000000060
:102E72000000000000000000000000000000000050
:102E8200000000000000000000070F0F08080B0FF1
:102E920007000F0F0303030F0F0F000F0F000300B4
:102EA2000F0F0F00080F0F09090D0C08000000009A
:102EB2000000000000000F0F0808080F0F000103B8
:102EC200070E0C06070300080F0F0F09090D0C006F
:102ED200080F0F0F03070F0C000000000000000096
:102EE20000000000000000000000000000000000E0
:102EF20000000000000000000000000000000000D0
:102F020000000000000000000000000000000000BF
:102F120000000000000000000000000000000000AF
:1031A2000000808080808080F0F0F0F0F0F0F0F09D
:1031B200F0F0F0F0F0F0F0F080808080808000008D
:1031C20000000000000000000000000000000000FD
:1031D20000000000000000000000000000000000ED
:1031E20000000000000000000000000000000000DD
:1031F20000000000000000000000000000000000CD
:1032020000000000000000000000000000000000BC
:1032120000000000000000000000000000000000AC
:10322200000001010104040607070F8F0FFFFFFFD3
:10323200FFFFFF0F8F0707070404040001010000CE
:10324200000000000000000000000000000000007C
:10325200000000000000000000000000000000006C
:10326200000000000000000000000000000000005C
:10327200000000000000000000000000000000004C
:10328200000000000000000000C0C00000000000BC
:1032920000C0C0C0C000808040404040C0C08080AC
:1032A2000000C0C0000000C0C0C0C000000000009C
:1032B20000C0C00000000000C0C0C0C00000C0C00C
:1032C200C0C00000C0C08080000000C0C0C0C000FC
:1032D20000C0C0C0C00000000000000000000000EC
:1032E20000000000000000000000000000000000DC
:1032F20000000000000000000000000000000000CC
:10330200000000000000000000010102021E1E1F5A
:103312001F0303010100070F081010101F1F0F0FDA
:1033220000000F0F1010101F1F0F0F0000000000F1
:10333200000F0F10000E0E101F1F0F0F00001F1F97
:103342001F1F00001F0F00000101020F1F1F1F009F
:10335200001717171700000000000000000000000F
:10336200000000000000000000000000000000005B
:10337200000000000000000000000000000000004B
:10338200000000000000000000000000000000003B
:10339200000000000000000000000000000000002B
:1033A200000000000000000000000000000000001B
:1033B200000000000000000000000000000000000B
:1033C20000000000000000000000000000000000FB
:1033D20000000000000000000000000000000000EB
:1033E20000000000000000000000000000000000DB
:1033F20000000000000000000000000000000000CB
:1034020000000000000000000000000000000000BA
:1034120000000000000000000000000000000000AA
:10342200000000000000000000000000000000009A
:10343200000000000000000000000000000000008A
:10344200000000000000000000000000000000007A
:10345200000000000000000000000000000000006A
:10346200000000000000000000000000000000005A
:10347200000000000000005F0000000700070014C9
:103482007F147F14242A7F2A122313086462364988
:103492005522500005030000001C22410000412279
:1034A2001C00082A1C2A0808083E080800503000A0
:1034B2000008080808080030300000201008040244
:1034C2003E5149453E00427F4000426151494621FA
:1034D20041454B311814127F1027454545393C4A66
:1034E20049493001710905033649494936064949B6
:1034F200291E00363600000056360000000814224D
:103502004114141414144122140800020151090632
:10351200324979413E7E1111117E7F494949363E39
:10352200414141227F4141221C7F494949417F0952
:103532000901013E414151327F0808087F00417F65
:1035420041002040413F017F081422417F4040401A
:10355200407F0204027F7F0408107F3E4141413ECA
:103562007F090909063E4151215E7F091929464614
:103572004949493101017F01013F4040403F1F203D
:1035820040201F7F2018207F6314081463030478EF
:103592000403615149454300007F41410204081080
:1035A2002041417F000004020102044040404040AB
:1035B200000102040020545454787F4844443838AF
:1035C20044444420384444487F3854545418087EB4
:1035D200090102081454543C7F0804047800447D15
:1035E20040002040443D00007F10284400417F40BD
:1035F200007C041804787C08040478384444443875
:103602007C14141408081414187C7C080404084858
:1036120054545420043F4440203C4040207C1C2011
:1036220040201C3C4030403C44281028440C505060
:10363200503C4464544C44000836410000007F0072
:1036420000004136080008082A1C08081C2A08083D
:103652000000000000000000000000000000000068
:02366200000066
:1036640080C0E4F6FFF6E4C0800000000100010021
:02367400000054
:02367600669656
:02367800679653
:01367A00004F
:02367B0069964E
:01367D00004C
:01367E00004B
:01367F00004A
:013680000049
:013681000048
:020000040030CA
:0E000000010C1F1EFF8381FF0FC00FE00F4099
:00000001FF
