:0400000084EF01F098
:1000080000C015F0F2A40CD0F2940B0ED76EDC0EE3
:10001800D66E162A020E165C03E3010E176E166AD8
:0600280015C000F01100FC
:0C002E00060E0D6E0D2EFED70000120015
:0A003A00F9DF8A88F7DF8A981200C8
:06004400000000001200A4
:10004A007F0E3514016E01C035F001AC03D08A80F1
:0A005A008A9202D08A908A82120076
:0E0064008A948A96B80E3510836EE5DF12007E
:0E0072008A988A848A9635C083FFDEDF1200EA
:10008000120E006E000E016E830E0024E16E0F0E44
:100090000120E26EFF0EE66ED5DFD4DF8A848A98F7
:1000A0008A868A88C4DF83CF35F08A988A96CADF29
:1000B000C9DF120E006E000E016E830E0024E16E89
:0E00C0000F0E0120E26EE66A35C000F012005D
:1000CE007F0E3514006E00C035F08A948A96BF0EEE
:1000DE00001600C035F0008C00C035F000C083FF64
:0400EE00A5DF120078
:1000F200000E2F5C0AE32F507F0807E3000E305CEE
:1001020004E330503F0801E301D04AD02FC035F05C
:100112009BDF30C035F03532359E3532359E353273
:10012200359E9FDF2FC035F0D1DFA9DF00C034F04C
:10013200A6DF00C034F030C035F03532359E35329E
:10014200359E3532359E8DDF2FC035F0BFDF070E6D
:100152003014006E00C032F000C001F0010E006EDB
:10016200015004E000360090FF0FFBD700C032F0D0
:10017200001C336E09D0335034160FD03250341273
:100182000CD03250341A09D03150000AF4E0315008
:10019200010AF4E03150020AF4E034C035F068DFBD
:0201A200120049
:1001A400000E2C5C04E32C503F0801E301D027D05F
:1001B400000E2A5CD8A02A6A2A507F0802E27F0E29
:1001C4002A6E000E2B5CD8A02B6A2B507F0802E20B
:1001D4007F0E2B6E2A502B5C06E22AC02EF02BC019
:1001E4002AF02EC02BF02A502B5C09E32AC02FF0F2
:1001F4002CC030F02DC031F07ADF2A2AF4D7120057
:1002040025C029F02950275C0BE324C02AF026C01E
:100214002BF029C02CF028C02DF0C2DF292AF2D7F8
:020224001200C6
:100226001A6A186A196A939A939893949396939074
:1002360093928A9A120E006E000E016E830E0024AF
:10024600E16E0F0E0120E26EE66A8A948A968A9023
:100256008A828A8A3F0E836EEDDEC00E836EEADEE8
:100266008A808A923F0E836EE5DEC00E836EE2DEE2
:02027600120074
:100278000900F5CFE6FF0006FBE10106F9E11200EF
:100288008A908A82216A215007080EE321C035F03E
:10029800E5DE206A20503F0805E31FC035F0E5DEA3
:1002A800202AF8D7212AEFD78A928A80216A2150FA
:1002B80007080EE321C035F0D1DE206A20503F0840
:1002C80005E31FC035F0D1DE202AF8D7212AEFD761
:0202D800120012
:1002DA00830ED56E0B0ED76EDC0ED66EF28EF28AB8
:0202EA00120000
:1002EC001FC024F020C025F021501F24266E225060
:0C02FC002024276E23C028F07FDF1200B2
:10030800166A176A3E0E1B6E030E1C6E010E1D6EDA
:100318003C0E1E6E84DF1F6AB3DF040E006E1F0ED4
:10032800E16E000EE26E1B0EE96E000EEA6EEECF75
:10033800E6FF0006FCE1010E236ED4DFCADF040EDF
:10034800006E1F0EE16E000EE26E1B0EE96E000ECF
:10035800EA6EEECFE6FF0006FCE1236AC3DF800EFB
:100368001C18006E800E3F0A005C02E3170E1C6E1C
:10037800175206E01C50010F006E00C01CF0176AEF
:10038800040E006E1F0EE16E000EE26E1B0EE96E8B
:10039800000EEA6EEECFE6FF0006FCE1010E236ECA
:1003A800A1DF9C0E0C6ED70E0D6E0D2EFED70C2EF7
:0603B800FCD7C5D7FFD7FA
:020000040030CA
:0E000000000C1F1EFF8381FF0FC00FE00F409A
:00000001FF
