:0400000094EF0CF07D
:1000080000C016F001C015F0E1CF17F0E2CF18F0EC
:100018009DAA28D02E502F5C006E016A000E015A4E
:1000280000C014F12F50000806E201011451000A23
:1000380002E10BEC05F00101410E156F000E166F81
:100048002F501527D8B0162B00EC0AF015C1E1FF88
:1000580016C1E2FF00C0E6FF2F2A2F50400A02E136
:100068000BEC05F0F2A40CD0F2940B0ED76EDC0E5C
:10007800D66E302A020E305C03E3010E316E306A10
:1000880016C000F015C001F017C0E1FF18C0E2FF6C
:02009800110055
:0C009A00060E0D6E0D2EFED700001200A9
:0A00A600F9DF8A88F7DF8A9812005C
:0600B00000000000120038
:1000B600120E006E000E016E830E0024E16E0F0E0E
:1000C6000120E26EFF0EE66EF0DFEFDF8A848A988B
:1000D6008A868A88DFDF83CF13F18A988A96E5DFDE
:1000E600E4DF120E006E000E016E830E0024E16E38
:0E00F6000F0E0120E26EE66A13C100F0120048
:0E0104008A988A848A9613C183FFCBDF12008B
:100112007F0E01011315016E01C013F101AC03D072
:0C0122008A808A9202D08A908A821200A1
:10012E008A948A96B80E01011311836EB5DF120000
:10013E007F0E01011315006E00C013F18A948A968A
:10014E00BF0E001600C013F1008C00C013F100C0EA
:06015E0083FFA2DF120086
:10016400220E0C6E086A096A0A6A0B6A0C06D8B475
:100174001FD0D8900B320A320932083203320232CD
:1001840001320032D8A0F2D70C06D8B409D00450FA
:1001940008260550092206500A2207500B22EAD7E6
:1001A400045008260550092206500A2207500B2243
:0201B400120037
:1001B6000B6A0A6A096A00500402F4CF09F0F3CF09
:1001C60008F001500502F4CF0BF0F3CF0AF000500F
:1001D6000502F3500926F4500A22E86A0B22015060
:1001E6000402F3500926F4500A22E86A0B2208C0DA
:1001F60000F009C001F00AC002F00BC003F01200C3
:10020600000E01010D5D0AE30D517F0807E3000EA4
:100216000E5D04E30E513F0801E301D04AD00DC143
:1002260013F174DF0EC113F11333139F1333139FAE
:100236001333139F79DF0DC113F17EDF39DF00C061
:1002460012F136DF00C012F10EC113F11333139F02
:100256001333139F1333139F67DF0DC113F16CDF45
:10026600070E0E15006E00C010F100C001F0010E61
:10027600006E015004E000360090FF0FFBD700C06F
:1002860010F1001C116F09D0115112170FD0105127
:1002960012130CD01051121B09D00F51000AF4E0B2
:1002A6000F51010AF4E00F51020AF4E012C113F1F2
:0402B60026DF12002D
:1002BA00086A080E0C6E003408360450085ED8B07E
:0E02CA0002D00826D89000360C2EF5D7120070
:1002D80001010551070801E28AD00001845101019A
:1002E800035D006E85C001F0000E01563FC004F0AA
:1002F800000E056E5CDF00C00BF101C00CF104C1FB
:1003080013F119DF05C113F10EDF076B3F50075DCD
:100318004FE204517F0801E26AD004C113F1F5DE0F
:1003280005C113F100DF04C113F105DFC0DE00C011
:1003380008F1BDDE00C008F104C113F1E6DE05C115
:1003480013F1F1DE04C113F1F6DE0B51000186252D
:10035800F66E01010C5100018721F76E000E0101B4
:100368000CBFFF0E00018821F86E0900F5CF00F0E0
:1003780000C009F101010B4B0C2B001C0A6F09D0BE
:100388000AC108F10FD009C108F10CD00951081BA6
:1003980009D00651000AF4E00651010AF4E00651BA
:1003A800020AF4E008C113F1A9DE042B072BAED72B
:1003B80004C113F1AADE05C113F1B5DE04C113F1BE
:1003C800BADEFF0E096F0A6B0CD009C108F109C12A
:1003D80013F194DE0CD00AC108F10AC113F18EDEC4
:1003E80006D00651000AF1E00651010AF4E01200B5
:0E03F800ACB202D00000FCD703C1ADFF120072
:1004060005C104F006C105F003C102F004C103F002
:1004160007C100F008C101F0010E0101075F000EDF
:10042600085B005001100FE004C0E9FF05C0EAFFB9
:1004360002C0E1FF03C0E2FFEECFE6FF024A032A55
:10044600044A052AE5D703C100F004C101F01200F1
:10045600000E0101055D04E305513F0801E301D0EB
:1004660027D0000E035DD8A0036B03517F0802E27C
:100476007F0E036F000E045DD8A0046B04517F0845
:1004860002E27F0E046F0351045D06E203C107F129
:1004960004C103F107C104F10351045D09E303C17B
:1004A6000DF105C10EF106C10FF1AADE032BF4D73B
:0204B600120032
:1004B8000101066B030E065D0AE206510425E16E92
:1004C800000E0521E26E200EE66E062BF3D70651CC
:1004D8000425E16E000E0521E26EE66A0607065164
:1004E8000425076F000E0521086F0A0E046E03C16C
:1004F80000F0DFDE08C000F0300E002607C1E1FF83
:1005080008C1E2FF00C0E6FF0A0E046E03C100F056
:10051800D0DE00C003F10050000A01E102D0060756
:04052800DED7120008
:10052C000B6A0A6A096A086A0E6A033408360450B0
:10053C00085E0550D8A0053C095E0650D8A0063CC4
:10054C000A5E0750D8A0073C0B5EE86AD8A0010EE3
:10055C000E5E0336070E0C6E0334083609360A3667
:10056C000B360E36045003A012D0085E0550D8A0EE
:10057C00053C095E0650D8A0063C0A5E0750D8A080
:10058C00073C0B5EE86AD8A0010E0E5E11D008265F
:10059C000550D8B0053C09260650D8B0063C0A26B2
:1005AC000750D8B0073C0B26E86AD8B0010E0E26CF
:1005BC0003360C2ED1D70234083609360A360B36E0
:1005CC000E36045003A012D0085E0550D8A0053C8E
:1005DC00095E0650D8A0063C0A5E0750D8A0073C1E
:1005EC000B5EE86AD8A0010E0E5E11D008260550ED
:1005FC00D8B0053C09260650D8B0063C0A26075050
:10060C00D8B0073C0B26E86AD8B0010E0E2602368D
:10061C00070E0C6E0234083609360A360B360E36C7
:10062C00045002A012D0085E0550D8A0053C095E0B
:10063C000650D8A0063C0A5E0750D8A0073C0B5EBB
:10064C00E86AD8A0010E0E5E11D008260550D8B06D
:10065C00053C09260650D8B0063C0A260750D8B0EF
:10066C00073C0B26E86AD8B0010E0E2602360C2E7B
:10067C00D1D70134083609360A360B360E360450FB
:10068C0002A012D0085E0550D8A0053C095E0650A9
:10069C00D8A0063C0A5E0750D8A0073C0B5EE86A5F
:1006AC00D8A0010E0E5E11D008260550D8B0053C1E
:1006BC0009260650D8B0063C0A260750D8B0073C8D
:1006CC000B26E86AD8B0010E0E260136070E0C6E0A
:1006DC000134083609360A360B360E36045001A0A2
:1006EC0012D0085E0550D8A0053C095E0650D8A073
:1006FC00063C0A5E0750D8A0073C0B5EE86AD8A0FF
:10070C00010E0E5E11D008260550D8B0053C092606
:10071C000650D8B0063C0A260750D8B0073C0B262A
:10072C00E86AD8B0010E0E2601360C2ED1D7003453
:10073C00083609360A360B360E36045001A012D094
:10074C00085E0550D8A0053C095E0650D8A0063CB2
:10075C000A5E0750D8A0073C0B5EE86AD8A0010ED1
:10076C000E5E11D008260550D8B0053C092606505F
:10077C00D8B0063C0A260750D8B0073C0B26E86ACE
:10078C00D8B0010E0E260036070E0C6E003408365B
:10079C0009360A360B360E36045000A012D0085E0D
:1007AC000550D8A0053C095E0650D8A0063C0A5E50
:1007BC000750D8A0073C0B5EE86AD8A0010E0E5E6D
:1007CC0011D008260550D8B0053C09260650D8B0E3
:1007DC00063C0A260750D8B0073C0B26E86AD8B06E
:1007EC00010E0E2600360C2ED1D700B00ED00450C0
:1007FC0008260550D8B0053C09260650D8B0063C52
:0C080C000A260750D8B0073C0B2612004B
:1008180003C1E9FF04C1EAFFEECF00F0EECF01F01B
:10082800EECF02F0EECF03F000C005F101C006F1F3
:1008380002C007F103C008F1B70E046EE60E056E9C
:10084800EE0E066E250E076E89DC040E01010325E7
:10085800E96E000E0421EA6E010EEE10046EEECF72
:1008680005F0EECF06F0EECF07F0000E05120612E7
:10087800071203C1E1FF04C1E2FF04500024E66E41
:1008880005500120E66E06500220E66E0750032050
:10089800E66E070E046E05C100F006C101F007C13F
:1008A80002F008C103F0045007E0033202320132BB
:1008B8000032039EFF0FF8D705510018046E065149
:1008C8000118056E07510218066E08510318076EC5
:1008D800120E006E04C00CF005C00DF006C00EF03C
:1008E80007C00FF0005007E00F320E320D320C3205
:1008F8000F9EFF0FF8D71B0E006E05C104F006C14E
:1009080005F007C106F008C107F0005007E00732FC
:10091800063205320432079EFF0FF8D704C000F0F4
:100928000CC008F00DC009F00EC00AF00FC00BF0A3
:10093800005007E00B320A32093208320B9EFF0FD3
:10094800F8D7006A016A026A036A0450005E05501B
:10095800015A0650025A0750035A0F0E0016000E8D
:1009680001160216031600C004F00CC000F00DC0FA
:1009780001F00EC002F00FC003F0045007E000368B
:100988000090013602360336FF0FF8D708500012E0
:0E099800095001120A5002120B5003121200F5
:0A09A600000EACB2010E006E12004C
:1009B0000001E56B4050000A0EE1050E3F6E070E88
:1009C000816F980E866F230E876F000E886F200E42
:1009D000846F000E856FE551E025E96E000EE12180
:1009E000EA6EEE5217E0E551E025E96E000EE121D6
:1009F000EA6EEECF03F1E2C004F1E3C005F1E4C01A
:100A000006F16ADC3F50010F006E00500001E22742
:060A1000E52BE1D7120006
:060A16002F6A2E6A120097
:100A1C000001E46BE56BE66BE451070849E3010167
:100A2C00136B89EC00F0E4C013F197EC00F0136B3E
:100A3C009FEC00F00001E36BE3513F0812E3E5513A
:100A4C00E025F66EE651E121F76E000EE221F86E1C
:100A5C000900F5CF13F182EC00F0E54BE62BE32B0C
:100A6C00EBD7400E0101136F89EC00F0E4C013F1D9
:100A7C0097EC00F0400E136F9FEC00F0400E00015D
:100A8C00E36FE3517F0812E3E551E025F66EE65182
:100A9C00E121F76E000EE221F86E0900F5CF13F19B
:100AAC0082EC00F0E54BE62BE32BEBD7E42BB4D731
:020ABC00120026
:100ABE000001F56BF66BF76BF86BF96BFA6BFB6B72
:100ACE00FC6BE451E025006EE551E121016E010E53
:100ADE00005C026E000E0158036E000E006E035095
:100AEE00005C02E102507F0807E2E0518008E46FEB
:100AFE00E1C0E5F0000EE557E651E225006EE75144
:100B0E00E321016E010E005C026E000E0158036EB1
:100B1E00000E006E0350005C02E102503F0807E237
:100B2E00E2514008E66FE3C0E7F0000EE757E2C07F
:100B3E0000F0E3C001F001320032019E01320032BA
:100B4E00019E01320032019E00C0EFF0E651E22517
:100B5E00056EE751E321066E010E055C036E000E75
:100B6E000658046E03C000F004C001F001320032DA
:100B7E00019E01320032019E01320032019E00C000
:100B8E00F0F0070EE215006EE3C001F0000E011644
:100B9E0000C0F2F0070E0514006E06C001F0000E44
:100BAE00011600C0F3F0EB51E75D02E1EA51E65D9C
:100BBE0003E2F0C0F4F01BD0EA51E225006EEB51D7
:100BCE00E321016E010E005C036E000E0158046EEF
:100BDE0003C000F004C001F001320032019E013268
:100BEE000032019E01320032019E00C0F4F0070E69
:100BFE00EA15016EEBC002F0000E0216000E02188E
:100C0E0002E1000E011818E1EAC000F0EBC001F09D
:100C1E0001320032019E01320032019E0132003259
:100C2E00019EE8C004F0E9C005F0DBEC00F000C066
:100C3E0001F101C002F119D0EAC000F0EBC001F0E1
:100C4E0001320032019E01320032019E0132003229
:100C5E00019E004A012AE8C004F0E9C005F0DBEC71
:100C6E0000F000C001F101C002F1EFC0F5F0000E7E
:100C7E00F66F000E006EF651005C02E1F551F05D6C
:100C8E00D8A015D1FD6BFE6BF76BF86BE551F85DD7
:100C9E0002E1E451F75DD8B0F9D0F751E02501013A
:100CAE00136F89EC00F0F5C013F197EC00F0000122
:100CBE00E951F85D02E1E851F75D43E2000E006E86
:100CCE00F651005C02E1F551F45D3BE3000EF619BE
:100CDE0002E1EF51F51902E1FF6B12D0FB51FD2538
:100CEE00006EFC51FE21016E0050EC25F66E015097
:100CFE00ED21F76E000EEE21F86E0900F5CFFFF034
:100D0E00010102510001FA5D04E1010101510001EE
:100D1E00F95D03E30101006B13D00001F951FD25CC
:100D2E00006EFA51FE21016E0050EC25F66E015058
:100D3E00ED21F76E000EEE21F86E0900F5CF00F1F1
:100D4E0004D00101006B0001FF6B000100C1F1F046
:100D5E00F25100081AE2F2510808006E016A000E04
:100D6E00015AFFC0F1F0005004E0F133F19FFF0F84
:100D7E00FBD7F2C001F000C100F0015004E00036D4
:100D8E000090FF0FFBD70050F113000EF61902E191
:100D9E00EF51F5192FE1F25100082CE2F751E02541
:100DAE000101136F9FEC00F05BEC00F05BEC00F0C8
:100DBE000001F2510808016E026A000E025A01C0CB
:100DCE0002F0FF0E016E025004E00132019EFF0F91
:100DDE00FBD701500014026EF2C001F0FF0E006E40
:100DEE00015004E000360090FF0FFBD70050F117C2
:100DFE000250F113000EF61902E1F051F51930E12F
:100E0E00F35100082DE2F751E0250101136F9FEC1D
:100E1E0000F05BEC00F05BEC00F0F3C002F0FF0EB4
:100E2E00016E025004E001360190FF0FFBD7015016
:100E3E000014026E0001F3510808006E016A000EE4
:100E4E00015A00C001F0FF0E006E015004E00032A6
:100E5E00009EFF0FFBD700010050F1170250F11357
:100E6E00E951F85D02E1E851F75D02E2FD4BFE2B20
:100E7E00F751E0250101136F9FEC00F0F1C013F163
:100E8E0082EC00F00001F74BF82B00D7000EF65D58
:100E9E0002E1F451F55D08E2F9C0FBF0FAC0FCF096
:100EAE00E851F927E951FA23F54BF62BE2D6120059
:100EBE008A908A820001E26BE251070811E3E2C0D8
:100ECE0013F197EC00F00001E16BE1513F0806E3EE
:100EDE00E0C013F182EC00F0E12BF7D7E22BECD758
:100EEE008A928A80E26BE251070811E3E2C013F1A5
:100EFE0097EC00F00001E16BE1513F0806E3E0C022
:100F0E0013F182EC00F0E12BF7D7E22BECD71200B5
:100F1E002E502F5C006E016A000E015A000E016EFB
:020F2E001200AF
:100F30000001E56BE66BE0C0E7F0000EE0BFFF0EDE
:100F4000E86F800EE019006E800E000A005C0AE275
:100F5000E54BE62BE0510008E76FE86B000EE0BFC1
:100F6000FF0EE85BE7C003F1E1C004F1E2C005F168
:100F70005CEC02F0040E0001E36F000EE46F000E63
:100F8000006EE451005C02E1E351000819E2E35114
:100F9000E125E16EE451E221E26E010EE35D006EB7
:100FA000000EE459016E0050E125E96E0150E22186
:100FB000EA6EEECFE6FF010EE35F000EE45BDFD7E3
:100FC000E1C0E1FFE2C0E2FF200EE66EE551E6116E
:100FD0001AE0E36BE46BE351E125E96EE451E221B1
:100FE000EA6EEE50200A03E1E34BE42BF4D7010E46
:100FF000E35F000EE45BE351E125E16EE451E221A1
:08100000E26E2D0EE66E1200F7
:10100800E0C003F10001E251E0250101046FE1C0F5
:0C10180005F1E4C006F12BEC02F0120020
:10102400E0C003F1E1C004F1410E0101056F000EBF
:10103400066F2E500527D8B0062BE2C007F1E3C097
:1010440008F103EC02F00001E2512E26E2C000F0A8
:06105400E3C001F01200F0
:10105A00F80E0001CD6F030ECE6F030ECF6F010E97
:10106A00D06F000ED56F140ED66F000ED76F000E1C
:10107A00D86FFF0ED16FFF0ED26F000ED36F000E26
:10108A00D46FA60EC96F090ECA6F000ECB6F000E81
:10109A00CC6FAC8A900EAB6E948E949C9EAA03D0B1
:0810AA00AECF00F0FBD71200ED
:1010B200E1C0E5F00001E551E35D0DE3E0C003F1BD
:1010C200E2C004F1E5C005F1E4C006F12BEC02F048
:0810D2000001E52BEFD712002D
:1010DA000001E26BE36BE0C003F0E1C004F0E0C0A2
:1010EA0005F0E1C006F003C0E9FF04C0EAFFEE50D4
:1010FA00200A04E1E251E31101E110D0010EE26F8E
:10110A00000EE36F03C0E9FF04C0EAFF05C0E1FF78
:10111A0006C0E2FFEECFE6FF054A062A03C001F049
:10112A0004C002F0034A042A01C0E9FF02C0EAFF30
:10113A00EE50000AD8E1E0C000F0E1C001F0120070
:10114A000001E651E425016E000EE4BFFF0E026EB7
:10115A00000EE6BFFF0E0222800EE0BF7F0E006E79
:10116A00800E0218005C02E10150E05D45E2E251A6
:10117A00E025016E000EE0BFFF0E026E000EE2BF18
:10118A00FF0E0222800EE4BF7F0E006E800E021850
:10119A00005C02E10150E45D2FE2E751E525016EB2
:1011AA00000EE5BFFF0E026E000EE7BFFF0E022221
:1011BA00800EE1BF7F0E006E800E0218005C02E115
:1011CA000150E15D19E2E151E325016E000EE3BF32
:1011DA00FF0E026E000EE1BFFF0E0222800EE5BF77
:1011EA007F0E006E800E0218005C02E10150E55D80
:0C11FA0003E2010E006E01D0006A12003A
:10120600E0C0E4F0E1C0E5F00001E66BE76BE35116
:10121600E75D02E1E251E65D13E2D3EC04F0005033
:10122600010A0DE1E651E425E96EE751E521EA6E92
:10123600EECF03F1FCEC01F00001E64BE72BE7D71C
:0A124600E2C000F0E3C001F0120066
:10125000C10E0101036F000E046F0CEC04F00001DD
:10126000E051E25D046EE151E359056E044A052A3E
:10127000000E05BEFF0E066E076E96EC02F008C06B
:1012800000F009C001F00AC002F00BC003F0E05109
:081290000026E15101221200C9
:101298000900F5CFE6FF0006FBE10106F9E11200BF
:1012A800D9C0E0F0000E0001D9BFFF0EE16FDAC02F
:1012B800E2F0000EDABFFF0EE36FDBC0E4F0000ED1
:1012C800DBBFFF0EE56FDCC0E6F0000EDCBFFF0EF3
:1012D800E76FDBC0E8F0000EDBBFFF0EE96FDCC094
:1012E800EAF0000EDCBFFF0EEB6FDDC0ECF0DEC0F5
:0C12F800EDF0DFC0EEF05FEC05F012003E
:10130400350E0001DC6FDB6B0D0EDB5D5FE2E06B25
:10131400E16B7B0EE26F000EE36F98DFDBC002F03F
:10132400000E036E02360290033602360290033634
:101334000250D925E16E0350DA21E26E00C0E6FFC7
:10134400DBC000F0000E016E00360090013600365E
:1013540000900136D9510026DA510122010E0024F1
:10136400E16E000E0120E26EDCC0E6FFDBC000F09F
:10137400000E016E003600900136003600900136F2
:10138400D9510026DA510122020E0024E16E000E2A
:101394000120E26E030EE66EDBC000F0000E016E6B
:1013A400003600900136003600900136D9510026EF
:1013B400DA510122030E0024E16E000E0120E26ED8
:1013C400010EE66E040EDC5FDB2B9ED73E0EBD6F76
:0E13D400030EBE6F010EBF6F3C0EC06F120005
:1013E200D9C0E0F0DAC0E1F00001DB51D925E26FAB
:0E13F200DC51DA25E36FDDC0E4F05ADE1200B4
:10140000AECF01F0ABA202D0AB98AB8801C000F028
:021410001200C8
:10141200DAC003F0D9C002F0006A016A00C0C1F06C
:1014220001C0C2F002C0C3F003C0C4F0FF0E00014D
:10143200D915006EFF0EDA15016EDBC002F0DCC0BA
:1014420003F0000E0216031600C0C5F001C0C6F07C
:0A14520002C0C7F003C0C8F012008A
:10145C00200E376E370E386E090E396E090E3A6E45
:10146C005E0E3B6E370E3C6E090E3D6E090E3E6EE7
:02147C0012005C
:10147E00B886B06A670EAF6EAC84E8DD020E0B6EF6
:10148E00040E0C6EBA0E0D6E0D2EFED70C2EFCD762
:0E149E000B2EFAD700009D8AF28CF28E1200FF
:1014AC0038DD800E0118026E800E025C02E1020E25
:1014BC00005C47E3D90E0001E06F000EE16F020EF5
:1014CC00E26F000EE36FA8DDDA51261802E1255019
:1014DC00D91903E1010E246EE3D7DA51231802E186
:1014EC002250D9190AE13B0EE06F000EE16F040E99
:1014FC00E26F000EE36F90DDD3D7DA512B1802E1C7
:10150C002A50D9190AE13B0EE06F000EE16F040E70
:10151C00E26F000EE36F80DDC3D7DA51291802E1C8
:10152C002850D91903E1010E276EBAD7DA511D18CC
:10153C0002E11C50D91903E1010E1B6EB1D70BEC63
:04154C0005F0120094
:101550000001DB6B0D0EDB5DD8B012D1DBC000F0FB
:10156000000E016E00360090013600360090013604
:101570000050D925E96E0150DA21EA6E040E006EA2
:10158000E00EE16E000EE26EEECFE6FF0006FCE13B
:10159000040E006EE40EE16E000EE26E370EE96E90
:1015A000000EEA6EEECFE6FF0006FCE1CEDD005253
:1015B00014E0370E386E220EE06F000EE16F020E5F
:1015C000E26F000EE36F1FDE370EE06F000EE16F7B
:1015D000040EE26F000EE36F16DEDBC000F0000EBB
:1015E000016E003600900136003600900136005042
:1015F000D925E96E0150DA21EA6E040E006EE00E84
:10160000E16E000EE26EEECFE6FF0006FCE1E46B59
:10161000FBDC010E0001DB15016E0150010A49E1FE
:10162000DBC000F0000E016E00360090013600367F
:10163000009001360050D925E96E0150DA21EA6E9A
:10164000EECF01F0800E000A006E800E0118005CE3
:1016500012E3DBC000F0000E016E00360090013690
:101660000036009001360050D925E16E0150DA2194
:10167000E26E7C0EE66EDBC000F0000E016E0036FE
:10168000009001360036009001360050D925026ED8
:101690000150DA21036E02C0E9FF03C0EAFFEECF7A
:1016A00000F0000602C0E1FF03C0E2FF00C0E6FF59
:1016B00047D0DBC000F0000E016E0036009001360E
:1016C0000036009001360050D925E96E0150DA212C
:1016D000EA6EEECF01F0800E0118006E800E7C0ADB
:1016E000005C11E3DBC000F0000E016E00360090DC
:1016F00001360036009001360050D925E16E0150C8
:10170000DA21E26EE66ADBC000F0000E016E003600
:10171000009001360036009001360050D925026E47
:101720000150DA21036E02C0E9FF03C0EAFFEECFE9
:1017300000F0002A02C0E1FF03C0E2FF00C0E6FFA4
:10174000DBC000F0000E016E00360090013600365E
:10175000009001360050D925E96E0150DA21EA6E79
:10176000040E006EE00EE16E000EE26EEECFE6FFBC
:101770000006FCE1010EE46F47DC0001DB2BEAD63A
:10178000200EE06F000EE16F020EE26F000EE36FBD
:041790003ADD12002C
:10179400D9C0E0F0320E0001E16F000EE26F98EC68
:1017A40007F0320EE06F000EE16F95DC00C0E0F050
:1017B40001C0E1F00F0EE26F070EE36F010EE46F5C
:1017C400D8EC04F0DAC0E0F0320EE16F000EE26F04
:1017D40098EC07F0320EE06F000EE16F7CDC00C085
:1017E400E0F001C0E1F06B0EE26F070EE36F010E53
:0817F400E46FD8EC04F01200D0
:1017FC00980E0001E06F1B0EE16F000EE26F0EEC15
:10180C0005F0290E0B6E960E0C6E7F0E0D6E0D2EC6
:10181C00FED70C2EFCD70B2EFAD7E06B5FEC07F043
:02182C001200A8
:10182E00980E0001E06F1F0EE16F000EE26F0EECDE
:10183E0005F0290E0B6E960E0C6E7F0E0D6E0D2E94
:10184E00FED70C2EFCD70B2EFAD7E06B5FEC07F011
:02185E00120076
:10186000406A0001826B836B939A9398939493964A
:10187000939093928A9A120E006E000E016E830E60
:101880000024E16E0F0E0120E26EE66A8A948A96C9
:101890008A908A828A8A3F0E836E53EC00F0C00ED3
:1018A000836E53EC00F08A808A923F0E836E53EC75
:0C18B00000F0C00E836E53EC00F012003C
:1018BC00190E0001E06F000EE16F020EE26F000ED8
:1018CC00E36F9BDC8FEC07F0800E026E800E01182C
:1018DC00025C02E10050020813E2D90EE06F000E28
:1018EC00E16F020EE26F000EE36F12EC08F0DA51BA
:1018FC001F1802E11E50D91901E10FD00BEC05F0B5
:10190C00030E0B6E080E0C6E770E0D6E0D2EFED7A1
:0C191C000C2EFCD70B2EFAD7CBD71200F4
:10192800DBEC12F00F0EC16EA6DD0BEC05F092DDBC
:10193800210ED96F000EDA6FDB6FDC6F66DD890E62
:10194800D96F000EDA6FDADC87DFE06B5FEC07F047
:10195800B1DF2DC0D9F02CC0DAF018DF890ED96FAD
:10196800000EDA6FF1DD9EDD245207E00001BE5162
:10197800010F006E00C0BEF0246A275207E0276AF4
:101988002C2A2DC0D9F02CC0DAF000DF80A432D088
:101998003804006E00C038F0800E000A006E800E19
:1019A8003818005C14E30001200E376E370E386ECD
:1019B8002D2A280EE06F000EE16F020EE26F000E76
:1019C800E36F1DDC2DC0D9F02CC0DAF0DFDE00019A
:1019D800220EE06F000EE16F020EE26F000EE36F61
:1019E8000EDC370EE06F000EE16F040EE26F000EA2
:1019F800E36F05DC80A635D03850010F006E00C0BB
:101A080038F03A04006E000E3ABEFF0E016E000E6A
:101A1800015A38500024026E000E38BEFF0E012015
:101A2800036E800E0318006E800E005C02E13F0E0C
:101A3800025C02E3370E386E0001220EE06F000EE2
:101A4800E16F020EE26F000EE36F03EC09F0370E50
:101A5800E06F000EE16F040EE26F000EE36F03EC1F
:101A680009F01B520CE01B6A2D502C5C02E2C2DE0E
:101A780006D02C502D5C02E2D6DE01D0D4DE040E56
:101A8800006ED90EE16E000EE26EBD0EE96E000E1C
:101A9800EA6EEECFE6FF0006FCE10001010EDD6F05
:101AA8009CDC040E006ED90EE16E000EE26E370E5D
:101AB800E96E000EEA6EEECFE6FF0006FCE10001DB
:101AC800910EDD6F250EDE6F000EDF6F54EC09F00E
:101AD800040E006ED90EE16E000EE26E3B0EE96E4A
:101AE800000EEA6EEECFE6FF0006FCE10001910E63
:101AF800DD6F250EDE6F000EDF6F54EC09F09C0ED3
:101B08000C6ED70E0D6E0D2EFED70C2EFCD7040EC4
:101B1800006ED90EE16E000EE26EBD0EE96E000E8B
:101B2800EA6EEECFE6FF0006FCE10001DD6B55DC56
:101B3800040E006ED90EE16E000EE26E370EE96EED
:101B4800000EEA6EEECFE6FF0006FCE10001A30EF0
:101B5800DD6F250EDE6F000EDF6F54EC09F0040E0A
:101B6800006ED90EE16E000EE26E3B0EE96E000EBD
:101B7800EA6EEECFE6FF0006FCE10001A30EDD6F82
:101B8800250EDE6F000EDF6F54EC09F0E7D6FFD7A5
:1025B60010EE19F0190E006E010E016E780EF66E11
:0E25C600250EF76E000EF86E4CEC09F01200B8
:101B9800000000000000000000000000000000003D
:101BA800000000000000000000000000000000002D
:101BB800000000000000000000000000000000001D
:101BC800000000000000000000000000000000000D
:101BD80000000000000000000000000000000000FD
:101BE80000000000000000000000000000000000ED
:101BF80000000000000000000000000000000000DD
:101C080000000000000000000000000000000000CC
:101C180000000000000000000000000000000000BC
:101C280000000000000000000000000000000000AC
:101C3800000000000000000000000000000000009C
:101C4800000000000000000000000000000000008C
:101C5800000000000000000000000000000000007C
:101C6800000000000000000000000000000000006C
:101C7800000000000000000000000000000000005C
:101C8800000000000000000000000000000000004C
:101C9800000000000000000000000000000000003C
:101CA800000000000000000000000000000000002C
:101CB800000000000000000000000000000000001C
:101CC8000000808080808080F0F0F0F0F0F0F0F08C
:101CD800F0F0F0F0F0F0F0F080808080808000007C
:101CE80000000000000000000000000000000000EC
:101CF80000000000000000000000000000000000DC
:101D080000000000000000000000000000000000CB
:101D180000000000000000000000000000000000BB
:101D280000000000000000000000000000000000AB
:101D3800000000000000000000000000000000009B
:101D4800000001010104040607070F8F0FFFFFFFC2
:101D5800FFFFFF0F8F0707070404040001010000BD
:101D6800000000000000000000000000000000006B
:101D7800000000000000000000000000000000005B
:101D8800000000000000000000000000000000004B
:101D9800000000000000000000000000000000003B
:101DA800000000000000000000C0C00000000000AB
:101DB80000C0C0C0C000808040404040C0C080809B
:101DC8000000C0C0000000C0C0C0C000000000008B
:101DD80000C0C00000000000C0C0C0C00000C0C0FB
:101DE800C0C00000C0C08080000000C0C0C0C000EB
:101DF80000C0C0C0C00000000000000000000000DB
:101E080000000000000000000000000000000000CA
:101E180000000000000000000000000000000000BA
:101E2800000000000000000000010102021E1E1F49
:101E38001F0303010100070F081010101F1F0F0FC9
:101E480000000F0F1010101F1F0F0F0000000000E0
:101E5800000F0F10000E0E101F1F0F0F00001F1F86
:101E68001F1F00001F0F00000101020F1F1F1F008E
:101E780000171717170000000000000000000000FE
:101E8800000000000000000000000000000000004A
:101E9800000000000000000000000000000000003A
:101EA800000000000000000000000000000000002A
:101EB800000000000000000000000000000000001A
:10212800000000000000000000E0F0D01010107067
:102138006000C0E0301010F0E0C000F0F0E0C0C077
:10214800F0F0F00010F0F09090B0301000000000B7
:10215800000000000000F0F0101010F0F00010F087
:10216800F0000000F0F00000F0F0F09090B03000C7
:1021780010F0F0F09090F0E0000000000000000087
:102188000000000000000000000000000000000047
:102198000000000000000000000000000000000037
:1021A800000000000000000000070F0F08080B0FD8
:1021B80007000F0F0303030F0F0F000F0F0003009B
:1021C8000F0F0F00080F0F09090D0C080000000081
:1021D8000000000000000F0F0808080F0F0001039F
:1021E800070E0C06070300080F0F0F09090D0C0056
:1021F800080F0F0F03070F0C00000000000000007D
:1022080000000000000000000000000000000000C6
:1022180000000000000000000000000000000000B6
:1022280000000000000000000000000000000000A6
:102238000000000000000000000000000000000096
:102248000000000000000000000000000000000086
:102258000000000000000000000000000000000076
:102268000000000000000000000000000000000066
:102278000000000000000000000000000000000056
:102288000000000000000000000000000000000046
:102298000000000000000000000000000000000036
:1022A8000000000000000000000000000000000026
:1022B8000000000000000000000000000000000016
:1022C8000000000000000000000000000000000006
:1022D80000000000000000000000000000000000F6
:1022E80000000000000000000000000000000000E6
:1022F80000000000000000000000000000000000D6
:1023080000000000000000000000000000000000C5
:1023180000000000000000000000000000000000B5
:1023280000000000000000000000000000000000A5
:102338000000000000000000000000000000000095
:102348000000000000000000000000000000000085
:102358000000000000000000000000000000000075
:102368000000000000000000000000000000000065
:102378000000000000000000000000000000000055
:102388000000000000000000000000000000000045
:10239800000000000000005F0000000700070014B4
:1023A8007F147F14242A7F2A122313086462364973
:1023B8005522500005030000001C22410000412264
:1023C8001C00082A1C2A0808083E0808005030008B
:1023D800000808080808003030000020100804022F
:1023E8003E5149453E00427F4000426151494621E5
:1023F80041454B311814127F1027454545393C4A51
:1024080049493001710905033649494936064949A0
:10241800291E003636000000563600000008142237
:10242800411414141414412214080002015109061D
:10243800324979413E7E1111117E7F494949363E24
:10244800414141227F4141221C7F494949417F093D
:102458000901013E414151327F0808087F00417F50
:1024680041002040413F017F081422417F40404005
:10247800407F0204027F7F0408107F3E4141413EB5
:102488007F090909063E4151215E7F0919294646FF
:102498004949493101017F01013F4040403F1F2028
:1024A80040201F7F2018207F6314081463030478DA
:1024B8000403615149454300007F4141020408106B
:1024C8002041417F00000402010204404040404096
:1024D800000102040020545454787F48444438389A
:1024E80044444420384444487F3854545418087E9F
:1024F800090102081454543C7F0804047800447D00
:1025080040002040443D00007F10284400417F40A7
:10251800007C041804787C0804047838444444385F
:102528007C14141408081414187C7C080404084843
:1025380054545420043F4440203C4040207C1C20FC
:1025480040201C3C4030403C44281028440C50504B
:10255800503C4464544C44000836410000007F005D
:1025680000004136080008082A1C08081C2A080828
:022578002292AD
:01257A000060
:02257B0088983E
:02257D001191BA
:02257F00339394
:02258100449480
:012583000057
:0225840055956B
:012586000054
:02258700779744
:02258900669654
:01258B00004F
:01258C00004E
:01258D00004D
:01258E00004C
:01258F00004B
:01259000004A
:1025910080C0E4F6FFF6E4C0800000000100010005
:0225A100000038
:1025A3000000000000000000000000000000000028
:0225B300000026
:020000040030CA
:0E000000010C1F1EFF8381FF0FC00FE00F4099
:00000001FF
