:1000000072EF05F00000000000EF00F000000000BB
:0A0010000000000000000000F3D71C
:0C001C00060E0D6E0D2EFED70000120027
:0A002800F9DF8A88F7DF8A981200DA
:06003200000000001200B6
:0E0038008A948A96B80E4B10836EF2DF120087
:100046007F0E4B14016E01C04BF001AC03D08A80C9
:0A0056008A9202D08A908A8212007A
:100060000B6A0A6A096A00500402F4CF09F0F3CF60
:1000700008F001500502F4CF0BF0F3CF0AF0005066
:100080000502F3500926F4500A22E86A0B220150B7
:100090000402F3500926F4500A22E86A0B2208C031
:1000A00000F009C001F00AC002F00BC003F012001A
:1000B0007F0E4B14006E00C04BF08A948A96BF0EE0
:1000C000001600C04BF0008C00C04BF000C083FF56
:0400D000ABDF120090
:1000D400086A080E0C6E003408360450085ED8B066
:0E00E40002D00826D89000360C2EF5D7120058
:0E00F2008A988A848A964BC083FF95DF12009D
:10010000120E006E000E016E830E0024E16E0F0EC3
:100110000120E26EFF0EE66E8CDF8BDF8A848A9808
:100120008A868A887BDF83CF4BF08A988A9681DF24
:1001300080DF120E006E000E016E830E0024E16E51
:0E0140000F0E0120E26EE66A4BC000F01200C6
:10014E004350070801E282D02450415C006E25C066
:10015E0001F0000E015616C004F0000E056E79DF98
:10016E0000C049F001C04AF042C04BF09ADF43C0D4
:10017E004BF05BDF456A1650455C49E242507F0802
:10018E0001E264D042C04BF057DF43C04BF04DDF6D
:10019E0042C04BF086DFADDF00C046F0AADF00C0E4
:1001AE0046F042C04BF048DF43C04BF03EDF42C04A
:1001BE004BF077DF49502924F66E4A502A20F76E0D
:1001CE00000E4ABEFF0E2B20F86E0900F5CF00F090
:1001DE0000C047F0494A4A2A001C486E09D048C060
:1001EE0046F00FD047C046F00CD04750461A09D003
:1001FE004450000AF4E04450010AF4E04450020A6C
:10020E00F4E046C04BF06EDF422A452AB4D742C016
:10021E004BF012DF43C04BF008DF42C04BF041DF22
:10022E00FF0E476E486A0CD047C046F047C04BF0F1
:10023E0059DF0CD048C046F048C04BF053DF06D013
:0E024E004450000AF1E04450010AF4E01200AE
:10025C00446A030E445C0AE244504224E16E000EF0
:10026C004320E26E200EE66E442AF3D7445042241B
:10027C00E16E000E4320E26EE66A440644504224CE
:10028C00456E000E4320466E0A0E046E41C000F00F
:10029C001BDF08C000F0300E002645C0E1FF46C051
:1002AC00E2FF00C0E6FF0A0E046E41C000F00CDF56
:1002BC0000C041F00050000A01E102D04406DED734
:0202CC0012001E
:1002CE00220E0C6E086A096A0A6A0B6A0C06D8B40A
:1002DE001FD0D8900B320A32093208320332023262
:1002EE0001320032D8A0F2D70C06D8B409D004508F
:1002FE0008260550092206500A2207500B22EAD77B
:10030E00045008260550092206500A2207500B22D7
:02031E001200CB
:100320003D6A3E6A38C03FF0000E38BEFF0E406E98
:10033000800E3818006E800E000A005C0AE23D4A0A
:100340003E2A385000083F6E406A000E38BEFF0E4D
:10035000405A3FC041F039C042F03AC043F07EDF1E
:10036000040E3B6E000E3C6E000E006E3C50005CB6
:1003700002E13B50000819E23B503924E16E3C5049
:100380003A20E26E010E3B5C006E000E3C58016E9E
:1003900000503924E96E01503A20EA6EEECFE6FFB4
:1003A000010E3B5E000E3C5ADFD739C0E1FF3AC078
:1003B000E2FF200EE66E3D503E101AE03B6A3C6ABA
:1003C0003B503924E96E3C503A20EA6EEE50200A48
:1003D00003E13B4A3C2AF4D7010E3B5E000E3C5A37
:1003E0003B503924E16E3C503A20E26E2D0EE66E11
:0203F0001200F9
:1003F2003A6A3B6A38C003F039C004F038C005F0ED
:1004020039C006F003C0E9FF04C0EAFFEE50200A3B
:1004120004E13A503B1001E110D0010E3A6E000E99
:100422003B6E03C0E9FF04C0EAFF05C0E1FF06C05E
:10043200E2FFEECFE6FF054A062A03C001F004C040
:1004420002F0034A042A01C0E9FF02C0EAFFEE50AB
:0E045200000AD8E138C000F039C001F01200F5
:100460003D6A1550000A0EE1050E166E070E286E45
:10047000540E296E0B0E2A6E000E2B6E200E246E6B
:10048000000E256E3D503824E96E000E3920EA6ECC
:10049000EE5216E03D503824E96E000E3920EA6E27
:1004A000EECF41F03AC042F03BC043F03CC044F0D4
:1004B0004EDE1650010F006E00503A263D2AE2D75C
:0204C000120028
:1004C20038C0E9FF39C0EAFFEECF00F0EECF01F00D
:1004D200EECF02F0EECF03F000C03AF001C03BF0E5
:1004E20002C03CF003C03DF0B70E046EE60E056E8E
:1004F200EE0E066E250E076EE9DE040E3824E96E56
:10050200000E3920EA6E010EEE10046EEECF05F0F9
:10051200EECF06F0EECF07F0000E0512061207121C
:1005220038C0E1FF39C0E2FF04500024E66E0550F6
:100532000120E66E06500220E66E07500320E66EAA
:10054200070E046E3AC000F03BC001F03CC002F05E
:100552003DC003F0045007E00332023201320032A0
:10056200039EFF0FF8D73A500018046E3B50011853
:10057200056E3C500218066E3D500318076E120EAF
:10058200006E04C00CF005C00DF006C00EF007C0EE
:100592000FF0005007E00F320E320D320C320F9E78
:1005A200FF0FF8D71B0E006E3AC004F03BC005F0F7
:1005B2003CC006F03DC007F0005007E007320632AB
:1005C20005320432079EFF0FF8D704C000F00CC0BA
:1005D20008F00DC009F00EC00AF00FC00BF0005079
:1005E20007E00B320A32093208320B9EFF0FF8D7AE
:1005F200006A016A026A036A0450005E0550015AE9
:100602000650025A0750035A0F0E0016000E01162A
:100612000216031600C004F00CC000F00DC001F079
:100622000EC002F00FC003F0045007E00036009045
:10063200013602360336FF0FF8D708500012095070
:0C06420001120A5002120B5003121200A9
:10064E000B6A0A6A096A086A0E6A0334083604508D
:10065E00085E0550D8A0053C095E0650D8A0063CA1
:10066E000A5E0750D8A0073C0B5EE86AD8A0010EC0
:10067E000E5E0336070E0C6E0334083609360A3644
:10068E000B360E36045003A012D0085E0550D8A0CB
:10069E00053C095E0650D8A0063C0A5E0750D8A05D
:1006AE00073C0B5EE86AD8A0010E0E5E11D008263C
:1006BE000550D8B0053C09260650D8B0063C0A268F
:1006CE000750D8B0073C0B26E86AD8B0010E0E26AC
:1006DE0003360C2ED1D70234083609360A360B36BD
:1006EE000E36045003A012D0085E0550D8A0053C6B
:1006FE00095E0650D8A0063C0A5E0750D8A0073CFB
:10070E000B5EE86AD8A0010E0E5E11D008260550C9
:10071E00D8B0053C09260650D8B0063C0A2607502C
:10072E00D8B0073C0B26E86AD8B0010E0E2602366A
:10073E00070E0C6E0234083609360A360B360E36A4
:10074E00045002A012D0085E0550D8A0053C095EE8
:10075E000650D8A0063C0A5E0750D8A0073C0B5E98
:10076E00E86AD8A0010E0E5E11D008260550D8B04A
:10077E00053C09260650D8B0063C0A260750D8B0CC
:10078E00073C0B26E86AD8B0010E0E2602360C2E58
:10079E00D1D70134083609360A360B360E360450D8
:1007AE0002A012D0085E0550D8A0053C095E065086
:1007BE00D8A0063C0A5E0750D8A0073C0B5EE86A3C
:1007CE00D8A0010E0E5E11D008260550D8B0053CFB
:1007DE0009260650D8B0063C0A260750D8B0073C6A
:1007EE000B26E86AD8B0010E0E260136070E0C6EE7
:1007FE000134083609360A360B360E36045001A07F
:10080E0012D0085E0550D8A0053C095E0650D8A04F
:10081E00063C0A5E0750D8A0073C0B5EE86AD8A0DB
:10082E00010E0E5E11D008260550D8B0053C0926E3
:10083E000650D8B0063C0A260750D8B0073C0B2607
:10084E00E86AD8B0010E0E2601360C2ED1D7003430
:10085E00083609360A360B360E36045001A012D071
:10086E00085E0550D8A0053C095E0650D8A0063C8F
:10087E000A5E0750D8A0073C0B5EE86AD8A0010EAE
:10088E000E5E11D008260550D8B0053C092606503C
:10089E00D8B0063C0A260750D8B0073C0B26E86AAB
:1008AE00D8B0010E0E260036070E0C6E0034083638
:1008BE0009360A360B360E36045000A012D0085EEA
:1008CE000550D8A0053C095E0650D8A0063C0A5E2D
:1008DE000750D8A0073C0B5EE86AD8A0010E0E5E4A
:1008EE0011D008260550D8B0053C09260650D8B0C0
:1008FE00063C0A260750D8B0073C0B26E86AD8B04B
:10090E00010E0E2600360C2ED1D700B00ED004509C
:10091E0008260550D8B0053C09260650D8B0063C2E
:0C092E000A260750D8B0073C0B26120028
:10093A0035C003F034C002F0006A016A00C01CF03E
:10094A0001C01DF002C01EF003C01FF0FF0E3414D8
:10095A00006EFF0E3514016E36C002F037C003F088
:10096A00000E0216031600C020F001C021F002C0DA
:08097A0022F003C023F012007B
:100982008A908A82366A3650070810E336C04BF0E6
:100992001CEC00F0356A35503F0806E334C04BF0DA
:1009A20079EC00F0352AF7D7362AEDD78A928A8079
:1009B200366A3650070810E336C04BF01CEC00F0E4
:1009C200356A35503F0806E334C04BF079EC00F04D
:0A09D200352AF7D7362AEDD71200B8
:1009DC00156A266A276A939A9398939493969390A0
:1009EC0093928A9A120E006E000E016E830E0024F2
:1009FC00E16E0F0E0120E26EE66A8A948A968A9066
:100A0C008A828A8A3F0E836E14EC00F0C00E836ECD
:100A1C0014EC00F08A808A923F0E836E14EC00F086
:0A0A2C00C00E836E14EC00F01200FF
:100A36000900F5CFE6FF0006FBE10106F9E1120029
:100A46001C0E386E000E396E39DD3450365C046E7D
:100A560035503758056E044A052A000E05BEFF0EAE
:100A6600066E076EF1DD08C000F009C001F00AC08D
:100A760002F00BC003F0345000263550012212005C
:100A860034C038F0170E396E000E3A6E46DC170E7B
:100A9600386E000E396EAADC00C038F001C039F09D
:100AA6000F0E3A6E070E3B6E010E3C6ED6DC35C05D
:100AB60038F0170E396E000E3A6E2FDC170E386EB0
:100AC600000E396E93DC00C038F001C039F06B0EB1
:0E0AD6003A6E070E3B6E010E3C6EBFDC120046
:100AE4002C6A2D6A2E6A2F6A306A316A326A336A36
:100AF40073DF346A44DF210E346E000E356E366EB9
:100B0400376E19DF2CC034F030C035F0BADF346AE8
:100B1400356A7B0E366E000E376E93DF00C02CF004
:100B240001C02DF0000E01BEFF0E2E6E2F6E150EAD
:100B34000B6E4B0E0C6EBE0E0D6E0D2EFED70C2ED4
:100B4400FCD70B2EFAD70000346A19DFDBD7FFD7A6
:100B5400000000000000005F000000070007001410
:100B64007F147F14242A7F2A1223130864623649CF
:100B74005522500005030000001C224100004122C0
:100B84001C00082A1C2A0808083E080800503000E7
:100B9400000808080808003030000020100804028B
:100BA4003E5149453E00427F400042615149462141
:100BB40041454B311814127F1027454545393C4AAD
:100BC40049493001710905033649494936064949FD
:100BD400291E003636000000563600000008142294
:100BE400411414141414412214080002015109067A
:100BF400324979413E7E1111117E7F494949363E81
:100C0400414141227F4141221C7F494949417F0999
:100C14000901013E414151327F0808087F00417FAC
:100C240041002040413F017F081422417F40404061
:100C3400407F0204027F7F0408107F3E4141413E11
:100C44007F090909063E4151215E7F09192946465B
:100C54004949493101017F01013F4040403F1F2084
:100C640040201F7F2018207F631408146303047836
:100C74000403615149454300007F414102040810C7
:100C84002041417F000004020102044040404040F2
:100C9400000102040020545454787F4844443838F6
:100CA40044444420384444487F3854545418087EFB
:100CB400090102081454543C7F0804047800447D5C
:100CC40040002040443D00007F10284400417F4004
:100CD400007C041804787C080404783844444438BC
:100CE4007C14141408081414187C7C0804040848A0
:100CF40054545420043F4440203C4040207C1C2059
:100D040040201C3C4030403C44281028440C5050A7
:100D1400503C4464544C44000836410000007F00B9
:100D240000004136080008082A1C08081C2A080884
:020000040030CA
:0E000000010C1F1EFF8381FF0FC00FE00F4099
:00000001FF
