:04000000CAEF11F042
:1000080000C016F001C015F0E1CF17F0E2CF18F0EC
:100018009DAA28D03050315C006E016A000E015A4A
:1000280000C041F13150000806E201014151000AC7
:1000380002E1A1EC0AF00101A80E426F000E436F25
:1000480031504227D8B0432BBBEC0CF042C1E1FF42
:1000580043C1E2FF00C0E6FF312A3150400A02E105
:10006800A1EC0AF0F2A40CD0F2940B0ED76EDC0EC1
:10007800D66E292A020E295C03E3010E266E296A30
:1000880016C000F015C001F017C0E1FF18C0E2FF6C
:02009800110055
:0C009A00060E0D6E0D2EFED700001200A9
:1000A600220E0C6E086A096A0A6A0B6A0C06D8B434
:1000B6001FD0D8900B320A3209320832033202328C
:1000C60001320032D8A0F2D70C06D8B409D00450B9
:1000D60008260550092206500A2207500B22EAD7A5
:1000E600045008260550092206500A2207500B2202
:0200F6001200F6
:0600F800000000001200F0
:0A00FE00CDDF8A88CBDF8A9812005C
:100108003BC1E9FF3CC1EAFFEECF00F0EECF01F0C2
:10011800EECF02F0EECF03F000C03DF101C03EF19A
:1001280002C03FF103C040F1B70E046EE60E056E43
:10013800EE0E066E250E076EB2DF040E01013B259A
:10014800E96E000E3C21EA6E010EEE10046EEECF51
:1001580005F0EECF06F0EECF07F0000E05120612FE
:1001680007123BC1E1FF3CC1E2FF04500024E66EE8
:1001780005500120E66E06500220E66E0750032067
:10018800E66E070E046E3DC100F03EC101F03FC1AE
:1001980002F040C103F0045007E00332023201329A
:1001A8000032039EFF0FF8D73D510018046E3E51F0
:1001B8000118056E3F510218066E40510318076E6C
:1001C800120E006E04C00CF005C00DF006C00EF053
:1001D80007C00FF0005007E00F320E320D320C321C
:1001E8000F9EFF0FF8D71B0E006E3DC104F03EC1F5
:1001F80005F03FC106F040C107F0005007E00732A4
:10020800063205320432079EFF0FF8D704C000F00B
:100218000CC008F00DC009F00EC00AF00FC00BF0BA
:10022800005007E00B320A32093208320B9EFF0FEA
:10023800F8D7006A016A026A036A0450005E055032
:10024800015A0650025A0750035A0F0E0016000EA4
:1002580001160216031600C004F00CC000F00DC011
:1002680001F00EC002F00FC003F0045007E00036A2
:100278000090013602360336FF0FF8D708500012F7
:0E028800095001120A5002120B50031212000C
:0E0296008A988A848A963BC183FF2EDF12006D
:1002A400086A080E0C6E003408360450085ED8B094
:0E02B40002D00826D89000360C2EF5D7120086
:1002C2000B6A0A6A096A086A0E6A0334083604501D
:1002D200085E0550D8A0053C095E0650D8A0063C31
:1002E2000A5E0750D8A0073C0B5EE86AD8A0010E50
:1002F2000E5E0336070E0C6E0334083609360A36D4
:100302000B360E36045003A012D0085E0550D8A05A
:10031200053C095E0650D8A0063C0A5E0750D8A0EC
:10032200073C0B5EE86AD8A0010E0E5E11D00826CB
:100332000550D8B0053C09260650D8B0063C0A261E
:100342000750D8B0073C0B26E86AD8B0010E0E263B
:1003520003360C2ED1D70234083609360A360B364C
:100362000E36045003A012D0085E0550D8A0053CFA
:10037200095E0650D8A0063C0A5E0750D8A0073C8A
:100382000B5EE86AD8A0010E0E5E11D00826055059
:10039200D8B0053C09260650D8B0063C0A260750BC
:1003A200D8B0073C0B26E86AD8B0010E0E260236FA
:1003B200070E0C6E0234083609360A360B360E3634
:1003C200045002A012D0085E0550D8A0053C095E78
:1003D2000650D8A0063C0A5E0750D8A0073C0B5E28
:1003E200E86AD8A0010E0E5E11D008260550D8B0DA
:1003F200053C09260650D8B0063C0A260750D8B05C
:10040200073C0B26E86AD8B0010E0E2602360C2EE7
:10041200D1D70134083609360A360B360E36045067
:1004220002A012D0085E0550D8A0053C095E065015
:10043200D8A0063C0A5E0750D8A0073C0B5EE86ACB
:10044200D8A0010E0E5E11D008260550D8B0053C8A
:1004520009260650D8B0063C0A260750D8B0073CF9
:100462000B26E86AD8B0010E0E260136070E0C6E76
:100472000134083609360A360B360E36045001A00E
:1004820012D0085E0550D8A0053C095E0650D8A0DF
:10049200063C0A5E0750D8A0073C0B5EE86AD8A06B
:1004A200010E0E5E11D008260550D8B0053C092673
:1004B2000650D8B0063C0A260750D8B0073C0B2697
:1004C200E86AD8B0010E0E2601360C2ED1D70034C0
:1004D200083609360A360B360E36045001A012D001
:1004E200085E0550D8A0053C095E0650D8A0063C1F
:1004F2000A5E0750D8A0073C0B5EE86AD8A0010E3E
:100502000E5E11D008260550D8B0053C09260650CB
:10051200D8B0063C0A260750D8B0073C0B26E86A3A
:10052200D8B0010E0E260036070E0C6E00340836C7
:1005320009360A360B360E36045000A012D0085E79
:100542000550D8A0053C095E0650D8A0063C0A5EBC
:100552000750D8A0073C0B5EE86AD8A0010E0E5ED9
:1005620011D008260550D8B0053C09260650D8B04F
:10057200063C0A260750D8B0073C0B26E86AD8B0DA
:10058200010E0E2600360C2ED1D700B00ED004502C
:1005920008260550D8B0053C09260650D8B0063CBE
:0C05A2000A260750D8B0073C0B261200B8
:1005AE00120E006E000E016E830E0024E16E0F0E11
:1005BE000120E26EFF0EE66E98DD97DD8A848A9842
:1005CE008A868A8863DD83CF3BF18A988A968DDD91
:1005DE008CDD120E006E000E016E830E0024E16E95
:0E05EE000F0E0120E26EE66A3BC100F0120023
:1005FC007F0E01013B15016E01C03BF101AC03D034
:0C060C008A808A9202D08A908A821200B2
:100618000B6A0A6A096A00500402F4CF09F0F3CFA2
:1006280008F001500502F4CF0BF0F3CF0AF00050A8
:100638000502F3500926F4500A22E86A0B220150F9
:100648000402F3500926F4500A22E86A0B2208C073
:1006580000F009C001F00AC002F00BC003F012005C
:100668008A948A96B80E01013B11836E44DD12000C
:100678007F0E01013B15006E00C03BF18A948A96FB
:10068800BF0E001600C03BF1008C00C03BF100C05B
:0606980083FF31DD1200BA
:10069E0001013351070801E28CD000018A5101019A
:1006AE00315D006E8BC001F0000E015689C004F062
:1006BE00000E056EAADF00C039F101C03AF132C159
:1006CE003BF1D3DF33C13BF1C8DF356B00018951FC
:1006DE000101355D4FE232517F0801E26AD032C12D
:1006EE003BF185DF33C13BF1B8DF32C13BF1BDDFFA
:1006FE0057DF00C036F154DF00C036F132C13BF196
:10070E0076DF33C13BF1A9DF32C13BF1AEDF3951A8
:10071E0000018425F66E01013A5100018521F76E24
:10072E00000E01013ABFFF0E00018621F86E09008E
:10073E00F5CF00F000C037F10101394B3A2B001C08
:10074E00386F09D038C136F10FD037C136F10CD021
:10075E003751361B09D03451000AF4E03451010AE6
:10076E00F4E03451020AF4E036C13BF18DDD322B58
:10077E00352BACD732C13BF13ADF33C13BF16DDFE4
:10078E0032C13BF172DFFF0E376F386B0CD037C1C1
:10079E0036F137C13BF178DD0CD038C136F138C1B6
:1007AE003BF172DD06D03451000AF1E03451010AFA
:0407BE00F4E0120051
:1007C200000E0101315D0AE331517F0807E3000E9B
:1007D200325D04E332513F0801E301D04AD031C116
:1007E2003BF10BDF32C13BF13B333B9F3B333B9F42
:1007F2003B333B9F38DF31C13BF13DDFD7DE00C0E9
:1008020036F1D4DE00C036F132C13BF13B333B9FBF
:100812003B333B9F3B333B9F26DF31C13BF12BDF19
:10082200070E3215006E00C034F100C001F0010E57
:10083200006E015004E000360090FF0FFBD700C0AD
:1008420034F1001C356F09D0355136170FD03451B1
:1008520036130CD03451361B09D03351000AF4E060
:100862003351010AF4E03351020AF4E036C13BF19C
:0408720011DD120082
:10087600A00E01013B6F000E3C6F43DC3151335D2E
:10088600046E32513459056E044A052A000E05BE1F
:10089600FF0E066E076E12DD08C000F009C001F0FB
:1008A6000AC002F00BC003F031510026325101227A
:0208B60012002E
:1008B8000101346B030E345D0AE234513225E16ED6
:1008C800000E3321E26E200EE66E342BF3D734513E
:1008D8003225E16E000E3321E26EE66A34073451A8
:1008E8003225356F000E3321366F0A0E046E31C182
:1008F80000F0D4DC08C000F0300E002635C1E1FF5E
:1009080036C1E2FF00C0E6FF0A0E046E31C100F0F6
:10091800C5DC00C031F10050000A01E102D0340703
:04092800DED7120004
:10092C00350E0101256F246B0D0E245D5FE2316BDA
:10093C00326B7B0E336F000E346F97DF24C102F0E5
:10094C00000E036E02360290033602360290033616
:10095C0002502225E16E03502321E26E00C0E6FF17
:10096C0024C100F0000E016E0036009001360036F6
:10097C00009001362251002623510122010E002441
:10098C00E16E000E0120E26E25C1E6FF24C100F0ED
:10099C00000E016E003600900136003600900136D4
:1009AC002251002623510122020E0024E16E000E7A
:1009BC000120E26E030EE66E24C100F0000E016E03
:1009CC000036009001360036009001362251002688
:1009DC0023510122030E0024E16E000E0120E26E71
:0E09EC00010EE66E040E255F242B9ED712002E
:0A09FA00000EACB2010E006E1200F8
:100A0400010128512625016E000E26BFFF0E026E3D
:100A1400000E28BFFF0E0222800E22BF7F0E006E42
:100A2400800E0218005C02E10150225D45E224516F
:100A34002225016E000E22BFFF0E026E000E24BF9F
:100A4400FF0E0222800E26BF7F0E006E800E02185B
:100A5400005C02E10150265D2FE229512725016E39
:100A6400000E27BFFF0E026E000E29BFFF0E0222EA
:100A7400800E23BF7F0E006E800E0218005C02E120
:100A84000150235D19E223512525016E000E25BF77
:100A9400FF0E026E000E23BFFF0E0222800E27BF40
:100AA4007F0E006E800E0218005C02E10150275D8B
:0C0AB40003E2010E006E01D0006A120087
:100AC00024C104F025C105F022C102F023C103F0C6
:100AD00026C100F027C101F0010E0101265F000EC2
:100AE000275B005001100FE004C0E9FF05C0EAFFDA
:100AF00002C0E1FF03C0E2FFEECFE6FF024A032A95
:100B0000044A052AE5D722C100F023C101F01200F2
:100B1000000E0101271902E1000E261908E122C189
:100B200031F124C132F128C133F14BDED2D02D6B2B
:100B30002E6B2251245D2F6F23512559306F26C112
:100B40002BF127C12CF126C100F027C101F000369E
:100B50000090013600C029F101C02AF100500308BD
:100B6000296F01C02AF1000E2A57010E2B25016EB4
:100B7000000E2C21026E800E2E19006E800E0218BF
:100B8000005C02E101502D5DD8B0A3D02D5122258B
:100B9000316F2B512425326F28C133F112DE2D51D4
:100BA0002225316F2B51245D326F28C133F109DECC
:100BB000800E006E800E2E19005C02E12D5100089F
:100BC00012E22D51225D316F2B512425326F28C145
:100BD00033F1F7DD2D51225D316F2B51245D326FE2
:100BE00028C133F1EEDD2E512C1902E12B512D19C4
:100BF00035E02B512425316F2F51315F2D512425A4
:100C0000326F28C133F1DDDD2B51245D316F2F515F
:100C1000315F2D512425326F28C133F1D2DD800E92
:100C2000006E800E2E19005C02E12D51000816E2C4
:100C30002B512425316F2F51315F2D51245D326F9F
:100C400028C133F1BEDD2B51245D316F2F51315F4F
:100C50002D51245D326F28C133F1B3DD800E2A1986
:100C6000006E800E005C02E1000E295D13E22DC1D2
:100C700000F02EC101F000360090013600360090E1
:100C80000136060E0026000E0122005029270150D1
:100C90002A231CD02B512D5D036E2C512E59046E2E
:100CA00003C000F004C001F00036009001360036A9
:100CB000009001360A0E0026000E0122005029275E
:100CC00001502A23010E2B5F000E2C5B2D4B2E2B87
:040CD0004CD71200EB
:100CD4000101266B276B286B265107083FE33B6B0A
:100CE4008BDC26C13BF1BEDC3B6BC4DC256B2551A0
:100CF4003F0812E327512225F66E28512321F76E6F
:100D0400000E2421F86E0900F5CF3BF14BEC01F005
:100D1400274B282B252BEBD7400E3B6F6DDC26C1D0
:100D24003BF1A0DC400E3B6FA5DC400E256F255146
:100D34007F0812E327512225F66E28512321F76EEE
:100D4400000E2421F86E0900F5CF3BF14BEC01F0C5
:0E0D5400274B282B252BEBD7262BBED71200C2
:100D62008A908A820101246B245107080FE324C16F
:100D72003BF179DC236B23513F0806E322C13BF1AF
:100D82004BEC01F0232BF7D7242BEED78A928A80E3
:100D9200246B245107080FE324C13BF164DC236B6D
:100DA20023513F0806E322C13BF14BEC01F0232B18
:080DB200F7D7242BEED7120045
:0E0DBA00ACB202D00000FCD722C1ADFF120087
:100DC800000E0101245D04E324513F0801E301D032
:100DD80027D0000E225DD8A0226B22517F0802E2A4
:100DE8007F0E226F000E235DD8A0236B23517F084E
:100DF80002E27F0E236F2251235D06E222C126F113
:100E080023C122F126C123F12251235D09E322C126
:100E180031F124C132F125C133F1CFDC222BF4D7D3
:020E28001200B6
:100E2A000101276B00019C51000A0EE1050E896F32
:100E3A00070E836F9C0E846F380E856F000E866FC7
:100E4A00200E8A6F000E8B6F010127512225E96E51
:100E5A00000E2321EA6EEE5218E027512225E96E90
:100E6A00000E2321EA6EEECF31F124C132F125C101
:100E7A0033F126C134F10EDC00018951010F006EF5
:0C0E8A00005001012427272BDFD71200A5
:100E96000101246B256B22C103F023C104F022C19A
:100EA60005F023C106F003C0E9FF04C0EAFFEE50D7
:100EB600200A04E12451251101E110D0010E246F0E
:100EC600000E256F03C0E9FF04C0EAFF05C0E1FF7D
:100ED60006C0E2FFEECFE6FF054A062A03C001F090
:100EE60004C002F0034A042A01C0E9FF02C0EAFF77
:100EF600EE50000AD8E122C100F023C101F0120031
:100F06000101276B286B22C129F1000E22BFFF0EBB
:100F16002A6F800E2219006E800E000A005C0AE21B
:100F2600274B282B22510008296F2A6B000E22BF5F
:100F3600FF0E2A5B29C131F123C132F124C133F1FD
:100F4600B8DC040E256F000E266F000E006E2651CB
:100F5600005C02E12551000819E225512325E16EC6
:100F660026512421E26E010E255D006E000E2659E3
:100F7600016E00502325E96E01502421EA6EEECF62
:100F8600E6FF010E255F000E265BDFD723C1E1FFDA
:100F960024C1E2FF200EE66E275128111AE0256BC8
:100FA600266B25512325E96E26512421EA6EEE5043
:100FB600200A03E1254B262BF4D7010E255F000EF0
:100FC600265B25512325E16E26512421E26E2D0E46
:040FD600E66E1200B1
:100FDA00040E006E220EE16E010EE26EFF0EE96E45
:100FEA00000EEA6EEECFE6FF0006FCE1040E006E8C
:100FFA00260EE16E010EE26E030EE96E010EEA6E36
:0C100A00EECFE6FF0006FCE1F8DC12006F
:10101600BA0E0001946F0D0E956F220E966F010E9B
:10102600976F760E986F190E996F000E9A6F000ED5
:101036009B6FFF0E8C6FFF0E8D6F000E8E6F000E76
:101046008F6FFA0E906F090E916F000E926F000E61
:10105600936FAC8A900EAB6E948E949C9EAA03D02E
:08106600AECF00F0FBD7120031
:10106E000101146B156B166B176B186B196B1A6BE2
:10107E001B6B05510125006E06510221016E010EFA
:10108E00005C026E000E0158036E000E006E0350DF
:10109E00005C02E102507F0807E201518008056FF3
:1010AE0002C106F1000E065707510325006E0851C6
:1010BE000421016E010E005C026E000E0158036EDB
:1010CE00000E006E0350005C02E102503F0807E282
:1010DE0003514008076F04C108F1000E085703C101
:1010EE0000F004C101F001320032019E01320032E3
:1010FE00019E01320032019E00C0FFF00751032510
:10110E00056E08510421066E010E055C036E000E7D
:10111E000658046E03C000F004C001F00132003224
:10112E00019E01320032019E01320032019E00C04A
:10113E0000F1070E0315006E04C101F0000E01163A
:10114E0000C011F1070E0514006E06C001F0000E6E
:10115E00011600C012F10C51085D02E10B51075D42
:10116E0003E200C113F11BD00B510325006E0C518D
:10117E000421016E010E005C036E000E0158046E18
:10118E0003C000F004C001F001320032019E0132B2
:10119E000032019E01320032019E00C013F1070E93
:1011AE000B15016E0CC102F0000E0216000E021895
:1011BE0002E1000E011818E10BC100F00CC101F0A4
:1011CE0001320032019E01320032019E01320032A4
:1011DE00019E09C104F00AC105F00CEC03F000C039
:1011EE001EF101C01FF119D00BC100F00CC101F0AE
:1011FE0001320032019E01320032019E0132003274
:10120E00019E004A012A09C104F00AC105F00CEC46
:10121E0003F000C01EF101C01FF1FFC014F1000E5B
:10122E00156F000E006E1551005C02E11451005D49
:10123E00D8A007D11C6B1D6B166B176B0651175D73
:10124E0002E10551165DD8B0EBD0165101253B6F6A
:10125E00FEEC02F014C13BF134EC03F00A51175DC1
:10126E0002E10951165D3FE2000E006E1551005C61
:10127E0002E11451135D37E3000E151904E100016C
:10128E00FF510101141902E1206B12D01A511C25D5
:10129E00006E1B511D21016E00500D25F66E015082
:1012AE000E21F76E000E0F21F86E0900F5CF20F11A
:1012BE001F51195D02E11E51185D02E3216B12D020
:1012CE0018511C25006E19511D21016E00500D255F
:1012DE00F66E01500E21F76E000E0F21F86E09000A
:1012EE00F5CF21F102D0216B206B21C110F11151EC
:1012FE0000081AE211510808006E016A000E015A28
:10130E0020C110F1005004E01033109FFF0FFBD7E7
:10131E0011C101F021C100F0015004E0003600902F
:10132E00FF0FFBD700501013000E151904E100013A
:10133E00FF51010114192DE1115100082AE2165135
:10134E0001253B6F3CEC03F0D7EC02F0D7EC02F03A
:10135E0011510808016E026A000E025A01C002F015
:10136E00FF0E016E025004E00132019EFF0FFBD70B
:10137E0001500014026E11C101F0FF0E006E0150FB
:10138E0004E000360090FF0FFBD7005010170250FC
:10139E001013000E151902E1005114192DE112510E
:1013AE0000082AE2165101253B6F3CEC03F0D7EC06
:1013BE0002F0D7EC02F012C102F0FF0E016E0250E5
:1013CE0004E001360190FF0FFBD701500014026EAE
:1013DE0012510808006E016A000E015A00C001F099
:1013EE00FF0E006E015004E00032009EFF0FFBD78F
:1013FE0000501017025010130A51175D02E10951E7
:10140E00165D02E21C4B1D2B165101253B6F3CEC69
:10141E0003F010C13BF14BEC01F0164B172B0ED71E
:10142E00000E155D02E11351145D08E218C11AF1A8
:10143E0019C11BF1095118270A511923144B152BE9
:04144E00F0D61200C2
:101452009C0E0101226F2C0E236F000E246F39DCCB
:02146200120076
:1014640001C105F102C106F10101076B086B0451CA
:10147400085D02E10351075D12E2FDEC04F0005047
:10148400010A0CE107510525E96E08510621EA6EAF
:10149400EECF22F190DC0101074B082BE8D703C102
:0814A40000F004C101F0120088
:0814AC000101226B58DC120063
:1014B40001C122F1010103510125236F02C124F16D
:0814C40005C125F17FDC1200D7
:1014CC0001C122F102C123F1A80E0101246F000E0B
:1014DC00256F30502427D8B0252B03C126F104C129
:1014EC0027F160EC05F00351302603C100F004C174
:0414FC0001F01200E9
:101500003050315C006E016A000E015A000E016E0F
:021510001200C7
:1015120001C122F1000E010101BFFF0E236F02C1C2
:1015220024F1000E02BFFF0E256F03C126F1000E4B
:1015320003BFFF0E276F05C128F188EC05F01200EA
:06154200316A306A12005C
:10154800276A286A266A296A00017C6B200E7D6F4B
:10155800370E7E6F090E7F6F090E806F816B010E4B
:10156800826F5E0E706F370E716F090E726F090E03
:10157800736F746B010E756F060E006E760EE16E5A
:10158800000EE26E700EE96E000EEA6EEECFE6FF18
:101598000006FCE13E0E6B6F030E6C6F010E6D6F63
:1015A8003C0E6E6F370E0101226F000E236F96EC12
:0415B80004F0120029
:1015BC0002C1FFF00001FF510101045D0DE301C107
:1015CC0022F103C123F1FFC024F105C125F1E4ECA4
:0A15DC0006F00001FF2BEED712000D
:1015E6009C0E0101226F340E236F000E246F6AECED
:1015F60006F0290E0B6E960E0C6E7F0E0D6E0D2EDE
:10160600FED70C2EFCD70B2EFAD7226BB1EC06F0C8
:021616001200C0
:1016180000C002F001C003F0016A80B4012A015041
:10162800010A010ED8A4000E006E00C004F0016A81
:1016380080B6012A0150010A010ED8A4000E006EDE
:1016480000C005F0016A80B8012A0150010A010EA4
:10165800D8A4000E006E00C006F0030E006E02C093
:10166800E1FF03C0E2FF040EE96E000EEA6EEECF62
:08167800E6FF0006FCE1120090
:101680009C0E0101226F300E236F000E246F6AEC56
:1016900006F0290E0B6E960E0C6E7F0E0D6E0D2E43
:1016A000FED70C2EFCD70B2EFAD7226BB1EC06F02E
:0216B000120026
:1016B20001C122F1320E0101236F000E246F22DCE0
:1016C200320E226F000E236F4BEC07F000C022F1A6
:1016D20001C023F10F0E246F070E256F010E266F36
:1016E20015EC07F002C122F1320E236F000E246FB7
:1016F20009DC320E226F000E236F4BEC07F000C0A4
:1017020022F101C023F16B0E246F070E256F010E2B
:08171200266F15EC07F0120030
:10171A000900F5CFE6FF0006FBE10106F9E1120038
:10172A0000019C6B876B886B939A9398939493961A
:10173A00939093928A9A120E006E000E016E830E97
:10174A000024E16E0F0E0120E26EE66A8A948A9600
:10175A008A908A828A8A3F0E836E7FEC00F0C00EDE
:10176A00836E7FEC00F08A808A923F0E836E7FEC54
:0C177A0000F0C00E836E7FEC00F0120047
:10178600830ED56E0B0ED76EDC0ED66EF28EF28AF7
:0217960012003F
:10179800EFC003F0EEC002F0006A016A00C0A0F0DA
:1017A80001C0A1F002C0A2F003C0A3F0FF0E000127
:1017B800EE15006EFF0EEF15016EF0C002F0F1C0DD
:1017C80003F0000E0216031600C0A4F001C0A5F035
:0A17D80002C0A6F003C0A7F0120043
:1017E200190E0001F26F220EF36F030EF46FF56B08
:1017F2002FDE040E006E010EE16E010EE26EF20E9D
:10180200E96E000EEA6EEECFE6FF0006FCE1010E85
:10181200056F7EDEF60E006E000E016EFCDE030E1C
:10182200006EEF0EE16E000EE26EF60EE96E000E35
:10183200EA6EEECFE6FF0006FCE10001F15309E09B
:10184200EE51000A06E131DE020E006E000E016E5C
:1018520090D00001EF5303E1F05301E13DD0EE518E
:10186200000A3AE1040E006E010EE16E010EE26E14
:10187200F20EE96E000EEA6EEECFE6FF0006FCE124
:101882000101056B45DE0E0E0001F325006E00C05E
:10189200F3F0040E006E010EE16E010EE26EF20E26
:1018A200E96E000EEA6EEECFE6FF0006FCE1010EE5
:1018B2000101056F2DDE010E0001EE6F070E0B6EAA
:1018C200C20E0C6ED80E0D6E0D2EFED70C2EFCD74E
:1018D2000B2EFAD700009ED7F15309E0EE51010A10
:1018E20006E1E3DD030E006E000E016E42D0000140
:1018F200EF5303E1F05301E13BD0EE51010A38E12D
:10190200040E006E010EE16E010EE26EF20EE96E41
:10191200000EEA6EEECFE6FF0006FCE10101056B68
:10192200F7DD0E0E0001F35D006E00C0F3F0040E51
:10193200006E010EE16E010EE26EF20EE96E000E15
:10194200EA6EEECFE6FF0006FCE1010E0101056F33
:10195200DFDD0001EE6B070E0B6EC20E0C6ED80EB1
:101962000D6E0D2EFED70C2EFCD70B2EFAD70000D3
:0419720051D7120037
:10197600AECF01F0ABA202D0AB98AB8801C000F0AD
:0219860012004D
:1019880000C0F6F001C0F7F0FC0E006E000E016E0C
:101998003FDE030E006EF80EE16E000EE26EFC0EE6
:1019A800E96E000EEA6EEECFE6FF0006FCE10001EC
:1019B800FB6B800E000A006E800E005C02E1FB519A
:1019C8000C0843E3FBC000F0000E016E00360090E7
:1019D80001360036009001360050F425E96E0150BA
:1019E800F521EA6E040E006EFF0EE16E000EE26E47
:1019F800EECFE6FF0006FCE1040E006E030EE16E7A
:101A0800010EE26EEE0EE96E000EEA6EEECFE6FF14
:101A18000006FCE1EDEC07F0005214E0200E000196
:101A2800EE6F370EEF6F060E006EF6C0E1FFF7C0DF
:101A3800E2FFEE0EE96E000EEA6EEECFE6FF00065C
:101A4800FCE16BD00001FB2BB4D7F95321E0F35133
:101A5800EF25026E02C0EFF0F105006E000EF1BF37
:101A6800FF0E016E000E015A02500024026E000E95
:101A780002BEFF0E0120036E800E0318006E800E5A
:101A8800005C02E13F0E025C02E3370EEF6F37D0D5
:101A9800F85326E0F351EF5D016E01C0EFF0800EC0
:101AA800000A006E800E0118005C19E3200EEE6F2C
:101AB800370EEF6F272A27C001F128C002F1F5DDA4
:101AC800060E006EF6C0E1FFF7C0E2FFEE0EE96E0B
:101AD800000EEA6EEECFE6FF0006FCE11ED00FD046
:101AE800060E006EF6C0E1FFF7C0E2FFEE0EE96EEB
:101AF800000EEA6EEECFE6FF0006FCE10ED0060E01
:101B0800006EF6C0E1FFF7C0E2FFEE0EE96E000ED0
:0C1B1800EA6EEECFE6FF0006FCE11200D2
:101B2400B886B06A670EAF6EAC840BEC08F0020E98
:101B34000B6E040E0C6EBA0E0D6E0D2EFED70C2E0F
:101B4400FCD70B2EFAD700009D8AF28CF28E12007D
:101B54009C0E0101226F280E236F000E246F6AEC85
:101B640006F0290E0B6E960E0C6E7F0E0D6E0D2E6A
:0E1B7400FED70C2EFCD70B2EFAD796DC1200F3
:101B82000001F06B0D0EF05DD8B0D6D0F0C000F0C1
:101B9200000E016E003600900136003600900136CC
:101BA2000050EE25E96E0150EF21EA6E040E006E40
:101BB200010EE16E010EE26EEECFE6FF0006FCE1E1
:101BC2000101056B76DC010E0001F015016E01507A
:101BD200010A49E1F0C000F0000E016E00360090EB
:101BE20001360036009001360050EE25E96E0150B4
:101BF200EF21EA6EEECF01F0800E000A006E800E39
:101C02000118005C12E3F0C000F0000E016E003615
:101C1200009001360036009001360050EE25E16E4C
:101C22000150EF21E26E7C0EE66EF0C000F0000E75
:101C3200016E0036009001360036009001360050E9
:101C4200EE25026E0150EF21036E02C0E9FF03C0D0
:101C5200EAFFEECF00F0000602C0E1FF03C0E2FFA0
:101C620000C0E6FF47D0F0C000F0000E016E003663
:101C7200009001360036009001360050EE25E96EE4
:101C82000150EF21EA6EEECF01F0800E0118006ED6
:101C9200800E7C0A005C11E3F0C000F0000E016EC1
:101CA2000036009001360036009001360050EE25D5
:101CB200E16E0150EF21E26EE66AF0C000F0000E24
:101CC200016E003600900136003600900136005059
:101CD200EE25026E0150EF21036E02C0E9FF03C040
:101CE200EAFFEECF00F0002A02C0E1FF03C0E2FFEC
:101CF20000C0E6FFF0C000F0000E016E003600905A
:101D020001360036009001360050EE25E96E015092
:101D1200EF21EA6E040E006E010EE16E010EE26E1C
:101D2200EECFE6FF0006FCE1010E0101056F5AEC61
:0A1D32000AF00001F02B26D7120082
:101D3C000001F06B0D0EF05DD8B01CD1F0C000F0BE
:101D4C00000E016E00360090013600360090013610
:101D5C000050EE25E96E0150EF21EA6E040E006E84
:101D6C00FF0EE16E000EE26EEECFE6FF0006FCE128
:101D7C00040E006E030EE16E010EE26E7D0EE96E36
:101D8C00000EEA6EEECFE6FF0006FCE1EDEC07F08C
:101D9C00005218E0370E00017E6F240E0101016F16
:101DAC00000E026F020E036F000E046F32EC0AF08D
:101DBC007D0E016F000E026F040E036F000E046F98
:101DCC0032EC0AF0F0C000F0000E016E003600900C
:101DDC00013600360090013600500001EE25E96E08
:101DEC000150EF21EA6E040E006E010EE16E010E41
:101DFC00E26EEECFE6FF0006FCE10101056B5AEC4A
:101E0C000AF0010E0001F015016E0150010A49E1C2
:101E1C00F0C000F0000E016E003600900136003666
:101E2C00009001360050EE25E96E0150EF21EA6E6C
:101E3C00EECF01F0800E000A006E800E0118005CDF
:101E4C0012E3F0C000F0000E016E00360090013677
:101E5C000036009001360050EE25E16E0150EF2166
:101E6C00E26E7C0EE66EF0C000F0000E016E0036E5
:101E7C00009001360036009001360050EE25026EBF
:101E8C000150EF21036E02C0E9FF03C0EAFFEECF61
:101E9C0000F0000602C0E1FF03C0E2FF00C0E6FF55
:101EAC0047D0F0C000F0000E016E003600900136F5
:101EBC000036009001360050EE25E96E0150EF21FE
:101ECC00EA6EEECF01F0800E0118006E800E7C0AD7
:101EDC00005C11E3F0C000F0000E016E00360090C3
:101EEC0001360036009001360050EE25E16E0150AF
:101EFC00EF21E26EE66AF0C000F0000E016E0036D3
:101F0C00009001360036009001360050EE25026E2E
:101F1C000150EF21036E02C0E9FF03C0EAFFEECFD0
:101F2C0000F0002A02C0E1FF03C0E2FF00C0E6FFA0
:101F3C00F0C000F0000E016E003600900136003645
:101F4C00009001360050EE25E96E0150EF21EA6E4B
:101F5C00040E006E010EE16E010EE26EEECFE6FF96
:101F6C000006FCE1010E0101056F5AEC0AF00001BC
:101F7C00F02BE0D62E0E0101016F000E026F020E47
:0C1F8C00036F000E046F32EC0AF012002C
:101F980000C0F6F001C0F7F00101316B326BC80EDA
:101FA800336F000E346F3BEC04F000C0F9F0000111
:101FB800F86B0D0EF85D43E2F8C000F0000E016EFC
:101FC8000036009001360036009001360050F425A6
:101FD800E96E0150F521EA6E040E006EFF0EE16E07
:101FE800000EE26EEECFE6FF0006FCE1040E006E86
:101FF800030EE16E010EE26EEE0EE96E000EEA6E61
:10200800EECFE6FF0006FCE1EDEC07F0005214E02D
:102018005E0E0001EE6F370EEF6F060E006EF6C013
:10202800E1FFF7C0E2FFEE0EE96E000EEA6EEECFBA
:10203800E6FF0006FCE190D00001F82BBAD7F95171
:10204800B90814E2F351EF25006E00C0EFF0060E58
:10205800006EF6C0E1FFF7C0E2FFEE0EE96E000E7B
:10206800EA6EEECFE6FF0006FCE176D00F0EF95DD2
:1020780014E2F351EF5D006E00C0EFF0060E006E43
:10208800F6C0E1FFF7C0E2FFEE0EE96E000EEA6E61
:10209800EECFE6FF0006FCE15FD0F351EF5D016E85
:1020A80001C0EFF0800E000A006E800E0118005C7F
:1020B8001AE35E0EEE6F370EEF6F282A27C001F184
:1020C80028C002F159EC0BF0060E006EF6C0E1FFD5
:1020D800F7C0E2FFEE0EE96E000EEA6EEECFE6FF05
:1020E8000006FCE139D00001F105006E000EF1BFD9
:1020F800FF0E016E000E015AEF510024026E000E11
:10210800EFBFFF0E0120036E800E0318006E800ED5
:10211800005C02E13F0E025C11E3370EEF6F060E22
:10212800006EF6C0E1FFF7C0E2FFEE0EE96E000EAA
:10213800EA6EEECFE6FF0006FCE10ED0060E006E5A
:10214800F6C0E1FFF7C0E2FFEE0EE96E000EEA6EA0
:0A215800EECFE6FF0006FCE11200E6
:10216200EEC001F1EFC002F10001F051EE250101D4
:10217200036F0001F151EF250101046FF2C005F177
:06218200DEEC0AF0120081
:1021880080EC0AF0800E0118026E800E025C02E1FB
:10219800020E005C4FE3EE0E0101016F000E026FAC
:1021A800020E036F000E046F66EC0AF00001EF5197
:1021B8001E1802E11D50EE1903E1010E236EE0D74F
:1021C800EF51251802E12450EE190CE1760E0101B9
:1021D800016F000E026F040E036F000E046F66ECB1
:1021E8000AF0CED70001EF51201802E11F50EE1976
:1021F8000CE1760E0101016F000E026F040E036FF1
:10220800000E046F66EC0AF0BBD70001EF512218EC
:1022180002E12150EE1903E1010E2B6EB1D7EF5107
:102228002D1802E12C50EE1903E1010E2A6EA8D7F1
:06223800A1EC0AF0120007
:10223E00EEC001F1000E0001EEBFFF0E0101026FB4
:10224E00EFC003F1000E0001EFBFFF0E0101046F9E
:10225E00F0C005F1000E0001F0BFFF0E0101066F88
:10226E00F1C007F1000E0001F1BFFF0E0101086F72
:10227E00F0C009F1000E0001F0BFFF0E01010A6F60
:10228E00F1C00BF1000E0001F1BFFF0E01010C6F4A
:10229E00F2C00DF1F3C00EF1F4C00FF137EC08F0FF
:0222AE0012001C
:1022B0001B0E0101016F000E026F020E036F000E74
:1022C000046F32EC0AF080EC0AF0800E026E800E91
:1022D0000118025C02E10050020814E2EE0E016FE8
:1022E000000E026F020E036F000E046F66EC0AF020
:1022F0000001EF511A1802E11950EE1901E10FD057
:10230000A1EC0AF0030E0B6E080E0C6E770E0D6E2C
:102310000D2EFED70C2EFCD70B2EFAD7C9D71200E4
:10232000010E0001EE25E96E000EEF21EA6E800E2F
:10233000EE18006E800E3F0A005C15E32750285C03
:1023400008E2F3EC0AF0A4EC0AF0010E00016F6F52
:102350000AD02850275C07E240EC0BF0A4EC0AF00E
:10236000010E00016F6F265214E0010EEE25016E82
:10237000000EEF21026E01C0E9FF02C0EAFFEECFBE
:1023800000F0002A01C0E1FF02C0E2FF00C0E6FF4A
:04239000266A1200A7
:102394005DEC1DF000016F6B0F0EC16E92EC0DF041
:1023A400A1EC0AF0210EEE6F000EEF6FF06FF16FEB
:1023B400CCEC0BF0A4EC0AF095EC0BF00101226BD1
:1023C400B1EC06F0C3EC0BF053D2AAEC0DF0010E05
:1023D40000016F6F5FD27CC0EEF0F1EC0BF000C037
:1023E4006FF058D2A4EC0AF056EC0AF027C001F1C1
:1023F40028C002F159EC0BF0F28A6B0E0001EE6F6B
:10240400000EEF6F8BDF6F51010A03E156EC0AF007
:10241400D8D0060E006EEE0EE16E000EE26E7D0E5A
:10242400E96E000EEA6EEECFE6FF0006FCE1370E21
:102434000001F46F000EF56FE80E006E000E016EE1
:10244400C4EC0CF0060E006E7D0EE16E000EE26E22
:10245400E80EE96E000EEA6EEECFE6FF0006FCE140
:10246400370E0001EE6F000EEF6FC1EC0DF0060E9B
:10247400006EEE0EE16E000EE26E700EE96E000E5E
:10248400EA6EEECFE6FF0006FCE10001370EF46FC2
:10249400000EF56FE80E006E000E016E7BDD060E79
:1024A400006E700EE16E000EE26EE80EE96E000E34
:1024B400EA6EEECFE6FF0006FCE1040E006EEE0EBF
:1024C400E16E000EE26E6B0EE96E000EEA6EEECF68
:1024D400E6FF0006FCE1010E0001F26F40DE040E8F
:1024E400006EEE0EE16E000EE26E700EE96E000EEE
:1024F400EA6EEECFE6FF0006FCE1950E0001F26FF6
:102504003A0EF36F000EF46F98DE040E006EEE0EBA
:10251400E16E000EE26E7D0EE96E000EEA6EEECF05
:10252400E6FF0006FCE1950E0001F26F3A0EF36F30
:10253400000EF46F82DE9C0E0C6ED70E0D6E0D2E07
:10254400FED70C2EFCD7040E006EEE0EE16E000ECC
:10255400E26E6B0EE96E000EEA6EEECFE6FF000649
:10256400FCE10001F26BFBDD040E006EEE0EE16E89
:10257400000EE26E7D0EE96E000EEA6EEECFE6FF0F
:102584000006FCE1A70E0001F26F3A0EF36F000E95
:10259400F46F53DE040E006EEE0EE16E000EE26E7A
:1025A400700EE96E000EEA6EEECFE6FF0006FCE167
:1025B400A70E0001F26F3A0EF36F000EF46F3DDECA
:1025C4001CD768D1210E0001EE6F000EEF6FF06F83
:1025D400F16FCCEC0BF0A4EC0AF0F29A67DE27C0A2
:1025E40001F128C002F159EC0BF0370E0001EE6F37
:1025F400000EEF6F9EEC0EF0C5DD235207E00001E4
:102604006C51010F006E00C06CF0236A2B5208E07D
:102614002B6A282A27C001F128C002F159EC0BF0DB
:10262400E80E006E000E016E0CEC0BF0030E006E53
:102634009D0EE16E000EE26EE80EE96E000EEA6E8B
:10264400EECFE6FF0006FCE100019D5336E07E0577
:10265400006E00C07EF0800E000A006E800E7E19AF
:10266400005C16E3200E7D6F370E7E6F272A210E45
:102674000101016F000E026F020E036F000E046F62
:1026840032EC0AF027C001F128C002F159EC0BF03A
:102694000101240E016F000E026F020E036F000E83
:1026A400046F32EC0AF07D0E016F000E026F040E0F
:1026B400036F000E046F32EC0AF000019E5335E004
:1026C4007E51010F006E00C07EF08005006E000E8A
:1026D40080BFFF0E016E000E015A7E510024026E6F
:1026E400000E7EBFFF0E0120036E800E0318006EE5
:1026F400800E005C02E13F0E025C02E3370E7E6F47
:10270400240E0101016F000E026F020E036F000E12
:10271400046F32EC0AF07D0E016F000E026F040E9E
:10272400036F000E046F32EC0AF02A5214E02A6A96
:102734002750285C03E2F3EC0AF008D02850275C09
:1027440003E240EC0BF002D040EC0BF0A4EC0AF0F6
:10275400010E00016F6F00016F51010A03E156EC95
:102764000AF084D0040E006EEE0EE16E000EE26EEE
:102774006B0EE96E000EEA6EEECFE6FF0006FCE19A
:10278400010E0001F26FEBDC040E006EEE0EE16E42
:10279400000EE26E7D0EE96E000EEA6EEECFE6FFED
:1027A4000006FCE1950E0001F26F3A0EF36F000E85
:1027B400F46F43DD040E006EEE0EE16E000EE26E69
:1027C400760EE96E000EEA6EEECFE6FF0006FCE13F
:1027D400950E0001F26F3A0EF36F000EF46F2DDDCB
:1027E4009C0E0C6ED70E0D6E0D2EFED70C2EFCD744
:1027F400040E006EEE0EE16E000EE26E6B0EE96EDC
:10280400000EEA6EEECFE6FF0006FCE10001F26B7B
:10281400A6DC040E006EEE0EE16E000EE26E7D0E7E
:10282400E96E000EEA6EEECFE6FF0006FCE1A70EAD
:102834000001F26F3A0EF36F000EF46FFEDC040E2B
:10284400006EEE0EE16E000EE26E760EE96E000E84
:10285400EA6EEECFE6FF0006FCE1A70E0001F26F80
:102864003A0EF36F000EF46FE8DCBFD613D012D02B
:1028740000016F51000AD8B4A8D56F51010AD8B429
:10288400AAD56F51020AD8B4ADD56F51030AD8B492
:0828940099D6EDD799D5FFD7C5
:103ABA0010EE19F0190E006E010E016E7C0EF66EF4
:0E3ACA003A0EF76E000EF86E8DEC0BF0120047
:10289C000000000000000000FFFFFF87878787878C
:1028AC00878787000000FFFFFF0707070707FFFF69
:1028BC00FF0000FFFFFF878787FFFFFF0000FFFF80
:1028CC00FFFF0707070707070700FFFFFF8787873B
:1028DC000707000000000000FFFFFF0707070707BE
:1028EC00070707F8F8F80000FFFFFF878787FFFF4F
:1028FC00FF0000FFFFFF070707070700FFFFFF8729
:10290C008787870707000000000000000000000018
:10291C000000000000000000C3C3C3C3C3C3C3FF57
:10292C00FFFFFF000000FFFFFF0707070707070770
:10293C00070000FFFFFF030303FFFFFF0000FFFF83
:10294C00FFFFC0C0C0C0C0C0C000FFFFFFC3C3C3F7
:10295C00C0C0000000000000FFFFFF0E0E0E7E7EC8
:10296C007E7ECEC1C1010000FFFFFF030303FFFF0A
:10297C00FF0000FFFFFFC0C0C0C0C000FFFFFFC3CF
:10298C00C3C3C3C0C0000000000000000000000072
:10299C00000000000000000001010101E1E10181E3
:1029AC0081C1E160000001616160E0E06060600095
:1029BC0000E0E00101C1C0C0C0C1C10100C0C1C183
:1029CC00C1C1C1C10101E1E1C10001E1E1010101AC
:1029DC000101000000C0C0C0C1C1C10000C0C0C026
:1029EC00C0C0C1C101C0C0C0C1C1C100C0C0C1C153
:1029FC00C1C000E1E1C10101E1E101C0C1C1C1C13E
:102A0C00C1C10101C1C0C0C0C00000000000000075
:102A1C000000000000000000000000007F7F070F96
:102A2C000F1D38787000006060607F7F0000000030
:102A3C00007F7F00007F7F0C1E7F7700007F7F6010
:102A4C0060607F7F00007F7F030F3C7F7F00000072
:102A5C0060600000007F7F0C1E7F7700007F7F6628
:102A6C0066667F3F007F7F0C1E7F77007F7F6660EE
:102A7C006060007F7F030F3C7F7F007F7F6660601C
:102A8C00606000006F6F6C7D7D0000000000000036
:102A9C0000000000000000000000606060E0E060EA
:102AAC0060606000E0E06060E0E000E0E0000000FA
:102ABC00E0E000000000E0E06060606000E0E060EA
:102ACC006060E0E000000000E0E06060606000003A
:102ADC00E0E0C00080C0E0E00000E0E06060E0E02A
:102AEC00E000E0E06060606000E0E06060E0E0007A
:102AFC0000E0E00000E0E0E0E0C00000E0E060604A
:102B0C0060E0E000E0E060E0E000000000000000B9
:102B1C00000000000000000000000000003F3F002B
:102B2C00000000003F3F06063F3F003F3F303000B3
:102B3C003F3F303000003F3F33303030003F3F06E6
:102B4C00060F3F3B000000003F3F333030300000A9
:102B5C003F3F030707013F3F00003F3F33333F1F19
:102B6C001F003F3F33303030003F3F33333F1F00B7
:102B7C00003F3F00003F3F30391F0F003F3F3030D8
:102B8C00303F3F003737363E3E000000000000006B
:102B9C000000000000000000000000000000000029
:102BAC000000000000000000000000000000000019
:102BBC00000000000000000000F8F8D818181800F9
:102BCC000000F8F898D8F8F80000FCFC00007C7CB9
:102BDC00C0C000C0E07C7C0000F8F8D818181800C1
:102BEC0000F8F898D8F8F800F8F89898F8F8000079
:102BFC0000000000000000000000000000000000C9
:102C0C0000000000000000000000000000000000B8
:102C1C0000000000000000000000000000000000A8
:102C2C000000000000000000000000000000000098
:102C3C000000000000000000000F0F0C0C0C0C003A
:102C4C0000000F0F01030F0E00000F0F000000001B
:102C5C00030F0C0F03000000000F0F0C0C0C0C00EA
:102C6C00000F0F01030F0E000F0F01010F0F0000DB
:102C7C000000000000000000000000000000000048
:102C8C000000000000000000000000000000000038
:102C9C00000000000000000000000000FCFCFC1C18
:102CAC001C1C1C1C1C1C1C000000FCFCFC1C1C1C0C
:102CBC001C1CFCFCFC0000FCFCFC1C1C1CFCFCFCA0
:102CCC00FC0000FCFCFC1C1C1C1C1C1C1C00FCFC4C
:102CDC00FC1C1C1C1C1C000000000000FCFCFC1C50
:102CEC001C1C1C1C1C1C1CE0E0E00000FCFCFC1C64
:102CFC001C1CFCFCFC0000FCFCFC1C1C1C1C1C001C
:102D0C0000FCFCFC1C1C1C1C1C0000000000000037
:102D1C000000000000000000000000000F0F0F0E6C
:102D2C000E0E0E0EFEFEFE000000FFFFFF1C1C1C14
:102D3C001C1C1F1F1F0000FFFFFF0E0E0EFFFFFFCE
:102D4C00FF0000FFFFFF0000000000000000FFFF7D
:102D5C00FF0E0E0E0000000000000000FFFFFF3809
:102D6C00383838F8F8F8380707070000FFFFFF0E6F
:102D7C000E0EFFFFFF0000FFFFFF00000000000031
:102D8C0000FFFFFF0E0E0E00000000000000000010
:102D9C00000000000000000000000000070707070B
:102DAC0007070707070707000000070707000000D1
:102DBC0000000000000000070707000000070707DD
:102DCC00070000070707070707070707070007079C
:102DDC0007070707070700000000000007070700A8
:102DEC0000000001010107070700000007070700AA
:102DFC00000007070700000707070707070707007A
:102E0C00000707070707070707000000000000007E
:102E1C0000000000000000000000000000000000A6
:102E2C000000000000000000000000000000000096
:102E3C00000000000000C0C0C0C000000000000086
:102E4C0000E0E0606060E0E00000E0E00000000016
:102E5C00E0E0606060E0E00000E0E00000E0E00046
:102E6C0000E0E0606060600000E0E06060E0E000D6
:102E7C000000000000000000000000000000000046
:102E8C000000000000000000000000000000000036
:102E9C000000000000000000000000000000000026
:102EAC000000000000000000000000000000000016
:102EBC0000000000000060607F7F60600000000088
:102ECC00007F7F060606070700007F7F60606000BA
:102EDC007F7F0606067F7F000001037F7F030100D2
:102EEC00007F7F6660606000007F7F0C1E7F730038
:102EFC0000000000000000000000000000000000C6
:102F0C0000000000000000000000000000000000B5
:102F1C0000000000000000000000000000000000A5
:102F2C000000000000000000000000000000000095
:102F3C00000000000000B0B0B0B0F0F000000000E5
:102F4C0000F8F8989898F8F80000F8F800000000DD
:102F5C00F8F8989898F8F8000078F8C0C0F878005D
:102F6C0000F8F8981818180000F8F81898F8F800F5
:102F7C00F8F89898989800000000000000000000F5
:102F8C000000000000000000000000000000000035
:102F9C000000000000000000000000000000000025
:102FAC000000000000000000000000000000000015
:102FBC000000000000000F0F0D0D0D0D00000000B3
:102FCC00001F1F010101010100001F1F181818002C
:102FDC001F1F0101011F1F000000001F1F00000028
:102FEC00001F1F1918181800001F1F03071F1C00B3
:102FFC000D0D0D0D0F0F0000000000000000000073
:10300C0000000000000000000000000000000000B4
:10301C0000000000000000000000000000000000A4
:10302C000000000000000000000000000000000094
:10303C000000000000000000000000000000000084
:10322C00000000000000000000E0F0D01010107052
:10323C006000C0E0301010F0E0C000F0F0E0C0C062
:10324C00F0F0F00010F0F09090B0301000000000A2
:10325C00000000000000F0F0101010F0F00010F072
:10326C00F0000000F0F00000F0F0F09090B03000B2
:10327C0010F0F0F09090F0E0000000000000000072
:10328C000000000000000000000000000000000032
:10329C000000000000000000000000000000000022
:1032AC00000000000000000000070F0F08080B0FC3
:1032BC0007000F0F0303030F0F0F000F0F00030086
:1032CC000F0F0F00080F0F09090D0C08000000006C
:1032DC000000000000000F0F0808080F0F0001038A
:1032EC00070E0C06070300080F0F0F09090D0C0041
:1032FC00080F0F0F03070F0C000000000000000068
:10330C0000000000000000000000000000000000B1
:10331C0000000000000000000000000000000000A1
:10332C000000000000000000000000000000000091
:10333C000000000000000000000000000000000081
:1035CC000000808080808080F0F0F0F0F0F0F0F06F
:1035DC00F0F0F0F0F0F0F0F080808080808000005F
:1035EC0000000000000000000000000000000000CF
:1035FC0000000000000000000000000000000000BF
:10360C0000000000000000000000000000000000AE
:10361C00000000000000000000000000000000009E
:10362C00000000000000000000000000000000008E
:10363C00000000000000000000000000000000007E
:10364C00000001010104040607070F8F0FFFFFFFA5
:10365C00FFFFFF0F8F0707070404040001010000A0
:10366C00000000000000000000000000000000004E
:10367C00000000000000000000000000000000003E
:10368C00000000000000000000000000000000002E
:10369C00000000000000000000000000000000001E
:1036AC00000000000000000000C0C000000000008E
:1036BC0000C0C0C0C000808040404040C0C080807E
:1036CC000000C0C0000000C0C0C0C000000000006E
:1036DC0000C0C00000000000C0C0C0C00000C0C0DE
:1036EC00C0C00000C0C08080000000C0C0C0C000CE
:1036FC0000C0C0C0C00000000000000000000000BE
:10370C0000000000000000000000000000000000AD
:10371C00000000000000000000000000000000009D
:10372C00000000000000000000010102021E1E1F2C
:10373C001F0303010100070F081010101F1F0F0FAC
:10374C0000000F0F1010101F1F0F0F0000000000C3
:10375C00000F0F10000E0E101F1F0F0F00001F1F69
:10376C001F1F00001F0F00000101020F1F1F1F0071
:10377C0000171717170000000000000000000000E1
:10378C00000000000000000000000000000000002D
:10379C00000000000000000000000000000000001D
:1037AC00000000000000000000000000000000000D
:1037BC0000000000000000000000000000000000FD
:1037CC0000000000000000000000000000000000ED
:1037DC0000000000000000000000000000000000DD
:1037EC0000000000000000000000000000000000CD
:1037FC0000000000000000000000000000000000BD
:10380C0000000000000000000000000000000000AC
:10381C00000000000000000000000000000000009C
:10382C00000000000000000000000000000000008C
:10383C00000000000000000000000000000000007C
:10384C00000000000000000000000000000000006C
:10385C00000000000000000000000000000000005C
:10386C00000000000000000000000000000000004C
:10387C00000000000000000000000000000000003C
:10388C00000000000000000000000000000000002C
:10389C00000000000000005F00000007000700149B
:1038AC007F147F14242A7F2A12231308646236495A
:1038BC005522500005030000001C2241000041224B
:1038CC001C00082A1C2A0808083E08080050300072
:1038DC000008080808080030300000201008040216
:1038EC003E5149453E00427F4000426151494621CC
:1038FC0041454B311814127F1027454545393C4A38
:10390C004949300171090503364949493606494987
:10391C00291E00363600000056360000000814221E
:10392C004114141414144122140800020151090604
:10393C00324979413E7E1111117E7F494949363E0B
:10394C00414141227F4141221C7F494949417F0924
:10395C000901013E414151327F0808087F00417F37
:10396C0041002040413F017F081422417F404040EC
:10397C00407F0204027F7F0408107F3E4141413E9C
:10398C007F090909063E4151215E7F0919294646E6
:10399C004949493101017F01013F4040403F1F200F
:1039AC0040201F7F2018207F6314081463030478C1
:1039BC000403615149454300007F41410204081052
:1039CC002041417F0000040201020440404040407D
:1039DC00000102040020545454787F484444383881
:1039EC0044444420384444487F3854545418087E86
:1039FC00090102081454543C7F0804047800447DE7
:103A0C0040002040443D00007F10284400417F408E
:103A1C00007C041804787C08040478384444443846
:103A2C007C14141408081414187C7C08040408482A
:103A3C0054545420043F4440203C4040207C1C20E3
:103A4C0040201C3C4030403C44281028440C505032
:103A5C00503C4464544C44000836410000007F0044
:103A6C0000004136080008082A1C08081C2A08080F
:023A7C001191A6
:023A7E00229292
:023A800055955A
:023A8200669646
:023A8400779732
:013A8600003F
:023A8700449465
:013A8900003C
:013A8A00003B
:013A8B00003A
:013A8C000039
:013A8D000038
:013A8E000037
:023A8F00889815
:023A910033936D
:013A93000032
:013A94000031
:103A950080C0E4F6FFF6E4C08000000001000100EC
:023AA50000001F
:103AA700000000000000000000000000000000000F
:023AB70000000D
:020000040030CA
:0E000000010C1F1EFF8381FF0FC00FE00F4099
:00000001FF
